:040000006F10905D90
:1000040000000000000000006F0080086F00002363
:1000140000000000000000000000000000000000DC
:1000240000000000000000000000000000000000CC
:100034006F004006000000006F00E00500000000B3
:100044006F0080056F0060056F0040056F0020059C
:100054006F0000056F00E0046F000027000000003F
:100064006F0060046F0040046F00505B6F00000479
:100074006F0020246F00C003000000006F006003C5
:100084006F0070636F0020036F0000036F00E002D5
:1000940001A001A001A001A001A001A001A001A054
:1000A40001A001A001A001A001A001A001A001A044
:1000B40001A001A001A001A001A001A0B717004068
:1000C400130770052380E704130780FA2380E704ED
:1000D4002396A70223800704371700408347270588
:1000E400898BEDDF835707053717004083472705C2
:1000F400898BEDFF3717004083472705898BEDDF98
:10010400035507058280B7170040930670052380C6
:10011400D704130780FA2380E70403C6B7041376D1
:10012400F60DA385C70423800704137605022DC6A4
:1001340003C6A700118A0DE22380D7042380E704B5
:1001440003C7A700136747002385E7009307004B05
:1001540001000100FD17EDFFB7170040930670057D
:100164002380D704130780FA2380E7047D8923942E
:10017400A70001000100010001002380070423807F
:10018400D7042380E7049306100537270040A30310
:10019400D780238007048280137605046DDE03C6AE
:1001A400A700418A0DE22380D7042380E70403C714
:1001B400A700136707012385E7009307007D01006B
:1001C4000100FD17EDFFB71700409306700523806B
:1001D400D704130780FA7D892380E7041365050497
:1001E4002394A700010001000100010023800704FB
:1001F4002380D7042380E704930630053727004083
:1002040079B74111814601468145114506C6EF0083
:100214001059B7170040130770052380E70413072C
:1002240080FA2380E70403C7670413671700238356
:10023400E70423800704B2404101828081460146DD
:1002440081451145EF00B055B7170040930670057E
:100254002380D704130780FA2380E7047D5623966E
:10026400C7022380D7042380E70403C76704136706
:1002740017002383E7042380070401A0BD47330547
:10028400F50201007D1575FD8280411122C426C24C
:1002940006C6AA84014463179400B24022449244DF
:1002A4004101828005041305803E4204C13F418020
:1002B400DDB7B7170040130700032388E70285471B
:1002C40023AEF18673002030011122CE26CC4ACA17
:1002D4004EC852C637840040834464008545374580
:1002E400008093F4F40F97F0FFDFE780E07593F755
:1002F4002400E388072E834774001307000393F751
:1003040007036385E70283477400094793F7F703FC
:100314006387E74E6367F70A638807140547638FAB
:10032400E734B787004009472383E7003787004055
:1003340083477700E207E18763DF0776930720FCB2
:100344002301F7021387C18600438349740083475E
:100354006400A209B3E9F9002394318983471400A6
:10036400A383F1888344040093F60406638E06682D
:100374002D47636CF74A254763F8E700FD1793F7A9
:10038400F70F0947636EF770E204E184814663D294
:10039400040283D78188930600043E8763F4F60041
:1003A4001307000442074183998F9376F70F239430
:1003B400F188B78700402380D702130700FC6F0041
:1003C400A06E930610026381D724930620026387EC
:1003D400D74493060002E396D7F483C77188954601
:1003E4006385D7069946639ED7069387818803D48D
:1003F400070013070004BE84637487001304000419
:100404009387C1861389C1888843420483250900E0
:1004140041802286979001E0E780E02583D704009D
:100424009379F40F818F2394F188832709003E94F4
:1004340023A68188B78700402380370303C7270298
:10044400134707042381E702E9BD8347340083C6C9
:10045400818893F70708D58FA301F4002301E402F0
:10046400C9B523000402DDBF834784008347240207
:1004740093F7370F2301F40203C76188058B938731
:1004840061886307071683C7070003C9C1A803C4AB
:10049400D1A893F7E70F2383F188938781A883A9D1
:1004A400070083C4E1A8638C09004E8597F0FFDF41
:1004B400E780A0994E8597F0FFDFE78020EEE38286
:1004C40004E699476381F40663E9970295476383D9
:1004D400F4048547630BF906630909068947630F2A
:1004E400F9069147E3EF87E2179701E013074725E1
:1004F4000A043A941C40BA9782879D47638EF4029B
:10050400A147E398F4FC373700408347370093E76B
:10051400370039A0373700408347370093F7C70FB8
:10052400A301F7007DB7373700408347370093F7BF
:10053400C70F93E71700EDB73737004083473700FD
:1005440093F7C70F93E72700E1BF3737004083478E
:10055400370093F7B70FA301F70061B737370040AF
:100564008347370093E74700FDB737370040834799
:10057400370093F7770FA301F70065B3B73700404F
:1005840003C7370013678700A381E70003C7370059
:100594001377F70CA381E70069B33737004083472B
:1005A400370093E78700A301F7008347370093F7E9
:1005B400F70C93E70701C1B737370040834737008B
:1005C40093E78700A301F7008347370093F7F70CFD
:1005D40093E707024DB7B737004003C737001367E7
:1005E4008700A381E70003C73700136707035DB7DC
:1005F40003C70700098BE30607D283C7070093F7F5
:10060400D70F2383F18831BB8347640293F7C70F65
:1006140093E727002303F40203C731881377F7070E
:10062400A381E18803476402938731881377070421
:1006340005CB03C707001377F70EA381E18883C7AF
:10064400070093F70702E38E07CC83C721892302AF
:10065400F4028347640293F7C70F2303F402D1B172
:1006640003C707001377F70DA381E18883C7070049
:10067400C18BE38807CA83C71189D1BF03477400BC
:1006840013770704E30F07C883466402138731888E
:10069400E206E18663D4060A8347840093F7F70FE2
:1006A4002382F1888346070093E61600A381D1884C
:1006B40089E7972700002387078E83470700A18BCC
:1006C40099E78347070093F7B70FA381F18883471E
:1006D4000700B7860040898BB9EB83C7660293F79E
:1006E400370F2383F60281470347070013860188E7
:1006F40013678700A381E18803C7018885466310D7
:10070400D70A37870040034787009306E002E39A3D
:10071400E6C0138781ACBA9703C707009307000CA0
:10072400E311F7C0930710F82380F188DDBE83C777
:10073400660293F7370F93E7870065B78346840013
:1007440093F6F60FA382D1880346070013662600AA
:10075400A381C18889E6972600002385F684834710
:100764000700A18B99E78347070093E74700A3811C
:10077400F18883470700B7860040858B91EB83C7D8
:10078400660293F7370F2383F60293070004A9BF89
:1007940083C7660293F7370F93E78700EDB70347E4
:1007A400060089451377F70F6314B702B786004034
:1007B40083C68600E317D7B6138781ACBA9703C7FD
:1007C400070093070003E31EF7B4930720F8A9BFBB
:1007D400034706000D46E316E6B437870040034797
:1007E4008700E390E6B4138781ACBA9703C7070088
:1007F4009307F007E317F7B2930730F835B7834749
:10080400740093F70704E38E07B08347840083479B
:10081400A40293F7370F2305F40221B68347A402F9
:1008240093F7C70F93E72700FDB7130710026386FA
:10083400E702130720026383E706130700026391AC
:10084400E72683C7C1A8638A071A0947E39EE7B26C
:1008540083C7618893E727006DA29387418023A60D
:10086400F188A1474E8963F337012149420913599D
:1008740009014A86938541802285979001E0E780AB
:1008840080DF83D78188B38727412394F1889387B6
:10089400C1889C433E9923A62189FDB483C7C1A87E
:1008A400138981A8E39207AE834729001384118832
:1008B400858BC5CB83470400898BD9EF834704001C
:1008C40093E74700A380F1888347040093E78700F8
:1008D400A380F18883470400854593E71700A3802C
:1008E400F1888347040093E72700A380F188056516
:1008F40097F0FFDFE780401583472900898BD5CB2C
:100904008347040093F70702C5E38347040093E792
:100914000704A380F1888347040093E70708A380B2
:10092400F18883470400854593E70701A380F18894
:100934008347040093E70702A380F1880565130544
:10094400058097F0FFDFE78020100345040097F04F
:10095400FFDFE780C09B0DBC8347040093F7B70F0C
:1009640085BF83470400898B9DCB8347040093E7AD
:100974004700A380F1888347040093F7770FA3808F
:10098400F18883470400814593E71700A380F18829
:100994008347040093F7D70FA380F18889BF834767
:1009A400040093F7B70FE1BF8347040093F7F70BF5
:1009B400BDB78347040093F707029DCB8347040028
:1009C40093E70704A380F1888347040093F7F707AC
:1009D400A380F18883470400814593E70701A3803E
:1009E400F1888347040093F7F70DA380F188B9B722
:1009F4008347040093F7F70BE1BF83C7618893E74C
:100A040017002383F18849B2A94663EBF608979649
:100A140001E0938626D48A07B6979C43B6978287CB
:100A240083473400034724008946A207D98F13D78C
:100A340087006301D70A0D466308C70A8547631F09
:100A4400F70A979701E0938767E123A6F1880149A4
:100A5400C947C207C18363F437012394F18893879C
:100A6400818803D607009307000463F4C7001306C4
:100A74000004138AC1889319060183250A0093D9B7
:100A840009014E862285979001E0E780C0BE0326C7
:100A94000A004E9623A6C1889307F00FE316F98E39
:100AA400B78700401307F0FC2381E702B7870040B3
:100AB40009472383E70081453745008097F0FFDF2E
:100AC400E78080F87244E2445249C249324A0561DF
:100AD40073002030979701E0938787D123A6F1888C
:100AE40001499307B006B5B793F7F70F0546638B33
:100AF400C7009DCB6381D7026381E7041309F00F1C
:100B0400814781BF979701E0938787CC23A6F1881B
:100B14000149A9473DBF979701E0938727CC23A6B6
:100B2400F1880149D14735B7979701E09387872723
:100B340023A6F1880149914729BF03C7A1A81799A2
:100B440001E01309E9D2630AC7006306D7046316F8
:100B5400F700179901E0130929D34A85979001E01A
:100B6400E780C0BC1375F50F93071500860723842F
:100B7400F1C48D47A384F1C4938781C40147BE8621
:100B84001376F70F8907636DA60023A6D18883C760
:100B940081C401497DBD179901E0130929CE75BFB0
:100BA4003306E90003460600A380070005072380F7
:100BB400C700F9B7834724002394F1886FF0CFFC72
:100BC40083C721882300F40003D78188854763F411
:100BD400E7002394F18885472385F1886FF0CFFAE5
:100BE400834724002381F1886FF00FFA13F7F4018F
:100BF4008947631BF7F88347440091466382D70C07
:100C040063E0F6026384E7086365F70A0547E3993E
:100C1400E7E8378700408347670293F737071DA04B
:100C2400130720086388E7046362F70213071008B8
:100C3400E398E7E6378700408347670293F7C70BDB
:100C440093E727002303F7026FF00FF4130730082C
:100C54006385E70413074008E394E7E4378700401B
:100C64008347270393F7C70B93E727002309F7026A
:100C74006FF08FF1378700408347A70293F7C70BC4
:100C840093E727002305F7026FF00FF03787004042
:100C94008347A70293F73707F5B7378700408347A1
:100CA400E70293F7C70B93E727002307F7026FF0D8
:100CB400AFED378700408347E70293F73707F5B76F
:100CC400378700408347270393F7370745B713F760
:100CD400F4018947631AF7EA834734008346240002
:100CE400A207D58F639207EA8347540083464400E2
:100CF400A207D58F91466388D70663E2F602638D17
:100D0400E706636DF70805476390E7E83787004017
:100D14008347670293F7370793E7C70025B713079D
:100D240020086384E706636FF70013071008639DC8
:100D3400E7E4378700408347670293F7C70B93E7DD
:100D4400370009B7130730086383E7061307400821
:100D5400639CE7E2378700408347270393F7C70B79
:100D640093E7370021B7378700408347270393F77A
:100D7400370793E7C700DDBD378700408347A702E5
:100D840093F7370793E7C700F5BD378700408347DC
:100D9400A70293F7C70B93E73700EDB537870040F9
:100DA4008347E70293F7370793E7C700FDBD37870B
:100DB40000408347E70293F7C70B93E73700F5B585
:100DC4002300040003D78188854763FFE7DAEDB386
:100DD400230004001C43A380070003D781888947AC
:100DE400EDB793F714008DC3A301040089472301D1
:100DF400F402C9472303F4022305F4022307F4028F
:100E040085472303F40045B993F7440089C7834712
:100E140054009147FDB72303940071B941118545EE
:100E24003705408022C697F0FFDFE780E0C1373402
:100E34000040834744001947BD8B6389E70231476B
:100E4400638AE7041147639CE702014597E0FFDFEB
:100E5400E780807EFD553745008097F0FFDFE7800F
:100E6400A0BE97E0FFDFE780A05611A8FD55372507
:100E7400008097F0FFDFE78020BD83475400814561
:100E84003705408097F0FFDFE78000BC3244410122
:100E94007300203097E0FFDFE7806055FD5537157C
:100EA400008097F0FFDFE78020BA054597E0FFDF79
:100EB400E7808078E9B7411122C68547373400407E
:100EC4002303F4C0054597E0FFDFE780E07683471E
:100ED40024C093F7E70F2301F4C0324441017300A7
:100EE40020302303048015472303E48001002302F8
:100EF400A480828083076480E3CE07FE23030480FA
:100F0400828083076480E3CE07FE034544808280A9
:100F140083076480E3CE07FE2302A480828041110C
:100F240026C44AC24EC006C61377F50BAD47AA893C
:100F34002E8995446306F70019456537653F8D444E
:100F44004E854537FD59FD1463983401B240A244DF
:100F54001249824941018280135509011375F50F25
:100F6400453F2209CDB7011126CC06CEB7040800AF
:100F740051371545BD37713769372AC6A53F324504
:100F84009377150089EB136515001375F50FF2407F
:100F9400E24405618280FD14E9FC0145CDBF39714D
:100FA40026DC4ADA4ED852D656D45AD25ED006DE61
:100FB40062CE66CCB7E700E07D5783AA070022C65D
:100FC40003AA470023A0E71823A2E718B717004095
:100FD400130770052380E704130780FA2380E704CE
:100FE40083C74704930B75FFB684E20793FBFB0F9B
:100FF4008546AA892E8B328937240040E187015720
:1010040063FA76016308D500894613070002631367
:10101400D5000157D98F93F7F70FB71C00402382EF
:10102400FC0411472303E4801305F00F5D3D094CD4
:10103400D13563697C11B70707003E9B37870700EA
:101044007955637EEB02B3079B00636AF702A947F5
:101054006399F90689E48144713D26850DA0DA85FA
:101064000945753D05090345F9FFFD14050B4D358B
:1010740081C49377FB0FFDF7FD3569FD7D55B717E7
:101084000040130770052380E704130780FA2380C8
:10109400E70403C74704418B2382E704F250B7E710
:1010A40000E023A0571123A24711E25432445259BD
:1010B400C259325AA25A125B825B724CE24C2161D1
:1010C4008280A5476395F90685691309F00FB30675
:1010D4009900B3742B01B6941349F9FFB3749900C2
:1010E400856B33796901416B9387F9FFB3F7270166
:1010F40099E363FC340193D94900C147E3E637FF20
:1011040099BF0569C1697D19D9B71305800D638835
:101114006901130500026384790113051008CA8567
:10112400FD3B913521DD4E99B3843441D9B7DA853D
:101134002D45F533CA94E30099F20509D933A30F79
:10114400A9FED5BF9387F9FF93F7F70F636CFC08EB
:1011540003C75C04B70708001377070219E3B787CE
:1011640007007955E37DFBF033079B00E3E9E7F0E3
:1011740089476390F9048980D549E38E04ECDA85C4
:101184000945713B11090327C9FF91472320E480D6
:1011940003076480E34E07FE23033481FD17EDFB50
:1011A400FD14110B81C49377FB0FE9FF6D3B71F5BF
:1011B400F1B58547E387F9F4DA852D458D339389B5
:1011C400F4FFE38A04E8353B93F7390091EB832677
:1011D40004800327090093074900E39FE6E63E895C
:1011E400CE84F1BFB5476396F9001305900BD5394A
:1011F4009DB5B1471305B00AE38BF9FE9947639E89
:10120400F902DA852D45213B81448D4BA149D5391D
:1012140063967401832704802320F9008504E398EE
:1012240034FF8327048013172B016355070023120F
:10123400F90015B52322F90039BD9D476399F902D8
:1012440081451305B004E139BD442320090023225C
:101254000900FD597D3193F77400CA9703C707004D
:10126400FD14398D2380A700E39634FFEDB3A14725
:101274006392F904CD398144630D0B008D479304C7
:10128400C0036308FB009304000563048B0193040B
:1012940040041375C507E30095DC19459931993964
:1012A400054581312685AD3109459D316D39E314FC
:1012B40005DAE9B391476399F9001305600615311E
:1012C40015391305900925B7E38709D8F15469B393
:1012D40009CDB7170040130770052380E7041307EF
:1012E40080FA2380E7042396A702828019C18147EC
:1012F40099E982803387F500834607003307F500B8
:1013040085072300D700E397C7FEE5B719C1FD574A
:1013140081E98280910503A7C5FF1105232EE5FE0F
:101324007D16E319F6FEF5B7797122D4172400006F
:101334001304447D1C4006D626D24AD04ECE91C713
:1013440082979727000023AF077A5C4089CB03D5A7
:10135400418DBD3F5C40829703D5618D953F1C4014
:10136400639907189737000083C7978B858B95C7B8
:1013740097370000A386078A173700000347778A48
:10138400914763FCE7004D2B9737000083C77789AB
:10139400F9178A07A2979C4382979737000083C75F
:1013A400E78C918B89C7971001E0E780E0F21C4439
:1013B40091C382979387018D9843172600000346B3
:1013C40036723E8997240000938484719727000025
:1013D40083C7077193961700BA9683D60600638075
:1013E40006109727000083C7A76F63F2C708860714
:1013F4003E97835507002310070003D5418D2EC661
:10140400239E018CF1359387818E9C431725000020
:101414000345056D13172500BA979C43B24582977F
:10142400AA8903D5618D6D359727000083C7476B63
:10143400139717008327090003D5C18D1345F5FFC2
:10144400BA9703D7070033753501598D2390A70048
:1014540083C70400850793F7F70F172700002301BC
:10146400F768172700000347B76763E6E700972785
:101474000000238707661C40ADEF9387018E9843D5
:101484003E8425CB9727000083C7F77991CB972714
:10149400000083C7177989E7971001E0E7808094FB
:1014A4001C4082972A8431C59C48AA9717270000BC
:1014B4002320F7649387418E9C4385CF03D5418DC8
:1014C400013D228597F0FFDFE780A0662254B250E9
:1014D40092540259F24903D5618D4561D5BB850704
:1014E40093F7F70F97260000238CF65EE3E0C7EE30
:1014F400CDBDB250225492540259F24945618280C2
:101504009167B7C600409387373023A6F6200F10A3
:101514000000972700009387A75C884F9387019E5C
:101524009C43316713073730F053B7071000FD179A
:10153400918F99833A0523A6E6205D8D828041111F
:10154400B7170040985F3AC6945F3247E39CE6FEC3
:10155400324541018280411106C6D53797260000E5
:1015640083C68655858AB1C6930730333307F5029F
:10157400B337F5023983CA07D98F17270000130739
:101584002756584B01456303F7023385E740636BE5
:10159400F70037653D0889C637856F081305059040
:1015A400198D3E95172700002326F754B2404101B8
:1015B4008280E5473307F502B337F5022583DE075A
:1015C40065BF0327C50F8346B5009727000093879F
:1015D400E7649C4F58439386160295829043FD1608
:1015E40093F6F60F10C3D04350C3904710C7D047AB
:1015F40050C7904B10CBD04B50CB904F10CFD04F07
:1016040050CF91C61307070293870702C1BF828098
:101614008347E50193F7E70FF1E72A870345F501CF
:1016240071E1034607018346870009CA8345A7027F
:101634009727000083C7574863E7F50093F706012F
:10164400C5C7814709C6C18A8357071581C6035791
:101654004715BA97D1CB172700001307A767384758
:10166400411122C406C67D548326070863F386000D
:101674003684184375FB172700000347E743931686
:101684008701E18663D906029387C71395831727D9
:10169400000003470743BA9763D006041D8C938761
:1016A400C18E9C4382973335A400B2402244134533
:1016B400150041018280058B9387C71209CB8A07E5
:1016C4009387F7031305D007B3D7A702C9B78607D3
:1016D400FD071305D003CDBFE372F4FC3705C0A8A2
:1016E4002A946DBF014582808280411122C41384F3
:1016F400019D18404AC006C61C5F26C21389C19CBE
:101704009983858BC1C31C5F972400009384045183
:1017140093F7F7F91CDF9727000083C7275093F747
:1017240007048DC39387C18E9C438297972700003B
:1017340023AEA74E83C7040093F7F70B17270000C7
:10174400230EF74C854717270000A30BF74C83C7DC
:10175400440093F7070481EF9387019E9C43D84488
:10176400B8D3930700FC17270000230BF74A83879D
:10177400640063D90700832709009C4317270000EE
:101784002301F74A18401C5F8583858BC9CBF55725
:101794001CDF010001000100010001000100010043
:1017A400010001000100010001000100010001002D
:1017B400010001000100010001000100010001001D
:1017C400010001000100010001000100010001000D
:1017D40001000100010001000100010001000100FD
:1017E40001000100010001000100010001000100ED
:1017F40001000100010001000100010001000100DD
:1018040001000100010001000100010001000100CC
:1018140001009387019E9C4313075004B8CB1840E2
:101824001C5F9183858B89CFBD571CDF9387019EF5
:101834009C4323A807048547172700002302F73E8B
:1018440083270900D8430583058B19C7D843759BA3
:10185400D8C3D843799BD8C3B240224492440249A6
:1018640041018280397106DE16DC1ADA1ED82AD6C6
:101874002ED432D236D03ACE3ECC42CA46C872C6F4
:1018840076C47AC27EC09535F250E2525253C253A6
:101894003255A255125682567247E2475248C24800
:1018A400324EA24E124F824F216173002030938733
:1018B400019E94431727000013074736BC5289CF73
:1018C40083472700858B89EB83473700858BFDD7BA
:1018D400972700002386073482809387C19D9C4309
:1018E40099CB944BD04B9842518F98C294439C47C8
:1018F4009842D98F9CC29387019E9C4337C700406E
:101904001306C003A8CB93062003972500009385F4
:10191400E53083278720C18393F7F7036369F600D3
:1019240083278720C18393F7F70363E6F60083C711
:101934004500858BF9DF82809387019E94431727A6
:1019440000001307A72DBC5289CB83470700858B62
:1019540091CB972700002385072C97270000A381AC
:10196400072C828083471700858BF1DFDDB79387CF
:10197400C19D9C4399CB944BD04B9842518F98C2B4
:1019840094439C479842D98F9CC29387019E944369
:1019940037C70040C145A8CA654683278720C1834D
:1019A40093F7F70363FBF50083278720C18393F73D
:1019B400F7036364F600BC52EDF382801387019D44
:1019C4001843AA87185F1583058B25EF0345150077
:1019D40015051377C51F19C6B386E70083C626000D
:1019E4002300D60095C59726000083C6862393F668
:1019F40006040945A1CAB386E70083C63600054636
:101A040093F5F6066390C504E206E18663CC06020C
:101A14003385E7008347150003470500A20793F7C2
:101A24000770D98F1397070141839376074099C6AE
:101A340013670780239CE19C01458280239CF19CD1
:101A4400E5BF054582809386019E8C4236859726A4
:101A540000009386A61C984593170701C183137849
:101A640017203E86630408041377072079C303C74D
:101A7400260013671700172800002302E81A13072B
:101A84000019B8D1130700F897250000238AE51838
:101A94001387019D0C4337080010D855719B1367B9
:101AA4002700D8D598413367070198C113772610CA
:101AB40005C31376061059CE03C706001367170033
:101AC40017260000230CE61417270000231C071414
:101AD40083C6460093C7F7FFC207E206E186C183C7
:101AE400184163D106029396170163DE060630534C
:101AF4008D4663E9C6008546172600002302D612E8
:101B04003453FDFE972600009386C6F9838646016A
:101B140063DD060093960701C18663DC06047053F7
:101B2400894663E4C6007453FDFE1447F58F1CC751
:101B3400828003C716001367170097250000A38F40
:101B4400E50C17270000230D070C17270000231BA3
:101B5400070CA9BF03C73600136717001726000038
:101B6400A30FE60A95B7854617260000230AD60A6E
:101B740051BF54471396060163510602B70610007D
:101B8400FD1674D397260000938686F5944E850639
:101B9400172600002322D6F649BFA166D58F71B758
:101BA400397106DE16DC1ADA1ED82AD62ED432D2C1
:101BB40036D03ACE3ECC42CA46C872C676C47AC241
:101BC4007EC05135F250E2525253C2533255A2559F
:101BD400125682567247E2475248C248324EA24ECB
:101BE400124F824F21617300203017270000130722
:101BF400A7048346B7019727000083C73707B69722
:101C040093F7F70FFD4663EAF6044C4B9726000062
:101C1400A384F6029727000083C7170205473317EA
:101C2400F70097260000A383F6046D8F1DEF972617
:101C3400000083C6F603B3F6D702130500028147FA
:101C440033D6F500058A13F8F70F09CE6399E60039
:101C540097270000A38207FF828081177DB70507BD
:101C64001377F70F8507E39DA7FC82809387C19EB6
:101C74009843B75702009387279F83260709139633
:101C840056006358060083260709139666006344CA
:101C94000600FD17FDF3828051C9AA870145C9C911
:101CA4008D07C207C183F19BC207C1831307400399
:101CB400636BF702138701A80843138781A71443B2
:101CC4006396A602172700001307C7DD185B0145BA
:101CD40025C34111C20706C60545DD8D0297B240F2
:101CE4000145410182801387C1A7F9B703576500F5
:101CF40005EF035745006369F702B306F740214631
:101D04006370D6021041938687001D8FAA966117CF
:101D140090C22392E6002393060014C12312F50017
:101D24002313B50021058280084159BF01458280F3
:101D3400828001CD938701A803A80700938781A718
:101D44008C430147C28763E3B70082809443636F87
:101D5400F50663EDA60613868700E368C5FE03D582
:101D64006700216605066317C50003C6819805064A
:101D74002384C19823930700638407031386C1A7B0
:101D84001042630FF6000356670019EA83D7470031
:101D940014C383564700B697A1072312F700BA87E6
:101DA4009843E304B7FA9386C1A79442E30FD7F8A4
:101DB40083566700D9FA83D6470003564700184371
:101DC400A106B2962392D70098C382803E87B68735
:041DD4009DBF0000AF
:101DD800974100209381811C176100201301012283
:101DE8001305400097250020938545A1173600204C
:101DF8001306067E63FAC5008322050023A055005A
:101E080011059105E3EAC5FE17B501001305C57D67
:101E1800973500209385C57B1386818663FAC500B4
:101E28008322050023A0550011059105E3EAC5FEAC
:101E38001385818697550020938505746377B500CF
:101E4800232005001105E36DB5FE9302800873A0F9
:101E58000230972200209382629A93E212007390D4
:101E68005230972200009382A2D0739012347300EC
:101E78002030B717004003C777051377E70FA38B08
:101E8800E704130700F8A38DE7043D47238CE70414
:101E980013075003A38CE7048280B717004003D5CB
:101EA80087005D715ED64205418186C6A2C4A6C27E
:101EB800CAC04EDE52DC56DA5AD862D466D26AD02C
:101EC8006ECE9377050C13070008814B6388E718DB
:101ED80013070004639CE714B7240D8F7D8993844E
:101EE8000480B3D4A4029167938707E8BE94A167DE
:101EF800938707D0B3D4F402EFA0B11697B70100C7
:101F08009387C7079043D443EFA0614AEFA0F157E6
:101F18002A8B939C040103D9818693DC0C016315F9
:101F28000900056913090980B717004013077005F0
:101F38002380E704130780FA2380E704371A004058
:101F48000547939D0401096C85662389E704D14AF6
:101F5800814E8145130D0A0413087005130680FA93
:101F6800894893DD0D01130C0C712943FD162300DC
:101F78000D012300CD0023162A0323000D008347FB
:101F88002A05898BEDDF83570A0583472A05898B44
:101F9800EDFF83472A05898BEDDF83570A052394D4
:101FA8002187C207C183338597419319050193D9C6
:101FB8000941638409163387B902635E070C850EED
:101FC800C20E93DE0E0163E8D80D63D9050A330506
:101FD800B04093150501C185C204C18063D7350B94
:101FE8000965130505713385A502B7170040130766
:101FF80070052380E704130780FA2380E7042396FB
:102008007703238007043345950242054181B64092
:10201800264496440649F259625AD25A425BB25B48
:10202800225C925C025DF24D61618280B1E3B7741B
:1020380089097D8993840480B3C4A4029167938736
:1020480007E8BE94A167938707D0B3C4F402EFA052
:10205800510197B701009387E7F26DB597B7010073
:10206800938787F1856403AB07009384843855B55B
:10207800130B0000954471BD3A89D5BDB387FC4068
:102088009399070193D9094181BF09651305057122
:102098003385A9028DBF3385B74163E4FC003385DE
:1020A800FD40330585033344B503634583001315A9
:1020B8000401A9BF4E8536C642C432C2EFA0913092
:1020C800DA85EFA01101EFA0D129931E050193DE57
:1020D8000E41B307D941C207C183056E3E87124638
:1020E800224889482943B24663E3C7013687420735
:1020F8004183631A2701130719006344300113074A
:10210800F9FF42074183FD1A93FAFA0FCA8BCE856D
:10211800E3940AF62394E18659BF0145CDBDB7176C
:10212800004003D587005D7186C642054181A2C47F
:10213800A6C2CAC04EDE52DC56DA5AD85ED662D47F
:1021480066D26AD06ECE02C69377050C13070008D4
:10215800638BE71413070004639FE710B7240D8F00
:102168007D8993840480B3D4A4029167938707E898
:10217800BE94A167938707D0B3D4F402EFA0616E31
:1021880097B70100938787DF9043D443EFA02122BC
:10219800EFA0B12F2A89939A040103DBA18693DA71
:1021A8000A0163150B00056B130B0B80B717004072
:1021B800130770052380E704130780FA2380E704D8
:1021C800939B040105478969056A2389E704D14D72
:1021D800014D814C93DB0B01938909717D1A5A8556
:1021E80097100020E780406D330C5541420C135C7A
:1021F8000C412395618763010C16B3079C0363D1D7
:10220800070E050D420D135D0D01894763EAA70D01
:1022180063DB0C0A33059041931C050193DC0C41E8
:10222800C204C18063D88C0B096513050571338519
:10223800AC02B7170040130770052380E7041307A3
:1022480080FA2380E70432472396E70223800704B5
:102258003345950242054181B640264496440649D5
:10226800F259625AD25A425BB25B225C925C025DBE
:10227800F24D61618280B1E3B77489097D899384E5
:102288000480B3C4A4029167938707E8BE94A1674A
:10229800938707D0B3C4F402EFA0A15C97B70100FD
:1022A800938747CED5B597B701009387E7CC856468
:1022B80003A9070093848438F9BD130900009544E5
:1022C800D9BD3E8B29BF3385AA40131C0501135C79
:1022D8000C41B9B70965130505713305AC028DBF0B
:1022E80063FEAA003305754133053503A947334416
:1022F800750363C8870013150401B1BF3385AB406C
:10230800E5B76285EFA0110CCA85EFA0815CEFA04C
:102318005105131D0501135D0D413307AB414207FC
:1023280041838565BA876363B700D287C207C183D3
:10233800639A670193071B00634480019307FBFFBF
:10234800C207C183FD1D93FDFD0F5AC6E28CE39AB7
:102358000DF62395F18645B70145FDBD41112A8348
:10236800014E930E407E130F0019930F400663EB46
:102378006E0A9308001913034006B3781503854EB7
:102388000D4FA14F337365020D891335150063E5B1
:10239800BE0C1308F6FF79467298420813580801D4
:1023A8003307C70213D61700BE0732976146B3F644
:1023B800C60213068070B386C6023697A166F58FEB
:1023C80042075D8FB717004083C6F70293F60608E9
:1023D800A307D1000346F10083C6F70293F6060867
:1023E800E394C6FE8346F10093F6F60FF1DE9306FA
:1023F80070052380D704930680FA2380D70423AA84
:10240800070383C6170393E60608A388D702D8DB19
:1024180003C7170313670704A388E7022380070489
:10242800410182807D133368E3039308E016630E4D
:1024380008003368F3039308D016630808009378FC
:10244800330093B818009388D81633081E01131E5A
:102458000801135E0E0121BF6393E50305486386F7
:1024680008000148630303002A8871087298FD1563
:10247800131E0801C205135E0E01C18109BF13F8BE
:10248800150063F4BF007908D5B713381800E5BF05
:10249800914763EEB70217B70100130727AF8A0504
:1024A800BA959C41BA978287B717004003A7470B94
:1024B8001345F5FF698F23AAE70A03A7070B698F5E
:1024C80023A8E70A03A7070A798D23A0A70A828011
:1024D800B717004083A6470B1347F5FFF98E23AAC9
:1024E800D70A83A6070B558D23A8A70A83A6070A30
:1024F800758F23A0E70A8280B717004003A7470B10
:10250800498F23AAE70A03A7070B1345F5FF45BF21
:10251800B717004083A6470B1347F5FF758F23AA0B
:10252800E70A03A7070A598D4DB7B717004003A755
:10253800470B498FEDB7914763EEB70217B7010014
:10254800130707A68A05BA959C41BA978287B717D9
:10255800004003A7470D1345F5FF698F23AAE70C31
:1025680003A7070D698F23A8E70C03A7070C798D2C
:1025780023A0A70C8280B717004083A6470D1347F6
:10258800F5FFF98E23AAD70C83A6070D558D23A82E
:10259800A70C83A6070C758F23A0E70C8280B717BA
:1025A800004003A7470D498F23AAE70C03A7070D8F
:1025B8001345F5FF45BFB717004083A6470D1347DE
:1025C800F5FF758F23AAE70C03A7070C598D4DB7A4
:1025D800B717004003A7470D498FEDB7B71700405D
:1025E80003D58700420541819377050491EB9377E2
:1025F800F5013755E801130505803345F50282805A
:102608009377050C130700046397E7009377F501A8
:1026180037459C1CCDB72165130505D08280B7F7D7
:1026280000E0C8439C478280B737004023A6A7C074
:1026380009472380E7C011472380E7C08280411102
:1026480022C406C62A84593F2947B307E502B24087
:102658008D83B3D7870222449507B3D7E70237376C
:102668000040C207C1832316F700410182807165CB
:1026780041111305052006C6D937B737004013079F
:1026880070F82381E7000D47A381E70013070004D2
:10269800A380E70005472387E700B2404101828015
:1026A80037370040834727001A0593F7F703C98F88
:1026B80093F7F70F2301F7008280B737004003C76D
:1026C800170019C9D98DA380B70003C7070013677E
:1026D80087002380E700828093C5F5FFF98DA380EA
:1026E800B7008280411122C406C62A84C53D294705
:1026F800B307E502B2408D83B3D78702224495071A
:10270800B3D7E70237370040C207C1832316F74023
:1027180041018280716541111305052006C6D9372C
:10272800B7370040130770F82381E7400D47A381AE
:10273800E74013070004A380E74005472387E740E5
:10274800B24041018280411106C6EFF00FF5BD4746
:1027580063F4A700EFF06FF4D932BD4763F3A70025
:102768007D3AB24083D5A18603D5818641016F1099
:102778007073411193962500AA852D4506C69720AA
:102788000020E7808001B24001454101828041116B
:1027980026C29394250022C44AC02A843289A68678
:1027A800AA850146254506C697200020E780E0FE59
:1027B800A6864A86A285294597200020E780E0FD65
:1027C800B2402244924402490145410182800111EC
:1027D80022CC06CE3714004026CA4AC84EC652C478
:1027E80083447405034AB405834984050349940561
:1027F800EFF02FE88347A40593F4F40F137AFA0F48
:1028080093E71700230DF40493F9F90F1379F90FDF
:10281800B717004003C7A705058B6DFF03D5C7058C
:10282800A38D4705238C3705A38C2705A38B970415
:10283800F2406244D2444249B249224A0561828048
:1028480041119397050122C406C6C1872E8463DD12
:102858000700EF10E06B19C1EF10E0642165218DCE
:10286800B24022444101828093F7150013C5150038
:10287800E5FB9397250163D00702EF205178E135F6
:1028880037F60200130606E0896503C58187EF1055
:1028980050390965E9B7939715010145E3D207FC5B
:1028A80013060064916503C58187EF1090371165A1
:1028B8007DB71D71494697A501009385A56F17B58A
:1028C80001001305E59486CEA2CCEF10501D11E14E
:1028D80001A037F700E0F9575CC7FD571CCB05642A
:1028E800B7E700E023A087109306701014C3B8431D
:1028F800C146B4C323A08718B8C30100010013065A
:10290800C00381454808EF1070139737002093875C
:10291800E7633ECAED47A301F1029307A010231213
:10292800F102D1472303F102A167938707E03ECE66
:1029380097070000938727E4BEC497070000938792
:1029480047E5BEC685472304F102B5472308F102CF
:10295800970700009387E7CC3EDAB7F5070097079B
:102968000000938707E73EDE8146970700009387BC
:10297800C7DD7000E1051945BEC0231C8100972002
:102988000020E78080E158088147994670003E960C
:102998000346060085070507A30AC700E398D7FE84
:1029A800D24791C70357810185676373F70001A078
:1029B8004808EF10F06411C101A0F6406644256193
:1029C80082804111170500001305C5E706C622C419
:1029D800EF10905F138481872300A4002928034502
:1029E80004002244B24037F60200130606E0896567
:1029F80041016F101023411106C622C493067005C9
:102A0800371400402300D404130780FA2300E40499
:102A18008347F40293F7A70FA307F4022300D40413
:102A28002300E4048347F40293E72700A307F40292
:102A3800193B1305407E2300040481470147814662
:102A480005468545213A2244B240014541016F209F
:102A5800E007B7870040238007022382070223800C
:102A68000700130700FD2386E7003147A386E70028
:102A7800138681A8938681AC23A6C18623A8D18614
:102A8800138781BC420623AAE1864182C2062398A5
:102A9800C700C1824207239AD7004183239CE700DD
:102AA80009472381E70249472383E7022385E70291
:102AB800A3810700130700F8A380E700130790021B
:102AC8002380E700B716004003D7A6011367070C59
:102AD800239DE6007D572383E700130710F8A380A2
:102AE800E7001D472381E700B706400037E700E00D
:102AF8002320D71003C7170013671700A380E70028
:102B08008280937745048DC79307B00F6300F50261
:102B18009307F00F630AF5009307F00B631CF500A9
:102B280085472380F18882808947E5BF8D47D5BFD7
:102B380023800188828093F7150081C713C515008B
:102B4800828093F725008DCF411122C406C62E84BA
:102B5800B735004083C7B5001D47636DF70083C7CD
:102B6800B5002146A1051D8E42064182138541F913
:102B7800EF00F07A13452400B240224441018280DC
:102B880093F74500014581C713C5450082808280BF
:102B9800411106C60547B73700402383E7C0B7870A
:102BA80093039387077033D5A7029307000533056E
:102BB800F5029D3CB240B7E700E0054723A2E710C5
:102BC80041018280B737004009472380E7C0114799
:102BD8002380E7C003C727C0136717002381E7C016
:102BE8008280B737004009472380E7C01147238018
:102BF800E7C003C727C01377E70F2381E7C08280A8
:102C0800411113060020938541D9138541F906C661
:102C1800EF00705FB24013060010938581C81385DA
:102C280081D841016F00305E011106CE2AC6813479
:102C3800324531340D45AD3495450545BD3CF2402E
:102C4800B7E700E03707000423A0E710056182809A
:102C58004111138541F906C6EF00B05D01E9B240A4
:102C680003C5B180894541016F104069B2404101F7
:102C78008280411122C471641305042006C6093FED
:102C880013050420553717050000130505EBEF1051
:102C9800B033B2402244A385A18041018280011152
:102CA80022CC26CA4AC84EC606CE373400409D44B8
:102CB80013893189938901878347B40063E8F40451
:102CC8009737002083C787ADA9EBFD57173700203A
:102CD8002306F7ACA389018883C7318893F7E70FE8
:102CE800A381F188378700408347670293F7370F3E
:102CF8002303F70283C73188898B13873188B1C7CB
:102D08008347070093E74700A381F188F2406244B4
:102D1800D2444249B2490561828003C7318983C7D9
:102D28004188E379F7FA81454145452683A709009B
:102D380003C73189BA9783C707002304F400834780
:102D480009008507A389F18885BF8347070093F7A2
:102D5800770F5DBF011122CC26CA4AC84EC652C49D
:102D680006CE373400409D44054993893189138A3A
:102D780001878347B40063E9F4049737002083C7C9
:102D8800E7A1639B2705FD57173700202308F7A005
:102D9800A389018883C7318893F7D70FA381F18866
:102DA800378700408347670293F7370F2303F702FB
:102DB80083C73188858B13873188B9C78347070054
:102DC80093F7B70FA381F188F2406244D244424995
:102DD800B249224A0561828003C7318983C7518875
:102DE800E378F7FA85454145CD2483270A0003C7D0
:102DF8003189BA9783C707042304F40083C70900FD
:102E08008507A389F188B5B78347070093F7770F3C
:102E180055BF83C73188A18B89CB9387318883C7F6
:102E28000700918B91C33DB79DBD8280797122D4F3
:102E38004AD006D626D24ECE52CC56CA5AC85EC6FC
:102E4800B787004083C767022A891384318893F7BC
:102E58000704638007128347040093F70702B5EB62
:102E6800B7390040938A0187130BE003130AF00374
:102E7800B784004083C7A90093F7F70FBDEF930409
:102E8800000C630D090283470400E207E18763D35E
:102E9800071C814511655D26938701891307000882
:102EA80083C707006391E41AA388F1888347040065
:102EB80093E70701A381F18823880188B25022543F
:102EC80092540259F249624AD24A424BB24B456186
:102ED8008280373700408347A70093F7F70FD9E779
:102EE8008347040093F7F70DA381F1888347040013
:102EF80093F7F707A381F18859B7FD553785008007
:102F0800352E03A70A0083C7018983C689003E9727
:102F1800850793F7F70F2300D70C2388F188E37B05
:102F2800FBF4238801888347040093E70702A38101
:102F3800F18883470400E207E187E3CD07F223899C
:102F480041898347040093E70708A381F1888347F1
:102F5800040093E70704A381F1882382440383C70D
:102F6800640293F7C70F2383F40229B783478700C6
:102F78009DB78347040037370040C18BCDE39304E6
:102F88000008373A0040138B0187930BE003930A3C
:102F9800F003B7890040A5A8FD5537850080792C36
:102FA80003270B0083C7018983468A003E9785075C
:102FB800269793F7F70F2300D7002388F18863F843
:102FC800FB0423880188834704009304000C93E7DB
:102FD8000701A381F18883470400E207E18763C8FA
:102FE8000702A38851898347040093F7F70BA3814D
:102FF800F1888347040093E70708A381F1882382B7
:10300800590383C7690293F7C70F2383F9028347DC
:10301800AA0093F7F70FC9F3ADB583478700834735
:10302800A70093F7F70FF5FB834704009304000804
:1030380093F7F70EA381F1888347040093F7F70706
:10304800A381F1883DBD2389F1888347040093E774
:1030580007028DB585451165D5228347040093E79E
:103068000708A381F1881307000883C70189639DB6
:10307800E402A388F188378700402302F7028347D8
:10308800040093E70701A381F1888347040093F7BD
:10309800F70BA381F188378700408347670293F7CE
:1030A800C70F2303F70209BD2389F188378700403A
:1030B8002302F7028347040093E70702A381F188FC
:1030C8008347040093E70704E9B7634F050289CDF6
:1030D80085476383F502FD576399F5063717004066
:1030E8008327870A3D8D31A8371700408327C70AF1
:1030F8005D8D2326A70A8280371700408327870A19
:103108005D8D2324A70A82800605058199CD854710
:103118006385F502FD57639AF50237170040832748
:10312800870C3D8D2324A70C828037170040832706
:10313800C70C5D8D2326A70C828037170040832794
:10314800870C5D8D2324A70C828009458280B717E0
:1031580000406348050003A7470A798D3335A0006E
:10316800828083A7470C7D8D06050581C5BF411167
:1031780022C4371400408327840C3787008006C692
:1031880026C2D98F2324F40C8327840C3727008088
:103198008D45D98F2324F40C8327840C374700806E
:1031A80037850080D98F2324F40CEFF0CFB88D45F4
:1031B80037250080EFF02FB88D4537450080EFF0B8
:1031C8008FB78327840CB704008013850408C98F40
:1031D8002324F40C8D45EFF00FB6138504018545C3
:1031E800EFF06FB58327C40A09678D45D98F232669
:1031F800F40A8327C40A05670965D98F2326F40AC8
:10320800EFF00FA98D450565EFF08FA885453705C7
:103218004080EFF04FB2854513050020EFF04FA72F
:103228008327C40AB240924493E707012326F40A8D
:1032380022448D45414541016FF08FA58280B7E753
:1032480000E0130700FB238DE740930600FCA38AE8
:10325800D740930600FD238AD740238BE74082801E
:10326800828083D741896398A700239BB188239CD8
:10327800C188239DD1888280411122C406C683C794
:1032880085002144C18B95EF03C805008947014497
:103298006319F802D8418347170003470700A207BC
:1032A800D98FC2070D67C18713072790639BE70073
:1032B800CC45328523900601094697200020E780F7
:1032C800A0822285B2402244410182804167791759
:1032D800630CE502411122C406C685472A84639A15
:1032E800F50022852244B240938501FA41016F70AE
:1032F800603A89476396F5008545EF90A06375D1DC
:10330800B24022444101828082800111C16706CE09
:1033180013874189F9171CC31306F1008547232237
:103328000700854513055030A307F100EF60317F92
:10333800F2400561828018418D476314F702835774
:1033480085004C4101111306E100174500201305C3
:10335800A5D006CE2317F100EF00C06EF24005613C
:10336800828082808D476308F50091476301F502EA
:1033780089476313F50603C725009947631EF704B9
:1033880003D7450083D741896318F704BDBF03C736
:10339800250095476312F704C16703D74189F917D8
:1033A80003D5A5006304F7006F70E11D239AA18877
:1033B80083D7E500096613060690239BF18883D717
:1033C800050103C5C180239CF18883D72501A14548
:1033D800239DF1886F10E0048280011106CE854795
:1033E8006308F60089476308F600F24005618280A9
:1033F8002E859137DDBF98418D47E318F7FE83D7B7
:103408008500CC411306E10017450020130545E669
:103418002317F100EF000063C9BF79714AD006D6BF
:1034280022D426D24ECE52CC83C78500214993F7A9
:103438000702C1EF03C8050089472E8401496316B6
:10344800F80803A845002A8AB2848347180003486D
:103458000800B689A207B3E70701C2070D68C1874C
:1034680013082890639307038547EF50E05A2A8989
:1034780009ED83C7140003C704004800A207D98FC9
:10348800B337F00085073EC27D350357A400972760
:10349800002083D7071A6319F7008D4748003EC2FA
:1034A8002316310126C4413D0357A4009727002065
:1034B80083D7271B631BF7008D4709464C005285AD
:1034C8003EC22316310126C4093FB25022544A8510
:1034D80092540259F249624A4561828041119385AA
:1034E80001FA06C6EF50004EB2407D15133515009F
:1034F80041018280011122CC2E84938501FA26CACB
:1035080006CEAA8432C6EF50E04B058929C132465F
:103518008547630EF60089476304F602A285624474
:10352800F2402685D244014605616F6080259727C1
:1035380000209387670D83D7A7022310F400F9BFF3
:10354800972700209387470C83D7A705FDB7F2403C
:103558006244D2444945056182804111939705012F
:1035680022C406C626C24AC0C1872E8463D1070278
:1035780003C5C180EF00D01919C1EF00D012216531
:10358800218DB2402244924402494101828093F73E
:10359800150091CF17260020130686039385818A8C
:1035A80003C5C180EF60D12A13451400D9BF93F732
:1035B800850099CF83C7C1801307400681465146CD
:1035C800A14503D54189EF6011221345840055BFF9
:1035D80093F705010145D5D7938701819C4385441D
:1035E8006389970081C70D496375F916134504016E
:1035F80049BF9386C189984236896306F70E894781
:10360800E316F7FE03D54189D13D03D7418919E96E
:10361800C167F91717450020130585C5E318F7FC9E
:103628003121E9B73A85EF10B05D7515239EA18A5F
:10363800174500201305C5C3752E83D7C18B636258
:10364800F5081386C18B97450020938525C3174538
:1036580000201305E5C185211375F50F23A0018C02
:1036680051F503D6C18B01478146ED4503D5418904
:10367800239BC18AEF40506F23ACA18A63020512D5
:1036880003D6618B97450020938545BF971000208E
:10369800E7808045032609009385418B03D541893E
:1036A800913D55C18D4723A8F180ED451385418B88
:1036B800EF5060030946C14503C5C180EF0070564D
:1036C80035B79387018C94432947BE84E36BD7F6BB
:1036D8001146C14503C5C180EF00B0549C40850721
:1036E80023A0F18C21B703D54189CD3B03D741896C
:1036F80011E9C167F917E31BF7EE17450020130519
:10370800A59539BF3A85EF10B04F7515239EA18A4C
:103718001745002013054594F12C83D7C18B636DA1
:10372800F5001386C18B97450020938525B517456D
:1037380000201305659205B79384018C9840A9472A
:10374800E3E1E7FE71B7854723A8F180239E018A4C
:1037580095B703D6C18B01478146ED4503D541890D
:10376800239BC18AEF40506023ACA18A15C903D6B8
:10377800618B97450020938565B097100020E780FE
:10378800A0369387C18990439385418B03D541899E
:10379800953301C523A8218109BF23A891807DB74E
:1037A800894723A8F18039B741654111938501FA0A
:1037B8007D1506C6EF60106E17050000130545B1AC
:1037C800EF90C00EB240972600209386E6EA414665
:1037D8009D4517250020130525E341016F60D05F43
:1037E800011117050000130585D706CEEF00D07D1F
:1037F8002386A1808547A301F100B7F50700994703
:103808002312F10081469307803E3000E1051945F7
:103818002313F10097100020E78020F817270020D5
:103828001307C7DB8147994630003E9603460600DA
:1038380085070507A302C700E398D7FE13063100E2
:10384800854513055030EF60912D1726002013068B
:1038580066E3C54513057030EF60712C172600200C
:103868001306C6D7CD4513056030EF60512B5000C5
:10387800894513051031EF60912A130661008945C7
:1038880013052031EF60B12917260020130646D60C
:10389800D5450145EF40D0089305000A0D45EF20B6
:1038A80090519305000A1145EF20F05085473000EC
:1038B8009145130570402301F100A301F100230293
:1038C800F10002C423030100EF50B12113062100C7
:1038D800854513050040EF50D1201306310085457A
:1038E80013051040EF50F11F1306610085451305BD
:1038F8002040EF50111F5000854513055040EF50F0
:10390800511E5D357D55EF40900F7D55EF60705528
:10391800C167F9171385018A23AAF18823AC0188A6
:10392800EF40217B854503C5C180EF00301DF24083
:10393800056182804111174500201305659306C66D
:10394800CD2811E989470946C14503C5C18023AE81
:10395800F188EF00102D173500201305E56FD128E9
:1039680001EDB240854723AEF18803C5C180094601
:10397800C14541016F00F02AB240410182804111E6
:1039880013060010973500209385857E1745002083
:103998001305058E06C685281306001097350020E6
:1039A8009385456C173500201305C57BA928130698
:1039B80000089735002093852562173500201305E8
:1039C800A5699120B2401306000897350020938519
:1039D800E557173500201305655F41012DA04111FA
:1039E80006C6EFE01FEDEFE0DFFDEF60113CB240EF
:1039F8004101FDB383572500035505003385A740D2
:103A0800420541818280AA8705C21307F6FFB37673
:103A1800C700054599EA23A00700CCC32394C70033
:103A28002395E70001458280054582802320050013
:103A3800828083570500035525003385A740133539
:103A480015008280AA871145B5C72DC683D6070001
:103A580003D787000D45369783D62700158F420771
:103A6800418329CB0145B9C5835606006373D70046
:103A7800BA86C206C18201471315070141816366F0
:103A8800D5002310D600014582803385E5008348A0
:103A9800050003D8A70003D52700050733780501DB
:103AA800C84342952300150103D527000505239136
:103AB800A700D9B78280AA871145ADC325C283D68E
:103AC800070003D72700158F835606004207418356
:103AD8006373D700BA86C206C182094521C301476C
:103AE8001315070141816366D5002310D6000145EF
:103AF800828003D5070003D8A70033780501C8439F
:103B08004295034805003385E500050723000501B4
:103B180003D5070005052390A700D9B7828029C5DA
:103B28000357050083572500998F3E87C207C18335
:103B38006373F600328742074183814763E4E700F5
:103B480001458280835605000356A5008507758EBA
:103B58005441B29683C606002380D50083560500DB
:103B680085062310D500D9BF114582804111130560
:103B7800800406C697000020E780A0D8EFF02FDF6A
:103B8800EFF0EFEB1305200397000020E780A0EF8C
:103B980085450565EFF06FD305249135EFE07FEBA0
:103BA800EFF02F8D892C371700408327870A1305DC
:103BB80000208D4593E707202324F70AEFE05F8D67
:103BC800EFE05FB53715070013050580EFE09FB1FB
:103BD800E52A97100020E780E0F4EFF06F87993B23
:103BE800EFF02FA3A924EDB7411122C406C693F71D
:103BF80015002E8481CF13050040FD55EFF00FE42A
:103C080013451400B24022444101828093F72500F5
:103C1800B1CBB717004003A7870CB78600808D4546
:103C2800558F23A4E70C03A7870CB7260080378598
:103C38000080558F23A4E70C03A7C70CB746008064
:103C4800558F23A6E70CEFE01F8F8D4537250080A1
:103C5800EFE07F8E374500808D45EFE0DF8D13451F
:103C680024004DB793F74500B1CBB717004003A721
:103C7800C70CB78600808D45558F23A6E70C03A790
:103C8800C70CB726008037850080558F23A6E70C20
:103C980003A7C70CB7460080558F23A6E70CEFE0B3
:103CA8009F898D4537250080EFE0FF8837450080E4
:103CB8008D45EFE05F8813454400A9B793F7850069
:103CC80095C3371700408327870CB74600803745D0
:103CD8000080D58F2324F70C8D45EFE0DF85134551
:103CE80084000DB793F705019DC737170040832758
:103CF800870CB78600808D45D58F2324F70C378530
:103D08000080EFE05F83372500808145EFE0BF82C8
:103D180013450401C5BD93F7050295C737054080D3
:103D2800EFF0EFC2938781819C43630BF50023ACCE
:103D3800A180814511C1854537450080EFF0EFB876
:103D480013450402C1B593F7050495C71305002070
:103D5800EFF0EFBF9387C1819C43630BF50023AE5F
:103D6800A180814511C1854537850080EFF0EFB509
:103D78001345040441BD93F705080145E38407E8AA
:103D880037250080EFF0AFBC938701829C43630A1C
:103D9800F50023A0A182814511C185450965EFF091
:103DA800CFB213450408B9BD21469385418C173518
:103DB80000201305E54D81B9411106C6F537C13616
:103DC800B24041016FE0DFE3011122CC06CE173487
:103DD80000201304E44B173500201305654B913977
:103DE80009C5F24062440561828005469305F100E9
:103DF80022853533CDB7411117050000130505DFBE
:103E080006C622C4EF00501C138441815146930515
:103E180000022300A400EF0080740345040022443C
:103E2800B24051469305000841016F00407383C7B3
:103E38000188E207E18763D807049387018883C76D
:103E4800070013071008631DF7024111FD551305FC
:103E5800004006C6EFF08FBE0146914503C541817B
:103E6800C9232946A14503C54181652B5146C14552
:103E780003C541817D23B2402380018841018280AE
:103E8800238001888280828023AC05FE1C4191E753
:103E9800010001000CC18280BA8703A787FF6DFF6C
:103EA80023ACB7FE82801DC18346E5FF1307F00FE0
:103EB8009147639EE600411106C697100020E780EF
:103EC8000067B24081473E854101828095473E8523
:103ED800828001E9014582800145B24022444101C6
:103EE8008280411122C42A84210542059305D00409
:103EF800418106C697100020E780C05971DDFD5743
:103F080023200500231285002303F5002105F1B7BE
:103F18001387C18C1C43411122C426C24AC006C65D
:103F280001440149BA8489E7A16595250DC401A812
:103F380003C7E7FF6318A7021DC8A165C1269840FB
:103F4800832784FF6317E40223A6F18CFD57232CF3
:103F580004FE230FF4FE2285B24022449244024913
:103F68004101828011E03E8983A787FF6DBF3E84AF
:103F7800E5BF232CF9FED9BFA9C9411122C406C641
:103F88002A849737002083C737352E856368F40065
:103F9800193F0D45B24022444101828083A785FF25
:103FA80099E703C7E5FF9307F00F6305F700E53DC1
:103FB8001545CDB7238F85FE1385C18CF135228534
:103FC8002244B240A165410115AE1545828023A661
:103FD800018C82809387418E9C4399E33E85828041
:103FE80003D727006316B70003C70700E308A7FE37
:103FF800DC47E5B74111939705014AC006C622C4BC
:1040080026C2C1872E8963DE0700193711C1613DB9
:1040180021653345A900B240224492440249410136
:104028008280AA860145E5D901443D47B3578940B6
:10403800858B95CB9387818D8443BD4791E28147DA
:10404800A2978E070545BE94331585001314050104
:104058009C40C8404180829723A0040023A204000A
:10406800334524014DBF0504E312E4FC0144CDBFF0
:1040780097370020938787229C53411122C406C694
:104088001384418295C7829723A2A1820840B7472B
:1040980003009387D73F3305F502B7A72600938718
:1040A80037ECB24022443E9523A2A182410182808E
:1040B800973700209387472218409C4BBA9723A232
:1040C800F182E9B79387018D90439736002083C624
:1040D800B620814713F7F70F6360D70A1737002018
:1040E8000347B733914763E0E70A9737002083C750
:1040F8006737918BC9EB0111680006CE22CC26CA1E
:10410800EFC0404AFD56630FD50C32479737002061
:1041180083C7F71963F3E70C173700201307C71B8A
:104128004047173700200347A7186305D406058BB7
:1041380021CF51473304E40263F1870A9710002026
:10414800E780A0BFB2476373F400A2871737002047
:104158000347F715998F3E959737002093870714E3
:104168008387470163CD0702B707C0A86369F502D3
:10417800B70740573E9525A0850713971700329734
:104188000357E7FF21DB8280130790023304E40220
:1041980005805DB762076187635707001D8D19E9C0
:1041A8003705C0A801A8E37BF5FE3707C0A8B30709
:1041B800F7403E95973700209387470EDC53829748
:1041C80009ED973700209387E7249C4F99C7EF1094
:1041D800211EEF10A176EF100112F2406244D24482
:1041E80005618280973700209387070FDC47E386B5
:1041F800A7FE173700201307670A83464701BA84CA
:10420800858A9DC65144338487029737002083C727
:10421800170AE3F487FC97100020E78000B297376D
:10422800002083C7D7081D8C2295838744011DBFB2
:1042380013049002338487020580C1BF2A9609E5DA
:1042480082800505A30FB5FEE31DC5FED5BF8147D6
:104258003307F5000307070019E33E8582808507C9
:10426800C5BF01112E8626CAAA8413150601930517
:10427800F004418122CC06CE32C697100020E78098
:1042880060212A8419C53246A68597100020E78048
:10429800A0852285F2406244D2440561828081472C
:1042A8006314F600054582803307F5008507B38659
:1042B800F5000347070083C6F6FFE383E6FE0145E2
:1042C80082809307F6FFBE952A966313C500828005
:1042D800FD1583C715000505A30FF5FEFDB781473A
:1042E80011E9014582803307F50003470700E31A07
:1042F800B7FE8507E319F6FE05458280973700204B
:1043080083C797FD637FF5001387018D9317150009
:1043180008433E9583570500DD8D2310B500014500
:1043280082800D458280FD57011117370020232B0D
:10433800F7FA9387418E22CC80434EC697390020E6
:104348009389C9F526CA4AC852C456C206CE5AC06D
:104358002A8981444E8A973A0020938AEAF71844BA
:1043680081476374E900B307274103A749021CC4C6
:1043780009CB03A7CA0063F6E700173700202323F9
:10438800F7F6A1E7835524009DE95C44A1E823A240
:10439800F18E032BC400228597100020E780201996
:1043A8005A8455FC83274A0285CF6244F240D2449E
:1043B8004249B249224A924A024B056121B3034558
:1043C80004002D3F5C4081CB1CC483572400D5DFFB
:1043D800A2844044F9B71C44CDDBC5BFDCC455BF3B
:1043E800F2406244D2444249B249224A924A024BBC
:1043F800056182809737002083C717EE6371F50245
:104408001387018D93171500084393C5F5FF3E9553
:1044180083570500FD8D2310B500014582800D45A9
:1044280082809737002083C737EB6364F500014526
:104438008280411122C426C24AC006C62A842E8917
:10444800B284EFF03FB901C504C505452DA09365B9
:1044580004F0C205C181414597100020E780800320
:104468000DE197370020938767E39C5B81C7A2859E
:10447800114582970145B2402244924402494101C4
:1044880082809387418E9C438DE323A2A18E85472A
:104498002326050004C52311250123008500A30058
:1044A800F5002322050055B7BA87D84775FFC8C756
:1044B800F9BF45C539715AD0138B818D22DC26DAB4
:1044C8004AD84ED652D45ECE66CA6AC86EC606DED2
:1044D80056D262CC3689328AAE89AA8401445A8D72
:1044E800B94D854BF94C03270B00131C3400937A04
:1044F800F40F62971C43A9EF13B5FA001345150092
:10450800B3978B0063F65D01930714FFB397FB0025
:1045180093950701C181528629371DC983270D004C
:104528000145E29784C323A23701630409002300ED
:104538005901F2506254D2544259B259225A925AED
:10454800025BF24B624CD24C424DB24D21618280EB
:104558000504E31A94F92145E9BF09458280411110
:1045680022C426C24AC006C6AA842E893284553D72
:10457800CA852685EFF01FA609C940C10145B2408A
:10458800224492440249410182802145CDBF411114
:1045980022C426C24AC006C6AA842E89EFF09FA369
:1045A8002A8419C1231105009737002083C7C7D271
:1045B80063949700239E218DCA852685253D014554
:1045C80011E01945B24022449244024941018280D7
:1045D8007547636BA7041387818D1443411126C265
:1045E80093143500A696944222C406C6AA873A8434
:1045F800094595C613B5F700394713451500637388
:10460800F700C5178545B395F500C205C181413747
:104618001C400145A69723A0070023A20700B2402B
:10462800224492444101828009458280411106C694
:10463800EFF05F9A09C50845B24041018280014503
:10464800E5BFF54763EDA7049387818D9C43131756
:104658003500BA979843894721C7011126CA06CE63
:104668009334F50022CCB94793C4140063F3A70030
:10467800451505443314A400420441802EC62685FE
:10468800A2856D378947324609C5A2852685513BE3
:104698008147F2406244D2443E8505618280894761
:1046A8003E858280239AA18C239BB18C8280411104
:1046B80006C623A0A18E0295B2409737002023A7F3
:1046C800A7C2014541018280994763E9B7008A057D
:1046D80097370020938787C2BE9588C18280411191
:1046E80006C6EF50917371468145173500201305B2
:1046F800E5C0EFF0BFB4130640028145173500202E
:10470800130585BDEFF09FB323A2018E23A0018E70
:104718009737002083C747BA13D527008D8B3E955E
:104728008D473305F5029305101035051375F50F00
:10473800973700202383A7BA99473305F502130555
:10474800050F97100020E780E0D423ACA18C35C971
:10475800994717360020034646B83306F6028145C6
:104768001306060FEFF09FAD9387818D9C439387C7
:10477800070F23A4F18E17370020034707B60A074F
:10478800BA9723A8F18CEFF09F8445269387818EF2
:1047980098439737002083C737B493962700BA9673
:1047A800170600001306468590C2938627008507E2
:1047B80093F7F70F8A0797350020A38FD5B0BA97DC
:1047C80090C3B240410182809737002083C7D7B099
:1047D80017370020034767B063F1E7021387818E1C
:1047E80018439386170017360020A307D6AE939672
:1047F8002700369708C33E8582809307F00FE5BFF0
:104808001C41638E071841777D8FB70600208947C2
:104818006318D7180357450063040718411122C4C9
:1048280019462A849305F00F590506C6EFF03FABE9
:1048380005478D476300E5161C4481CB58589947B6
:10484800630A0714185C630707141306C00381453D
:1048580017350020130585A4EFF05F9E1306C003EB
:10486800A28517350020130565A397000020E7806F
:10487800A0279737002083D727A397360020938651
:10488800E6A199E79307001017370020231EF7A029
:104898009737002083C767A191E78547173700201E
:1048A8002305F7A09737002083C737A091E7ED4786
:1048B80017370020A30BF79E9737002083C7079F61
:1048C80091E79547173700202302F79E9737002076
:1048D80083C7D79D91E7854717370020A308F79C22
:1048E8009737002083C7D79C99E783C706011737F6
:1048F8000020A30FF79A9737002083C7479B91E7BB
:10490800D147173700202304F79A9737002083C729
:10491800C79A95E717370020034787991316870129
:1049280061869307C002634806009377170093B720
:1049380017009387D702173700202300F798973777
:10494800002083C7D79695E7173700200347479677
:104958001316870161869307C002634806009377A0
:10496800170093B717009387D70217370020A300C3
:10497800F7948347D40191E7894717370020A30D9F
:10498800F7929C5691C78297973700202399A7944E
:10499800B9338147B24022443E854101828089472C
:1049A8003E858280011122CC06CE2A842EC6EFF0E5
:1049B8002FECB245F240818D33A5A50222956244C1
:1049C8001375F50F05618280011122CC06CE2A8469
:1049D8002EC6EFF0EFE9B245F240818D33A5A5026E
:1049E800229562444205418105618280011122CCF1
:1049F80006CE2A842EC6EFF0AFE7B245F240818D8D
:104A080033B5A5022295624405618280973700205C
:104A18009387C788985725C3411122C426C206C662
:104A2800BE840297173700200357678B2A8441C733
:104A3800BA876373A700AA87C207C183BA8663735C
:104A4800E400A286C206C182958F51476355F706D6
:104A5800DC5491C382978547173700202300F79CC1
:104A6800EF00F15997370020239B8786B2402244F4
:104A78009244410182809737002083C7279A9DE797
:104A8800973700209387079983C79700850793F77F
:104A9800F70F17370020A303F798A18B9DC7854709
:104AA80017370020231CF7966F00515B97370020BB
:104AB800A3860796D5BF9737002083C72796DDD7EB
:104AC8002244B24092444101C5B782809727002012
:104AD8009387C77CD857011122CC06CE3E8401C7E4
:104AE8002AC60297324511CD23A6A18E17050020AC
:104AF80013052526EFF0BFBBF2406244014505616E
:104B080082808307440163DD07009727002023A1E3
:104B1800077E970700209387671E23A6F18EF9B7B3
:104B28009707002093876721CDBF011122CC172456
:104B380000201304A476084406CE26CA4AC801E910
:104B48000545F2406244D2444249056182805C587E
:104B5800E5DB185C75D77000854582971844B24725
:104B6800E300F7FE9305E004172500200355C573FD
:104B780097100020E780009217270020232CA776A3
:104B880061D117260020035626729305F00FEFF027
:104B9800EFEA814417290020130909749727002098
:104BA80083C7A7700326C90163C1F4023285971031
:104BB8000020E780C09701459727002023AC0772A3
:104BC8009727002023AA0772ADBF9725002083D519
:104BD800A56DB38795020844185C898185043E95C4
:104BE80008C2029765BF411122C41724002013048C
:104BF800E46A1C4426C206C64AC09724002093844F
:104C0800A46D91EBC84C35E9B24022449244024964
:104C18000145410182801C5CF5D7DC4C99EF930576
:104C2800E004172500200355256897100020E78029
:104C380060869727002023AFA76AC84C61D517263E
:104C48000020035666669305F00FEFF02FDF014949
:104C58009727002083C76765D04CE355F9FA972555
:104C6800002083D56564338525031C4489810509A3
:104C78003E951C5C08C28297E1BF97100020E78030
:104C8800008B9727002023A707669727002023A5D6
:104C980007669DBF011156C2972A0020938A0A60B1
:104CA80083A78A0022CC4AC84EC606CE26CA52C45A
:104CB8005AC0AA892E8432896385072203A74A032A
:104CC800630707147D476366A7149724002093841D
:104CD800A46003AAC40163170A0A9565938515E0C1
:104CE800172500200355455C97000020E780807A4F
:104CF8009727002023A0A7602A86630A051083A7A8
:104D08004A0303A58A009725002083D5E5598981A0
:104D1800829783A78A0003AAC40117270020232D9E
:104D2800F75C8947639CF908C1476312F40E97251D
:104D3800002083D56557938505FC9147B3C5F502D7
:104D48008A05D29503C705009307A005631DF70AD6
:104D580083C715006399370B4A852286910597000A
:104D68000020E78060D8DC4C5285639347150145E5
:104D7800F2406244D2444249B249224A924A024B22
:104D8800056182809850E38EE7F89565938525E064
:104D9800172500200355455197000020E780806FB4
:104DA8002A8A35C52A8683A74A0303A58A00972538
:104DB800002083D5654F89818297A5B78D47639D6C
:104DC800F900C1476315F4049725002083D5C54D24
:104DD800938545FDF199B5B79147639AF900631832
:104DE80034039725002083D5254CA115E5B7C14785
:104DF800639FF900A14763EC87009725002083D5BE
:104E0800A54AC115C1BFDC4C52856397470D29459A
:104E180085B71307F006568B6361A70A130A05FEC8
:104E28001947334AEA02172700200357E747972A0A
:104E38000020938A6A4A330AEA023E9A83A70A0242
:104E48006395470183A4CA019DE49305E0041725EF
:104E580000200355654597000020E780A063AA84D9
:104E68005DD583274B039725002083D5E5432A8604
:104E780089815285829791451307A0058981939767
:104E88002500A69783C607006393E60483C6170028
:104E9800639C360385058A052286A6954A85970070
:104EA8000020E78060C483A7CA01E38297EC2685C7
:104EB80097000020E780A0675DBD1307E007E3685F
:104EC800A7F4130A05F985B783D5270045BF83A73B
:104ED800CA01E38E97F2268597000020E7802065B7
:104EE8003DB7972700209387273FCC4F8DD1914717
:104EF8009306A0058983139727002E97034607007A
:104F0800E317D6F003461700631C360185078A07A6
:104F18002286BE954A8597000020E780E0BC81BDC7
:104F280083572700C1BF97270020938727379847C3
:104F380039C79C5FA9C705476313E504411122C41B
:104F48001724002013044439504C06C60DC60850D7
:104F58009725002083D5453589818297484C97004D
:104F68000020E780C05C9727002023A507389727F3
:104F7800002023A30738B240224441018280828066
:104F8800011117270020130767314EC683298700B0
:104F980022CC26CA4AC806CE52C456C2AA842E8437
:104FA8003289638A09201C5FBA8A99EB2945F24045
:104FB8006244D2444249B249224A924A05618280F7
:104FC8005C5BEDD7FD4763E9A70E9729002093891D
:104FD800A93083A7C901B1CB03A58A0083A7090219
:104FE8006395A70689476393F408C147E310F4FC67
:104FF800172500200355452B9147130505FC33451C
:10500800F5029317250003A5C9012286CA853E9596
:105018009307A0052300F500A3009500110597004C
:105028000020E78060AC014559B79305E0041725D7
:1050380000200355652797000020E780A0459727A3
:10504800002023A9A72A49F995B783A74A0303A6ED
:10505800C9019725002083D525258981829783A7B3
:105068008A00172700202329F728ADBF8D47639EA4
:10507800F400C147E31CF4F2172500200355C522AC
:10508800130545FD9377C5FFBDBF9147639AF400AB
:10509800E31E94F017250020035505212115DDB7DF
:1050A800C147E395F4F0A147E3E287F01725002014
:1050B8000355851F4115F9B79307F00663EAA7065C
:1050C800930705FE1947B3C7E702172700200357C0
:1050D800A71D172A0020130A2A20B387E702BE99C2
:1050E8008327CA01A9CF83270A02639A37070325B2
:1050F800CA0191461308A005FD5593D72600C2079B
:10510800C183139727002A9703460700631D0607E4
:10511800834817000356270063959806B306D640C0
:1051280063CF860485078A072286CA853E95C5BD52
:105138009307E007E3ECA7E6930705F979B793052A
:10514800E004172500200355251697000020E78066
:1051580060349727002023AFA71851F581BD83A796
:105168004A030326CA019725002083D5E5138981C0
:105178004E8582979727002023A037198DBFA3005B
:10518800B700B2869DBFB385860017260020035658
:10519800A6119105130606FCE3FAC5E013063400D0
:1051A8001376C60F1106B29623000701A3009700D5
:1051B8002311D70085BF972700209387E711D44F85
:1051C800BE89A1C203A5C90191461308A005FD55D2
:1051D80093D72600C207C183139727002A9703464F
:1051E80007006316060583481700035627006398CF
:1051F8009800B306D640E3D786F2A300B700B2867C
:10520800C1BF8357C700172500200345050A93052A
:10521800E0043305F5024205418197000020E7804C
:1052280060279727002023A7A70C49FD41B317261D
:105238000020035666079725002083C50507B38518
:10524800C502338686001106E3E2C5D681BF014553
:10525800828083C705002300F50083D72500A300BB
:10526800F50083D72500A1832301F50083C74500F6
:10527800A301F5001145828023AA018E23A8018E7F
:10528800828029C1411126C206C622C4AA840145CA
:105298008DC52E842285414697850100938545DF7B
:1052A80097000020E780408483C704000545230653
:1052B800F40083C71400A306F400B24022449244C9
:1052C8004101828001458280011122CC26CA06CE86
:1052D8000947AA8432846381E50441468147639B78
:1052E800C500638FE6006397B6000DA84147814764
:1052F800638EE600F2406244D2443E8505618280B6
:105308008A852285BD3F41468A8519A88A85953FA9
:1053180041468A85228531A0E39AB6FC2E86A2856D
:105328002685EFE0DFF7AA87F1B723AAA18E82804E
:10533800011122CC0354650006CE26CA4AC84EC6BF
:1053480041C083298500AE842A8803C909008147A2
:1053580013178901618763550702B147054563FA49
:10536800870451144204035528004180338789007B
:10537800A2864E868545EF90D05EB337A00085079C
:105388007D1413556900420405891379F903418096
:105398002380F400A380A4002381240123928400A5
:1053A800014719C01387190098C409476383E700A8
:1053B8000145F2406244D2444249B24905618280C3
:1053C8000545C5BFC167F917630AF502D94763F7F1
:1053D800B702011122CC2EC606CE2A84EF50F0481F
:1053E800B2456368B50022856244F24005616F707A
:1053F8006057F24062440545056182800545828018
:10540800C167F9176314F5006F503046411106C69D
:10541800EF70004511E15D45B2404101828039716C
:105428004ED656D25AD006DE22DC26DA4AD852D4D4
:10543800AA8A2E8BB28941EF36C6D937CD45EF50AF
:105448005053AA844D492DC9B246054A23803401D8
:105458000544630A0B00B68513851400029B0505F5
:10546800131405014180E20993D9894163D30902E4
:10547800C1455685EF70004C654905E933868400BF
:10548800A2852685EF90F0112A8905E131044204AE
:10549800418091472C085685231CF10026CE231DF8
:1054A8008100EF6030582A8901C963070A00268500
:1054B80097000020E780A007F25062544A85D25432
:1054C8004259B259225A925A025B21618280BA84A7
:1054D800014AADBF011122CC26CA4AC84EC606CE23
:1054E8002A893284B689253FAA8405E19387418FAA
:1054F8009C4381CF05476317E40003C409000504F2
:105508001374F40FA2854A858297F2406244268577
:105518004249D244B24905618280AE8601470546B8
:1055280097050000938525D375B7011106CE2EC6C1
:10553800EF70802F01C9B245F2400355250005617F
:105548006FA0A055F240494505618280A380019271
:105558002380019223A4019023A6019023A80190FF
:1055680023AA019023A2019023A00190972700204D
:10557800938787DA3707B40098C33747A000D8C3A2
:10558800370710009306070A94C7B7065000C106EC
:10559800D4C7930607054107D8CB3707D00741077B
:1055A80098CF3707840398D337C70700130707B87E
:1055B800D8D3416794CB93060701130717F8D8D7B8
:1055C800417723AE070094D798DB8280011126CA61
:1055D800AA84214522CC06CE2E8432C636C43AC2CD
:1055E800EFE03F8F1DC9A24612473246930700FDE0
:1055F8002300F5009947A30095002301F500230334
:10560800D500A303E5002312C500AA8522856244BC
:10561800F240D24405616FE03F96F2406244D244C2
:105628000561828023A4A190828023A6A190828014
:1056380023A8A190828023AAA1908280011122CC64
:105648004AC806CE26CA2A890144B3048900636879
:10565800B400F2406244D2444249056182802EC6B9
:10566800EFE01FA193170501C183A183B2452380F1
:10567800F4009307140093F7F70F850463F9B70054
:10568800CA9709042380A7001374F40F7DBF3E84D2
:105698007DBFC167172500200355A5CBFD17630201
:1056A800F502411103C6C19A9385819106C6EF6040
:1056B800F078B240FD5717270020231CF7C8410196
:1056C8008280828009C925151375F50F1335850E5B
:1056D8001345150082800145828023800500F94723
:1056E80063E2C708797122D426D24ECE56CA5AC868
:1056F80006D64AD052CC5EC63684B289AE8A2A8B88
:10570800814463FF3405B307940003CA0700138973
:1057180014001379F90F63050A04B3072A0163C15A
:10572800F904B307240183CB07005E85613F0DC9E7
:105738009307FAFF2380FA0063906B03130519009F
:105748002295B250225492540259F249624AD24ADE
:10575800424BB24B45618280D29493F4F40F55B713
:105768000145C5B701458280411126C2AE8422C4D5
:105778009727002023A6C7BE9727002023A0B7BEDF
:105788009727002023AAA7BC2A8441469305F00F37
:1057980026854AC006C60549EFE07FB4631E250387
:1057A80097270020938787BA884BC145413D4146DA
:1057B8009305F00F2285EFE09FB2854463169502AA
:1057C800224497270020938767B8B2409244024941
:1057D800C847C14541019DB5414681452685EFE051
:1057E8001FB0E31625FD6DBF414681452285EFE0D8
:1057F8001FAFE30795FCB24022449244024941019D
:105808008280411122C426C22E84AA841306000273
:10581800814517250020130565B306C6EFE01FA2D2
:1058280097270020A38597B2A387819AEFA06028C5
:10583800854719C181474945B240224417270020AE
:105848002306F7B0924441018280814781CD19C96E
:105858008547631BF50083C7550093E707FCA382C0
:10586800F50085473E85828089476317F50083C721
:10587800550093F7F703E5B70D478547E314E5FEB1
:1058880003C755001377F70313670704A382E500DE
:10589800D1BF81478DC105C103C755009306000CD0
:1058A80085471377070C6308D700930600048D47D4
:1058B8006303D70089473E858280411122C4005D79
:1058C80006C626C21DC8AA84085009C5970000202C
:1058D800E780E0C5485009C597000020E78020C54B
:1058E800085409C597000020E78060C42285970006
:1058F8000020E780C0C323AC0402B2402244924493
:105908004101828009ED9727002083C747A4172506
:105918000020130525A581CB1385818F828017254B
:105928000020130525A4828017250020034525A201
:10593800828097270020938767A1C847828097278E
:1059480000209387A7A0884B828097270020938701
:10595800E79FDC4B88438280972700209387079F27
:10596800D84B1C4385071CC3172500200345359ECB
:105978009307F00F6305F50091656FE03F9882800B
:10598800011122CC06CE2E8432C6EF6030799147C1
:10599800B245631FF500938741919C438DC303A3D0
:1059A8000700630E030022856244F240056102830A
:1059B8009387C1909C4381C703A34700DDB7F2409A
:1059C8006244054505618280011122CC2A84035571
:1059D800450006CE26CA4AC84EC6EF60105535C5E2
:1059E8002A89834405008349C500C13D4A85EF7073
:1059F800704C03554400EF60F06D83C70192B1CB42
:105A08006399970483C511922685EFF01FB219E1B7
:105A18002380019203554400EF6050709147631F43
:105A2800F500035744009727002083D78792631710
:105A3800F700FD5717270020231DF790F240624416
:105A4800D2444249B2490561828081499304F00FEA
:105A58006DB79307F00FE38FF4FA8346640003569B
:105A68004400034524004E87A685EFF03FB65DB796
:105A780079715EC6AA8B2E8552CC56CA5AC806D6EC
:105A880022D426D24AD04ECEAE8A328B368AEF60E6
:105A9800D0496DC1045D2A89F1CC9C50614599C3F8
:105AA800130540039C5481C7510542054181630594
:105AB8000A00710542054181DC5081C7590542053C
:105AC8004181EFE00FC12A8455C561468145EFE069
