:040000006F004062EB
:1000040000000000000000006F0080086F00001E68
:1000140000000000000000000000000000000000DC
:1000240000000000000000000000000000000000CC
:100034006F004006000000006F00E00500000000B3
:100044006F0080056F0060056F0040056F0020059C
:100054006F0000056F00E0046F00C00400000000A2
:100064006F0060046F0040046F0020046F00000400
:100074006F00E0036F00C003000000006F00600326
:100084006F0040036F0020036F0000036F00E00265
:1000940001A001A001A001A001A001A001A001A054
:1000A40001A001A001A001A001A001A001A001A044
:1000B40001A001A001A001A001A001A0B717004068
:1000C400930670052380D704130780FA2380E7047E
:1000D40003C6B7041376F60DA385C704238007046B
:1000E4001376050225C603C6A700118A0DE22380F4
:1000F400D7042380E70403C7A700136747002385B9
:10010400E7009307004B01000100FD17EDFFB7174F
:100114000040930670052380D704130780FA2380D8
:10012400E7047D892394A700010001000100010078
:10013400238007042380D7042380E70485463727D8
:100144000040A303D780238007048280137605042C
:100154006DDE03C6A700418A0DE22380D704238005
:10016400E70403C7A700136707012385E700930784
:10017400007D01000100FD17EDFFB7170040930655
:1001840070052380D704130780FA7D892380E70450
:10019400136505042394A700010001000100010078
:1001A400238007042380D7042380E7048D46372760
:1001B400004041BF4111814601468145014506C6C3
:1001C400892AB7170040130770052380E704130733
:1001D40080FA2380E70403C76704136717002383A7
:1001E400E70423800704B24041018280814601462E
:1001F40081450145392AB71700401307700523804C
:10020400E704130780FA2380E7047D572396E70267
:1002140003C76704136717002383E70423800704D5
:1002240001A0BD473305F50201007D1575FD8280EF
:10023400411122C426C206C6AA840144631794004D
:10024400B240224492444101828005041305803E59
:100254004204C13F4180DDB7230304809547230353
:10026400F4802302A480828083076480E3CE07FEA7
:1002740023030480828083076480E3CE07FE034562
:100284004480828083076480E3CE07FE2302A48037
:100294008280411126C44AC24EC006C61377F50BAC
:1002A400AD47AA892E8995446306F70019456D3731
:1002B400653F8D444E854D37FD59FD1463983401D7
:1002C400B240A24412498249410182801355090176
:1002D4001375F50F453F2209CDB7011126CC06CE83
:1002E400B704080051371545853F713769372AC669
:1002F400A53F32459377150089EB136515001375F7
:10030400F50FF240E24405618280FD14E9FC0145E9
:10031400CDBF397126DC4ADA4ED852D656D45AD2D9
:100324005ED006DE62CE66CCB7E700E07D5783AAD6
:10033400070022C603AA470023A0E71823A2E71850
:10034400B7170040130770052380E704130780FAEA
:100354002380E70483C74704930B75FFB684E20741
:1003640093FBFB0F8546AA892E8B328937240040E4
:10037400E187015763FA76016308D50089461307BC
:1003840000026313D5000157D98F93F7F70FB71CF9
:1003940000402382FC0411472303E4801305F00F7B
:1003A400653D094CD13563697C11B70707003E9B55
:1003B400378707007955637EEB02B3079B00636AB6
:1003C400F702A9476399F90689E48144713D2685BA
:1003D4000DA0DA850945753D05090345F9FFFD14AE
:1003E400050B4D3581C49377FB0FFDF7FD3569FD92
:1003F4007D55B7170040130770052380E7041307E2
:1004040080FA2380E70403C74704418B2382E7046F
:10041400F250B7E700E023A0571123A24711E2549A
:1004240032445259C259325AA25A125B825B724CFC
:10043400E24C21618280A5476395F9068569130919
:10044400F00FB3069900B3742B01B6941349F9FF66
:10045400B3749900856B33796901416B9387F9FF14
:10046400B3F7270199E363FC340193D94900C147E9
:10047400E3E637FF99BF0569C1697D19D9B713054B
:10048400800D6388690113050002638479011305F3
:100494001008CA85FD3B913521DD4E99B384344162
:1004A400D9B7DA852D45F533CA94E30099F20509E5
:1004B400D933A30FA9FED5BF9387F9FF93F7F70F9D
:1004C400636CFC0803C75C04B707080013770702D2
:1004D40019E3B78707007955E37DFBF033079B00E9
:1004E400E3E9E7F089476390F9048980D549E38E0D
:1004F40004ECDA850945713B11090327C9FF9147CB
:100504002320E48003076480E34E07FE2303348141
:10051400FD17EDFBFD14110B81C49377FB0FE9FF6D
:100524006D3B71F5F1B58547E387F9F4DA852D451F
:100534008D339389F4FFE38A04E8353B93F739005C
:1005440091EB832604800327090093074900E39F66
:10055400E6E63E89CE84F1BFB5476396F9001305FC
:10056400900BDD399DB5B1471305B00AE38BF9FE55
:100574009947639EF902DA852D45213B81448D4BD1
:10058400A149D53963967401832704802320F90097
:100594008504E39834FF8327048013172B016355E4
:1005A40007002312F90015B52322F90039BD9D4730
:1005B4006391F90281451305B004E1399D44FD5965
:1005C4005D39B30799002380A700FD14E39A34FF33
:1005D400EDBBA1476392F90409338144630D0B0019
:1005E4008547930440046308FB00930400056304F7
:1005F4008B019304C0031375C507E30895DC194503
:10060400A1399D31054589392685AD3909459D397D
:10061400E931E31C05DAE9BBE38909DAF1547DB376
:10062400974100209381C11D178100201301419D32
:1006340013054000973500209385851C173600204C
:100644001306067E63FAC5008322050023A0550025
:1006540011059105E3EAC5FE1305807A974500204C
:100664009385059A174600201306869963FAC500F8
:100674008322050023A0550011059105E3EAC5FE78
:10068400174500201305C597974500209385459786
:100694006377B500232005001105E36DB5FE9302D1
:1006A400800873A00230973200209382621593E28F
:1006B40012007390523097020000938202017390EB
:1006C40012347300203041111305800406C697309C
:1006D4000020E780A01EB717004003A7870A8145C2
:1006E4007D5723A4E70A7D55112001A0914763ECAF
:1006F400B702130740798A05BA959C41BA97828755
:10070400B717004003A7470B1345F5FF698F23AACA
:10071400E70A03A7070B698F23A8E70A03A7070AB9
:10072400798D23A0A70A8280B717004083A6470BC0
:100734001347F5FFF98E23AAD70A83A6070B558D15
:1007440023A8A70A83A6070A758F23A0E70A828035
:10075400B717004003A7470B498F23AAE70A03A74B
:10076400070B1345F5FF45BFB717004083A6470B9A
:100774001347F5FF758F23AAE70A03A7070A598DC4
:100784004DB7B717004003A7470B498FEDB70000DB
:1007940070FFFFFF98FFFFFFC0FFFFFFD8FFFFFFC1
:0407A400F2FFFFFF62
:00000001FF
