:040000006F10104C21
:1000040000000000000000006F0080086F00002363
:1000140000000000000000000000000000000000DC
:1000240000000000000000000000000000000000CC
:100034006F004006000000006F00E00500000000B3
:100044006F0080056F0060056F0040056F0020059C
:100054006F0000056F00E0046F00A02500000000A1
:100064006F0060046F0030536F0090466F0000040F
:100074006F0010516F00C003000000006F006003A8
:100084006F00504D6F0020036F0000036F00E0020B
:1000940001A001A001A001A001A001A001A001A054
:1000A40001A001A001A001A001A001A001A001A044
:1000B40001A001A001A001A001A001A0B717004068
:1000C400130770052380E704130780FA2380E704ED
:1000D4002396A70223800704371700408347270588
:1000E400898BEDDF835707053717004083472705C2
:1000F400898BEDFF3717004083472705898BEDDF98
:10010400035507058280B7170040930670052380C6
:10011400D704130780FA2380E70403C6B7041376D1
:10012400F60DA385C70423800704137605022DC6A4
:1001340003C6A700118A0DE22380D7042380E704B5
:1001440003C7A700136747002385E7009307004B05
:1001540001000100FD17EDFFB7170040930670057D
:100164002380D704130780FA2380E7047D8923942E
:10017400A70001000100010001002380070423807F
:10018400D7042380E7049306100537270040A30310
:10019400D780238007048280137605046DDE03C6AE
:1001A400A700418A0DE22380D7042380E70403C714
:1001B400A700136707012385E7009307007D01006B
:1001C4000100FD17EDFFB71700409306700523806B
:1001D400D704130780FA7D892380E7041365050497
:1001E4002394A700010001000100010023800704FB
:1001F4002380D7042380E704930630053727004083
:1002040079B74111814601468145114506C6EF0083
:10021400B047B7170040130770052380E70413079E
:1002240080FA2380E70403C7670413671700238356
:10023400E70423800704B2404101828081460146DD
:1002440081451145EF005044B717004093067005EF
:100254002380D704130780FA2380E7047D5623966E
:10026400C7022380D7042380E70403C76704136706
:1002740017002383E7042380070401A0BD47330547
:10028400F50201007D1575FD8280411122C426C24C
:1002940006C6AA84014463179400B24022449244DF
:1002A4004101828005041305803E4204C13F418020
:1002B400DDB7011122CE26CC4ACA4EC852C63784B5
:1002C40000408344640085453745008093F4F40F6F
:1002D40097F0FFDFE78080FE93F72400E38D071A91
:1002E400834774001307000393F707036385E7024A
:1002F40083477400094793F7F7036388E73A636613
:10030400F70A6387071405476383E734B787004018
:1003140009472383E7003787004083477700E207D4
:10032400E18763D40764930720FC2301F702138752
:10033400418600438349740083476400A209B3E9FA
:10034400F900239D318783471400A38CF1868344ED
:10035400040093F60406638306562D47636DF7364F
:10036400254763F8E700FD1793F7F70F0947636321
:10037400F75EE204E184814663D2040283D7A18755
:10038400930600043E8763F4F60013070004420753
:100394004183998F9376F70F239DF186B7870040A9
:1003A4002380D702130700FC55AB93061002638128
:1003B400D724930620026389D73093060002E3977B
:1003C400D7F483C7918795466385D7069946639E7C
:1003D400D7069387A18703D4070013070004BE84BC
:1003E400637487001304000493874186138901888A
:1003F400884342048325090041802286979001E0C6
:10040400E780E01D83D704009379F40F818F239D47
:10041400F186832709003E9423A08188B787004092
:100424002380370303C72702134707042381E70206
:10043400F1BD8347340083C6A18793F70708D58F9E
:10044400A301F4002301E402D1B523000402DDBFBB
:10045400834784008347240293F7370F2301F40270
:1004640003C78187058B938781876307071683C733
:10047400070003C9C1A903C4D1A993F7E70F238CCB
:10048400F186938781A983A9070083C4E1A9638CBA
:1004940009004E8597F0FFDFE780008B4E8597F0CB
:1004A400FFDFE780C0A6E38304E699476381F4068F
:1004B40063E9970295476383F4048547630BF90660
:1004C400630909068947630FF9069147E3E087E466
:1004D400179701E01307471D0A043A941C40BA9782
:1004E40082879D47638EF402A147E398F4FC373773
:1004F40000408347370093E7370039A0373700407F
:100504008347370093F7C70FA301F7007DB7373749
:1005140000408347370093F7C70F93E71700EDB701
:10052400373700408347370093F7C70F93E7270017
:10053400E1BF373700408347370093F7B70FA30174
:10054400F70061B7373700408347370093E7470028
:10055400FDB7373700408347370093F7770FA30180
:10056400F7006DB3B737004003C737001367870040
:10057400A381E70003C737001377F70CA381E700D3
:1005840071B3373700408347370093E78700A301EF
:10059400F7008347370093F7F70C93E70701C1B7D8
:1005A400373700408347370093E78700A301F700FC
:1005B4008347370093F7F70C93E707024DB7B73734
:1005C400004003C7370013678700A381E70003C710
:1005D4003700136707035DB703C70700098BE307F9
:1005E40007D283C7070093F7D70F238CF18639BB53
:1005F4008347640293F7C70F93E727002303F402AA
:10060400A389018683C74187E38207D0238A0186B1
:10061400138781AD8147938581B5930600043386A2
:10062400F50010429107110750DFE39AD7FEB78710
:10063400004003C751872382E70203C76702137789
:10064400C70F2383E7028547A389F186C1B1834796
:10065400740093F70704E38B07CA83478400138568
:1006640081C1938581AD238BF186130700048147F3
:100674003386F5001042B306F500910790C2E39962
:10068400E7FE378700408347670293F7370F93E706
:1006940087002303F70203C581AD8547A38BF18649
:1006A400970000E0E780A0EA95B18347740093F7D0
:1006B4000704E38D07C4834784008347A40293F7A8
:1006C400370F2305F40299B18347A40293F7C70FA8
:1006D40093E72700FDB7130710026386E7021307A9
:1006E40020026387E706130700026395E72683C7A2
:1006F400C1A9638E071A0947E39DE7C683C78187AB
:1007040093E727004DAA971700009387277823A023
:10071400F188A1474E8963F33701214942091359EE
:1007240009014A869715000093854576228597909E
:1007340001E0E780C0EA83D7A187B3872741239DDF
:10074400F186938701889C433E9923A0218915B1A2
:1007540083C7C1A9138981A9E39D07C083472900E1
:1007640013841187858BC5CB83470400898BD9EF0C
:100774008347040093E74700A388F1868347040076
:1007840093E78700A388F18683470400854593E7B0
:100794001700A388F1868347040093E72700A38802
:1007A400F186056597F0FFDFE78040B183472900B4
:1007B400898BD5CB8347040093F70702C5E38347AE
:1007C400040093E70704A388F1868347040093E7B2
:1007D4000708A388F18683470400854593E707014A
:1007E400A388F1868347040093E70702A388F18670
:1007F40005651305058097F0FFDFE78020AC03450E
:100804000400970000E0E78040CEA5B683470400CB
:1008140093F7B70F85BF83470400898B9DCB83472C
:10082400040093E74700A388F1868347040093F705
:10083400770FA388F18683470400814593E7170067
:10084400A388F1868347040093F7D70FA388F18622
:1008540089BF8347040093F7B70FE1BF83470400C0
:1008640093F7F70BBDB78347040093F707029DCBBB
:100874008347040093E70704A388F18683470400B1
:1008840093F7F707A388F18683470400814593E72C
:100894000701A388F1868347040093F7F70DA38823
:1008A400F186B9B78347040093F7F70BE1BF83C719
:1008B400818793E71700238CF18665BCA94663EB17
:1008C400F608979601E0938666DF8A07B6979C43FD
:1008D400B697828783473400034724008946A207DA
:1008E400D98F13D787006301D70A0D466308C70A57
:1008F4008547631FF70A979701E0938767EB23A067
:10090400F1880149C947C207C18363F43701239DB4
:10091400F1869387A18703D607009307000463F445
:10092400C70013060004138A01889319060183255E
:100934000A0093D909014E862285979001E0E78049
:1009440000CA03260A004E9623A0C1889307F00F1D
:10095400E311F9A2B78700401307F0FC2381E702F3
:10096400B787004009472383E70081453745008066
:1009740097F0FFDFE78080947244E2445249C24911
:10098400324A056173002030979701E0938787DB33
:1009940023A0F18801499307B006B5B793F7F70F81
:1009A4000546638BC7009DCB6381D7026381E7044F
:1009B4001309F00F814781BF979701E0938787D68A
:1009C40023A0F1880149A9473DBF979701E0938788
:1009D40027D623A0F1880149D14735B7979701E07D
:1009E4009387C73223A0F1880149914729BF03C7E0
:1009F400A1A9179901E01309E9DC630AC70063069A
:100A0400D7046316F700179901E0130929DD4A8515
:100A1400979001E0E78000C81375F50F9307150060
:100A24008607238CF1C08D47A38CF1C0938781C1C5
:100A34000147BE861376F70F8907636DA60023A0CE
:100A4400D18883C781C101497DBD179901E013098C
:100A540029D875BF3306E90003460600A3800700C2
:100A640005072380C700F9B783472400239DF18637
:100A74006FF03F9083C721872300F40003D7A18739
:100A8400854763F4E700239DF1868547238EF1862D
:100A94006FF03F8E834724002389F1866FF07F8DAA
:100AA40013F7F4018947E316F78C83474400914612
:100AB4006382D70C63E0F6026384E7086365F70A90
:100AC4000547E399E7E8378700408347670293F7D0
:100AD40037071DA0130720086388E7046362F70241
:100AE40013071008E398E7E6378700408347670257
:100AF40093F7C70B93E727002303F7026FF07F8771
:100B0400130730086385E70413074008E394E7E418
:100B1400378700408347270393F7C70B93E72700E2
:100B24002309F7026FF0FF84378700408347A70249
:100B340093F7C70B93E727002305F7026FF07F8332
:100B4400378700408347A70293F73707F5B73787FE
:100B540000408347E70293F7C70B93E72700230777
:100B6400F7026FF01F81378700408347E70293F74E
:100B74003707F5B7378700408347270393F73707CD
:100B840045B713F7F40189476315F7FE834734002B
:100B940083462400A207D58F639D07FC8347540036
:100BA40083464400A207D58F91466388D70663E243
:100BB400F602638DE706636DF7080547639BE7FA62
:100BC400378700408347670293F7370793E7C700E7
:100BD40025B7130720086384E706636FF70013073C
:100BE40010086398E7F8378700408347670293F754
:100BF400C70B93E7370009B7130730086383E70689
:100C0400130740086397E7F63787004083472703B5
:100C140093F7C70B93E7370021B737870040834723
:100C2400270393F7370793E7C700DDBD37870040F5
:100C34008347A70293F7370793E7C700F5BD3787C4
:100C440000408347A70293F7C70B93E73700EDB53E
:100C5400378700408347E70293F7370793E7C700D6
:100C6400FDBD378700408347E70293F7C70B93E73F
:100C74003700F5B52300040003D7A187854763FA3D
:100C8400E7EEEDB3230004001C43A380070003D761
:100C9400A1878947EDB793F714008DC3A30104001E
:100CA40089472301F402C9472303F4022305F4020C
:100CB4002307F40285472303F40045B993F744005E
:100CC40089C7834754009147FDB72303940071B942
:100CD40085453705408097E0FFDFE780205E3737A2
:100CE4000040834747009946BD8B6389D70231474B
:100CF4006381E70411476395E702014597E0FFDF4D
:100D0400E7808037FD553745008097E0FFDFE780B7
:100D1400E05A97E0FFDFE780C02219A0834757001D
:100D240081453705408097E0FFDFE7802059730055
:100D3400203097E0FFDFE780A022FD5537150080C3
:100D440097E0FFDFE7808057054597E0FFDFE78006
:100D5400A032F9B7411122C6854737340040230336
:100D6400F4C0054597E0FFDFE7800031834724C0E6
:100D740093F7E70F2301F4C032444101730020309C
:100D8400B7170040130700032388E702854723A20F
:100D9400F18C73002030B737004005472383E78088
:100DA40003C7218D85476317F7009387818C9C4384
:100DB400238007002389018C37370040834727802D
:100DC40093F7E70F2301F780730020302303048097
:100DD40015472303E48001002302A4808280830753
:100DE4006480E3CE07FE230304808280830764804B
:100DF400E3CE07FE03454480828083076480E3CE0C
:100E040007FE2302A4808280411126C44AC24EC038
:100E140006C61377F50BAD47AA892E899544630658
:100E2400F70019456537653F8D444E854537FD59B3
:100E3400FD1463983401B240A2441249824941012D
:100E44008280135509011375F50F453F2209CDB76B
:100E5400011126CC06CEB704080051371545BD371D
:100E6400713769372AC6A53F32459377150089EB58
:100E7400136515001375F50FF240E2440561828095
:100E8400FD14E9FC0145CDBF397126DC4ADA4ED8A0
:100E940052D656D45AD25ED006DE62CE66CCB7E7BE
:100EA40000E07D5783AA070022C603AA470023A0B7
:100EB400E71823A2E718B71700401307700523802B
:100EC400E704130780FA2380E70483C74704930BDE
:100ED40075FFB684E20793FBFB0F8546AA892E8B28
:100EE400328937240040E187015763FA76016308A9
:100EF400D5008946130700026313D5000157D98F23
:100F040093F7F70FB71C00402382FC041147230317
:100F1400E4801305F00F5D3D094CD13563697C1104
:100F2400B70707003E9B378707007955637EEB02BE
:100F3400B3079B00636AF702A9476399F90689E43A
:100F44008144713D26850DA0DA850945753D050965
:100F54000345F9FFFD14050B4D3581C49377FB0F51
:100F6400FDF7FD3569FD7D55B71700401307700582
:100F74002380E704130780FA2380E70403C74704A8
:100F8400418B2382E704F250B7E700E023A0571116
:100F940023A24711E25432445259C259325AA25A36
:100FA400125B825B724CE24C21618280A54763959F
:100FB400F90685691309F00FB3069900B3742B0180
:100FC400B6941349F9FFB3749900856B33796901B9
:100FD400416B9387F9FFB3F7270199E363FC34016D
:100FE40093D94900C147E3E637FF99BF0569C16951
:100FF4007D19D9B71305800D6388690113050002B3
:101004006384790113051008CA85FD3B913521DD00
:101014004E99B3843441D9B7DA852D45F533CA9452
:10102400E30099F20509D933A30FA9FED5BF93872D
:10103400F9FF93F7F70F636CFC0803C75C04B70769
:1010440008001377070219E3B78707007955E37D92
:10105400FBF033079B00E3E9E7F089476390F90469
:101064008980D549E38E04ECDA850945713B110981
:101074000327C9FF91472320E48003076480E34EDC
:1010840007FE23033481FD17EDFBFD14110B81C40E
:101094009377FB0FE9FF6D3B71F5F1B58547E38766
:1010A400F9F4DA852D458D339389F4FFE38A04E856
:1010B400353B93F7390091EB83260480032709001D
:1010C40093074900E39FE6E63E89CE84F1BFB54726
:1010D4006396F9001305900BD5399DB5B1471305F7
:1010E400B00AE38BF9FE9947639EF902DA852D4530
:1010F400213B81448D4BA149D539639674018327E3
:1011040004802320F9008504E39834FF83270480B6
:1011140013172B01635507002312F90015B5232279
:10112400F90039BD9D476399F90281451305B0045F
:10113400E139BD442320090023220900FD597D31F2
:1011440093F77400CA9703C70700FD14398D2380F1
:10115400A700E39634FFEDB3A1476392F904CD39B8
:101164008144630D0B008D479304C0036308FB00A7
:101174009304000563048B01930440041375C507AD
:10118400E30095DC19459931993905458131268566
:10119400AD3109459D316D39E31405DAE9B3914761
:1011A4006399F90013056006153115391305900983
:1011B40025B7E38709D8F15469B309CDB7170040BF
:1011C400130770052380E704130780FA2380E704DC
:1011D4002396A702828019C1814799E982803387C7
:1011E400F500834607003307F50085072300D70081
:1011F400E397C7FEE5B719C1FD5781E982809105E0
:1012040003A7C5FF1105232EE5FE7D16E319F6FE9F
:10121400F5B7797122D4172400001304247A1C40F2
:1012240006D626D24AD04ECE91C782979727000081
:1012340023A607785C4089CB03D5418EBD3F5C4033
:10124400829703D5618E953F1C40639907189737A1
:10125400000083C77788858B95C797370000A38DD7
:1012640007861737000003475787914763FCE70059
:101274004D2B9737000083C75786F9178A07A29723
:101284009C4382979737000083C7C789918B89C78E
:10129400971001E0E780C0FA1C4491C382979387BA
:1012A400018E9843172600000346166F3E89972443
:1012B40000009384646E9727000083C7E76D9396BC
:1012C4001700BA9683D6060063800610972700009D
:1012D40083C7876C63F2C70886073E978355070068
:1012E4002310070003D5418E2EC62396018EF135B7
:1012F4009387818F9C43172500000345E5691317E5
:101304002500BA979C43B2458297AA8903D5618E7A
:101314006D359727000083C7276813971700832725
:10132400090003D5C18E1345F5FFBA9703D707000B
:1013340033753501598D2390A70083C704008507B1
:1013440093F7F70F172700002308F7641727000007
:101354000347976463E6E70097270000238E07623C
:101364001C40ADEF9387018F98433E8425CB97278C
:10137400000083C7D77691CB9727000083C7F77502
:1013840089E7971001E0E780609C1C4082972A84DB
:1013940031C59C48AA97172700002327F760938735
:1013A400418F9C4385CF03D5418E013D228597F023
:1013B400FFDFE780206E2254B25092540259F24962
:1013C40003D5618E4561D5BB850793F7F70F972643
:1013D40000002383F65CE3E0C7EECDBDB250225497
:1013E40092540259F249456182809167B7C6004020
:1013F4009387373023A6F6200F10000097270000AC
:1014040093878759884F9387019F9C4331671307BC
:101414003730F053B7071000FD17918F99833A05C1
:1014240023A6E6205D8D82804111B7170040985FA6
:101434003AC6945F3247E39CE6FE3245410182801E
:10144400411106C6D5379726000083C66652858AA1
:10145400B1C6930730333307F502B337F502398346
:10146400CA07D98F1727000013070753584B0145A4
:101474006303F7023385E740636BF70037653D0884
:1014840089C637856F0813050590198D3E95172772
:101494000000232DF750B24041018280E547330715
:1014A400F502B337F5022583DE0765BF0327C50FB1
:1014B4008346B500972700009387C7619C4F584324
:1014C4009386160295829043FD1693F6F60F10C389
:1014D400D04350C3904710C7D04750C7904B10CB50
:1014E400D04B50CB904F10CFD04F50CF91C6130755
:1014F400070293870702C1BF82808347E50193F700
:10150400E70FF1E72A870345F50171E10346070177
:101514008346870009CA8345A7029727000083C72B
:10152400374563E7F50093F70601C5C7814709C648
:10153400C18A8357071581C603574715BA97D1CB7C
:1015440017270000130787643847411122C406C6D1
:101554007D548326070863F386003684184375FB9D
:10156400172700000347C74093168701E18663D914
:1015740006029387C7139583172700000347E73FA5
:10158400BA9763D006041D8C9387C18F9C438297BE
:101594003335A400B2402244134515004101828032
:1015A400058B9387C71209CB8A079387F703130523
:1015B400D007B3D7A702C9B78607FD071305D00321
:1015C400CDBFE372F4FC3705C0A82A946DBF014572
:1015D40082808280411122C41384019E18404AC033
:1015E40006C61C5F26C21389C19D9983858BC1C31E
:1015F4001C5F972400009384E44D93F7F7F91CDFF4
:101604009727000083C7074D93F707048DC393877B
:10161400C18F9C4382979727000023A5A74C83C7BB
:10162400040093F7F70B172700002305F74A8547B3
:1016340017270000A302F74A83C7440093F707045F
:1016440081EF9387019F9C43D844B8D3930700FC50
:10165400172700002302F7488387640063D9070033
:10166400832709009C43172700002308F7461840E6
:101674001C5F8583858BC9CBF5571CDF01000100F6
:10168400010001000100010001000100010001004E
:10169400010001000100010001000100010001003E
:1016A400010001000100010001000100010001002E
:1016B400010001000100010001000100010001001E
:1016C400010001000100010001000100010001000E
:1016D40001000100010001000100010001000100FE
:1016E40001000100010001000100010001000100EE
:1016F4000100010001000100010001009387019F26
:101704009C4313075004B8CB18401C5F9183858B0E
:1017140089CFBD571CDF9387019F9C4323A80704EF
:101724008547172700002309F73A83270900D84380
:101734000583058B19C7D843759BD8C3D843799BB8
:10174400D8C3B24022449244024941018280397193
:1017540006DE16DC1ADA1ED82AD62ED432D236D0B9
:101764003ACE3ECC42CA46C872C676C47AC27EC05D
:101774009535F250E2525253C2533255A255125685
:1017840082567247E2475248C248324EA24E124F26
:10179400824F2161730020309387019F9443172760
:1017A400000013072733BC5289CF83472700858B5A
:1017B40089EB83473700858BFDD797270000238D5E
:1017C400073082809387C19E9C4399CB944BD04B26
:1017D4009842518F98C294439C479842D98F9CC297
:1017E4009387019F9C4337C700401306C003A8CBCF
:1017F40093062003972500009385C52D8327872012
:10180400C18393F7F7036369F60083278720C183B5
:1018140093F7F70363E6F60083C74500858BF9DF8A
:1018240082809387019F9443172700001307872A18
:10183400BC5289CB83470700858B91CB9727000047
:10184400238C072897270000A388072882808347D2
:101854001700858BF1DFDDB79387C19E9C4399CB3D
:10186400944BD04B9842518F98C294439C479842D2
:10187400D98F9CC29387019F944337C70040C145C9
:10188400A8CA654683278720C18393F7F70363FBC0
:10189400F50083278720C18393F7F7036364F60079
:1018A400BC52EDF382801387019E1843AA87185F08
:1018B4001583058B25EF0345150015051377C51F03
:1018C40019C6B386E70083C626002300D60095C553
:1018D4009726000083C6662093F606040945A1CA2C
:1018E400B386E70083C63600054693F5F606639093
:1018F400C504E206E18663CC06023385E70083472C
:10190400150003470500A20793F70770D98F1397B3
:10191400070141839376074099C613670780239490
:10192400E19E014582802394F19EE5BF05458280B6
:101934009386019F8C4236859726000093868619EC
:10194400984593170701C183137817203E866304D3
:1019540008041377072079C303C726001367170009
:10196400172800002309E81613070019B8D1130734
:1019740000F8972500002381E5161387019E0C4388
:1019840037080010D855719B13672700D8D59841A4
:101994003367070198C11377261005C31376061021
:1019A40059CE03C706001367170017260000230348
:1019B400E612172700002313071283C6460093C7B5
:1019C400F7FFC207E206E186C183184163D106022C
:1019D4009396170163DE060630538D4663E9C6000D
:1019E4008546172600002309D60E3453FDFE97269C
:1019F40000009386A6F68386460163DD060093966F
:101A04000701C18663DC06047053894663E4C6009B
:101A14007453FDFE1447F58F1CC7828003C716005C
:101A24001367170097250000A386E50A172700000F
:101A34002304070A172700002312070AA9BF03C7B4
:101A440036001367170017260000A306E60895B7AB
:101A54008546172600002301D60851BF5447139624
:101A6400060163510602B7061000FD1674D39726CB
:101A74000000938666F2944E8506172600002329FB
:101A8400D6F249BFA166D58F71B7397106DE16DC6F
:101A94001ADA1ED82AD62ED432D236D03ACE3ECC3A
:101AA40042CA46C872C676C47AC27EC05135F25064
:101AB400E2525253C2533255A255125682567247BD
:101AC400E2475248C248324EA24E124F824F216121
:101AD4007300203017270000130787018346B701DE
:101AE4009727000083C71704B69793F7F70FFD46AF
:101AF40063EAF6044C4B97260000A38BF6FE972767
:101B0400000083C7F7FE05473317F7009726000048
:101B1400A38AF6006D8F1DEF9726000083C6D600BA
:101B2400B3F6D70213050002814733D6F500058AC0
:101B340013F8F70F09CE6399E60097270000A389ED
:101B440007FB828081177DB705071377F70F850799
:101B5400E39DA7FC82809387C19F9843B7570200F7
:101B64009387279F83260709139656006358060018
:101B7400832607091396660063440600FD17FDF3E8
:101B8400828051C9AA870145C9C98D07C207C1838B
:101B9400F19BC207C18313074003636BF7021387EA
:101BA40001A90843138781A814436396A602172743
:101BB40000001307A7DA185B014525C34111C207CA
:101BC40006C60545DD8D0297B2400145410182807C
:101BD4001387C1A8F9B70357650005EF03574500FC
:101BE4006369F702B306F74021466370D6021041D9
:101BF400938687001D8FAA96611790C22392E600F0
:101C04002393060014C12312F5002313B500210504
:101C14008280084159BF01458280828001CD93872B
:101C240001A903A80700938781A88C430147C287B1
:101C340063E3B70082809443636FF50663EDA60601
:101C440013868700E368C5FE03D567002166050691
:101C54006317C50003C681990506238CC198239395
:101C64000700638407031386C1A81042630FF600BC
:101C74000356670019EA83D7470014C38356470005
:101C8400B697A1072312F700BA879843E304B7FA7B
:101C94009386C1A89442E30FD7F883566700D9FA14
:101CA40083D64700035647001843A106B2962392F1
:0C1CB400D70098C382803E87B6879DBF92
:101CC000974100209381811C17610020130181330B
:101CD00013054000972500209385C5B217360020D4
:101CE0001306067E63FAC5008322050023A0550073
:101CF00011059105E3EAC5FE17C501001305C58569
:101D0000973500209385C57B1386018663FAC5004D
:101D10008322050023A0550011059105E3EAC5FEC5
:101D20001385018697550020938505716377B5006B
:101D3000232005001105E36DB5FE9302800873A012
:101D40000230972200209382E2AB93E2120073905C
:101D50005230971200009382E2697390123473003C
:101D60002030B717004003C777051377E70FA38B21
:101D7000E704130700F8A38DE7043D47238CE7042D
:101D800013075003A38CE7048280B717004003D5E4
:101D900087005D715ED64205418186C6A2C4A6C297
:101DA000CAC04EDE52DC56DA5AD862D466D26AD045
:101DB0006ECE9377050C13070008814B6388E718F4
:101DC00013070004639CE714B7240D8F7D89938467
:101DD0000480B3D4A4029167938707E8BE94A167F7
:101DE000938707D0B3D4F402EFA0B11E97B70100D8
:101DF0009387C70F9043D443EFA06152EFA0F15FE8
:101E00002A8B939C040103D9018693DC0C01631592
:101E10000900056913090980B71700401307700509
:101E20002380E704130780FA2380E704371A004071
:101E30000547939D0401096C85662389E704D14A0F
:101E4000814E8145130D0A0413087005130680FAAC
:101E5000894893DD0D01130C0C712943FD162300F5
:101E60000D012300CD0023162A0323000D00834714
:101E70002A05898BEDDF83570A0583472A05898B5D
:101E8000EDFF83472A05898BEDDF83570A052390F1
:101E90002187C207C183338597419319050193D9DF
:101EA0000941638409163387B902635E070C850E06
:101EB000C20E93DE0E0163E8D80D63D9050A33051F
:101EC000B04093150501C185C204C18063D7350BAD
:101ED0000965130505713385A502B717004013077F
:101EE00070052380E704130780FA2380E704239614
:101EF0007703238007043345950242054181B640AC
:101F0000264496440649F259625AD25A425BB25B61
:101F1000225C925C025DF24D61618280B1E3B77434
:101F200089097D8993840480B3C4A402916793874F
:101F300007E8BE94A167938707D0B3C4F402EFA06B
:101F4000510997B701009387E7FA6DB597B701007C
:101F5000938787F9856403AB07009384843855B56C
:101F6000130B0000954471BD3A89D5BDB387FC4081
:101F70009399070193D9094181BF0965130505713B
:101F80003385A9028DBF3385B74163E4FC003385F7
:101F9000FD40330585033344B503634583001315C2
:101FA0000401A9BF4E8536C642C432C2EFA09138A3
:101FB000DA85EFA01109EFA0D131931E050193DE60
:101FC0000E41B307D941C207C183056E3E87124651
:101FD000224889482943B24663E3C701368742074E
:101FE0004183631A27011307190063443001130763
:101FF000F9FF42074183FD1A93FAFA0FCA8BCE8587
:10200000E3940AF62390E18659BF0145CDBDB71789
:10201000004003D587005D7186C642054181A2C498
:10202000A6C2CAC04EDE52DC56DA5AD85ED662D498
:1020300066D26AD06ECE02C69377050C13070008ED
:10204000638BE71413070004639FE710B7240D8F19
:102050007D8993840480B3D4A4029167938707E8B1
:10206000BE94A167938707D0B3D4F402EFA0617642
:1020700097B70100938787E79043D443EFA0212AC5
:10208000EFA0B1372A89939A040103DB218693DA02
:102090000A0163150B00056B130B0B80B71700408B
:1020A000130770052380E704130780FA2380E704F1
:1020B000939B040105478969056A2389E704D14D8B
:1020C000014D814C93DB0B01938909717D1A5A856F
:1020D00097100020E780C07E330C5541420C135C02
:1020E0000C412391618763010C16B3079C0363D1F4
:1020F000070E050D420D135D0D01894763EAA70D1B
:1021000063DB0C0A33059041931C050193DC0C4101
:10211000C204C18063D88C0B096513050571338532
:10212000AC02B7170040130770052380E7041307BC
:1021300080FA2380E70432472396E70223800704CE
:102140003345950242054181B640264496440649EE
:10215000F259625AD25A425BB25B225C925C025DD7
:10216000F24D61618280B1E3B77489097D899384FE
:102170000480B3C4A4029167938707E8BE94A16763
:10218000938707D0B3C4F402EFA0A16497B701000E
:10219000938747D6D5B597B701009387E7D4856471
:1021A00003A9070093848438F9BD130900009544FE
:1021B000D9BD3E8B29BF3385AA40131C0501135C92
:1021C0000C41B9B70965130505713305AC028DBF24
:1021D00063FEAA003305754133053503A94733442F
:1021E000750363C8870013150401B1BF3385AB4085
:1021F000E5B76285EFA01114CA85EFA08164EFA056
:10220000510D131D0501135D0D413307AB4142070D
:1022100041838565BA876363B700D287C207C183EC
:10222000639A670193071B00634480019307FBFFD8
:10223000C207C183FD1D93FDFD0F5AC6E28CE39AD0
:102240000DF62391F18645B70145FDBD41112A8365
:10225000014E930E407E130F0019930F400663EB5F
:102260006E0A9308001913034006B3781503854ED0
:102270000D4FA14F337365020D891335150063E5CA
:10228000BE0C1308F6FF79467298420813580801ED
:102290003307C70213D61700BE0732976146B3F65D
:1022A000C60213068070B386C6023697A166F58F04
:1022B00042075D8FB717004083C6F70293F6060802
:1022C000A307D1000346F10083C6F70293F6060880
:1022D000E394C6FE8346F10093F6F60FF1DE930613
:1022E00070052380D704930680FA2380D70423AA9D
:1022F000070383C6170393E60608A388D702D8DB33
:1023000003C7170313670704A388E70223800704A2
:10231000410182807D133368E3039308E016630E66
:1023200008003368F3039308D01663080800937815
:10233000330093B818009388D81633081E01131E73
:102340000801135E0E0121BF6393E5030548638610
:1023500008000148630303002A8871087298FD157C
:10236000131E0801C205135E0E01C18109BF13F8D7
:10237000150063F4BF007908D5B713381800E5BF1E
:10238000914763EEB70217B70100130727B78A0515
:10239000BA959C41BA978287B717004003A7470BAD
:1023A0001345F5FF698F23AAE70A03A7070B698F77
:1023B00023A8E70A03A7070A798D23A0A70A82802A
:1023C000B717004083A6470B1347F5FFF98E23AAE2
:1023D000D70A83A6070B558D23A8A70A83A6070A49
:1023E000758F23A0E70A8280B717004003A7470B29
:1023F000498F23AAE70A03A7070B1345F5FF45BF3B
:10240000B717004083A6470B1347F5FF758F23AA24
:10241000E70A03A7070A598D4DB7B717004003A76E
:10242000470B498FEDB7914763EEB70217B701002D
:10243000130707AE8A05BA959C41BA978287B717EA
:10244000004003A7470D1345F5FF698F23AAE70C4A
:1024500003A7070D698F23A8E70C03A7070C798D45
:1024600023A0A70C8280B717004083A6470D13470F
:10247000F5FFF98E23AAD70C83A6070D558D23A847
:10248000A70C83A6070C758F23A0E70C8280B717D3
:10249000004003A7470D498F23AAE70C03A7070DA8
:1024A0001345F5FF45BFB717004083A6470D1347F7
:1024B000F5FF758F23AAE70C03A7070C598D4DB7BD
:1024C000B717004003A7470D498FEDB7B717004076
:1024D00003D58700420541819377050491EB9377FB
:1024E000F5013755E801130505803345F502828073
:1024F0009377050C130700046397E7009377F501C2
:1025000037459C1CCDB72165130505D08280B7F7F0
:1025100000E0C8439C478280B737004023A6A780CD
:1025200009472380E78011472380E7808280B737FF
:10253000004023A6A7C009472380E7C01147238096
:10254000E7C08280411122C406C62A844137294748
:10255000B307E502B2408D83B3D7870222449507C3
:10256000B3D7E70237370040C207C1832316F7000D
:1025700041018280716541111305052006C6D937D6
:10258000B7370040130770F82381E7000D47A38198
:10259000E70013070004A380E70005472387E7004F
:1025A000B2404101828037370040834727001A0537
:1025B00093F7F703C98F93F7F70F2301F700828092
:1025C000B737004003C7170019C9D98DA380B700DA
:1025D00003C70700136787002380E700828093C545
:1025E000F5FFF98DA380B7008280B7870040238074
:1025F00007022382070223800700130700FC2386BB
:10260000E7003147A386E700138681A9938681AD51
:1026100023A2C18623A4D186138781B923A6E1868C
:10262000938581C123A4B1884206938581B523A2F5
:10263000B1884182C2062398C700C1824207239A0B
:10264000D7004183239CE70009472381E7024947DC
:102650002383E7022385E702A3810700130700F81D
:10266000A380E700130790022380E700B71600401D
:1026700003D7A601138501871367070C239DE60086
:102680007D572383E700130710F8A380E7001D4759
:102690002381E700B706400037E700E02320D7108A
:1026A00003C7170013671700A380E7006F10A0117E
:1026B00093F7150081C713C51500828093F7250095
:1026C0008DCF411122C406C62E84B735004083C782
:1026D000B5001D47636DF70083C7B5002146A1050E
:1026E0001D8E42064182138541F6EF00904B134543
:1026F0002400B24022444101828093F74500014505
:1027000081C713C5450082808280411106C60547F6
:10271000B73700402383E7C0B787930393870770D9
:1027200033D5A702930700053305F5020935B240FA
:10273000B7E700E0054723A2E71041018280B737E1
:10274000004009472380E7C011472380E7C003C743
:1027500027C0136717002381E7C08280B737004086
:1027600009472380E7C011472380E7C003C727C07C
:102770001377E70F2381E7C0828041111306002001
:10278000938541D6138541F606C6EF001030B2405E
:1027900013060010938581C5138581D541016F0013
:1027A000D02E011106CE2AC6F1333245613B0D45CC
:1027B000DD3B954505452935F240B7E700E0370791
:1027C000000423A0E710056182804111138541F6C2
:1027D00006C6EF00502E01E9B24003C5718089455D
:1027E00041016F105028B24041018280411122C442
:1027F00071641305042006C6093F130504205537EC
:1028000017050000130505EBEF10B072B24022442B
:10281000A383A1804101828083C7718781CF37372D
:1028200000401D469385D188138581888347B70072
:102830006373F600828083C6D18883C7618763FE95
:10284000F6001C41B69783C707002304F70083C72F
:1028500005008507A386F188D1BFA3860188A38BD5
:102860000186378700408347670293F7370F2303BA
:10287000F702828037360040938541881308E003D1
:10288000938881861303000437870040130EF003FA
:10289000854E8347A60093F7F70F99EF09CD83C7BD
:1028A000318703C7C188ADC7A38AE1868547238ADC
:1028B000F186238601888280944183C7C188034FB3
:1028C0008600BE96850793F7F70F2380E6012386DF
:1028D000F188E370F8FC83A2050083AF080023862B
:1028E00001888147B386F20003AF0600B386FF007C
:1028F000910723A0E605E39767FE2302C7038347FA
:10290000670293F7C70F2303F702A389D18751B753
:102910009387418803A8070093878186884393069D
:10292000000481473306F8000C423306F500910796
:102930002CC2E399D7FEB78700402382E70203C782
:1029400067021377C70F2383E7028547A389F186C0
:102950008DB7634F050289CD85476383F502FD5727
:102960006399F506371700408327870A3D8D31A804
:10297000371700408327C70A5D8D2326A70A828068
:10298000371700408327870A5D8D2324A70A82809A
:102990000605058199CD85476385F502FD57639A44
:1029A000F502371700408327870C3D8D2324A70CA1
:1029B0008280371700408327C70C5D8D2326A70C24
:1029C0008280371700408327870C5D8D2324A70C56
:1029D000828009458280B71700406348050003A73D
:1029E000470A798D3335A000828083A7470C7D8DFF
:1029F00006050581C5BF411122C437140040832755
:102A0000840C3787008006C626C2D98F2324F40C95
:102A10008327840C372700808D45D98F2324F40C1D
:102A20008327840C3747008037850080D98F232483
:102A3000F40CD53A8D4537250080F5328D45374564
:102A40000080D5328327840CB704008013850408E6
:102A5000C98F2324F40C8D45F93213850401854573
:102A6000D9328327C40A09678D45D98F2326F40AF2
:102A70008327C40A05670965D98F2326F40AEFF076
:102A80003F908D450565EFF0BF8F85453705408048
:102A9000593A854513050020EFF09F8E8327C40A1D
:102AA000B240924493E707012326F40A22448D455D
:102AB000414541016FF0DF8C8280B7E700E01307EA
:102AC00000FB238DE740930600FCA38AD7409306C2
:102AD00000FD238AD740238BE74013070006A38C11
:102AE000E7402380E7428280828083D70189639810
:102AF000A7002399B188239AC188239BD18882801B
:102B0000411122C406C683C785002144C18B95EFBD
:102B100003C80500894701446319F802D841834777
:102B2000170003470700A207D98FC2070D67C187A7
:102B300013072790639BE700CC453285239006015D
:102B4000094697200020E78040E92285B2402244D0
:102B50004101828041677917630CE502411122C46B
:102B600006C685472A84639AF50022852244B2402E
:102B7000938501F741016F70F02889476396F5004E
:102B80008545EF90305275D1B24022444101828098
:102B900082800111C16706CE13870189F9171CC312
:102BA0001306F100854723220700854513055030A1
:102BB000A307F100EF70A16DF2400561828018411A
:102BC0008D476314F702835785004C4101111306AA
:102BD000E100174500201305253406CE2317F10028
:102BE000EF00806EF2400561828082808D4763082D
:102BF000F50091476301F50289476313F50603C7A2
:102C000025009947631EF70403D7450083D7018940
:102C10006318F704BDBF03C7250095476312F70487
:102C2000C16703D70189F91703D5A5006304F7002D
:102C30006F70710C2398A18883D7E500096613068D
:102C400006902399F18883D7050103C58180239AD3
:102C5000F18883D72501A145239BF1886F1000736C
:102C60008280011106CE85476308F6008947630814
:102C7000F600F240056182802E859137DDBF9841D4
:102C80008D47E318F7FE83D78500CC411306E1009A
:102C9000174500201305C5492317F100EF00C06256
:102CA000C9BF79714AD006D622D426D24ECE52CC94
:102CB00083C78500214993F70702C1EF03C80500C8
:102CC00089472E8401496316F80803A845002A8A1B
:102CD000B2848347180003480800B689A207B3E707
:102CE0000701C2070D68C187130828906393070383
:102CF0008547EF5070492A8909ED83C7140003C73F
:102D000004004800A207D98FB337F00085073EC200
:102D10007D350357A4009737002083D78780631938
:102D2000F7008D4748003EC22316310126C4413DBD
:102D30000357A4009737002083D7A781631BF700B0
:102D40008D4709464C0052853EC22316310126C4E8
:102D5000093FB25022544A8592540259F249624ABC
:102D6000456182804111938501F706C6EF50903C82
:102D7000B2407D151335150041018280011122CC2E
:102D80002E84938501F726CA06CEAA8432C6EF5058
:102D9000703A058929C132468547630EF600894796
:102DA0006304F602A2856244F2402685D2440146BD
:102DB00005616F601014972700209387E77383D70E
:102DC000A7022310F400F9BF972700209387C7724A
:102DD00083D7A705FDB7F2406244D2444945056157
:102DE000828041119397050122C406C626C24AC0BB
:102DF000C1872E8463D1070203C58180EF10E007ED
:102E000019C1EF10E0002165218DB24022449244A7
:102E100002494101828093F7150091CF17260020C7
:102E20001306066A9385418A03C58180EF704119B4
:102E300013451400D9BF93F7850099CF83C78180CC
:102E40001307400681465146A14503D50189EF701D
:102E500081101345840055BF93F705010145D5D76F
:102E60009387C1809C4385446389970081C70D493E
:102E70006375F9161345040149BF93868189984209
:102E800036896306F70E8947E316F7FE03D50189F5
:102E9000D13D03D7018919E9C167F917174500200A
:102EA00013050529E318F7FC2121E9B73A85EF203E
:102EB000C04B7515239CA18A174500201305452793
:102EC000652E83D7818B6362F5081386818B9745C6
:102ED00000209385A5261745002013056525B129F7
:102EE0001375F50F23AE018A51F503D6818B014787
:102EF0008146ED4503D501892399C18AEF50C05D14
:102F000023AAA18A6302051203D6218B97450020CC
:102F10009385C52297200020E78020AC0326090076
:102F20009385018B03D50189913D55C18D4723A61A
:102F3000F180ED451385018BEF50E0710946C145E5
:102F400003C58180EF10804435B79387C18B9443CC
:102F50002947BE84E36BD7F61146C14503C581807E
:102F6000EF10C0429C40850723AEF18A21B703D5FC
:102F70000189CD3B03D7018911E9C167F917E31B2B
:102F8000F7EE17450020130525F939BF3A85EF20E4
:102F9000C03D7515239CA18A174500201305C5F770
:102FA000E12C83D7818B636DF5001386818B974568
:102FB00000209385A518174500201305E5F505B7F2
:102FC0009384C18B9840A947E3E1E7FE71B7854739
:102FD00023A6F180239C018A95B703D6818B0147F4
:102FE0008146ED4503D501892399C18AEF50C04E32
:102FF00023AAA18A15C903D6218B97450020938562
:10300000E51397200020E780409D938781899043B6
:103010009385018B03D50189953301C523A62181B1
:1030200009BF23A691807DB7894723A6F18039B7D0
:1030300041654111938501F77D1506C6EF70805CEF
:1030400017050000130545B1EF90407DB24097266B
:1030500000209386665141469D45172500201305A3
:10306000A54941016F70404E01111705000013057D
:1030700085D706CEEF10E06B2384A1808547A3019E
:10308000F100B7F5070099472312F1008146930735
:10309000803E3000E10519452313F1009710002010
:1030A000E780C05E172700201307474281479946F3
:1030B00030003E960346060085070507A302C700B9
:1030C000E398D7FE13063100854513055030EF70A5
:1030D000011C172600201306E649C545130570306C
:1030E000EF70E11A172600201306463ECD45130562
:1030F0006030EF70C1195000894513051031EF7031
:10310000011913066100894513052031EF7021185C
:10311000172600201306C63CD5450145EF405077E1
:103120009305000A0D45EF30C03F9305000A114595
:10313000EF30203F85473000914513057040230153
:10314000F100A301F1002302F10002C423030100F6
:10315000EF60211013062100854513050040EF6044
:10316000410F13063100854513051040EF60610ED5
:1031700013066100854513052040EF60810D500066
:10318000854513055040EF60C10C5D357D55EF401E
:10319000107E7D55EF70E043C167F9171385C18933
:1031A00023A8F18823AA0188EF40B169854503C5AA
:1031B0008180EF10400BF24005618280411117457C
:1031C00000201305E5F606C6FD2011E989470946EA
:1031D000C14503C5818023ACF188EF10201B174542
:1031E0000020130565D3C12801EDB240854723AC0B
:1031F000F18803C581800946C14541016F1000195E
:10320000B240410182804111130600109745002011
:10321000938505E217450020130585F106C6B52004
:1032200013060010974500209385C5CF1745002051
:10323000130545DF9928130600089745002093855C
:10324000A5C517450020130525CD8120B2401306E2
:10325000000897450020938565BB1745002013059E
:10326000E5C241011DA0411106C6812EB929EF70AA
:10327000C12AB2404101CDBB83572500035505004B
:103280003385A740420541818280AA8705C2130782
:10329000F6FFB376C700054599EA23A00700CCC323
:1032A0002394C7002395E70001458280054582806D
:1032B00023200500828083570500035525003385B0
:1032C000A740133515008280AA871145B5C72DC6C2
:1032D00083D6070003D787000D45369783D627008E
:1032E000158F4207418329CB0145B9C58356060096
:1032F0006373D700BA86C206C1820147131507015E
:1033000041816366D5002310D60001458280338554
:10331000E5008348050003D8A70003D5270005076B
:1033200033780501C84342952300150103D52700D2
:1033300005052391A700D9B78280AA871145ADC39F
:1033400025C283D6070003D72700158F83560600B2
:10335000420741836373D700BA86C206C18209451A
:1033600021C301471315070141816366D50023106E
:10337000D6000145828003D5070003D8A700337823
:103380000501C8434295034805003385E50005075C
:103390002300050103D5070005052390A700D9B731
:1033A000828029C50357050083572500998F3E87E2
:1033B000C207C1836373F6003287420741838147A6
:1033C00063E4E70001458280835605000356A500AB
:1033D0008507758E5441B29683C606002380D500BA
:1033E0008356050085062310D500D9BF114582807C
:1033F00041111305800406C697000020E780E050C5
:10340000EFF06FDFEFF06FEB130520039700002064
:10341000E780E06785450565EFF0AFD3EF00100367
:103420009935EFF08F9CEFF06FBCEF007006EF0066
:10343000100397100020E780005EEFF00FB9BD3B4E
:10344000EFF08FBDEF001014DDB7411106C6EFE0BD
:10345000DF93BD4763F4A700EFE03F93EFE03FBB8E
:10346000BD4763F4A700EFE09FBAB24083D5218641
:1034700003D5018641016F108019411193962500F3
:10348000AA852D4506C697100020E7802020B2406F
:10349000014541018280411126C29394250022C436
:1034A0004AC02A843289A686AA850146254506C6D1
:1034B00097100020E780801DA6864A86A2852945B0
:1034C00097100020E780801CB240224492440249B9
:1034D000014541018280011122CC06CE3714004003
:1034E00026CA4AC84EC652C483447405034AB4056A
:1034F0008349840503499405EFE0BF868347A4050B
:1035000093F4F40F137AFA0F93E71700230DF404E2
:1035100093F9F90F1379F90FB717004003C7A705FF
:10352000058B6DFF03D5C705A38D4705238C370594
:10353000A38C2705A38B9704F2406244D2444249EE
:10354000B249224A0561828041119397050122C444
:1035500006C6C1872E8463DD0700EF00101219C173
:10356000EF00100B2165218DB24022444101828081
:1035700093F7150013C51500E5FB9397250163D05C
:103580000702EF20C11ED13537F60200130606E010
:10359000896503C5018CEF00705F0965E9B79397F2
:1035A00015010145E3D207FC13060064916503C5CC
:1035B000018CEF00B05D11657DB71D71494697A57F
:1035C00001009385A5A217A50100130565BB86CE52
:1035D000A2CCEF00704311E101A037F700E0F957EA
:1035E0005CC7FD571CCB0564B7E700E023A087103C
:1035F0009306701014C3B843C146B4C323A0871800
:10360000B8C3010001001306C00381454808EF005C
:103610009039972700209387677F3ECAED47A30123
:10362000F1029307A0102312F102D1472303F10204
:10363000A167938707E03ECE97070000938727E4B2
:10364000BEC497070000938747E5BEC6854723049D
:10365000F102B5472308F10297F7FFFF938767EB65
:103660003EDAB7F5070097070000938707E73EDECD
:10367000814697070000938787DD7000E1051945B3
:10368000BEC0231C810097100020E780200058084E
:103690008147994670003E96034606008507050758
:1036A000A30AC700E398D7FED24791C70357810109
:1036B00085676373F70001A04808EF10000B11C184
:1036C00001A0F64066442561828041111705000083
:1036D0001305C5E706C622C4EF10A0051384018CAC
:1036E0002300A4002928034504002244B24037F6F1
:1036F0000200130606E0896541016F00304941115F
:1037000006C622C493067005371400402300D40473
:10371000130780FA2300E4048347F40293F7A70F0A
:10372000A307F4022300D4042300E4048347F40233
:1037300093E72700A307F402093B1305407E23000B
:10374000040481470147814605468545EFE01FB0E7
:103750002244B240014541016F10E02D411122C4C5
:1037600006C626C203C4218D29E02389B18CB73453
:10377000004085472383F480BD67938707A6330500
:10378000F502EFE07FD9B7E700E03707000223A09A
:10379000E71083C7248093E717002381F4802285F4
:1037A000B24022449244410182801304F00FC5BF0D
:1037B0002389018C373700408347278093F7E70F31
:1037C0002301F780828023A4A18C8280814719C5C0
:1037D0001307F00FFD576313E50085473E85828090
:1037E000131715009387C18C4111BA9722C403D4D3
:1037F000070006C626C24204418093771400638402
:10380000070C93770401AE8489C793C4F5FF93F442
:10381000F40F9377440081C78544639D050A93772D
:10382000840099C79305004003C50181EF00B023D0
:103830009377040281CB2685513FAA853785008086
:10384000EFF02F919377040489CB26854137AA8521
:10385000370500804105EFF0CF8F9377040881CBC7
:103860002685AD37AA8537250080EFF08F8E9377B8
:10387000041091CB2685993FAA8537050080130552
:103880000508EFF00F8D9377042099C726853D3FFB
:10389000AA854145EFF0EF8B9377044099C72685C1
:1038A0003537AA854145EFF0CF8A9317440163D39A
:1038B00007022685213FAA8541452244B240924411
:1038C00041016FF00F8919E52E850937AA85374523
:1038D0000080E5B7B2402244924441018280411108
:1038E00022C406C626C293F715002E8489CF13057D
:1038F0000040FD55EFF04F9C13451400B2402244A8
:1039000092444101828093F72500B1CBB717004064
:1039100003A7870CB78600808D45558F23A4E70C3D
:1039200003A7870CB726008037850080558F23A416
:10393000E70C03A7C70CB7460080558F23A6E70CFA
:10394000EFE07FAE8D4537250080EFE0DFAD3745F6
:1039500000808D45EFE03FAD1345240045B793F758
:103960004500B1CBB717004003A7C70CB78600804E
:103970008D45558F23A6E70C03A7C70CB7260080FB
:1039800037850080558F23A6E70C03A7C70CB746E1
:103990000080558F23A6E70CEFE0FFA88D45372563
:1039A0000080EFE05FA8374500808D45EFE0BFA7BE
:1039B00013454400A1B793F7052095C3371700407E
:1039C0008327C70CB746008037450080D58F232654
:1039D000F70C8D45EFE03FA51345042005B793F79D
:1039E000850095C3371700408327870CB7460080B2
:1039F00037450080D58F2324F70C8D45EFE0BFA21B
:103A000013458400E5BD93F705019DC737170040B6
:103A10008327870CB78600808D45D58F2324F70C2C
:103A200037850080EFE03FA0372500808145EFE03B
:103A30009F9F13450401D9B593F705029DC737052C
:103A40004080EFE05FF9938741819C43630CF50070
:103A500023AAA1803335A000B305A04093F5F50F4C
:103A60000145BD3B1345040251BD93F705049DC7B5
:103A700013050020EFE03FF6938781819C43630CA0
:103A8000F50023ACA1803335A000B305A04093F529
:103A9000F50F0545B133134504048DB593F70508BB
:103AA00081CF83C7118DFD5591E385450565EFE015
:103AB0005FEA1345040899B593F705108DC73725BC
:103AC0000080EFE05FF19387C1819C43630AF500BA
:103AD00023AEA180814511C185450965EFE07FE7EF
:103AE0001345041021BD93F705400145E38807E025
:103AF00083C7018D09476377F7002388018C13453D
:103B00000440EDBB85072388F18C83D7C18C93F7E4
:103B100007029384C18C91C7FD5537850080EFE083
:103B20005FE383D7040093F7070499C73705008044
:103B3000FD554105EFE0FFE183D7040093F7070847
:103B400091C7FD5537250080EFE0BFE083D7040023
:103B500093F7071081CB37050080FD551305050845
:103B6000EFE03FDF83D7040093F7072089C7FD55B7
:103B70004145EFE01FDE83D7040093F7074089C774
:103B8000FD554145EFE0FFDC83D704001397470163
:103B900063560700FD554145EFE0BFDB83D72400A6
:103BA00093F7070291C7FD5537850080EFE07FDA74
:103BB00083D7240093F7070499C737050080FD5584
:103BC0004105EFE01FD983D7240093F7070891C779
:103BD000FD5537250080EFE0DFD783D7240093F72A
:103BE000071081CB37050080FD5513050508EFE070
:103BF0005FD683D7240093F7072089C7FD55414539
:103C0000EFE03FD583D7240093F7074089C7FD55E0
:103C10004145EFE01FD483D7240013974701635633
:103C20000700FD554145EFE0DFD20946930500400E
:103C300003C50181EF008075D9B521469385418D7B
:103C4000173500201305C5506FF02FE4411106C64B
:103C5000ED37EFF04FDBB24041016FE01FB20111D1
:103C600022CC06CE173400201304844E17350020D2
:103C70001305054EEFF02FE409C5F24062440561DB
:103C8000828005469305F1002285EFF08FF1F9BFA0
:103C90004111170500001305C5C406C622C4EF0074
:103CA0005029138401815146930500022300A4008A
:103CB000EF00900103450400514693050004EF0016
:103CC000B000034504001306000593050008EF004B
:103CD000A07F034504002244B240514693050010E2
:103CE00041016F00607E93774504B1CB9307F00BE1
:103CF0006304F5029307F00F630BF50293071005B9
:103D00006314F5049387818C9C43130720F8238068
:103D1000E700A388018C82809387818C9C430547B0
:103D200085452380E7001305401F6FF03FA393876D
:103D3000818C9C43130720F82380E70082809387BF
:103D4000818C9C432380070082809387818C9843D9
:103D50008546834707006396D702B786004083C62F
:103D600086001306E002631ED6009306000C631A59
:103D7000D500930610F82300D700A388F18C6FF0CC
:103D80003FA382809387818C984303470700931653
:103D90008701E18663DE0604411122C406C63E8423
:103DA00093071008630DF700930720086309F702D3
:103DB0001C4023800700B24022444101828001461A
:103DC000914503C50181D9232946A14503C5018138
:103DD000752B5146C14503C501814D2BD1BF01460D
:103DE0009305002003C5018155232946A145E5B768
:103DF000828023AC05FE1C4191E7010001000CC14B
:103E00008280BA8703A787FF6DFF23ACB7FE82804D
:103E10001DC18346E5FF1307F00F9147639EE6003F
:103E2000411106C697100020E780805FB2408147AD
:103E30003E854101828095473E85828001E90145AA
:103E400082800145B240224441018280411122C456
:103E50002A84210542059305D004418106C69710A6
:103E60000020E780405271DDFD572320050023121A
:103E700085002303F5002105F1B71387C18D1C438D
:103E8000411122C426C24AC006C601440149BA846F
:103E900089E7A16595250DC401A803C7E7FF63184D
:103EA000A7021DC8A165C1269840832784FF631718
:103EB000E40223AEF18CFD57232C04FE230FF4FE05
:103EC0002285B2402244924402494101828011E09D
:103ED0003E8983A787FF6DBF3E84E5BF232CF9FE93
:103EE000D9BFA9C9411122C406C62A849737002028
:103EF00083C7972A2E856368F400193F0D45B240A9
:103F000022444101828083A785FF99E703C7E5FF2B
:103F10009307F00F6305F700E53D1545CDB7238FF7
:103F200085FE1385C18DF13522852244B240A165FD
:103F3000410115AE1545828023AE018C82809387A6
:103F4000418F9C4399E33E85828003D72700631607
:103F5000B70003C70700E308A7FEDC47E5B7411138
:103F6000939705014AC006C622C426C2C1872E897E
:103F700063DE0700193711C1613D21653345A90092
:103F8000B24022449244024941018280AA860145FE
:103F9000E5D901443D47B3578940858B95CB93873D
:103FA000818E8443BD4791E28147A2978E070545E4
:103FB000BE9433158500131405019C40C840418010
:103FC000829723A0040023A20400334524014DBF9F
:103FD0000504E312E4FC0144CDBF9737002093872A
:103FE000E7179C53411122C406C61384018295C76A
:103FF000829723A0A1820840B74703009387D73F49
:104000003305F502B7A72600938737ECB240224468
:104010003E9523A0A182410182809737002093879B
:10402000A71718409C4BBA9723A0F182E9B7938752
:10403000018E90439736002083C61616814713F7EA
:10404000F70F6360D70A17370020034717299147F6
:1040500063E0E70A9737002083C7C72C918BC9EB31
:104060000111680006CE22CC26CAEFC0A04AFD5638
:10407000630FD50C32479737002083C7570F63F380
:10408000E70C173700201307271140471737002088
:104090000347070E6305D406058B21CF5147330430
:1040A000E40263F1870A97100020E78020B8B24746
:1040B0006373F400A287173700200347570B998FCB
:1040C0003E9597370020938767098387470163CD23
:1040D0000702B707C0A86369F502B70740573E95C6
:1040E00025A085071397170032970357E7FF21DBB9
:1040F0008280130790023304E40205805DB76207F3
:104100006187635707001D8D19E93705C0A801A80D
:10411000E37BF5FE3707C0A8B307F7403E95973716
:1041200000209387A703DC53829709ED973700207F
:104130009387471A9C4F99C7EF10811EEF100177A4
:10414000EF106112F2406244D244056182809737D9
:10415000002093876704DC47E386A7FE173700201B
:104160001307C7FF83464701BA84858A9DC6514419
:10417000338487029737002083C777FFE3F487FCF7
:1041800097100020E78080AA9737002083C737FE6A
:104190001D8C2295838744011DBF13049002338434
:1041A00087020580C1BF2A9609E582800505A30F15
:1041B000B5FEE31DC5FED5BF81473307F5000307F4
:1041C000070019E33E8582808507C5BF01112E8651
:1041D00026CAAA84131506019305F004418122CC56
:1041E00006CE32C697100020E780E0192A8419C550
:1041F0003246A68597000020E780207E2285F24087
:104200006244D2440561828081476314F60005450B
:1042100082803307F5008507B386F5000347070062
:1042200083C6F6FFE383E6FE014582809307F6FF2F
:10423000BE952A966313C5008280FD1583C71500BD
:104240000505A30FF5FEFDB7814711E90145828001
:104250003307F50003470700E31AB7FE8507E319A4
:10426000F6FE054582809737002083C7F7F2637F0B
:10427000F5001387018E9317150008433E95835769
:104280000500DD8D2310B500014582800D4582803B
:10429000FD570111173700202326F7F09387418F30
:1042A00022CC80434EC697390020938929EB26CA39
:1042B0004AC852C456C206CE5AC02A8981444E8A80
:1042C000973A0020938A4AED184481476374E900C5
:1042D000B307274103A749021CC409CB03A7CA009F
:1042E00063F6E70017370020232EF7EAA1E783558E
:1042F00024009DE95C44A1E823AAF18E032BC400AD
:10430000228597100020E780A0115A8455FC83274E
:104310004A0285CF6244F240D2444249B249224A1D
:10432000924A024B056121B3034504002D3F5C40D6
:1043300081CB1CC483572400D5DFA2844044F9B745
:104340001C44CDDBC5BFDCC455BFF2406244D2443F
:104350004249B249224A924A024B0561828097370C
:10436000002083C777E36371F5021387018E9317EB
:104370001500084393C5F5FF3E9583570500FD8D55
:104380002310B500014582800D45828097370020BB
:1043900083C797E06364F50001458280411122C420
:1043A00026C24AC006C62A842E89B284EFF03FB9DD
:1043B00001C504C505452DA0936504F0C205C18162
:1043C000414597100020E78000FC0DE19737002061
:1043D0009387C7D89C5B81C7A28511458297014509
:1043E000B240224492440249410182809387418F26
:1043F0009C438DE323AAA18E85472326050004C58F
:104400002311250123008500A300F50023220500C8
:1044100055B7BA87D84775FFC8C7F9BF45C53971C1
:104420005AD0138B818E22DC26DA4AD84ED652D44B
:104430005ECE66CA6AC86EC606DE56D262CC3689C1
:10444000328AAE89AA8401445A8DB94D854BF94C04
:1044500003270B00131C3400937AF40F62971C435C
:10446000A9EF13B5FA0013451500B3978B0063F657
:104470005D01930714FFB397FB0093950701C1817A
:10448000528629371DC983270D000145E29784C351
:1044900023A237016304090023005901F25062543A
:1044A000D2544259B259225A925A025BF24B624C90
:1044B000D24C424DB24D216182800504E31A94F939
:1044C0002145E9BF09458280411122C426C24AC064
:1044D00006C6AA842E893284553DCA852685EFF00A
:1044E0001FA609C940C10145B24022449244024975
:1044F000410182802145CDBF411122C426C24AC05C
:1045000006C6AA842E89EFF09FA32A8419C123111D
:1045100005009737002083C727C863949700239628
:10452000218FCA852685253D014511E01945B240F8
:10453000224492440249410182807547636BA7047B
:104540001387818E1443411126C293143500A69619
:10455000944222C406C6AA873A84094595C613B573
:10456000F7003947134515006373F700C5178545F4
:10457000B395F500C205C18141371C400145A6979E
:1045800023A0070023A20700B24022449244410125
:10459000828009458280411106C6EFF05F9A09C505
:1045A0000845B240410182800145E5BFF54763ED12
:1045B000A7049387818E9C4313173500BA979843BD
:1045C000894721C7011126CA06CE9334F50022CCB3
:1045D000B94793C4140063F3A70045150544331489
:1045E000A400420441802EC62685A2856D378947E6
:1045F000324609C5A2852685513B8147F240624477
:10460000D2443E850561828089473E85828023921F
:10461000A18E2393B18E8280411106C623A8A18E5C
:104620000295B2409737002023A2A7B80145410167
:104630008280994763E9B7008A05973700209387FE
:10464000E7B7BE9588C18280411106C6EF50F1736D
:104650007146814517350020130545B6EFF0BFB40C
:10466000130640028145173500201305E5B2EFF02F
:104670009FB323AA018E23A8018E9737002083C7FA
:10468000A7AF13D527008D8B3E958D473305F502D7
:104690009305101035051375F50F97370020238EFD
:1046A000A7AE99473305F5021305050F97100020B3
:1046B000E78060CD23A4A18E35C999471736002025
:1046C0000346A6AD3306F60281451306060FEFF04A
:1046D0009FAD9387818E9C439387070F23ACF18E08
:1046E00017370020034767AB0A07BA9723A0F18E5C
:1046F000EFF09F8445269387818F9843973700205A
:1047000083C797A993962700BA9617060000130649
:10471000468590C293862700850793F7F70F8A078F
:1047200097350020A38AD5A6BA9790C3B24041011D
:1047300082809737002083C737A6173700200347AA
:10474000C7A563F1E7021387818F1843938617008B
:1047500017360020A302D6A493962700369708C3E5
:104760003E8582809307F00FE5BF1C41638E0718DA
:1047700041777D8FB706002089476318D718035704
:10478000450063040718411122C419462A84930581
:10479000F00F590506C6EFF03FAB05478D476300A4
:1047A000E5161C4481CB58589947630A0714185CD6
:1047B000630707141306C00381451735002013054E
:1047C000E599EFF05F9E1306C003A2851735002020
:1047D0001305C59897000020E78020209737002018
:1047E00083D78798973600209386469799E7930753
:1047F0000010173700202319F7969737002083C73A
:10480000C79691E78547173700202300F79697371B
:10481000002083C7979591E7ED4717370020A3063F
:10482000F7949737002083C7679491E79547173728
:104830000020230DF7929737002083C7379391E725
:10484000854717370020A303F7929737002083C7C7
:10485000379299E783C7060117370020A30AF7901C
:104860009737002083C7A79091E7D14717370020DB
:10487000230FF78E9737002083C7279095E71737C8
:1048800000200347E78E1316870161869307C00255
:10489000634806009377170093B717009387D702F2
:1048A00017370020230BF78C9737002083C7378CEE
:1048B00095E7173700200347A78B131687016186FA
:1048C0009307C002634806009377170093B7170059
:1048D0009387D70217370020A30BF7888347D401AB
:1048E00091E7894717370020A308F7889C5691C79E
:1048F0008297973700202394A78AB9338147B24023
:1049000022443E854101828089473E858280011193
:1049100022CC06CE2A842EC6EFF02FECB245F24010
:10492000818D33A5A502229562441375F50F0561AB
:104930008280011122CC06CE2A842EC6EFF0EFE948
:10494000B245F240818D33A5A5022295624442050D
:10495000418105618280011122CC06CE2A842EC6B7
:10496000EFF0AFE7B245F240818D33B5A502229555
:10497000624405618280972700209387277E98579D
:1049800025C3411122C426C206C6BE84029717372A
:1049900000200357C7802A8441C7BA876373A700E2
:1049A000AA87C207C183BA866373E400A286C206DF
:1049B000C182958F51476355F706DC5491C38297A6
:1049C000854717370020230BF790EF00515A9727A0
:1049D00000202396877CB240224492444101828089
:1049E0009737002083C7878F9DE7973700209387ED
:1049F000678E83C79700850793F7F70F1737002057
:104A0000A30EF78CA18B9DC785471737002023176E
:104A1000F78C6F00B15B97370020A381078CD5BF5F
:104A20009737002083C7878BDDD72244B24092445A
:104A30004101C5B782809727002093872772D857F6
:104A4000011122CC06CE3E8401C72AC60297324508
:104A500011CD23AEA18E170500201305A51EEFF082
:104A6000BFBBF24062440145056182808307440177
:104A700063DD07009727002023AC0772970700200B
:104A80009387E71623AEF18EF9B797070020938737
:104A9000E719CDBF011122CC172400201304046CA8
:104AA000084406CE26CA4AC801E90545F2406244D8
:104AB000D2444249056182805C58E5DB185C75D7B9
:104AC0007000854582971844B247E300F7FE9305CE
:104AD000E004172500200355256997100020E78082
:104AE000808A172700202327A76C61D11726002072
:104AF000035686679305F00FEFF0EFEA814417291C
:104B00000020130969699727002083C707660326D9
:104B1000C90163C1F402328597100020E7804090FC
:104B200001459727002023A707689727002023A582
:104B30000768ADBF9725002083D50563B38795022D
:104B40000844185C898185043E9508C2029765BFB8
:104B5000411122C417240020130444601C4426C2BF
:104B600006C64AC0972400209384046391EBC84C86
:104B700035E9B24022449244024901454101828014
:104B80001C5CF5D7DC4C99EF9305E0041725002059
:104B90000355855D97000020E780E07E9727002081
:104BA00023AAA760C84C61D5172600200356C65B10
:104BB0009305F00FEFF02FDF01499727002083C7FF
:104BC000C75AD04CE355F9FA9725002083D5C5592B
:104BD000338525031C44898105093E951C5C08C268
:104BE0008297E1BF97100020E780808397270020FD
:104BF00023A2075C9727002023A0075C9DBF01111B
:104C000056C2972A0020938A6A5583A78A0022CC2D
:104C10004AC84EC606CE26CA52C45AC0AA892E8495
:104C200032896385072203A74A03630707147D4778
:104C30006366A714972400209384045603AAC40132
:104C400063170A0A9565938515E01725002003551B
:104C5000A55197000020E78000739727002023AB21
:104C6000A7542A86630A051083A74A0303A58A006E
:104C70009725002083D5454F8981829783A78A0095
:104C800003AAC401172700202328F7528947639CF1
:104C9000F908C1476312F40E9725002083D5C54C4F
:104CA000938505FC9147B3C5F5028A05D29503C7E4
:104CB00005009307A005631DF70A83C715006399D4
:104CC000370B4A852286910597000020E780E0D0C7
:104CD000DC4C5285639347150145F2406244D2444F
:104CE0004249B249224A924A024B05618280985059
:104CF000E38EE7F89565938525E017250020035599
:104D0000A54697000020E78000682A8A35C52A86D4
:104D100083A74A0303A58A009725002083D5C544AD
:104D200089818297A5B78D47639DF900C1476315B7
:104D3000F4049725002083D52543938545FDF199FB
:104D4000B5B79147639AF90063183403972500209B
:104D500083D58541A115E5B7C147639FF900A147F8
:104D600063EC87009725002083D50540C115C1BF9E
:104D7000DC4C52856397470D294585B71307F0062C
:104D8000568B6361A70A130A05FE1947334AEA02E4
:104D9000172700200357473D972A0020938ACA3FD0
:104DA000330AEA023E9A83A70A026395470183A465
:104DB000CA019DE49305E004172500200355C53A78
:104DC00097000020E780205CAA845DD583274B03F1
:104DD0009725002083D545392A8689815285829777
:104DE00091451307A005898193972500A69783C64F
:104DF00007006393E60483C61700639C36038505AA
:104E00008A052286A6954A8597000020E780E0BCA7
:104E100083A7CA01E38297EC268597000020E780EC
:104E200020605DBD1307E007E368A7F4130A05F9E6
:104E300085B783D5270045BF83A7CA01E38E97F2C4
:104E4000268597000020E780A05D3DB797270020CA
:104E500093878734CC4F8DD191479306A0058983E2
:104E6000139727002E9703460700E317D6F0034653
:104E70001700631C360185078A072286BE954A857E
:104E800097000020E78060B581BD83572700C1BF30
:104E9000972700209387872C984739C79C5FA9C71D
:104EA00005476313E504411122C4172400201304AD
:104EB000A42E504C06C60DC608509725002083D559
:104EC000A52A89818297484C97000020E7804055A9
:104ED0009727002023A0072E9727002023AE072C1A
:104EE000B2402244410182808280011117270020B4
:104EF0001307C7264EC68329870022CC26CA4AC874
:104F000006CE52C456C2AA842E843289638A0920EE
:104F10001C5FBA8A99EB2945F2406244D244424967
:104F2000B249224A924A056182805C5BEDD7FD4717
:104F300063E9A70E972900209389092683A7C90151
:104F4000B1CB03A58A0083A709026395A706894709
:104F50006393F408C147E310F4FC172500200355C0
:104F6000A5209147130505FC3345F502931725004D
:104F700003A5C9012286CA853E959307A005230093
:104F8000F500A3009500110597000020E780E0A43C
:104F9000014559B79305E004172500200355C51CAA
:104FA00097000020E780203E9727002023A4A72019
:104FB00049F995B783A74A0303A6C901972500209D
:104FC00083D5851A8981829783A78A0017270020B5
:104FD0002324F71EADBF8D47639EF400C147E31C39
:104FE000F4F21725002003552518130545FD937786
:104FF000C5FFBDBF9147639AF400E31E94F01725E7
:105000000020035565162115DDB7C147E395F4F07F
:10501000A147E3E287F0172500200355E514411569
:10502000F9B79307F00663EAA706930705FE194749
:10503000B3C7E7021727002003570713172A0020DA
:10504000130A8A15B387E702BE998327CA01A9CF3D
:1050500083270A02639A37070325CA01914613087A
:10506000A005FD5593D72600C207C18313972700DB
:105070002A9703460700631D060783481700035657
:10508000270063959806B306D64063CF860485074C
:105090008A072286CA853E95C5BD9307E007E3ECE3
:1050A000A7E6930705F979B79305E00417250020D3
:1050B0000355850B97000020E780E02C9727002000
:1050C00023AAA70E51F581BD83A74A030326CA016F
:1050D0009725002083D5450989814E85829797279A
:1050E000002023AB370D8DBFA300B700B2869DBF54
:1050F000B385860017260020035606079105130680
:1051000006FCE3FAC5E0130634001376C60F110659
:10511000B29623000701A30097002311D70085BF93
:105120009727002093874707D44FBE89A1C203A5C4
:10513000C90191461308A005FD5593D72600C20763
:10514000C183139727002A970346070063160605B5
:10515000834817000356270063989800B306D6408B
:10516000E3D786F2A300B700B286C1BF8357C7005A
:1051700017250020034565FF9305E0043305F5027C
:105180004205418197000020E780E01F972700201B
:1051900023A2A70249FD41B3172600200356C6FCEF
:1051A0009725002083C565FCB385C502338686003C
:1051B0001106E3E2C5D681BF0145828083C70500A1
:1051C0002300F50083D72500A300F50083D7250031
:1051D000A1832301F50083C74500A301F500114514
:1051E000828023A2019023A00190828029C14111D5
:1051F00026C206C622C4AA8401458DC52E842285F6
:105200004146978501009385A5DF97F0FF1FE78052
:10521000C07C83C7040005452306F40083C714003F
:10522000A306F400B2402244924441018280014529
:105230008280011122CC26CA06CE0947AA84328474
:105240006381E50441468147639BC500638FE600A7
:105250006397B6000DA841478147638EE600F24090
:105260006244D2443E85056182808A852285BD3FA5
:1052700041468A8519A88A85953F41468A852285B7
:1052800031A0E39AB6FC2E86A2852685EFE0DFF7F3
:10529000AA87F1B723A2A1908280011122CC0354E6
:1052A000650006CE26CA4AC84EC641C0832985007D
:1052B000AE842A8803C909008147131789016187D1
:1052C00063550702B147054563FA87045114420448
:1052D00003552800418033878900A2864E86854584
:1052E000EF90305FB337A00085077D141355690038
:1052F000420405891379F90341802380F400A380D7
:10530000A4002381240123928400014719C013873C
:10531000190098C409476383E7000145F2406244DD
:10532000D2444249B249056182800545C5BFC16783
:10533000F917630AF502D94763F7B702011122CCC6
:105340002EC606CE2A84EF505049B2456368B50098
:1053500022856244F24005616F70C057F24062449A
:1053600005450561828005458280C167F917631490
:10537000F5006F509046411106C6EF70604511E18F
:105380005D45B2404101828039714ED656D25AD025
:1053900006DE22DC26DA4AD852D4AA8A2E8BB289BB
:1053A00041EF36C6D937CD45EF50B053AA844D49A9
:1053B0002DC9B246054A238034010544630A0B0017
:1053C000B68513851400029B050513140501418061
:1053D000E20993D9894163D30902C1455685EF702B
:1053E000604C654905E933868400A2852685EF90E7
:1053F00050122A8905E131044204418091472C086A
:105400005685231CF10026CE231D8100EF609058A5
:105410002A8901C963070A00268597000020E780D2
:105420002000F25062544A85D2544259B259225A4D
:10543000925A025B21618280BA84014AADBF011198
:1054400022CC26CA4AC84EC606CE2A893284B689DC
:10545000253FAA8405E1938741909C4381CF05476E
:105460006317E40003C4090005041374F40FA28554
:105470004A858297F240624426854249D244B24925
:1054800005618280AE860147054697050000938539
:1054900025D375B7011106CE2EC6EF70E02F01C9D6
:1054A000B245F2400355250005616FA00056F24059
:1054B000494505618280A38801922388019223AC2B
:1054C000019023AE019023A0019223A2019223AA6E
:1054D000019023A80190972700209387E7CF3707F3
:1054E000B40098C33747A000D8C33707100093060D
:1054F000070A94C7B7065000C106D4C7930607052C
:105500004107D8CB3707D007410798CF3707840327
:1055100098D337C70700130707B8D8D3416794CB90
:1055200093060701130717F8D8D7417723AE070072
:1055300094D798DB8280011126CAAA84214522CC07
:1055400006CE2E8432C636C43AC2EFE03F8F1DC964
:10555000A24612473246930700FD2300F500994703
:10556000A30095002301F5002303D500A303E50064
:105570002312C500AA8522856244F240D244056107
:105580006FE03F96F2406244D2440561828023ACD2
:10559000A190828023AEA190828023A0A1928280DC
:1055A00023A2A1928280011122CC4AC806CE26CA2B
:1055B0002A890144B30489006368B400F24062445C
:1055C000D2444249056182802EC6EFE01FA19317A5
:1055D0000501C183A183B2452380F4009307140021
:1055E00093F7F70F850463F9B700CA97090423807E
:1055F000A7001374F40F7DBF3E847DBFC1671725DC
:105600000020035505C1FD176302F502411103C6D1
:10561000C19B9385819206C6EF605079B240FD57D9
:10562000172700202317F7BE41018280828009C915
:1056300025151375F50F1335850E1345150082805A
:105640000145828023800500F94763E2C70879712C
:1056500022D426D24ECE56CA5AC806D64AD052CCEA
:105660005EC63684B289AE8A2A8B814463FF3405D4
:10567000B307940003CA0700138914001379F90FC4
:1056800063050A04B3072A0163C1F904B3072401BF
:1056900083CB07005E85613F0DC99307FAFF238026
:1056A000FA0063906B03130519002295B25022543F
:1056B00092540259F249624AD24A424BB24B456176
:1056C0008280D29493F4F40F55B70145C5B70145D4
:1056D0008280411126C2AE8422C49727002023A1D4
:1056E000C7B49727002023ABB7B29727002023A584
:1056F000A7B22A8441469305F00F26854AC006C604
:105700000549EFE07FB4631E2503972700209387A8
:10571000E7AF884BC145413D41469305F00F2285D7
:10572000EFE09FB28544631695022244972700203C
:105730009387C7ADB24092440249C847C145410171
:105740009DB5414681452685EFE01FB0E31625FD56
:105750006DBF414681452285EFE01FAFE30795FC11
:10576000B24022449244024941018280411122C444
:1057700026C22E84AA841306000281451725002024
:105780001305C5A806C6EFE01FA297270020A38037
:1057900097A8A38F819AEFA0C028854719C1814798
:1057A0004945B2402244172700202301F7A692441E
:1057B00041018280814781CD19C98547631BF5006E
:1057C00083C7550093E707FCA382F50085473E8514
:1057D000828089476317F50083C7550093F7F70365
:1057E000E5B70D478547E314E5FE03C7550013777A
:1057F000F70313670704A382E500D1BF81478DC17A
:1058000005C103C755009306000C85471377070CA5
:105810006308D700930600048D476303D7008947C8
:105820003E858280411122C4005D06C626C21DC885
:10583000AA84085009C597000020E78060BE485040
:1058400009C597000020E780A0BD085409C597004E
:105850000020E780E0BC228597000020E78040BC64
:1058600023AC0402B240224492444101828009EDFB
:105870009727002083C7A799172500201305859A2D
:1058800081CB13858190828017250020130585998F
:105890008280172500200345859782809727002066
:1058A0009387C796C84782809727002093870796DB
:1058B000884B82809727002093874795DC4B88434D
:1058C00082809727002093876794D84B1C438507D5
:1058D0001CC317250020034595939307F00F63051C
:1058E000F50091656FE03F988280011122CC06CED1
:1058F0002E8432C6EF6090799147B245631FF50060
:10590000938741929C438DC303A30700630E03005A
:1059100022856244F240056102839387C1919C43D2
:1059200081C703A34700DDB7F24062440545056126
:105930008280011122CC2A840355450006CE26CA56
:105940004AC84EC6EF60705535C52A8983440500A4
:105950008349C500C13D4A85EF70D04C03554400D2
:10596000EF60506E83C70193B1CB6399970483C5F1
:1059700011932685EFF01FB219E123880192035598
:105980004400EF60B0709147631FF5000357440077
:105990009727002083D7E7876317F700FD5717275E
:1059A00000202318F786F2406244D2444249B249AB
:1059B0000561828081499304F00F6DB79307F00F62
:1059C000E38FF4FA83466400035644000345240041
:1059D0004E87A685EFF03FB65DB779715EC6AA8B9C
:1059E0002E8552CC56CA5AC806D622D426D24AD0C0
:1059F0004ECEAE8A328B368AEF60304A75C1045D76
:105A00002A89F9CC9C50614599C3130540039C54E5
:105A100081C751054205418163050A0071054205B0
:105A20004181DC5081C7590542054181EFE00FC13A
:105A30002A845DC561468145EFE0EFF697190020A5
:105A400083C9897C6394090083490900930700FD99
:105A50002300F400A947A30074012301F4002303E9
:105A600064018C50231254011305840191C908C4A8
:105A70007146930A440397F0FF1FE78000F65685AE
:105A80008C5491C948C45146930A450197F0FF1FB1
:105A9000E780A0F45685630C0A0008C87146D285D9
:105AA000930AC50197F0FF1FE78020F35685CC507D
:105AB00099C548C8594697F0FF1FE78000F2A285B4
:105AC0004E85EFE00FC22254B2509254F249624A1E
:105AD000D24A424BB24B4A85025945616FF09FD47E
