:040000006F10904F9E
:1000040000000000000000006F0080086F00002363
:1000140000000000000000000000000000000000DC
:1000240000000000000000000000000000000000CC
:100034006F004006000000006F00E00500000000B3
:100044006F0080056F0060056F0040056F0020059C
:100054006F0000056F00E0046F00A02500000000A1
:100064006F0060046F00B0566F00104A6F00000408
:100074006F0090546F00C003000000006F00600325
:100084006F00D0506F0020036F0000036F00E00288
:1000940001A001A001A001A001A001A001A001A054
:1000A40001A001A001A001A001A001A001A001A044
:1000B40001A001A001A001A001A001A0B717004068
:1000C400130770052380E704130780FA2380E704ED
:1000D4002396A70223800704371700408347270588
:1000E400898BEDDF835707053717004083472705C2
:1000F400898BEDFF3717004083472705898BEDDF98
:10010400035507058280B7170040930670052380C6
:10011400D704130780FA2380E70403C6B7041376D1
:10012400F60DA385C70423800704137605022DC6A4
:1001340003C6A700118A0DE22380D7042380E704B5
:1001440003C7A700136747002385E7009307004B05
:1001540001000100FD17EDFFB7170040930670057D
:100164002380D704130780FA2380E7047D8923942E
:10017400A70001000100010001002380070423807F
:10018400D7042380E7049306100537270040A30310
:10019400D780238007048280137605046DDE03C6AE
:1001A400A700418A0DE22380D7042380E70403C714
:1001B400A700136707012385E7009307007D01006B
:1001C4000100FD17EDFFB71700409306700523806B
:1001D400D704130780FA7D892380E7041365050497
:1001E4002394A700010001000100010023800704FB
:1001F4002380D7042380E704930630053727004083
:1002040079B74111814601468145114506C6EF0083
:10021400304BB7170040130770052380E70413071A
:1002240080FA2380E70403C7670413671700238356
:10023400E70423800704B2404101828081460146DD
:1002440081451145EF00D047B7170040930670056C
:100254002380D704130780FA2380E7047D5623966E
:10026400C7022380D7042380E70403C76704136706
:1002740017002383E7042380070401A0BD47330547
:10028400F50201007D1575FD8280411122C426C24C
:1002940006C6AA84014463179400B24022449244DF
:1002A4004101828005041305803E4204C13F418020
:1002B400DDB7011122CE26CC4ACA4EC852C63784B5
:1002C40000408344640085453745008093F4F40F6F
:1002D40097F0FFDFE780600F93F72400E38F0718A0
:1002E400834774001307000393F707036385E7024A
:1002F40083477400094793F7F7036388E73A636613
:10030400F70A6387071405476383E734B787004018
:1003140009472383E7003787004083477700E207D4
:10032400E187E3DE0716930720FC2301F702138716
:10033400418600438349740083476400A209B3E9FA
:10034400F900239D318783471400A38CF1868344ED
:10035400040093F60406638306562D47636DF7364F
:10036400254763F8E700FD1793F7F70F0947636321
:10037400F75EE204E184814663D2040283D7A18755
:10038400930600043E8763F4F60013070004420753
:100394004183998F9376F70F239DF186B7870040A9
:1003A4002380D702130700FC55AB93061002638128
:1003B400D724930620026389D73093060002E3977B
:1003C400D7F483C7918795466385D7069946639E7C
:1003D400D7069387A18703D4070013070004BE84BC
:1003E400637487001304000493874186138901888A
:1003F400884342048325090041802286979001E0C6
:10040400E780E06483D704009379F40F818F239D00
:10041400F186832709003E9423A08188B787004092
:100424002380370303C72702134707042381E70206
:10043400F1BD8347340083C6A18793F70708D58F9E
:10044400A301F4002301E402D1B523000402DDBFBB
:10045400834784008347240293F7370F2301F40270
:1004640003C78187058B938781876307071683C733
:10047400070003C901AB03C411AB93F7E70F238C47
:10048400F1869387C1AA83A9070083C421AB638C37
:1004940009004E8597F0FFDFE780808E4E8597F048
:1004A400FFDFE78060B1E38304E699476381F406E4
:1004B40063E9970295476383F4048547630BF90660
:1004C400630909068947630FF9069147E3E087E466
:1004D400179701E0130747640A043A941C40BA973B
:1004E40082879D47638EF402A147E398F4FC373773
:1004F40000408347370093E7370039A0373700407F
:100504008347370093F7C70FA301F7007DB7373749
:1005140000408347370093F7C70F93E71700EDB701
:10052400373700408347370093F7C70F93E7270017
:10053400E1BF373700408347370093F7B70FA30174
:10054400F70061B7373700408347370093E7470028
:10055400FDB7373700408347370093F7770FA30180
:10056400F7006DB3B737004003C737001367870040
:10057400A381E70003C737001377F70CA381E700D3
:1005840071B3373700408347370093E78700A301EF
:10059400F7008347370093F7F70C93E70701C1B7D8
:1005A400373700408347370093E78700A301F700FC
:1005B4008347370093F7F70C93E707024DB7B73734
:1005C400004003C7370013678700A381E70003C710
:1005D4003700136707035DB703C70700098BE307F9
:1005E40007D283C7070093F7D70F238CF18639BB53
:1005F4008347640293F7C70F93E727002303F402AA
:10060400A389018683C74187E38207D0238A0186B1
:100614001387C1AE81479385C1B693060004338620
:10062400F50010429107110750DFE39AD7FEB78710
:10063400004003C751872382E70203C76702137789
:10064400C70F2383E7028547A389F186C1B1834796
:10065400740093F70704E38B07CA83478400138568
:10066400C1C29385C1AE238BF18613070004814771
:100674003386F5001042B306F500910790C2E39962
:10068400E7FE378700408347670293F7370F93E706
:1006940087002303F70203C5C1AE8547A38BF18608
:1006A400970000E0E780203195B18347740093F709
:1006B4000704E38D07C4834784008347A40293F7A8
:1006C400370F2305F40299B18347A40293F7C70FA8
:1006D40093E72700FDB7130710026386E7021307A9
:1006E40020026387E706130700026395E72683C7A2
:1006F40001AB638E071A0947E39DE7C683C7818769
:1007040093E727004DAA971700009387A77B23A0A0
:10071400F188A1474E8963F33701214942091359EE
:1007240009014A86971500009385C579228597901B
:1007340001E0E780C03183D7A187B3872741239D98
:10074400F186938701889C433E9923A0218915B1A2
:1007540083C701AB1389C1AAE39D07C0834729005E
:1007640013841187858BC5CB83470400898BD9EF0C
:100774008347040093E74700A388F1868347040076
:1007840093E78700A388F18683470400854593E7B0
:100794001700A388F1868347040093E72700A38802
:1007A400F186056597F0FFDFE78020C283472900C3
:1007B400898BD5CB8347040093F70702C5E38347AE
:1007C400040093E70704A388F1868347040093E7B2
:1007D4000708A388F18683470400854593E707014A
:1007E400A388F1868347040093E70702A388F18670
:1007F40005651305058097F0FFDFE78000BD03451D
:100804000400970000E0E7804014A5B68347040085
:1008140093F7B70F85BF83470400898B9DCB83472C
:10082400040093E74700A388F1868347040093F705
:10083400770FA388F18683470400814593E7170067
:10084400A388F1868347040093F7D70FA388F18622
:1008540089BF8347040093F7B70FE1BF83470400C0
:1008640093F7F70BBDB78347040093F707029DCBBB
:100874008347040093E70704A388F18683470400B1
:1008840093F7F707A388F18683470400814593E72C
:100894000701A388F1868347040093F7F70DA38823
:1008A400F186B9B78347040093F7F70BE1BF83C719
:1008B400818793E71700238CF18665BCA94663EB17
:1008C400F608979601E0938666268A07B6979C43B6
:1008D400B697828783473400034724008946A207DA
:1008E400D98F13D787006303D7080D46630AC70857
:1008F40085476311F70A979701E09387673223A02E
:10090400F1880149C947C207C18363F43701239DB4
:10091400F1869387A18703D607009307000463F445
:10092400C70013060004138A01889319060183255E
:100934000A0093D909014E862285979001E0E78049
:10094400001103260A004E9623A0C1889307F00FD6
:10095400E311F9A2B78700401307F0FC2381E702F3
:10096400B787004009472383E70015AE979701E056
:100974009387472423A0F18801499307B00661B700
:1009840093F7F70F0546638BC7009DCB6381D702AE
:100994006381E7041309F00F8147B5B7979701E026
:1009A4009387471F23A0F1880149A947A9BF9797B7
:1009B40001E09387E71E23A0F1880149D147A1B73D
:1009C400979701E09387877B23A0F188014991479A
:1009D4001DBF03C7E1AA179901E01309A925630AFA
:1009E400C7006306D7046316F700179901E01309DB
:1009F400E9254A85979001E0E780C0101375F50F4B
:100A04009307150086072386F1C28D47A386F1C29A
:100A14009387C1C20147BE861376F70F8907636DBA
:100A2400A60023A0D18883C7C1C20149E9BD179993
:100A340001E01309E92075BF3306E9000346060007
:100A4400A380070005072380C700F9B78347240064
:100A5400239DF1866FF0FF9183C721872300F40063
:100A640003D7A187854763F4E700239DF186854773
:100A7400238EF1866FF0FF8F834724002389F1864C
:100A84006FF03F8F13F7F4018947E314F78E834720
:100A9400440091466382D70C63E0F6026384E7085E
:100AA4006365F70A0547E397E7EA3787004083471A
:100AB400670293F737071DA0130720086388E7042C
:100AC4006362F70213071008E396E7E837870040EC
:100AD4008347670293F7C70B93E727002303F702C3
:100AE4006FF03F89130730086385E7041307400854
:100AF400E392E7E6378700408347270393F7C70B62
:100B040093E727002309F7026FF0BF863787004079
:100B14008347A70293F7C70B93E727002305F70240
:100B24006FF03F85378700408347A70293F7370765
:100B3400F5B7378700408347E70293F7C70B93E77E
:100B440027002307F7026FF0DF82378700408347CF
:100B5400E70293F73707F5B7378700408347270342
:100B640093F7370745B713F7F4018947E313F78081
:100B74008347340083462400A207D58F639B07FE76
:100B84008347540083464400A207D58F9146638867
:100B9400D70663E2F602638DE706636DF70805473F
:100BA4006399E7FC378700408347670293F7370769
:100BB40093E7C70025B7130720086384E706636F2C
:100BC400F700130710086396E7FA37870040834756
:100BD400670293F7C70B93E7370009B71307300889
:100BE4006383E706130740086395E7F837870040F7
:100BF4008347270393F7C70B93E7370021B737875A
:100C040000408347270393F7370793E7C700DDBD09
:100C1400378700408347A70293F7370793E7C70056
:100C2400F5BD378700408347A70293F7C70B93E7C7
:100C34003700EDB5378700408347E70293F737075E
:100C440093E7C700FDBD378700408347E70293F76A
:100C5400C70B93E73700F5B52300040003D7A1873A
:100C6400854763F8E7F0EDB3230004001C43A38039
:100C7400070003D7A1878947EDB793F714009DCFE9
:100C8400A301040089472301F402C9472303F402A2
:100C94002305F4022307F40285472303F400814566
:100CA4003745008097E0FFDFE78020727244E2441A
:100CB4005249C249324A05617300203093F7440017
:100CC400A9C3034754009387A18D118B05C303D790
:100CD400070013672700239DE18C83D70700ED9B52
:100CE400239DF18C1147B7870040B5B903D707009E
:100CF40013672700239DE18C83D7070093E7470000
:100D0400C5B72303940061BF85453705408097E04C
:100D1400FFDFE780806B3737004083474700994601
:100D2400BD8B6389D70231476381E704114763951B
:100D3400E702014597E0FFDFE780003FFD553745B7
:100D4400008097E0FFDFE780406897E0FFDFE780FF
:100D5400E02919A08347570081453705408097E073
:100D6400FFDFE78080667300203097E0FFDFE780D5
:100D7400C029FD553715008097E0FFDFE780E06468
:100D8400054597E0FFDFE780203AF9B7411122C615
:100D94008547373400402303F4C0054597E0FFDF5F
:100DA400E7808038834724C093F7E70F2301F4C01A
:100DB4003244410173002030B71700401307000389
:100DC4002388E702854723A2F18C73002030B737CC
:100DD400004005472383E78003C7C18D8547631718
:100DE400F7009387818C9C4323800700238E018C1A
:100DF400373700408347278093F7E70F2301F780B5
:100E0400730020302303048015472303E48001008A
:100E14002302A480828083076480E3CE07FE230339
:100E24000480828083076480E3CE07FE0345448008
:100E3400828083076480E3CE07FE2302A48082803D
:100E4400411126C44AC24EC006C61377F50BAD47FE
:100E5400AA892E8995446306F70019456537653FCD
:100E64008D444E854537FD59FD1463983401B240D5
:100E7400A244124982494101828013550901137524
:100E8400F50F453F2209CDB7011126CC06CEB70494
:100E9400080051371545BD37713769372AC6A53F54
:100EA40032459377150089EB136515001375F50F1B
:100EB400F240E24405618280FD14E9FC0145CDBFA6
:100EC400397126DC4ADA4ED852D656D45AD25ED07C
:100ED40006DE62CE66CCB7E700E07D5783AA070042
:100EE40022C603AA470023A0E71823A2E718B717CE
:100EF4000040130770052380E704130780FA23805A
:100F0400E70483C74704930B75FFB684E20793FB9A
:100F1400FB0F8546AA892E8B328937240040E1874E
:100F2400015763FA76016308D50089461307000266
:100F34006313D5000157D98F93F7F70FB71C0040FF
:100F44002382FC0411472303E4801305F00F5D3D65
:100F5400094CD13563697C11B70707003E9B37877D
:100F640007007955637EEB02B3079B00636AF702BF
:100F7400A9476399F90689E48144713D26850DA04A
:100F8400DA850945753D05090345F9FFFD14050B8F
:100F94004D3581C49377FB0FFDF7FD3569FD7D5514
:100FA400B7170040130770052380E704130780FA7E
:100FB4002380E70403C74704418B2382E704F250EC
:100FC400B7E700E023A0571123A24711E2543244AB
:100FD4005259C259325AA25A125B825B724CE24C89
:100FE40021618280A5476395F90685691309F00F8D
:100FF400B3069900B3742B01B6941349F9FFB37483
:101004009900856B33796901416B9387F9FFB3F7D5
:10101400270199E363FC340193D94900C147E3E60E
:1010240037FF99BF0569C1697D19D9B71305800DCB
:1010340063886901130500026384790113051008AC
:10104400CA85FD3B913521DD4E99B3843441D9B72E
:10105400DA852D45F533CA94E30099F20509D933AD
:10106400A30FA9FED5BF9387F9FF93F7F70F636C1E
:10107400FC0803C75C04B70708001377070219E3E9
:10108400B78707007955E37DFBF033079B00E3E95D
:10109400E7F089476390F9048980D549E38E04EC2D
:1010A400DA850945713B11090327C9FF91472320BC
:1010B400E48003076480E34E07FE23033481FD17B5
:1010C400EDFBFD14110B81C49377FB0FE9FF6D3B1E
:1010D40071F5F1B58547E387F9F4DA852D458D334C
:1010E4009389F4FFE38A04E8353B93F7390091EBE5
:1010F400832604800327090093074900E39FE6E65B
:101104003E89CE84F1BFB5476396F9001305900B71
:10111400D5399DB5B1471305B00AE38BF9FE99475C
:10112400639EF902DA852D45213B81448D4BA1490B
:10113400D53963967401832704802320F90085043C
:10114400E39834FF8327048013172B0163550700AA
:101154002312F90015B52322F90039BD9D4763997F
:10116400F90281451305B004E139BD442320090087
:1011740023220900FD597D3193F77400CA9703C7F0
:101184000700FD14398D2380A700E39634FFEDB3E7
:10119400A1476392F904CD398144630D0B008D4757
:1011A4009304C0036308FB009304000563048B01EC
:1011B400930440041375C507E30095DC1945993180
:1011C4009939054581312685AD3109459D316D3902
:1011D400E31405DAE9B391476399F900130560064E
:1011E400153115391305900925B7E38709D8F1544A
:1011F40069B309CDB7170040130770052380E704CE
:10120400130780FA2380E7042396A702828019C17A
:10121400814799E982803387F500834607003307C5
:10122400F50085072300D700E397C7FEE5B719C18A
:10123400FD5781E98280910503A7C5FF1105232E7F
:10124400E5FE7D16E319F6FEF5B7797122D417246D
:1012540000001304E4591C4006D626D24AD04ECED0
:1012640091C782979727000023A407585C4089CB35
:1012740003D5818FBD3F5C40829703D5A18F953FF5
:101284001C40639907189727000083C73768858B2C
:1012940095C797270000A38B07661727000003470D
:1012A4001767914763FCE7004D2B9727000083C71E
:1012B4001766F9178A07A2979C438297972700001D
:1012C40083C78769918B89C7971001E0E780403E07
:1012D4001C4491C382979387418F9843172600003B
:1012E4000346D64E3E89972400009384244E9727C4
:1012F400000083C7A74D93961700BA9683D60600BD
:10130400638006109727000083C7474C63F2C70821
:1013140086073E97835507002310070003D5818F66
:101324002EC623900190F1359387C1909C431725D5
:1013340000000345A54913172500BA979C43B245FD
:101344008297AA8903D5A18F6D359727000083C79B
:10135400E747139717008327090003D50190134526
:10136400F5FFBA9703D7070033753501598D2390DC
:10137400A70083C70400850793F7F70F172700001A
:101384002306F744172700000347574463E6E700A2
:1013940097270000238C07421C40ADEF93874190B0
:1013A40098433E8425CB9727000083C7975691CB5B
:1013B4009727000083C7B75589E7971001E0E780B6
:1013C400E0DF1C4082972A8431C59C48AA971727DE
:1013D40000002325F740938781909C4385CF03D554
:1013E400818F013D2285970000E0E780A0B122545F
:1013F400B25092540259F24903D5A18F4561D5BB2D
:10140400850793F7F70F972600002381F63CE3E066
:10141400C7EECDBDB250225492540259F2494561EF
:1014240082809167B7C600409387373023A6F620A1
:101434000F1000009727000093874739884F938740
:1014440041A09C43316713073730F053B7071000AE
:10145400FD17918F99833A0523A6E6205D8D82803E
:101464004111B7170040985F3AC6945F3247E39C36
:10147400E6FE324541018280411106C6D5379726E2
:10148400000083C62632858AB1C6930730333307FA
:10149400F502B337F5023983CA07D98F172700003D
:1014A4001307C732584B01456303F7023385E740FE
:1014B400636BF70037653D0889C637856F081305E8
:1014C4000590198D3E9517270000232BF730B24065
:1014D40041018280E5473307F502B337F5022583DE
:1014E400DE0765BF0327C50F8346B50097270000B5
:1014F400938787419C4F5843938616029582904365
:10150400FD1693F6F60F10C3D04350C3904710C78F
:10151400D04750C7904B10CBD04B50CB904F10CFEF
:10152400D04F50CF91C61307070293870702C1BF5C
:1015340082808347E50193F7E70FF1E72A870345A4
:10154400F50171E1034607018346870009CA834513
:10155400A7029727000083C7F72463E7F50093F7F2
:101564000601C5C7814709C6C18A8357071581C6C5
:1015740003574715BA97D1CB1727000013074744E1
:101584003847411122C406C67D548326070863F3F5
:1015940086003684184375FB17270000034787200D
:1015A40093168701E18663D906029387C71395834F
:1015B400172700000347A71FBA9763D006041D8CA2
:1015C400938701919C4382973335A400B24022440F
:1015D4001345150041018280058B9387C71209CBFF
:1015E4008A079387F7031305D007B3D7A702C9B7B0
:1015F4008607FD071305D003CDBFE372F4FC37055E
:10160400C0A82A946DBF014582808280411122C402
:101614001384419F18404AC006C61C5F26C2138922
:10162400019F9983858BC1C31C5F97240000938419
:10163400A42D93F7F7F91CDF9727000083C7C72C65
:1016440093F707048DC3938701919C43829797274F
:10165400000023A3A72C83C7040093F7F70B1727D5
:1016640000002303F72A854717270000A300F72A61
:1016740083C7440093F7070481EF938741A09C43F9
:10168400D844B8D3930700FC172700002300F72899
:101694008387640063D90700832709009C431727C5
:1016A40000002306F72618401C5F8583858BC9CB71
:1016B400F5571CDF010001000100010001000100D9
:1016C400010001000100010001000100010001000E
:1016D40001000100010001000100010001000100FE
:1016E40001000100010001000100010001000100EE
:1016F40001000100010001000100010001000100DE
:1017040001000100010001000100010001000100CD
:1017140001000100010001000100010001000100BD
:1017240001000100010001000100010001000100AD
:1017340001000100938741A09C4313075004B8CBD8
:1017440018401C5F9183858B89CFBD571CDF93871D
:1017540041A09C4323A807048547172700002307BB
:10176400F71A83270900D8430583058B19C7D84383
:10177400759BD8C3D843799BD8C3B24022449244C2
:10178400024941018280397106DE16DC1ADA1ED85C
:101794002AD62ED432D236D03ACE3ECC42CA46C80D
:1017A40072C676C47AC27EC09535F250E252525364
:1017B400C2533255A255125682567247E2475248D6
:1017C400C248324EA24E124F824F21617300203024
:1017D400938741A09443172700001307E712BC52D4
:1017E40089CF83472700858B89EB83473700858B17
:1017F400FDD797270000238B07108280938701A0D1
:101804009C4399CB944BD04B9842518F98C29443AC
:101814009C479842D98F9CC2938741A09C4337C769
:1018240000401306C003A8CB9306200397250000AD
:101834009385850D83278720C18393F7F703636915
:10184400F60083278720C18393F7F70363E6F60046
:1018540083C74500858BF9DF8280938741A0944339
:10186400172700001307470ABC5289CB8347070098
:10187400858B91CB97270000238A070897270000C0
:10188400A3860708828083471700858BF1DFDDB7C5
:10189400938701A09C4399CB944BD04B9842518F92
:1018A40098C294439C479842D98F9CC2938741A085
:1018B400944337C70040C145A8CA6546832787209B
:1018C400C18393F7F70363FBF50083278720C18364
:1018D40093F7F7036364F600BC52EDF38280138739
:1018E400419F1843AA87185F1583058B25EF03458D
:1018F400150015051377C51F19C6B386E70083C6FF
:1019040026002300D60095C59726000083C626002E
:1019140093F606040945A1CAB386E70083C63600D8
:10192400054693F5F6066390C504E206E18663CCAA
:1019340006023385E7008347150003470500A20725
:1019440093F70770D98F1397070141839376074064
:1019540099C613670780239EE19E01458280239EDA
:10196400F19EE5BF05458280938641A08C42368571
:1019740097260000938646F9984593170701C1837B
:10198400137817203E86630408041377072079C36D
:1019940003C7260013671700172800002307E8F67B
:1019A40013070019B8D1130700F897250000238FF7
:1019B400E5F41387419F0C4337080010D855719BF9
:1019C40013672700D8D598413367070198C1137767
:1019D400261005C31376061059CE03C706001367F5
:1019E4001700172600002301E6F217270000231131
:1019F40007F283C6460093C7F7FFC207E206E186F3
:101A0400C183184163D106029396170163DE06066B
:101A140030538D4663E9C600854617260000230728
:101A2400D6EE3453FDFE97260000938666D6838651
:101A3400460163DD060093960701C18663DC060454
:101A44007053894663E4C6007453FDFE1447F58F52
:101A54001CC7828003C71600136717009725000070
:101A6400A384E5EA17270000230207EA17270000EA
:101A7400231007EAA9BF03C7360013671700172608
:101A84000000A304E6E895B7854617260000230F57
:101A9400D6E651BF54471396060163510602B706B2
:101AA4001000FD1674D397260000938626D2944E18
:101AB4008506172600002327D6D249BFA166D58FF5
:101AC40071B7397106DE16DC1ADA1ED82AD62ED47E
:101AD40032D236D03ACE3ECC42CA46C872C676C45A
:101AE4007AC27EC05135F250E2525253C25332553B
:101AF400A255125682567247E2475248C248324EA5
:101B0400A24E124F824F216173002030172700002C
:101B1400130747E18346B7019727000083C7D7E33C
:101B2400B69793F7F70FFD4663EAF6044C4B9726F6
:101B34000000A389F6DE9727000083C7B7DE0547B8
:101B44003317F70097260000A388F6E06D8F1DEF8A
:101B54009726000083C696E0B3F6D7021305000269
:101B6400814733D6F500058A13F8F70F09CE639938
:101B7400E60097270000A38707DB828081177DB7E3
:101B840005071377F70F8507E39DA7FC82809387EA
:101B940001A19843B75702009387279F832607091B
:101BA40013965600635806008326070913966600A9
:101BB40063440600FD17FDF3828051C9AA870145DD
:101BC400C9C98D07C207C183F19BC207C18313072B
:101BD4004003636BF702138741AA08431387C1A923
:101BE40014436396A60217270000130767BA185B0D
:101BF400014525C34111C20706C60545DD8D02977F
:101C0400B240014541018280138701AAF9B7035705
:101C1400650005EF035745006369F702B306F74013
:101C240021466370D6021041938687001D8FAA96C1
:101C3400611790C22392E6002393060014C1231275
:101C4400F5002313B50021058280084159BF0145E1
:101C54008280828001CD938741AA03A807009387DD
:101C6400C1A98C430147C28763E3B70082809443D0
:101C7400636FF50663EDA60613868700E368C5FE69
:101C840003D56700216605066317C50003C6C19A1C
:101C940005062386C19A23930700638407031386EA
:101CA40001AA1042630FF6000356670019EA83D7AE
:101CB400470014C383564700B697A1072312F700C1
:101CC400BA879843E304B7FA938601AA9442E30FD0
:101CD400D7F883566700D9FA83D6470003564700DE
:101CE4001843A106B2962392D70098C382803E87F8
:041CF400B6879DBF53
:101CF800974100209381811C176100201301013056
:101D08001305400097250020938545AF173600201E
:101D18001306067E63FAC5008322050023A055003A
:101D280011059105E3EAC5FE17C50100130545C96C
:101D3800973500209385C57B1386018663FAC50015
:101D48008322050023A0550011059105E3EAC5FE8D
:101D580013850186975500209385C5506377B50094
:101D6800232005001105E36DB5FE9302800873A0DA
:101D7800023097220020938262A893E212007390A7
:101D8800523097220000938262827390123473005B
:101D98002030B717004003C777051377E70FA38BE9
:101DA800E704130700F8A38DE7043D47238CE704F5
:101DB80013075003A38CE7048280B717004003D5AC
:101DC80087005D715ED64205418186C6A2C4A6C25F
:101DD800CAC04EDE52DC56DA5AD862D466D26AD00D
:101DE8006ECE9377050C13070008814B6388E718BC
:101DF80013070004639CE714B7240D8F7D8993842F
:101E08000480B3D4A4029167938707E8BE94A167BE
:101E1800938707D0B3D4F402EFA0316297B70100DB
:101E2800938747539043D443EFA0F115EFB0612354
:101E38002A8B939C040103D9018693DC0C0163155A
:101E48000900056913090980B717004013077005D1
:101E58002380E704130780FA2380E704371A004039
:101E68000547939D0401096C85662389E704D14AD7
:101E7800814E8145130D0A0413087005130680FA74
:101E8800894893DD0D01130C0C712943FD162300BD
:101E98000D012300CD0023162A0323000D008347DC
:101EA8002A05898BEDDF83570A0583472A05898B25
:101EB800EDFF83472A05898BEDDF83570A052390B9
:101EC8002187C207C183338597419319050193D9A7
:101ED8000941638409163387B902635E070C850ECE
:101EE800C20E93DE0E0163E8D80D63D9050A3305E7
:101EF800B04093150501C185C204C18063D7350B75
:101F08000965130505713385A502B7170040130746
:101F180070052380E704130780FA2380E7042396DB
:101F28007703238007043345950242054181B64073
:101F3800264496440649F259625AD25A425BB25B29
:101F4800225C925C025DF24D61618280B1E3B774FC
:101F580089097D8993840480B3C4A4029167938717
:101F680007E8BE94A167938707D0B3C4F402EFA033
:101F7800D14C97B701009387673E6DB597B70100BD
:101F88009387073D856403AB07009384843855B570
:101F9800130B0000954471BD3A89D5BDB387FC4049
:101FA8009399070193D9094181BF09651305057103
:101FB8003385A9028DBF3385B74163E4FC003385BF
:101FC800FD40330585033344B5036345830013158A
:101FD8000401A9BF4E8536C642C432C2EFA0117CA7
:101FE800DA85EFA0914CEFA05175931E050193DEA1
:101FF8000E41B307D941C207C183056E3E87124619
:10200800224889482943B24663E3C7013687420715
:102018004183631A2701130719006344300113072A
:10202800F9FF42074183FD1A93FAFA0FCA8BCE854E
:10203800E3940AF62390E18659BF0145CDBDB71751
:10204800004003D587005D7186C642054181A2C460
:10205800A6C2CAC04EDE52DC56DA5AD85ED662D460
:1020680066D26AD06ECE02C69377050C13070008B5
:10207800638BE71413070004639FE710B7240D8FE1
:102088007D8993840480B3D4A4029167938707E879
:10209800BE94A167938707D0B3D4F402EFA0F139B7
:1020A80097B701009387072B9043D443EFA0A16D06
:1020B800EFA0317B2A89939A040103DB218693DA06
:1020C8000A0163150B00056B130B0B80B717004053
:1020D800130770052380E704130780FA2380E704B9
:1020E800939B040105478969056A2389E704D14D53
:1020F800014D814C93DB0B01938909717D1A5A8537
:1021080097100020E780407B330C5541420C135C4C
:102118000C412391618763010C16B3079C0363D1BB
:10212800070E050D420D135D0D01894763EAA70DE2
:1021380063DB0C0A33059041931C050193DC0C41C9
:10214800C204C18063D88C0B0965130505713385FA
:10215800AC02B7170040130770052380E704130784
:1021680080FA2380E70432472396E7022380070496
:102178003345950242054181B640264496440649B6
:10218800F259625AD25A425BB25B225C925C025D9F
:10219800F24D61618280B1E3B77489097D899384C6
:1021A8000480B3C4A4029167938707E8BE94A1672B
:1021B800938707D0B3C4F402EFA0312897B7010082
:1021C8009387C719D5B597B70100938767188564B2
:1021D80003A9070093848438F9BD130900009544C6
:1021E800D9BD3E8B29BF3385AA40131C0501135C5A
:1021F8000C41B9B70965130505713305AC028DBFEC
:1022080063FEAA003305754133053503A9473344F6
:10221800750363C8870013150401B1BF3385AB404C
:10222800E5B76285EFA09157CA85EFA01128EFA006
:10223800D150131D0501135D0D413307AB41420712
:1022480041838565BA876363B700D287C207C183B4
:10225800639A670193071B00634480019307FBFFA0
:10226800C207C183FD1D93FDFD0F5AC6E28CE39A98
:102278000DF62391F18645B70145FDBD41112A832D
:10228800014E930E407E130F0019930F400663EB27
:102298006E0A9308001913034006B3781503854E98
:1022A8000D4FA14F337365020D891335150063E592
:1022B800BE0C1308F6FF79467298420813580801B5
:1022C8003307C70213D61700BE0732976146B3F625
:1022D800C60213068070B386C6023697A166F58FCC
:1022E80042075D8FB717004083C6F70293F60608CA
:1022F800A307D1000346F10083C6F70293F6060848
:10230800E394C6FE8346F10093F6F60FF1DE9306DA
:1023180070052380D704930680FA2380D70423AA64
:10232800070383C6170393E60608A388D702D8DBFA
:1023380003C7170313670704A388E702238007046A
:10234800410182807D133368E3039308E016630E2E
:1023580008003368F3039308D016630808009378DD
:10236800330093B818009388D81633081E01131E3B
:102378000801135E0E0121BF6393E50305486386D8
:1023880008000148630303002A8871087298FD1544
:10239800131E0801C205135E0E01C18109BF13F89F
:1023A800150063F4BF007908D5B713381800E5BFE6
:1023B800914763EEB70217B701001307A7FA8A051A
:1023C800BA959C41BA978287B717004003A7470B75
:1023D8001345F5FF698F23AAE70A03A7070B698F3F
:1023E80023A8E70A03A7070A798D23A0A70A8280F2
:1023F800B717004083A6470B1347F5FFF98E23AAAA
:10240800D70A83A6070B558D23A8A70A83A6070A10
:10241800758F23A0E70A8280B717004003A7470BF0
:10242800498F23AAE70A03A7070B1345F5FF45BF02
:10243800B717004083A6470B1347F5FF758F23AAEC
:10244800E70A03A7070A598D4DB7B717004003A736
:10245800470B498FEDB7914763EEB70217B70100F5
:10246800130787F18A05BA959C41BA978287B717EF
:10247800004003A7470D1345F5FF698F23AAE70C12
:1024880003A7070D698F23A8E70C03A7070C798D0D
:1024980023A0A70C8280B717004083A6470D1347D7
:1024A800F5FFF98E23AAD70C83A6070D558D23A80F
:1024B800A70C83A6070C758F23A0E70C8280B7179B
:1024C800004003A7470D498F23AAE70C03A7070D70
:1024D8001345F5FF45BFB717004083A6470D1347BF
:1024E800F5FF758F23AAE70C03A7070C598D4DB785
:1024F800B717004003A7470D498FEDB7B71700403E
:1025080003D58700420541819377050491EB9377C2
:10251800F5013755E801130505803345F50282803A
:102528009377050C130700046397E7009377F50189
:1025380037459C1CCDB72165130505D08280B7F7B8
:1025480000E0C8439C478280B737004023A6A78095
:1025580009472380E78011472380E7808280B737C7
:10256800004023A6A7C009472380E7C0114723805E
:10257800E7C08280411122C406C62A844137294710
:10258800B307E502B2408D83B3D78702224495078B
:10259800B3D7E70237370040C207C1832316F700D5
:1025A80041018280716541111305052006C6D9379E
:1025B800B7370040130770F82381E7000D47A38160
:1025C800E70013070004A380E70005472387E70017
:1025D800B2404101828037370040834727001A05FF
:1025E80093F7F703C98F93F7F70F2301F70082805A
:1025F800B737004003C7170019C9D98DA380B700A2
:1026080003C70700136787002380E700828093C50C
:10261800F5FFF98DA380B7008280B787004023803B
:1026280007022382070223800700130700FC238682
:10263800E7003147A386E7001386C1AA9386C1AE97
:1026480023A2C18623A4D1861387C1BA23A6E18613
:102658009385C1C223A4B18842069385C1B623A23B
:10266800B1884182C2062398C700C1824207239AD3
:10267800D7004183239CE70009472381E7024947A4
:102688002383E7022385E702A3810700130700F8E5
:10269800A380E700130790022380E700B7160040E5
:1026A80003D7A601138501871367070C239DE6004E
:1026B8007D572383E700130710F8A380E7001D4721
:1026C8002381E700B706400037E700E02320D71052
:1026D80003C7170013671700A380E7006F10202AAD
:1026E80093F7150081C713C51500828093F725005D
:1026F800B1CF411183D7A18D22C406C69396470155
:102708002E841387A18D63DD06028357070093F794
:1027180007029DE783570700A18B9DE3B73500406B
:1027280083C7B5001D47636DF70083C7B500214611
:10273800A1051D8E420641821385C1C6EF00F061D6
:1027480013452400B24022444101828093F745009A
:1027580081C713C54500828093F785000145B1C73D
:10276800B737004003C7B7009387A18D1377F70FDA
:102778001DC703D7070013678700239DE18C3737F0
:1027880000400347A70083D707001377F70F01CF4F
:1027980093E70701239DF18C13C58500828003D739
:1027A80007005D9BD9BFBD9BF5B78280411106C666
:1027B8000547B73700402383E7C0B787930393875C
:1027C800077033D5A702930700053305F502413B8F
:1027D800B240B7E700E0054723A2E7104101828035
:1027E800B737004009472380E7C011472380E7C077
:1027F80003C727C0136717002381E7C08280B73754
:10280800004009472380E7C011472380E7C003C77A
:1028180027C01377E70F2381E7C082804111130691
:102828000020938541D81385C1C606C6EF00703BCA
:10283800B24013060010938541C8138581C7410132
:102848006F00303A011106CE2AC6A93B32451D3326
:102858000D45513395450545613BF240B7E700E02A
:102868003707000423A0E710056182804111138512
:10287800C1C606C6EF00B03901E9B24003C5718090
:10288800894541016F10B064B24041018280411115
:1028980022C471641305042006C6093F13050420E9
:1028A8005537170500001305E5E3EF20002F2244F4
:1028B800B240A383A1805146A14541016F20400742
:1028C80083C7718781CF373700401D469385D188EC
:1028D800138581888347B7006373F600828083C6B7
:1028E800D18883C7618763FEF6001C41B69783C70A
:1028F80007002304F70083C705008507A386F1882E
:10290800D1BFA3860188A38B018637870040834700
:10291800670293F7370F2303F7028280797122D475
:102928004AD04ECE56CA5AC862C406D626D252CC0F
:102938005EC62A89138441889389A18D938A81C7A9
:10294800138BC188138C8186B7340040056A930BBA
:10295800E00383C7A40093F7F70F9DEB630E09000C
:1029680083C7318703C7C188CDC3A38AE18685475A
:10297800238AF18623860188B25022549254025940
:10298800F249624AD24A424BB24B224C456182809C
:102998001C4083C6840003C7C188BA972380D70028
:1029A80083D70900B3F7470199C70C4005465685F8
:1029B800BA95EF00102E83470B00850793F7F70FA2
:1029C8002386F188E3F7FBF8084083250C0023866B
:1029D8000188814713070004B306F5009042B386C7
:1029E800F5009107B0C2E399E7FEB78700401307E7
:1029F800F0032382E70203C767021377C70F238315
:102A0800E7028547A389F18681B79387418803A8A0
:102A1800070093878186884393060004814733061D
:102A2800F8000C423306F50091072CC2E399D7FE53
:102A3800B78700402382E70203C767021377C70FEF
:102A48002383E7028547A389F1862DB7634F0502E3
:102A580089CD85476383F502FD576399F5063717D6
:102A680000408327870A3D8D31A837170040832708
:102A7800C70A5D8D2326A70A82803717004083275F
:102A8800870A5D8D2324A70A82800605058199CDD2
:102A980085476385F502FD57639AF50237170040AD
:102AA8008327870C3D8D2324A70C8280371700408D
:102AB8008327C70C5D8D2326A70C8280371700401B
:102AC8008327870C5D8D2324A70C8280094582808B
:102AD800B71700406348050003A7470A798D3335C7
:102AE800A000828083A7470C7D8D06050581C5BFA0
:102AF800411122C4371400408327840C3787008093
:102B080006C626C2D98F2324F40C8327840C3727C2
:102B180000808D45D98F2324F40C8327840C3747F4
:102B2800008037850080D98F2324F40CEFF0BF9202
:102B38008D4537250080EFF01F928D453745008081
:102B4800EFF07F918327840CB70400801385040875
:102B5800C98F2324F40C8D45EFF0FF8F13850401F2
:102B68008545EFF05F8F8327C40A09678D45D98FA4
:102B78002326F40A8327C40A05670965D98F232603
:102B8800F40AEFF0FF828D450565EFF07F828545F9
:102B980037054080EFF03F8C854513050020EFF0A6
:102BA8003F818327C40AB240924493E70701232652
:102BB800F40A22448D45414541016FF06FFF828040
:102BC800B7E700E0130700FB238DE740930600FCFE
:102BD800A38AD740930600FD238AD740238BE7407A
:102BE80013070006A38CE7402380E7428280828097
:102BF80083D701896398A7002399B188239AC1884C
:102C0800239BD1888280411122C406C683C78500D0
:102C18002144C18B95EF03C8050089470144631916
:102C2800F802D8418347170003470700A207D98F46
:102C3800C2070D67C18713072790639BE700CC4540
:102C4800328523900601094697200020E780E0DBC3
:102C58002285B24022444101828041677917630C82
:102C6800E502411122C406C685472A84639AF50005
:102C780022852244B240938541F841016F70105F6C
:102C880089476396F5008545EFA0400875D1B240A5
:102C980022444101828082800111C16706CE1387D8
:102CA8000189F9171CC31306F10085472322070081
:102CB800854513055030A307F100EF70D123F2408A
:102CC800056182801C4109476385E7020D47638DD2
:102CD800E70205476390E70683D7A18D93E70710BE
:102CE800239DF18C83D7A18D93F7F7DF239DF18C7A
:102CF800828083D7A18D93E70710239DF18C83D71A
:102D0800A18D93E70720DDB783578500011106CE13
:102D18002317F10083D7A18D139747016359070043
:102D28004C411306E1001385C1C6EF00606FF24005
:102D38000561828082808D476308F50091476301B1
:102D4800F50289476313F50603C725009947631EF3
:102D5800F70403D7450083D701896318F7042DBF0B
:102D680003C7250095476312F704C16703D7018994
:102D7800F91703D5A5006304F7006F70513E239837
:102D8800A18883D7E5000966130606902399F18880
:102D980083D7050103C58180239AF18883D725014C
:102DA800A145239BF1886F10F0248280011106CE83
:102DB80085476308F60089476304F606F240056113
:102DC80082809C4109476384E7020D47638CE702D0
:102DD800E396C7FE83D7A18D93E70710239DF18C57
:102DE80083D7A18D93F7F7DF239DF18CC1BF83D7DC
:102DF800A18D93E70710239DF18C83D7A18D93E7CD
:102E08000720DDB783D78500CC411306E1001745BD
:102E180000201305A5142317F100EF00606079BFA7
:102E28002E854D3561BF79714AD006D622D426D277
:102E38004ECE52CC83C78500214993F70702D1EFC4
:102E480003C8050089472E8401496318F80803A8B8
:102E580045002A8AB2848347180003480800B689C7
:102E6800A207B3E70701C2070D68C18713082890B6
:102E7800639507038547EF50B0772A8919ED83C713
:102E8800140003C704000546A207D98FB337F00022
:102E980085074C0052853EC2113F0357A40097276F
:102EA800002083D7076B631BF7008D4705464C004E
:102EB80052853EC22316310126C4CD3D0357A400D6
:102EC8009727002083D7E76B6319F7008D474800E1
:102ED8003EC22316310126C4F533B25022544A8526
:102EE80092540259F249624A4561828041119385A0
:102EF80041F806C6EF50906AB2407D1513351500AB
:102F080041018280011122CC2E84938541F826CA82
:102F180006CEAA8432C6EF507068058929C13246A8
:102F28008547630EF60089476304F602A28562446A
:102F3800F2402685D244014605616F60104297270A
:102F480000209387675E83D7A7022310F400F9BF98
:102F5800972700209387475D83D7A705FDB7F240E1
:102F68006244D24449450561828041119397050125
:102F780022C406C626C24AC0C1872E8463D107026E
:102F880003C58180EF10E03519C1EF10E02E2165EF
:102F9800218DB2402244924402494101828093F734
:102FA800150091CF17260020130686549385418A71
:102FB80003C58180EF70414713451400D9BF93F7CB
:102FC800850099CF83C78180130740068146514603
:102FD800A14503D50189EF70813E1345840055BF93
:102FE80093F705010145D5D79387C1809C43854454
:102FF8006389970081C70D49637FF914134504015C
:1030080049BF93868189984236896300F70E8947BC
:10301800E316F7FE03D50189D13D03D7018909E9F4
:10302800C167F917138581C7E31AF7FCF12EF9B7C1
:103038003A85EF20007A7515239CA18A138581C7EC
:10304800412E83D7818B6360F5081386818B974562
:103058000020938565F1138581C761291375F50FE4
:1030680023AE018A41FD03D6818B01478146ED4598
:1030780003D501892399C18AEF50900C23AAA18A0C
:103088006302051203D6218B974500209385C5ED71
:1030980097200020E7806097032609009385018B1D
:1030A80003D50189853555C18D4723A6F180ED45A6
:1030B8001385018BEF50B0200946C14503C58180B7
:1030C800EF10407325BF9387C18B94432947BE8473
:1030D800E36DD7F61146C14503C58180EF108071B5
:1030E8009C40850723AEF18A11BF03D50189FD3BBA
:1030F80003D7018911E9C167F917E311F7F01745FB
:1031080000201305A5E51DB73A85EF20806C7515DD
:10311800239CA18A17450020130545E4552C83D725
:10312800818B636DF5001386818B9745002093850D
:10313800A5E317450020130565E205B79384C18B05
:103148009840A947E3E1E7FE71B7854723A6F180D8
:10315800239C018A95B703D6818B01478146ED45AB
:1031680003D501892399C18AEF50807D23AAA18ABA
:1031780015C903D6218B974500209385E5DE972056
:103188000020E78080889387818990439385018B0D
:1031980003D50189853B01C523A6218109BF23A643
:1031A80091807DB7894723A6F18039B741654111E0
:1031B800938541F87D1506C6EF70500B1705000082
:1031C8001305E5A9EF90102CB240972600209386AE
:1031D800A63C41469D45172500201305E5344101CD
:1031E8006F70007D011117050000130545D806CE44
:1031F800EF10B01A2384A1808547A301F100B7F529
:10320800070099472312F10081469307803E30005A
:10321800E10519452313F10097100020E780004AC3
:10322800172700201307872D8147994630003E96BF
:103238000346060085070507A302C700E398D7FEE3
:1032480013063100854513055030EF70C14A172623
:10325800002013062635C54513057030EF70A149C7
:103268001726002013068629CD4513056030EF7018
:1032780081485000894513051031EF70C147130686
:103288006100894513052031EF70E14617260020BB
:1032980013060628D5450145EF5000269305000A78
:1032A8000D45EF30806E9305000A1145EF30E06D53
:1032B800854730009145130570402301F100A301B3
:1032C800F1002302F10002C423030100EF60E13E94
:1032D80013062100854513050040EF60013E1306E3
:1032E8003100854513051040EF60213D130661004C
:1032F800854513052040EF60413C50008545130586
:103308005040EF60813B5D357D55EF50C02C7D55B9
:10331800EF70A072C167F9171385C18923A8F188D6
:1033280023AA0188EF506118854503C58180EF10F5
:10333800003AF24005618280411183D7A18D06C60B
:1033480013973701635F0700138581C7C92011E907
:1033580089470946C14503C5818023ACF188EF1030
:10336800604917450020130565BF552001EDB2409F
:10337800854723ACF18803C581800946C1454101D1
:103388006F104047B2404101828041111306000886
:1033980097450020938585B417450020130505BC83
:1033A80006C68120B2401306000897450020938581
:1033B80025AA174500201305A5B141011DA04111FB
:1033C80006C6452E7D29EF70C15BB240410119BD8B
:1033D80083572500035505003385A74042054181E1
:1033E8008280AA8705C21307F6FFB376C700054592
:1033F80099EA23A00700CCC32394C7002395E700CC
:1034080001458280054582802320050082808357FC
:103418000500035525003385A74013351500828024
:10342800AA871145B5C72DC683D6070003D78700DD
:103438000D45369783D62700158F4207418329CB40
:103448000145B9C5835606006373D700BA86C2061C
:10345800C18201471315070141816366D500231016
:10346800D600014582803385E5008348050003D8EE
:10347800A70003D52700050733780501C8434295FF
:103488002300150103D5270005052391A700D9B707
:1034980082802A8729CD835605008357A500B697D1
:1034A800835625008507958FC207C183BE8663733F
:1034B800F600B286C206C1820D459DCB8147639452
:1034C800D70001458280035627000355A70003C88B
:1034D80005008507718D5043C207C1832A962300D2
:1034E80006010356270005062311C700C9BF114569
:1034F8008280AA871145ADC325C283D6070003D7AA
:103508002700158F83560600420741836373D7004F
:10351800BA86C206C182094521C3014713150701AE
:1035280041816366D5002310D6000145828003D50A
:10353800070003D8A70033780501C843429503481C
:1035480005003385E50005072300050103D50700BD
:1035580005052390A700D9B7828029C50357050020
:1035680083572500998F3E87C207C1836373F6008E
:10357800328742074183814763E4E700014582803F
:10358800835605000356A5008507758E5441B296EB
:1035980083C606002380D5008356050085062310C0
:1035A800D500D9BF1145828041111305800406C694
:1035B80097000020E780E034EFF08FD3EFF04FE082
:1035C8001305200397000020E780E04B854505653B
:1035D800EFF0CFC7EF00302DDD33EFF00F84EFF0C1
:1035E8000FABEF009030EF00302D97100020E780F0
:1035F8008045EFF0AFA78933EFF08FACEF00103FB5
:10360800DDB7411106C6EFE04FFBBD4763F4A700E5
:10361800EFE0AFFAEFE0BFA2BD4763F4A700EFE029
:103628001FA2B24083D5218603D5018641016F10C0
:103638008044411193962500AA852D4506C697100A
:103648000020E780A007B240014541018280411176
:1036580026C29394250022C44AC02A843289A686A9
:10366800AA850146254506C697100020E780000573
:10367800A6864A86A285294597100020E78000047F
:10368800B24022449244024901454101828001111D
:1036980022CC06CE3714004026CA4AC84EC652C4A9
:1036A80083447405034AB405834984050349940592
:1036B800EFE02FEE8347A40593F4F40F137AFA0F83
:1036C80093E71700230DF40493F9F90F1379F90F11
:1036D800B717004003C7A705058B6DFF03D5C705BE
:1036E800A38D4705238C3705A38C2705A38B970447
:1036F800F2406244D2444249B249224A056182807A
:1037080041119397050122C406C6C1872E8463DD43
:103718000700EF00103D19C1EF0010362165218D1B
:10372800B24022444101828093F7150013C5150069
:10373800E5FB9397250163D00702EF20C149D135F6
:1037480037F60200130606E0896503C5018CEF1001
:10375800600A0965E9B7939715010145E3D207FCAB
:1037680013060064916503C5018CEF10A00811656C
:103778007DB71D71494697A501009385A5CD17A56D
:103788000100130565E686CEA2CCEF00706E11E14C
:1037980001A037F700E0F9575CC7FD571CCB05645B
:1037A800B7E700E023A087109306701014C3B8434E
:1037B800C146B4C323A08718B8C30100010013068B
:1037C800C00381454808EF0090649727002093873D
:1037D80027683ECAED47A301F1029307A010231200
:1037E800F102D1472303F102A167938707E03ECE98
:1037F80097070000938727E4BEC4970700009387C4
:1038080047E5BEC685472304F102B5472308F10200
:1038180097F7FFFF9387E7D23EDAB7F507009707D8
:103828000000938707E73EDE8146970700009387ED
:1038380087DD7000E1051945BEC0231C8100971083
:103848000020E780A0E758088147994670003E9617
:103858000346060085070507A30AC700E398D7FEB5
:10386800D24791C70357810185676373F70001A0A9
:103878004808EF10003611C101A0F64066442561E2
:1038880082804111170500001305C5E706C622C44A
:10389800EF10A0301384018C2300A40029280345CD
:1038A80004002244B24037F60200130606E0896598
:1038B80041016F003074411106C622C49306700599
:1038C800371400402300D404130780FA2300E404CB
:1038D8008347F40293F7A70FA307F4022300D40445
:1038E8002300E4048347F40293E72700A307F402C4
:1038F800093B1305407E23000404814701478146A4
:1039080005468545EFE09F972244B24001454101B5
:103918006F10E058411122C406C626C203C4C18DE7
:1039280029E0238EB18CB734004085472383F48087
:10393800BD67938707A63305F502EFE0FFC0B7E739
:1039480000E03707000223A0E71083C7248093E72D
:1039580017002381F4802285B24022449244410119
:1039680082801304F00FC5BF238E018C37370040C7
:103978008347278093F7E70F2301F780828023A4EA
:10398800A18C8280814719C51307F00FFD57631377
:10399800E50085473E8582809386018DB387A60022
:1039A80003C707009387418E3388A70003460800A2
:1039B800930870021377F70F05061376F60F63E086
:1039C800C8022300C800130610086307C702636B08
:1039D800E600130707F8933517002DEDADA0230077
:1039E8000800D5B713062008630FC7001306300870
:1039F8006300C7028145D5B7AA9783C707009D8B87
:103A0800E9FFFD55D9BFAA9783C707008D8BCDBFA6
:103A1800AA9783C70700BD8BE9F31387018E2A97FE
:103A2800834707000D46850793F7F70F6365F60090
:103A38002300F700F9B72300070009E9930700F806
:103A48002388F18CFD5505656FF04F80AA96238079
:103A58000600FD550965CDBF131715009387418DE5
:103A68007971BA9726D283D4070052CC06D6C204FD
:103A7800C18022D44AD04ECE56CA5AC85EC693F7E1
:103A880014002A8AF9CF37850080EFF06F84370455
:103A980000803335A000931B150013050401EFF0D7
:103AA8002F833335A000131B250037250080EFF046
:103AB8002F823335A000931A350013050408EFF060
:103AC8002F813335A0001205931985014145EFF088
:103AD8002F803335A0001605131985014145EFE005
:103AE8003FFF3335A0001A05131485014145EFE067
:103AF8003FFE3335A0001E0533E5AB003365AB0050
:103B080093D9894133E5AA001359894133E5A900BE
:103B180061843365A900418D93D72440136515004E
:103B28007D8D89889337150099E0B337A0001385F8
:103B3800018D529595C38347050093E70708230035
:103B4800F500B250225492540259F249624AD24ABC
:103B5800424BB24B456182808347050093F7F707D4
:103B6800F9BF11CD8547E31EF5FC37250080EFE04E
:103B78003FF641C5930700F8A388F18CD9B703D75E
:103B8800A18D058B9387A18D01C72388018C55BF13
:103B9800130700F82388E18C03D70700098B19CB9A
:103BA80083D70700F59B239DF18C930730F8238872
:103BB800F18C41BF03D707001377071011C783D7CC
:103BC800070093F7F7EFC5B703D707001377070286
:103BD80001C7930710F8E1BF03D70700218B09E756
:103BE80003D70700418B01C7930720F8C9B783D7CC
:103BF800070093F70740B1D749BFA388018C91B755
:103C0800931615001387C18C4111369722C40354AB
:103C1800070006C626C24204418013771400AE8707
:103C28006304070C13770401AE8409C793C4F5FF36
:103C380093F4F40F1377440001C78544639A070A85
:103C48009377840099C79305004003C50181EF006D
:103C580010289377040281CB26852D33AA853785D2
:103C68000080EFE0BFDE9377040489CB2685193BFB
:103C7800AA85370500804105EFE05FDD93770408EA
:103C880081CB26850133AA8537250080EFE01FDC2C
:103C98009377041091CB2685F531AA8537050080E6
:103CA80013050508EFE09FDA9377042099C7268566
:103CB800D139AA854145EFE07FD99377044099C768
:103CC8002685C931AA854145EFE05FD8931744019D
:103CD80063D0070226857D31AA8541452244B2403A
:103CE800924441016FE09FD609C90547630FE50279
:103CF800B24022449244410182801384A18D81ED17
:103D080037450080EFE09FD48357040093E70740CE
:103D1800239DF18CF1BF854537450080EFE01FD327
:103D28008357040093F7F7BFE5B72E85A139AA8515
:103D38003785008065B7411122C406C626C293F7AD
:103D480015002E8489CF13050040FD55EFE03FE7AD
:103D580013451400B240224492444101828093F7F3
:103D68002500B1CBB717004003A7870CB7860080A2
:103D78008D45558F23A4E70C03A7870CB726008031
:103D880037850080558F23A4E70C03A7C70CB746D7
:103D98000080558F23A6E70CEFE0EFEB8D45372524
:103DA8000080EFE04FEB374500808D45EFE0AFEA4C
:103DB8001345240045B793F74500B1CBB71700402A
:103DC80003A7C70CB78600808D45558F23A6E70C3F
:103DD80003A7C70CB726008037850080558F23A618
:103DE800E70C03A7C70CB7460080558F23A6E70C3E
:103DF800EFE06FE68D4537250080EFE0CFE53745EA
:103E080000808D45EFE02FE513454400A1B793F7F7
:103E1800052095C3371700408327C70CB746008095
:103E280037450080D58F2326F70C8D45EFE0AFE2AC
:103E38001345042005B793F7850095C3371700404D
:103E48008327870CB746008037450080D58F232409
:103E5800F70C8D45EFE02FE013458400E5BD93F79F
:103E680005019DC7371700408327870CB786008058
:103E78008D45D58F2324F70C37850080EFE0AFDD23
:103E8800372500808145EFE00FDD13450401D9B5E2
:103E980093F705029DC737054080EFE07FC39387FE
:103EA80041819C43630CF50023AAA1803335A0000F
:103EB800B305A04093F5F50F014599331345040266
:103EC80051BD93F705049DC713050020EFE05FC0BF
:103ED800938781819C43630CF50023ACA180333523
:103EE800A000B305A04093F5F50F0545113B134518
:103EF80004048DB5056513050580B3F7A50089C7CA
:103F08002D8D42054181B9B593F7050881CF01454B
:103F1800EFF09FB4014583C5018DEFF0FFA713456E
:103F280004080DBD93F7051081CF0545EFF0DFB20A
:103F3800054583C5118DEFF03FA61345041019BD43
:103F480093F705400145E38707E083C7818D09475B
:103F58006377F700238C018C13450440E5BB850784
:103F6800238CF18C83D7C18C93F707029384C18C7F
:103F780091C7FD5537850080EFE05FAD83D704001A
:103F880093F7070499C737050080FD554105EFE011
:103F9800FFAB83D7040093F7070891C7FD55372572
:103FA8000080EFE0BFAA83D7040093F7071081CB06
:103FB80037050080FD5513050508EFE03FA983D7B5
:103FC800040093F7072089C7FD554145EFE01FA876
:103FD80083D7040093F7074089C7FD554145EFE0B3
:103FE800FFA683D704001397470163560700FD55C2
:103FF8004145EFE0BFA583D7240093F7070291C797
:10400800FD5537850080EFE07FA483D7240093F720
:10401800070499C737050080FD554105EFE01FA348
:1040280083D7240093F7070891C7FD5537250080EB
:10403800EFE0DFA183D7240093F7071081CB370582
:104048000080FD5513050508EFE05FA083D7240025
:1040580093F7072089C7FD554145EFE03F9F83D778
:10406800240093F7074089C7FD554145EFE01F9E9F
:1040780083D724001397470163560700FD55414530
:10408800EFE0DF9C09469305004003C50181EF007E
:104098006076D9B521469385818E173500201305A2
:1040A800E5ED6FF00FB4411106C6ED37EFF0EFAD57
:1040B800B24041016FE08FF6011122CC06CE1734D1
:1040C80000201304A4EB17350020130525EBEFF0AF
:1040D8000FB409C5F2406244056182800546930524
:1040E800F1002285EFF06FC7F9BF411117050000F5
:1040F8001305A5C406C622C4EF00302A1384018123
:104108005146930500022300A400EF007002034506
:104118000400514693050004EF0090010345040094
:10412800514693050008EF00B000034504002244FF
:10413800B24051469305001041016F00607F9377AC
:104148004504B1CF9307F00B6308F5029307F00F0E
:10415800630FF502930710056318F5049387818CA4
:104168009C43130720F82380E70083D7A18D93F79A
:10417800F7FD239DF18C82809387818C9C430547B2
:1041880085452380E7001305401F6FF0AFF893873C
:10419800818C9C43130720F82380E7008280938753
:1041A800818C9C432380070082809387818C9C4369
:1041B800054783C60700639AE6023787004003472E
:1041C80087009306E0026392E6021307000C631E61
:1041D800E500130710F82380E70083D7A18D93E744
:1041E8000702239DF18C6FF02FF882809387818CD2
:1041F80098430347070093168701E18663DE0604A8
:10420800411122C406C63E8493071008630DF700C7
:10421800930720086309F7021C4023800700B24077
:104228002244410182800146914503C50181D92379
:104238002946A14503C50181752B5146C14503C5D2
:1042480001814D2BD1BF01469305002003C5018193
:1042580055232946A145E5B7828023AC05FE1C41BC
:1042680091E7010001000CC18280BA8703A787FF8C
:104278006DFF23ACB7FE82801DC18346E5FF13079F
:10428800F00F9147639EE600411106C69710002083
:10429800E780001CB24081473E85410182809547F6
:1042A8003E85828001E9014582800145B240224471
:1042B80041018280411122C42A84210542059305C7
:1042C800D004418106C697100020E780C00E71DD3A
:1042D800FD5723200500231285002303F50021053F
:1042E800F1B71387018F1C43411122C426C24AC06B
:1042F80006C601440149BA8489E7A16595250DC41C
:1043080001A803C7E7FF6318A7021DC8A165C12656
:104318009840832784FF6317E40223A8F18EFD5792
:10432800232C04FE230FF4FE2285B240224492443B
:1043380002494101828011E03E8983A787FF6DBF52
:104348003E84E5BF232CF9FED9BFA9C9411122C477
:1043580006C62A849737002083C7D7C62E85636888
:10436800F400193F0D45B24022444101828083A7E1
:1043780085FF99E703C7E5FF9307F00F6305F7008B
:10438800E53D1545CDB7238F85FE1385018FF135A2
:1043980022852244B240A165410115AE15458280AF
:1043A80023A8018E8280938781909C4399E33E8560
:1043B800828003D727006316B70003C70700E30806
:1043C800A7FEDC47E5B74111939705014AC006C629
:1043D80022C426C2C1872E8963DE0700193711C19E
:1043E800613D21653345A900B24022449244024907
:1043F80041018280AA860145E5D901443D47B3576A
:104408008940858B95CB9387C18F8443BD4791E2C3
:104418008147A2978E070545BE943315850013146E
:1044280005019C40C8404180829723A0040023A234
:104438000400334524014DBF0504E312E4FC0144A4
:10444800CDBF97370020938727B49C53411122C4CE
:1044580006C61384C18195C7829723AEA180084000
:10446800B74703009387D73F3305F502B7A7260060
:10447800938737ECB24022443E9523AEA180410198
:104488008280973700209387E7B318409C4BBA97F0
:1044980023AEF180E9B79387418F90439736002088
:1044A80083C656B2814713F7F70F6360D70A1737E9
:1044B8000020034757C5914763E0E70A9737002074
:1044C80083C707C9918BC9EB0111680006CE22CCBE
:1044D80026CAEFC0A04AFD56630FD50C324797375E
:1044E800002083C797AB63F3E70C17370020130747
:1044F80067AD404717370020034747AA6305D4062E
:10450800058B21CF51473304E40263F1870A9700F2
:104518000020E780A074B2476373F400A2871737BE
:104528000020034797A7998F3E95973700209387D8
:10453800A7A58387470163CD0702B707C0A86369AA
:10454800F502B70740573E9525A085071397170032
:1045580032970357E7FF21DB828013079002330469
:10456800E40205805DB762076187635707001D8D08
:1045780019E93705C0A801A8E37BF5FE3707C0A8ED
:10458800B307F7403E95973700209387E79FDC53A2
:10459800829709ED97370020938787B69C4F99C774
:1045A800EF10811EEF100177EF106112F2406244A4
:1045B800D24405618280973700209387A7A0DC4703
:1045C800E386A7FE173700201307079C8346470199
:1045D800BA84858A9DC65144338487029737002060
:1045E80083C7B79BE3F487FC97000020E780006748
:1045F8009737002083C7779A1D8C229583874401BB
:104608001DBF13049002338487020580C1BF2A9618
:1046180009E582800505A30FB5FEE31DC5FED5BFDC
:1046280081473307F5000307070019E33E858280B9
:104638008507C5BF01112E8626CAAA84131506014F
:104648009305F004418122CC06CE32C69710002093
:10465800E78060D62A8419C53246A68597000020CF
:10466800E780A03A2285F2406244D2440561828004
:1046780081476314F600054582803307F5008507F6
:10468800B386F5000347070083C6F6FFE383E6FE1B
:10469800014582809307F6FFBE952A966313C500ED
:1046A8008280FD1583C715000505A30FF5FEFDB72C
:1046B800814711E9014582803307F5000347070068
:1046C800E31AB7FE8507E319F6FE0545828097379A
:1046D800002083C7378F637FF5001387418F9317B7
:1046E800150008433E9583570500DD8D2310B5005E
:1046F800014582800D458280FD5701111737002042
:104708002328F78C9387819022CC80434EC6973913
:1047180000209389698726CA4AC852C456C206CE61
:104728005AC02A8981444E8A973A0020938A8A89F6
:10473800184481476374E900B307274103A7490276
:104748001CC409CB03A7CA0063F6E700173700208B
:104758002320F788A1E7835524009DE95C44A1E85C
:1047680023A4F190032BC400228597100020E78032
:1047780020CE5A8455FC83274A0285CF6244F240F2
:10478800D2444249B249224A924A024B056121B3B6
:10479800034504002D3F5C4081CB1CC48357240093
:1047A800D5DFA2844044F9B71C44CDDBC5BFDCC4C7
:1047B80055BFF2406244D2444249B249224A924A21
:1047C800024B056182809727002083C7B77F6371FA
:1047D800F5021387418F93171500084393C5F5FF1A
:1047E8003E9583570500FD8D2310B5000145828055
:1047F8000D4582809727002083C7D77C6364F50026
:1048080001458280411122C426C24AC006C62A84B4
:104818002E89B284EFF03FB901C504C505452DA026
:10482800936504F0C205C181414597100020E780D7
:1048380080B80DE197270020938707759C5B81C797
:10484800A285114582970145B2402244924402490B
:1048580041018280938781909C438DE323A4A1909A
:1048680085472326050004C523112501230085005B
:10487800A300F5002322050055B7BA87D84775FF6E
:10488800C8C7F9BF45C539715AD0138BC18F22DC0F
:1048980026DA4AD84ED652D45ECE66CA6AC86EC6E2
:1048A80006DE56D262CC3689328AAE89AA840144A1
:1048B8005A8DB94D854BF94C03270B00131C340056
:1048C800937AF40F62971C43A9EF13B5FA001345C6
:1048D8001500B3978B0063F65D01930714FFB39738
:1048E800FB0093950701C181528629371DC983278B
:1048F8000D000145E29784C323A237016304090030
:1049080023005901F2506254D2544259B259225AE2
:10491800925A025BF24B624CD24C424DB24D21612D
:1049280082800504E31A94F92145E9BF094582808C
:10493800411122C426C24AC006C6AA842E893284DE
:10494800553DCA852685EFF01FA609C940C1014516
:10495800B240224492440249410182802145CDBFA0
:10496800411122C426C24AC006C6AA842E89EFF085
:104978009FA32A8419C1231105009727002083C704
:1049880067646394970023902191CA852685253D05
:10499800014511E01945B2402244924402494101BF
:1049A80082807547636BA7041387C18F1443411135
:1049B80026C293143500A696944222C406C6AA8736
:1049C8003A84094595C613B5F700394713451500CC
:1049D8006373F700C5178545B395F500C205C18116
:1049E80041371C400145A69723A0070023A20700D2
:1049F800B24022449244410182800945828041119B
:104A080006C6EFF05F9A09C50845B24041018280A9
:104A18000145E5BFF54763EDA7049387C18F9C4324
:104A280013173500BA979843894721C7011126CA39
:104A380006CE9334F50022CCB94793C4140063F32F
:104A4800A700451505443314A400420441802EC62E
:104A58002685A2856D378947324609C5A2852685F0
:104A6800513B8147F2406244D2443E8505618280D1
:104A780089473E858280239CA18E239DB18E8280AA
:104A8800411106C623A2A1900295B24097270020A3
:104A980023A4A754014541018280994763E9B700DF
:104AA8008A059727002093872754BE9588C182805E
:104AB800411106C6EF50F173714681451725002054
:104AC80013058552EFF0BFB4130640028145172540
:104AD80000201305254FEFF09FB323A4019023A2D4
:104AE80001909727002083C7E74B13D527008D8BAC
:104AF8003E958D473305F50293051010350513755E
:104B0800F50F972700202380A74C99473305F50216
:104B18001305050F97100020E780E08923AEA18ECA
:104B280035C99947172600200346E6493306F60299
:104B380081451306060FEFF09FAD9387C18F9C4305
:104B48009387070F23A6F190172700200347A7474D
:104B58000A07BA9723AAF18EEFF09F844526938718
:104B6800C19098439727002083C7D745939627007D
:104B7800BA96170600001306468590C2938627004A
:104B8800850793F7F70F8A0797250020A38CD5424E
:104B9800BA9790C3B240410182809727002083C70B
:104BA8007742172700200347074263F1E70213877C
:104BB800C19018439386170017260020A304D640F7
:104BC80093962700369708C33E8582809307F00F97
:104BD800E5BF1C41638E071841777D8FB70600201B
:104BE80089476318D718035745006304071841110C
:104BF80022C419462A849305F00F590506C6EFF01A
:104C08003FAB05478D476300E5161C4481CB5858D8
:104C18009947630A0714185C630707141306C0034F
:104C280081451725002013052536EFF05F9E1306F2
:104C3800C003A2851725002013050535970000201D
:104C4800E780A0DC9727002083D7C7349726002069
:104C58009386863399E79307001017270020231BB4
:104C6800F7329727002083C7073391E7854717272F
:104C780000202302F7329727002083C7D73191E716
:104C8800ED4717270020A308F7309727002083C790
:104C9800A73091E7954717270020230FF72E97276E
:104CA800002083C7772F91E7854717270020A305A2
:104CB800F72E9727002083C7772E99E783C7060129
:104CC80017270020A30CF72C9727002083C7E72C71
:104CD80091E7D147172700202301F72C97270020B9
:104CE80083C7672C95E7172700200347272B131640
:104CF800870161869307C00263480600937717000F
:104D080093B717009387D70217270020230DF7289A
:104D18009727002083C7772895E7172700200347A0
:104D2800E7271316870161869307C00263480600C8
:104D38009377170093B717009387D7021727002098
:104D4800A30DF7248347D40191E78947172700204B
:104D5800A30AF7249C5691C7829797270020239689
:104D6800A726B9338147B24022443E85410182805B
:104D780089473E858280011122CC06CE2A842EC620
:104D8800EFF02FECB245F240818D33A5A5022295B4
:104D980062441375F50F05618280011122CC06CE9D
:104DA8002A842EC6EFF0EFE9B245F240818D33A593
:104DB800A502229562444205418105618280011164
:104DC80022CC06CE2A842EC6EFF0AFE7B245F240D9
:104DD800818D33B5A50222956244056182809727AB
:104DE80000209387671A985725C3411122C426C209
:104DF80006C6BE840297172700200357071D2A847A
:104E080041C7BA876373A700AA87C207C183BA8656
:104E18006373E400A286C206C182958F5147635529
:104E2800F706DC5491C38297854717270020230D86
:104E3800F72CEF00515A9727002023988718B24083
:104E480022449244410182809727002083C7C72BC0
:104E58009DE7972700209387A72A83C79700850790
:104E680093F7F70F17270020A300F72AA18B9DC7F8
:104E78008547172700202319F7286F00B15B97276C
:104E88000020A3830728D5BF9727002083C7C727FB
:104E9800DDD72244B24092444101C5B782809727AA
:104EA80000209387670ED857011122CC06CE3E8486
:104EB80001C72AC60297324511CD23A8A19017052C
:104EC8000020130525DBEFF0BFBBF240624401452B
:104ED800056182808307440163DD0700972700206E
:104EE80023AE070E97070020938767D323A8F19076
:104EF800F9B797070020938767D6CDBF011122CC59
:104F08001724002013044408084406CE26CA4AC8B9
:104F180001E90545F2406244D24442490561828074
:104F28005C58E5DB185C75D7700085458297184496
:104F3800B247E300F7FE9305E00417250020035568
:104F4800650597000020E7800047172700202329E0
:104F5800A70861D1172600200356C6039305F00F52
:104F6800EFF0EFEA8144172900201309A9059727D4
:104F7800002083C747020326C90163C1F4023285B2
:104F880097000020E780C04C01459727002023A9FF
:104F980007049727002023A70704ADBF9725002003
:104FA80083D545FFB38795020844185C8981850439
:104FB8003E9508C2029765BF411122C417240020FC
:104FC800130484FC1C4426C206C64AC09724002049
:104FD800938444FF91EBC84C35E9B2402244924493
:104FE80002490145410182801C5CF5D7DC4C99EFF0
:104FF8009305E004172500200355C5F99700002004
:10500800E780603B9727002023ACA7FCC84C61D5FC
:1050180017260020035606F89305F00FEFF02FDF50
:1050280001499727002083C707F7D04CE355F9FAC1
:105038009725002083D505F6338525031C448981EF
:1050480005093E951C5C08C28297E1BF97000020C5
:10505800E78000409727002023A407F8972700201F
:1050680023A207F89DBF011156C2972A0020938AF0
:10507800AAF183A78A0022CC4AC84EC606CE26CA01
:1050880052C45AC0AA892E8432896385072203A78D
:105098004A03630707147D476366A7149724002013
:1050A800938444F203AAC40163170A0A9565938599
:1050B80015E0172500200355E5ED97000020E7804F
:1050C800802F9727002023ADA7F02A86630A0510B2
:1050D80083A74A0303A58A009725002083D585EB7B
:1050E8008981829783A78A0003AAC4011727002011
:1050F800232AF7EE8947639CF908C1476312F40E27
:105108009725002083D505E9938505FC9147B3C50C
:10511800F5028A05D29503C705009307A005631D0C
:10512800F70A83C715006399370B4A8522869105CC
:1051380097000020E780608DDC4C5285639347150B
:105148000145F2406244D2444249B249224A924A55
:10515800024B056182809850E38EE7F89565938548
:1051680025E0172500200355E5E297000020E78099
:1051780080242A8A35C52A8683A74A0303A58A007C
:105188009725002083D505E189818297A5B78D47AA
:10519800639DF900C1476315F4049725002083D562
:1051A80065DF938545FDF199B5B79147639AF90095
:1051B800631834039725002083D5C5DDA115E5B70D
:1051C800C147639FF900A14763EC8700972500203A
:1051D80083D545DCC115C1BFDC4C52856397470DAB
:1051E800294585B71307F006568B6361A70A130A8A
:1051F80005FE1947334AEA0217270020035787D9C3
:10520800972A0020938A0ADC330AEA023E9A83A787
:105218000A026395470183A4CA019DE49305E0044B
:1052280017250020035505D797000020E780A01810
:10523800AA845DD583274B039725002083D585D580
:105248002A8689815285829791451307A00589810D
:1052580093972500A69783C607006393E60483C641
:105268001700639C360385058A052286A6954A851C
:1052780097F0FF1FE780607983A7CA01E38297EC64
:10528800268597000020E780A01C5DBD1307E00776
:10529800E368A7F4130A05F985B783D5270045BF46
:1052A80083A7CA01E38E97F2268597000020E7803E
:1052B800201A3DB7972700209387C7D0CC4F8DD1B0
:1052C80091479306A0058983139727002E970346D5
:1052D8000700E317D6F003461700631C360185075D
:1052E8008A072286BE954A8597F0FF1FE780E071FE
:1052F80081BD83572700C1BF972700209387C7C860
:10530800984739C79C5FA9C705476313E50441114E
:1053180022C4172400201304E4CA504C06C60DC644
:1053280008509725002083D5E5C689818297484C87
:1053380097000020E780C0119727002023A207CA02
:105348009727002023A007CAB24022444101828047
:105358008280011117270020130707C34EC683292F
:10536800870022CC26CA4AC806CE52C456C2AA848E
:105378002E843289638A09201C5FBA8A99EB2945F1
:10538800F2406244D2444249B249224A924A0561F3
:1053980082805C5BEDD7FD4763E9A70E9729002063
:1053A800938949C283A7C901B1CB03A58A0083A702
:1053B80009026395A70689476393F408C147E31078
:1053C800F4FC172500200355E5BC9147130505FC9F
:1053D8003345F5029317250003A5C9012286CA851E
:1053E8003E959307A0052300F500A300950011053D
:1053F80097F0FF1FE7806061014559B79305E00406
:1054080017250020035505B997000020E780A0FA6A
:105418009727002023A6A7BC49F995B783A74A0375
:1054280003A6C9019725002083D5C5B6898182972F
:1054380083A78A00172700202326F7BAADBF8D4718
:10544800639EF400C147E31CF4F2172500200355BE
:1054580065B4130545FD9377C5FFBDBF9147639AB2
:10546800F400E31E94F0172500200355A5B221157A
:10547800DDB7C147E395F4F0A147E3E287F01725CC
:105488000020035525B14115F9B79307F00663EAE3
:10549800A706930705FE1947B3C7E7021727002099
:1054A800035747AF172A0020130ACAB1B387E70288
:1054B800BE998327CA01A9CF83270A02639A3707AF
:1054C8000325CA0191461308A005FD5593D7260068
:1054D800C207C183139727002A9703460700631D55
:1054E8000607834817000356270063959806B306F6
:1054F800D64063CF860485078A072286CA853E95EB
:10550800C5BD9307E007E3ECA7E6930705F979B76C
:105518009305E004172500200355C5A79700002030
:10552800E78060E99727002023ACA7AA51F581BD41
:1055380083A74A030326CA019725002083D585A59A
:1055480089814E8582979727002023AD37A98DBF83
:10555800A300B700B2869DBFB3858600172600203A
:10556800035646A39105130606FCE3FAC5E01306A5
:1055780034001376C60F1106B29623000701A30064
:1055880097002311D70085BF97270020938787A30B
:10559800D44FBE89A1C203A5C90191461308A0052D
:1055A800FD5593D72600C207C183139727002A9772
:1055B80003460700631606058348170003562700AD
:1055C80063989800B306D640E3D786F2A300B700E5
:1055D800B286C1BF8357C700172500200345A59B86
:1055E8009305E0043305F502420541819700002048
:1055F800E78060DC9727002023A4A79E49FD41B3DC
:1056080017260020035606999725002083C5A598DC
:10561800B385C502338686001106E3E2C5D681BF8D
:105628000145828083C705002300F50083D7250044
:10563800A300F50083D72500A1832301F50083C7C4
:105648004500A301F5001145828023AC019023AAEF
:105658000190828029C1411126C206C622C4AA84AB
:1056680001458DC52E842285414697850100938585
:10567800A5DF97F0FF1FE780403983C70400054581
:105688002306F40083C71400A306F400B2402244A2
:1056980092444101828001458280011122CC26CAB0
:1056A80006CE0947AA8432846381E50441468147CE
:1056B800639BC500638FE6006397B6000DA841475A
:1056C8008147638EE600F2406244D2443E8505611C
:1056D80082808A852285BD3F41468A8519A88A85A8
:1056E800953F41468A85228531A0E39AB6FC2E86ED
:1056F800A2852685EFE0DFF7AA87F1B723ACA19052
:105708008280011122CC0354650006CE26CA4AC8FD
:105718004EC641C083298500AE842A8803C9090082
:10572800814713178901618763550702B14705450A
:1057380063FA8704511442040355280041803387D3
:105748008900A2864E868545EF90305FB337A0006A
:1057580085077D1413556900420405891379F903F7
:1057680041802380F400A380A40023812401239294
:105778008400014719C01387190098C40947638337
:10578800E7000145F2406244D2444249B24905610A
:1057980082800545C5BFC167F917630AF502D94775
:1057A80063F7B702011122CC2EC606CE2A84EF5029
:1057B8005049B2456368B50022856244F2400561EC
:1057C8006F70C057F2406244054505618280054507
:1057D8008280C167F9176314F5006F509046411134
:1057E80006C6EF70604511E15D45B2404101828017
:1057F80039714ED656D25AD006DE22DC26DA4AD87D
:1058080052D4AA8A2E8BB28941EF36C6D937CD45F4
:10581800EF50B053AA844D492DC9B246054A23809A
:1058280034010544630A0B00B68513851400029BF6
:105838000505131405014180E20993D9894163D311
:105848000902C1455685EF70604C654905E9338604
:105858008400A2852685EF9050122A8905E131043B
:105868004204418091472C085685231CF10026CE1E
:10587800231D8100EF6090582A8901C963070A0037
:10588800268597000020E780A0BCF25062544A8524
:10589800D2544259B259225A925A025B21618280EB
:1058A800BA84014AADBF011122CC26CA4AC84EC6E5
:1058B80006CE2A893284B689253FAA8405E19387D2
:1058C80081919C4381CF05476317E40003C4090015
:1058D80005041374F40FA2854A858297F240624446
:1058E80026854249D244B24905618280AE86014785
:1058F800054697050000938525D375B7011106CE97
:105908002EC6EF70E02F01C9B245F24003552500BD
:1059180005616FA00056F240494505618280A38267
:1059280001942382019423A6019223A8019223AA19
:10593800019223AC019223A4019223A2019297170A
:1059480000209387276C3707B40098C33747A00017
:10595800D8C3370710009306070A94C7B706500044
:10596800C106D4C7930607054107D8CB3707D00728
:10597800410798CF3707840398D337C70700130721
:1059880007B8D8D3416794CB93060701130717F8D4
:10599800D8D7417723AE070094D798DB82800111CE
:1059A80026CAAA84214522CC06CE2E8432C636C405
:1059B8003AC2EFE03F8F1DC9A2461247324693070D
:1059C80000FD2300F5009947A30095002301F50089
:1059D8002303D500A303E5002312C500AA85228569
:1059E8006244F240D24405616FE03F96F24062445F
:1059F800D2440561828023A6A192828023A8A19225
:105A0800828023AAA192828023ACA1928280011174
:105A180022CC4AC806CE26CA2A890144B304890082
:105A28006368B400F2406244D2444249056182800E
:105A38002EC6EFE01FA193170501C183A183B245CC
:105A48002380F4009307140093F7F70F850463F994
:105A5800B700CA9709042380A7001374F40F7DBF09
:105A68003E847DBFC167171500200355455DFD17AE
:105A78006302F502411103C6019D9385C19306C6D1
:105A8800EF605079B240FD57171700202319F75AD5
:105A980041018280828009C925151375F50F1335D8
:105AA800850E1345150082800145828023800500FC
:105AB800F94763E2C708797122D426D24ECE56CA76
:105AC8005AC806D64AD052CC5EC63684B289AE8A47
