:040000006F109014D9
:1000040000000000000000006F0080086F00002363
:1000140000000000000000000000000000000000DC
:1000240000000000000000000000000000000000CC
:100034006F004006000000006F00E00500000000B3
:100044006F0080056F0060056F0040056F0020059C
:100054006F0000056F00E0046F000027000000003F
:100064006F0060046F0040046F0010166F000004FE
:100074006F0020246F00C003000000006F006003C5
:100084006F0040036F0020036F0000036F00E00265
:1000940001A001A001A001A001A001A001A001A054
:1000A40001A001A001A001A001A001A001A001A044
:1000B40001A001A001A001A001A001A0B717004068
:1000C400130770052380E704130780FA2380E704ED
:1000D4002396A70223800704371700408347270588
:1000E400898BEDDF835707053717004083472705C2
:1000F400898BEDFF3717004083472705898BEDDF98
:10010400035507058280B7170040930670052380C6
:10011400D704130780FA2380E70403C6B7041376D1
:10012400F60DA385C70423800704137605022DC6A4
:1001340003C6A700118A0DE22380D7042380E704B5
:1001440003C7A700136747002385E7009307004B05
:1001540001000100FD17EDFFB7170040930670057D
:100164002380D704130780FA2380E7047D8923942E
:10017400A70001000100010001002380070423807F
:10018400D7042380E7049306100537270040A30310
:10019400D780238007048280137605046DDE03C6AE
:1001A400A700418A0DE22380D7042380E70403C714
:1001B400A700136707012385E7009307007D01006B
:1001C4000100FD17EDFFB71700409306700523806B
:1001D400D704130780FA7D892380E7041365050497
:1001E4002394A700010001000100010023800704FB
:1001F4002380D7042380E704930630053727004083
:1002040079B74111814601468145114506C6EF0083
:100214001010B7170040130770052380E704130775
:1002240080FA2380E70403C7670413671700238356
:10023400E70423800704B2404101828081460146DD
:1002440081451145EF00B00CB717004093067005C7
:100254002380D704130780FA2380E7047D5623966E
:10026400C7022380D7042380E70403C76704136706
:1002740017002383E7042380070401A0BD47330547
:10028400F50201007D1575FD8280411122C426C24C
:1002940006C6AA84014463179400B24022449244DF
:1002A4004101828005041305803E4204C13F418020
:1002B400DDB7B7170040130700032388E70285471B
:1002C40023A4F18673002030411122C626C44AC2F9
:1002D4004EC037840040834464008545414593F40F
:1002E400F40F97F0FFDFE780801B93F7240063800F
:1002F400076A834774001307000393F707036388AF
:10030400E70283477400054793F7F7036383E72203
:1003140063800714130700026384E70A13071002BB
:10032400638FE712B787004009472383E7003787C5
:10033400004083477700E207E18763D7072C9307E0
:1003440020FC2301F7029386C18588420347750088
:100354008347650022075D8F2399E1868347150053
:100364002388F1868344050013F60406630D062EE4
:10037400AD4663E4F626254763F8E700FD1793F7D7
:10038400F70F09476367F726E204E184814663D2E5
:10039400040283D72187930600043E8763F4F600A2
:1003A4001307000442074183998F9376F70F23992B
:1003B400F186B78700402380D702130700FC35ACD1
:1003C40083C7018715476385E7061947639FE706D7
:1003D4009387218703D4070013070004BE84637442
:1003E4008700130400049387C18513898187884398
:1003F40042048325090041802286979001E0E7802A
:1004040040A783D704009379F40F818F2399F18651
:10041400832709003E9423AC8186B787004023805C
:10042400370303C72702134707042381E702DDBD0F
:100434008347340003C7218793F70708D98FA301A3
:10044400F40089472301F402F1BD23000402D5BF5F
:10045400834784008347240293F7370FE5B7854524
:100464001305000297F0FFDFE7806003834764020F
:100474009384D18693F7C70F93E727002303F402ED
:1004840083C7D18693F7F707A386F186834764026F
:1004940093F70704A5C38145216597F0FFDFE78043
:1004A400000083C7040093F7F70EA386F18683C781
:1004B400040093F707029DC783C7040093E7070866
:1004C400A386F18683C7040093E70704A386F18615
:1004D40083C7E1872302F4028347640293F7C70FBB
:1004E4002303F40281451305000297F0FFDFE78040
:1004F40000FB0DBD8545216597F0FFDFE78020FAFD
:1005040083C7040093F7F70DA386F18683C704001D
:10051400C18BE9DB83C7040093E70708A386F18650
:1005240083C7040093F7F70BA386F18683C7D187AB
:1005340055B78347740093F70704E38507DE034741
:1005440064029387D186620761876359070403476E
:1005540084002387E18603C7070013671700A38677
:10056400E18603C70700218B19E703C70700137748
:10057400B70FA386E18603C70700098BB78600403F
:1005840031E703C766021377370F2383E60283C775
:10059400070093E78700A386F18669B303478400C5
:1005A400A387E18603C7070013672700A386E186B4
:1005B40003C70700218B19E703C707001367470028
:1005C400A386E18603C70700058B4DBF03C76602F8
:1005D4001377370F136787004DBF930610026382AA
:1005E400D70413072002E381E7DA13070002E38D3F
:1005F400E7D8B78700401307F0FC2381E702B787E9
:10060400004009472383E7008145414597F0FFDF18
:10061400E780E0E83244A244124982494101730070
:100624002030971700009387E74E23ACF186A1474B
:100634003A8463F3E70021444204418022869715FB
:1006440000009385254D979001E0E780808283D751
:100654002187818F2399F186938781879C433E94D8
:1006640023AC818615B32946E365F6F8179601E0B5
:100674001306868B8A07B2979C43B2978287834777
:100684003500834625000946A207D58F93D68700F7
:100694006387C6068D45638EB60685476395F6085F
:1006A400979701E09387479723ACF1860144C947A4
:1006B400C207C18363F4E7002399F18693872187F6
:1006C40003D607009307000463F4C700130600046D
:1006D400938981871319060183A509001359090118
:1006E4004A86978001E0E780C07803A609004A960D
:1006F40023ACC1869307F00FE30DF4EE71B1979725
:1007040001E09387A78D23ACF18601449307A003EE
:1007140045B793F7F70F8545638BB7009DCB63818E
:10072400C7026381D7041304F00F814751B7979729
:1007340001E09387678723ACF1860144A9478DBF05
:10074400979701E09387078723ACF1860144D1474B
:1007540085B7979701E0938727DE23ACF1860144A0
:100764009147B9B7979701E093870786F1BF83470D
:1007740025002399F18609B983C7C1862300F500B2
:1007840003D72187854763F4E7002399F1868547DA
:10079400238AF186D5BE834725002386F186EDB6EC
:1007A40013F7F4018947E311F7BE834745009146E7
:1007B400638ED70A63E0F6026381E7086361F70A90
:1007C4000547E398E7E2378700408347670293F7DA
:1007D40037071DA0130720086386E7046361F70247
:1007E40013071008E397E7E0378700408347670261
:1007F40093F7C70B93E727002303F70271B6130798
:1008040030086383E70413074008E394E7DE37877F
:1008140000408347270393F7C70B93E72700230977
:10082400F7029DB6378700408347A70293F7C70BAB
:1008340093E727002305F70281BE378700408347EB
:10084400A70293F73707FDB7378700408347E702CE
:1008540093F7C70B93E727002307F70235B63787CB
:1008640000408347E70293F73707FDB73787004017
:100874008347270393F737075DB713F7F4018947D5
:10088400E314F7B08347350083462500A207D58FCC
:10089400E39C07AE8347550083464500A207D58FE6
:1008A40091466388D70663E2F602638DE706636DBB
:1008B400F7080547E39AE7AC3787004083476702A8
:1008C40093F7370793E7C70005BF1307200863842E
:1008D400E706636FF70013071008E397E7AA378763
:1008E40000408347670293F7C70B93E7370029B7A4
:1008F400130730086383E70613074008E396E7A865
:10090400378700408347270393F7C70B93E73700E4
:1009140039B7378700408347270393F7370793E7AF
:10092400C700F5BD378700408347A70293F7370711
:1009340093E7C70001B7378700408347A70293F7BF
:10094400C70B93E73700FDB5378700408347E702BD
:1009540093F7370793E7C70001B73787004083470A
:10096400E70293F7C70B93E73700FDB523000500B3
:1009740003D721878547E3F9E7A0E5BB23000500FA
:100984009C42A380070003D721878947EDB793F7DB
:1009940014008DC3A301040089472301F402C9474D
:1009A4002303F4022305F4022307F40285472303F7
:1009B400F40099B993F7440089C7834754009147D9
:1009C400FDB72303940089B1411185453705408063
:1009D40022C697F0FFDFE78080AC373400408347BE
:1009E40044001947BD8B6385E70231476386E704FA
:1009F40011476398E702014597E0FFDFE780A05FB6
:100A0400FD553745008097F0FFDFE78040A911A826
:100A1400FD553725008097F0FFDFE78040A8834726
:100A2400540081453705408097F0FFDFE78020A719
:100A34003244410173002030FD553715008097F092
:100A4400FFDFE780C0A5054597E0FFDFE780A05AF8
:100A5400C9BF2303048015472303E4800100230254
:100A6400A480828083076480E3CE07FE230304808E
:100A7400828083076480E3CE07FE0345448082803E
:100A840083076480E3CE07FE2302A48082804111A1
:100A940026C44AC24EC006C61377F50BAD47AA89D1
:100AA4002E8995446306F70019456537653F8D44E3
:100AB4004E854537FD59FD1463983401B240A24474
:100AC4001249824941018280135509011375F50FBA
:100AD400453F2209CDB7011126CC06CEB704080044
:100AE40051371545BD37713769372AC6A53F324599
:100AF4009377150089EB136515001375F50FF24014
:100B0400E24405618280FD14E9FC0145CDBF3971E1
:100B140026DC4ADA4ED852D656D45AD25ED006DEF5
:100B240062CE66CCB7E700E07D5783AA070022C6F1
:100B340003AA470023A0E71823A2E718B717004029
:100B4400130770052380E704130780FA2380E70462
:100B540083C74704930B75FFB684E20793FBFB0F2F
:100B64008546AA892E8B328937240040E1870157B4
:100B740063FA76016308D5008946130700026313FC
:100B8400D5000157D98F93F7F70FB71C0040238284
:100B9400FC0411472303E4801305F00F5D3D094C69
:100BA400D13563697C11B70707003E9B378707007F
:100BB4007955637EEB02B3079B00636AF702A9478A
:100BC4006399F90689E48144713D26850DA0DA858F
:100BD4000945753D05090345F9FFFD14050B4D3520
:100BE40081C49377FB0FFDF7FD3569FD7D55B7177C
:100BF4000040130770052380E704130780FA23805D
:100C0400E70403C74704418B2382E704F250B7E7A4
:100C140000E023A0571123A24711E2543244525951
:100C2400C259325AA25A125B825B724CE24C216165
:100C34008280A5476395F90685691309F00FB30609
:100C44009900B3742B01B6941349F9FFB374990056
:100C5400856B33796901416B9387F9FFB3F72701FA
:100C640099E363FC340193D94900C147E3E637FFB4
:100C740099BF0569C1697D19D9B71305800D6388CA
:100C84006901130500026384790113051008CA85FC
:100C9400FD3B913521DD4E99B3843441D9B7DA85D2
:100CA4002D45F533CA94E30099F20509D933A30F0E
:100CB400A9FED5BF9387F9FF93F7F70F636CFC0880
:100CC40003C75C04B70708001377070219E3B78763
:100CD40007007955E37DFBF033079B00E3E9E7F078
:100CE40089476390F9048980D549E38E04ECDA8559
:100CF4000945713B11090327C9FF91472320E4806B
:100D040003076480E34E07FE23033481FD17EDFBE4
:100D1400FD14110B81C49377FB0FE9FF6D3B71F553
:100D2400F1B58547E387F9F4DA852D458D33938949
:100D3400F4FFE38A04E8353B93F7390091EB83260B
:100D440004800327090093074900E39FE6E63E89F0
:100D5400CE84F1BFB5476396F9001305900BD539DE
:100D64009DB5B1471305B00AE38BF9FE9947639E1D
:100D7400F902DA852D45213B81448D4BA149D539B2
:100D840063967401832704802320F9008504E39883
:100D940034FF8327048013172B01635507002312A4
:100DA400F90015B52322F90039BD9D476399F9026D
:100DB40081451305B004E139BD44232009002322F1
:100DC4000900FD597D3193F77400CA9703C70700E2
:100DD400FD14398D2380A700E39634FFEDB3A147BA
:100DE4006392F904CD398144630D0B008D4793045C
:100DF400C0036308FB009304000563048B019304A0
:100E040040041375C507E30095DC194599319939F8
:100E1400054581312685AD3109459D316D39E31490
:100E240005DAE9B391476399F900130560061531B2
:100E340015391305900925B7E38709D8F15469B327
:100E440009CDB7170040130770052380E704130783
:100E540080FA2380E7042396A702828019C1814780
:100E640099E982803387F500834607003307F5004C
:100E740085072300D700E397C7FEE5B719C1FD57DF
:100E840081E98280910503A7C5FF1105232EE5FEA4
:100E94007D16E319F6FEF5B7797122D417340000F4
:100EA400130404F01C4006D626D24AD04ECE91C775
:100EB40082979737000023A507EE5C4089CB03D5C2
:100EC400018CBD3F5C40829703D5218C953F1C402B
:100ED400639907189737000083C757FE858B95C71A
:100EE40097370000A38C07FC17370000034737FD32
:100EF400914763FCE7004D2B9737000083C737FC0D
:100F0400F9178A07A2979C4382979737000083C7F3
:100F1400A7FF918B89C7971001E0E780A0BB1C4411
:100F240091C382979387C18B984317360000034679
:100F3400F6E43E8997340000938444E49737000034
:100F440083C7C7E393961700BA9683D606006380D7
:100F540006109737000083C767E263F2C708860765
:100F64003E97835507002310070003D5018C2EC636
:100F74002394018CF1359387418D9C4317350000F0
:100F84000345C5DF13172500BA979C43B2458297E2
:100F9400AA8903D5218C6D359737000083C707DEF6
:100FA400139717008327090003D5818C1345F5FF98
:100FB400BA9703D7070033753501598D2390A700DD
:100FC40083C70400850793F7F70F1737000023073B
:100FD400F7DA17370000034777DA63E6E700973755
:100FE4000000238D07D81C40ADEF9387C18C984334
:100FF4003E8425CB9737000083C7B7EC91CB973756
:10100400000083C7D7EB89E7970001E0E780405DE4
:101014001C4082972A8431C59C48AA971737000040
:101024002326F7D69387018D9C4385CF03D5018C66
:10103400013D228597F0FFDFE780A02F2254B250B4
:1010440092540259F24903D5218C4561D5BB8507D9
:1010540093F7F70F973600002382F6D2E3E0C7EE4A
:10106400CDBDB250225492540259F2494561828056
:101074009167B7C600409387373023A6F6200F1038
:10108400000097370000938767CF884F9387C19CF0
:101094009C43316713073730F053B7071000FD172F
:1010A400918F99833A0523A6E6205D8D82804111B4
:1010B400B7170040985F3AC6945F3247E39CE6FE58
:1010C400324541018280411106C6D537973600006A
:1010D40083C646C8858AB1C6930730333307F50201
:1010E400B337F5023983CA07D98F173700001307BE
:1010F400E7C8584B01456303F7023385E740636B48
:10110400F70037653D0889C637856F0813050590D4
:10111400198D3E9517370000232CF7C6B2404101C4
:101124008280E5473307F502B337F5022583DE07EE
:1011340065BF0327C50F8346B50097370000938723
:10114400A7D79C4F58439386160295829043FD1669
:1011540093F6F60F10C3D04350C3904710C7D0473F
:1011640050C7904B10CBD04B50CB904F10CFD04F9B
:1011740050CF91C61307070293870702C1BF82802D
:101184008347E50193F7E70FF1E72A870345F50164
:1011940071E1034607018346870009CA8345A70214
:1011A4009737000083C717BB63E7F50093F7060181
:1011B400C5C7814709C6C18A8357071581C6035726
:1011C4004715BA97D1CB17370000130767DA3847AA
:1011D400411122C406C67D548326070863F38600A2
:1011E4003684184375FB173700000347A7B69316D8
:1011F4008701E18663D906029387C713958317375E
:1012040000000347C7B5BA9763D006041D8C9387C3
:10121400818D9C4382973335A400B2402244134508
:10122400150041018280058B9387C71209CB8A0779
:101234009387F7031305D007B3D7A702C9B7860767
:10124400FD071305D003CDBFE372F4FC3705C0A836
:101254002A946DBF014582808280411122C4138487
:10126400C19B18404AC006C61C5F26C21389819BD5
:101274009983858BC1C31C5F973400009384C4C3D6
:1012840093F7F7F91CDF9737000083C7E7C293F79A
:1012940007048DC39387818D9C4382979737000001
:1012A40023A4A7C283C7040093F7F70B17370000E2
:1012B4002304F7C0854717370000A301F7C083C78D
:1012C400440093F7070481EF9387C19C9C43D8445F
:1012D400B8D3930700FC173700002301F7BE8387B8
:1012E400640063D90700832709009C431737000073
:1012F4002307F7BC18401C5F8583858BC9CBF55742
:101304001CDF0100010001000100010001000100D7
:1013140001000100010001000100010001000100C1
:1013240001000100010001000100010001000100B1
:1013340001000100010001000100010001000100A1
:101344000100010001000100010001000100010091
:101354000100010001000100010001000100010081
:101364000100010001000100010001000100010071
:101374000100010001000100010001000100010061
:1013840001009387C19C9C4313075004B8CB1840B9
:101394001C5F9183858B89CFBD571CDF9387C19CCC
:1013A4009C4323A807048547173700002308F7B098
:1013B40083270900D8430583058B19C7D843759B38
:1013C400D8C3D843799BD8C3B2402244924402493B
:1013D40041018280397106DE16DC1ADA1ED82AD65B
:1013E4002ED432D236D03ACE3ECC42CA46C872C689
:1013F40076C47AC27EC09535F250E2525253C2533B
:101404003255A255125682567247E2475248C24894
:10141400324EA24E124F824F2161730020309387C7
:10142400C19C944317370000130707A9BC5289CF06
:1014340083472700858B89EB83473700858BFDD74E
:1014440097370000238C07A682809387819C9C4356
:1014540099CB944BD04B9842518F98C294439C475C
:101464009842D98F9CC29387C19C9C4337C7004044
:101474001306C003A8CB9306200397350000938579
:10148400A5A383278720C18393F7F7036369F60035
:1014940083278720C18393F7F70363E6F60083C7A6
:1014A4004500858BF9DF82809387C19C944317376D
:1014B4000000130767A0BC5289CB83470700858BC4
:1014C40091CB97370000238B079E97370000A387A3
:1014D400079E828083471700858BF1DFDDB79387F2
:1014E400819C9C4399CB944BD04B9842518F98C28A
:1014F40094439C479842D98F9CC29387C19C944340
:1015040037C70040C145A8CA654683278720C183E1
:1015140093F7F70363FBF50083278720C18393F7D1
:10152400F7036364F600BC52EDF382801387C19B1A
:101534001843AA87185F1583058B25EF034515000B
:1015440015051377C51F19C6B386E70083C62600A1
:101554002300D60095C59736000083C6469693F6B9
:1015640006040945A1CAB386E70083C636000546CA
:1015740093F5F6066390C504E206E18663CC0602A1
:101584003385E7008347150003470500A20793F757
:101594000770D98F1397070141839376074099C643
:1015A400136707802392E19C014582802392F19C7A
:1015B400E5BF054582809386C19C8C42368597366B
:1015C40000009386668F984593170701C1831378AB
:1015D40017203E86630408041377072079C303C7E2
:1015E400260013671700173800002308E88C130738
:1015F4000019B8D1130700F8973500002380E58C53
:101604001387C19B0C4337080010D855719B13678F
:101614002700D8D598413367070198C1137726105E
:1016240005C31376061059CE03C7060013671700C7
:10163400173600002302E6881737000023120788B4
:1016440083C6460093C7F7FFC207E206E186C1835B
:10165400184163D106029396170163DE06063053E0
:101664008D4663E9C6008546173600002308D684F4
:101674003453FDFE972600009386866C83864601CC
:1016840063DD060093960701C18663DC060470538C
:10169400894663E4C6007453FDFE1447F58F1CC7E6
:1016A400828003C716001367170097350000A385CF
:1016B400E580173700002303078017370000231144
:1016C4000780A9BF03C73600136717001726000059
:1016D400A305E67E95B78546172600002300D67E2F
:1016E40051BF54471396060163510602B706100012
:1016F400FD1674D39726000093864668944E85069B
:10170400172600002328D66849BFA166D58F71B774
:10171400397106DE16DC1ADA1ED82AD62ED432D255
:1017240036D03ACE3ECC42CA46C872C676C47AC2D5
:101734007EC05135F250E2525253C2533255A25533
:10174400125682567247E2475248C248324EA24E5F
:10175400124F824F216173002030172700001307B6
:1017640067778346B7019727000083C7F779B69751
:1017740093F7F70FFD4663EAF6044C4B97260000F7
:10178400A38AF6749727000083C7D77405473317D5
:10179400F70097260000A389F6766D8F1DEF972634
:1017A400000083C6B676B3F6D7021305000281475C
:1017B40033D6F500058A13F8F70F09CE6399E600CE
:1017C40097270000A3880771828081177DB70507DA
:1017D4001377F70F8507E39DA7FC82809387819D8C
:1017E4009843B75702009387279F832607091396C8
:1017F400560063580600832607091396660063445F
:101804000600FD17FDF3828051C9AA870145C9C9A5
:101814008D07C207C183F19BC207C183130740032D
:10182400636BF7021387C1A60843138741A61443C9
:101834006396A6021727000013078750185B01451B
:1018440025C34111C20706C60545DD8D0297B24086
:10185400014541018280138781A6F9B703576500CA
:1018640005EF035745006369F702B306F7402146C5
:101874006370D6021041938687001D8FAA96611764
:1018840090C22392E6002393060014C12312F500AC
:101894002313B50021058280084159BF0145828088
:1018A400828001CD9387C1A603A80700938741A630
:1018B4008C430147C28763E3B70082809443636F1C
:1018C400F50663EDA60613868700E368C5FE03D517
:1018D4006700216605066317C50003C64197050620
:1018E400238AC1962393070063840703138681A682
:1018F4001042630FF6000356670019EA83D74700C6
:1019040014C383564700B697A1072312F700BA877A
:101914009843E304B7FA938681A69442E30FD7F879
:1019240083566700D9FA83D6470003564700184305
:10193400A106B2962392D70098C382803E87B687C9
:041944009DBF000043
:10194800974100209381811C176100201301016BCE
:101958001305400097250020938545EA1736002097
:101968001306067E63FAC5008322050023A05500EE
:1019780011059105E3EAC5FE17B5010013050540F9
:10198800973500209385C57B1386818563FAC5004A
:101998008322050023A0550011059105E3EAC5FE41
:1019A80013858185976500209385C5E66377B50023
:1019B800232005001105E36DB5FE9302800873A08E
:1019C800023097220020938262E393E21200739020
:1019D800523097220000938202BF73901234730032
:1019E8002030B717004003C777051377E70FA38B9D
:1019F800E704130700F8A38DE7043D47238CE704A9
:101A080013075003A38CE7048280B717004003D55F
:101A180087005D715ED64205418186C6A2C4A6C212
:101A2800CAC04EDE52DC56DA5AD862D466D26AD0C0
:101A38006ECE9377050C13070008814B6388E7186F
:101A480013070004639CE714B7240D8F7D899384E2
:101A58000480B3D4A4029167938707E8BE94A16772
:101A6800938707D0B3D4F402EFA0615F97B7010062
:101A7800938747CE9043D443EFA02113EFA0B12022
:101A88002A8B939C040103D9818593DC0C0163158F
:101A98000900056913090980B71700401307700585
:101AA8002380E704130780FA2380E704371A0040ED
:101AB8000547939D0401096C85662389E704D14A8B
:101AC800814E8145130D0A0413087005130680FA28
:101AD800894893DD0D01130C0C712943FD16230071
:101AE8000D012300CD0023162A0323000D00834790
:101AF8002A05898BEDDF83570A0583472A05898BD9
:101B0800EDFF83472A05898BEDDF83570A05239C60
:101B18002185C207C183338597419319050193D95C
:101B28000941638409163387B902635E070C850E81
:101B3800C20E93DE0E0163E8D80D63D9050A33059A
:101B4800B04093150501C185C204C18063D7350B28
:101B58000965130505713385A502B71700401307FA
:101B680070052380E704130780FA2380E70423968F
:101B78007703238007043345950242054181B64027
:101B8800264496440649F259625AD25A425BB25BDD
:101B9800225C925C025DF24D61618280B1E3B774B0
:101BA80089097D8993840480B3C4A40291679387CB
:101BB80007E8BE94A167938707D0B3C4F402EFA0E7
:101BC800014A97B70100938767B96DB597B70100C8
:101BD8009387C7B7856403AB07009384843855B5EA
:101BE800130B0000954471BD3A89D5BDB387FC40FD
:101BF8009399070193D9094181BF096513050571B7
:101C08003385A9028DBF3385B74163E4FC00338572
:101C1800FD40330585033344B5036345830013153D
:101C28000401A9BF4E8536C642C432C2EFA041792D
:101C3800DA85EFA0C149EFA08172931E050193DEFA
:101C48000E41B307D941C207C183056E3E871246CC
:101C5800224889482943B24663E3C70136874207C9
:101C68004183631A270113071900634430011307DE
:101C7800F9FF42074183FD1A93FAFA0FCA8BCE8502
:101C8800E3940AF6239CE18459BF0145CDBDB717FB
:101C9800004003D587005D7186C642054181A2C414
:101CA800A6C2CAC04EDE52DC56DA5AD85ED662D414
:101CB80066D26AD06ECE02C69377050C1307000869
:101CC800638BE71413070004639FE710B7240D8F95
:101CD8007D8993840480B3D4A4029167938707E82D
:101CE800BE94A167938707D0B3D4F402EFA021373D
:101CF80097B70100938707A69043D443EF90F16A02
:101D0800EFA061782A89939A040103DBA18593DA0D
:101D18000A0163150B00056B130B0B80B717004006
:101D2800130770052380E704130780FA2380E7046C
:101D3800939B040105478969056A2389E704D14D06
:101D4800014D814C93DB0B01938909717D1A5A85EA
:101D580097200020E78040B6330C5541420C135CB5
:101D68000C41239D618563010C16B3079C0363D165
:101D7800070E050D420D135D0D01894763EAA70D96
:101D880063DB0C0A33059041931C050193DC0C417D
:101D9800C204C18063D88C0B0965130505713385AE
:101DA800AC02B7170040130770052380E704130738
:101DB80080FA2380E70432472396E702238007044A
:101DC8003345950242054181B6402644964406496A
:101DD800F259625AD25A425BB25B225C925C025D53
:101DE800F24D61618280B1E3B77489097D8993847A
:101DF8000480B3C4A4029167938707E8BE94A167DF
:101E0800938707D0B3C4F402EFA0612597B7010008
:101E18009387C794D5B597B70100938727938564AF
:101E280003A9070093848438F9BD13090000954479
:101E3800D9BD3E8B29BF3385AA40131C0501135C0D
:101E48000C41B9B70965130505713305AC028DBF9F
:101E580063FEAA003305754133053503A9473344AA
:101E6800750363C8870013150401B1BF3385AB4000
:101E7800E5B76285EFA0C154CA85EFA04125EFA060
:101E8800014E131D0501135D0D413307AB41420798
:101E980041838565BA876363B700D287C207C18368
:101EA800639A670193071B00634480019307FBFF54
:101EB800C207C183FD1D93FDFD0F5AC6E28CE39A4C
:101EC8000DF6239DF18445B70145FDBD41112A83D7
:101ED800014E930E407E130F0019930F400663EBDB
:101EE8006E0A9308001913034006B3781503854E4C
:101EF8000D4FA14F337365020D891335150063E546
:101F0800BE0C1308F6FF7946729842081358080168
:101F18003307C70213D61700BE0732976146B3F6D8
:101F2800C60213068070B386C6023697A166F58F7F
:101F380042075D8FB717004083C6F70293F606087D
:101F4800A307D1000346F10083C6F70293F60608FB
:101F5800E394C6FE8346F10093F6F60FF1DE93068E
:101F680070052380D704930680FA2380D70423AA18
:101F7800070383C6170393E60608A388D702D8DBAE
:101F880003C7170313670704A388E702238007041E
:101F9800410182807D133368E3039308E016630EE2
:101FA80008003368F3039308D01663080800937891
:101FB800330093B818009388D81633081E01131EEF
:101FC8000801135E0E0121BF6393E503054863868C
:101FD80008000148630303002A8871087298FD15F8
:101FE800131E0801C205135E0E01C18109BF13F853
:101FF800150063F4BF007908D5B713381800E5BF9A
:10200800914763EEB70217A701001307A7758A0562
:10201800BA959C41BA978287B717004003A7470B28
:102028001345F5FF698F23AAE70A03A7070B698FF2
:1020380023A8E70A03A7070A798D23A0A70A8280A5
:10204800B717004083A6470B1347F5FFF98E23AA5D
:10205800D70A83A6070B558D23A8A70A83A6070AC4
:10206800758F23A0E70A8280B717004003A7470BA4
:10207800498F23AAE70A03A7070B1345F5FF45BFB6
:10208800B717004083A6470B1347F5FF758F23AAA0
:10209800E70A03A7070A598D4DB7B717004003A7EA
:1020A800470B498FEDB7914763EEB70217A70100B9
:1020B8001307876C8A05BA959C41BA978287B71728
:1020C800004003A7470D1345F5FF698F23AAE70CC6
:1020D80003A7070D698F23A8E70C03A7070C798DC1
:1020E80023A0A70C8280B717004083A6470D13478B
:1020F800F5FFF98E23AAD70C83A6070D558D23A8C3
:10210800A70C83A6070C758F23A0E70C8280B7174E
:10211800004003A7470D498F23AAE70C03A7070D23
:102128001345F5FF45BFB717004083A6470D134772
:10213800F5FF758F23AAE70C03A7070C598D4DB738
:10214800B717004003A7470D498FEDB7B7170040F1
:1021580003D58700420541819377050491EB937776
:10216800F5013755E801130505803345F5028280EE
:102178009377050C130700046397E7009377F5013D
:1021880037459C1CCDB72165130505D08280B7F76C
:1021980000E0C8439C478280411122C406C62A84B5
:1021A80075372947B307E502B2408D83B3D7870255
:1021B80022449507B3D7E70237370040C207C183E7
:1021C8002316F7004101828071654111130505202E
:1021D80006C6D937B7370040130770F82381E700E0
:1021E8000D47A381E70013070004A380E700054714
:1021F8002387E700B2404101828037370040834798
:1022080027001A0593F7F703C98F93F7F70F2301F0
:10221800F7008280B737004003C7170019C9D98D66
:10222800A380B70003C70700136787002380E70070
:10223800828093C5F5FFF98DA380B7008280411194
:1022480006C6EFF08FFCBD4763F4A700EFF0EFFB85
:102258003D3CBD4763F3A7001D3CB24083D5A18533
:1022680003D5818541016F10D04341119396250014
:10227800AA852D4506C697200020E7800009B240B0
:10228800014541018280411126C29394250022C450
:102298004AC02A843289A686AA850146254506C6EB
:1022A80097200020E7806006A6864A86A2852945F1
:1022B80097200020E7806005B240224492440249FA
:1022C800014541018280011122CC06CE371400401D
:1022D80026CA4AC84EC652C483447405034AB40584
:1022E8008349840503499405EFF0AFEF8347A405BC
:1022F80093F4F40F137AFA0F93E71700230DF404FD
:1023080093F9F90F1379F90FB717004003C7A70519
:10231800058B6DFF03D5C705A38D4705238C3705AE
:10232800A38C2705A38B9704F2406244D244424908
:10233800B249224A0561828041119397050122C45E
:1023480006C6C1872E8463DD0700EF10603C19C103
:10235800EF1060352165218DB24022444101828011
:1023680093F7150013C51500E5FB9397250163D076
:102378000702EF209148E13537F60200130606E020
:10238800896503C54186EF10D0090965E9B79397B8
:1023980015010145E3D207FC13060064916503C5E6
:1023A8004186EF10100811657DB71D71494697A544
:1023B80001009385A53D17A501001305A55E86CEEE
:1023C800EF10E06D11E101A037F700E0F9575CC7A5
:1023D800FD571CCB8566B7E700E023A0D71013068E
:1023E800701010C3B8434146B0C323A0D718B8C370
:1023F800010001001306C00381454808EF1000647E
:10240800973700209387475E3ECA8967938707807E
:10241800231CF100ED47A301F1029307A01023123A
:10242800F102D1472303F102A167938707E03ECE6B
:10243800970700009387A7E3BEC497070000938718
:10244800C7E4BEC685472304F102B5472308F10255
:10245800970700009387E7D33EDAB7F50700970799
:102468000000938787E63EDE814697070000938742
:1024780047DD7000E1051945BEC097200020E780C0
:10248800C0E858088147994670003E960346060002
:1024980085070507A30AC700E398D7FED24791C767
:1024A8000357810185676373F70001A04808EF109F
:1024B800103511C101A0F640256182804111170530
:1024C80000001305A5E706C622C4EF10D02F138419
:1024D80041862300A4002928034504002244B24071
:1024E80037F60200130606E0896541016F10607334
:1024F800411106C622C49306700537140040230014
:10250800D404130780FA2300E4048347F40293F702
:10251800A70FA307F4022300D4042300E40483478D
:10252800F40293E72700A307F402113B1305407E4A
:1025380023000404814701478146054685457932D1
:102548002244B240014541016F103058B78700401E
:10255800238007022382070223800700130700FD58
:102568002386E700938641A723AED184138741AB26
:10257800C20623A0E186C18242072398D70041837F
:10258800239AE70009472381E70249472383E702A3
:10259800A3810700130700F8A380E7001307900240
:1025A8002380E700B716004003D7A6011367070C7E
:1025B800239DE6007D572383E700130710F8A380C7
:1025C800E7001D472381E700B706400037E700E032
:1025D8002320D71003C7170013671700A380E7004D
:1025E800828093F7150081C713C51500828093F781
:1025F80025008DCF411122C406C62E84B735004070
:1026080083C7B5001D47636DF70083C7B500214632
:10261800A1051D8E42064182138501ECEF009075DD
:1026280013452400B24022444101828093F74500BB
:10263800014581C713C54500828082804111130678
:102648000020938501CC138501EC06C6EF001061CC
:10265800B24013060010938541BB138541CB41015D
:102668006F00D05F011106CE2AC6B93E32452D361D
:102678000D45613695450545713EF240B7E700E0E6
:102688003707000423A0E7100561828041111385F4
:1026980001EC06C6EF00505F01E9B24003C5718046
:1026A800894541016F108045B240410182807165C2
:1026B80041111305052006C67537170500001305D7
:1026C80085F2EF105010B240A383A18041018280AF
:1026D800373700401D469385F18713850186834768
:1026E800B7006373F600828083C6F18783C7E186EB
:1026F80063FEF6001C41B69783C707002304F70062
:1027080083C705008507A38FF186D1BFA38F0186F4
:1027180083C7D18693F7E70FA386F18637870040F2
:102728008347670293F7370F2303F70283C7D186DE
:10273800898B1387D18681CB8347070093E74700AE
:10274800A386F18682808347070093F7770FCDBF72
:10275800373700401D469385F187138501868347E7
:10276800B7006373F600828083C6F18783C7F1865A
:1027780063FEF6001C41B69783C707042304F700DD
:1027880083C705008507A38FF186D1BFA38F018674
:1027980083C7D18693F7D70FA386F1863787004082
:1027A8008347670293F7370F2303F70283C7D1865E
:1027B800858B1387D18681CB8347070093F7B70FA3
:1027C800A386F18682808347070093F7770FCDBFF2
:1027D80083C7D186A18B89CB9387D18683C707000E
:1027E800918B91C3B5B7EDB58280797122D44ECE65
:1027F80006D626D24AD052CC56CA5AC85EC6B78721
:10280800004083C76702AA891384D18693F7070417
:102818006387070E8347040093F7070285E3373978
:102828000040938A0186130BE003130AF003B78470
:1028380000408347A90093F7F70FA9EB9304000C16
:10284800638B0902FD551165A92183470400E2073E
:10285800E18763D207161307000883C7C18763950A
:10286800E414A38EF1868347040093E70701A38647
:10287800F186238E0186B250225492540259F249AD
:10288800624AD24A424BB24B45618280FD55378538
:102898000080012103A70A0083C7C18783468900F6
:1028A8003E97850793F7F70F2300D70C238EF18601
:1028B800E371FBF8238E01868347040093E7070240
:1028C800A386F18683470400E207E187E3C307F69E
:1028D800238F41878347040093E70708A386F1867F
:1028E8008347040093E70704A386F1862382440301
:1028F80083C7640293F7C70F2383F4021DBF83477E
:10290800040093040008C18B85FF37390040938A7F
:102918000186130BE003130AF003B78B0040BDA830
:10292800FD5537850080B52603A70A0083C7C187F0
:10293800834689003E978507269793F7F70F23006C
:10294800D700238EF186637BFB04238E01868347A1
:1029580004009304000C93E70701A386F1868347DC
:102968000400E207E18763CB0702FD5511651526D0
:10297800A38E41878347040093F7F70BA386F1865C
:102988008347040093E70708A386F18623824B0355
:1029980083C76B0293F7C70F2383FB028347A90002
:1029A80093F7F70FB5FF69BD238FF18683470400BE
:1029B80093E707026DBDFD551165E12C83470400BF
:1029C80093E70708A386F1861307000883C7C18722
:1029D800639DE402A38EF186378700402302F70245
:1029E8008347040093E70701A386F1868347040021
:1029F80093F7F70BA386F186378700408347670272
:102A080093F7C70F2303F702ADB5238FF1863787F6
:102A180000402302F7028347040093E70702A386D6
:102A2800F1868347040093E70704E9B7634F05027B
:102A380089CD85476383F502FD576399F5063717F6
:102A480000408327870A3D8D31A837170040832728
:102A5800C70A5D8D2326A70A82803717004083277F
:102A6800870A5D8D2324A70A82800605058199CDF2
:102A780085476385F502FD57639AF50237170040CD
:102A88008327870C3D8D2324A70C828037170040AD
:102A98008327C70C5D8D2326A70C8280371700403B
:102AA8008327870C5D8D2324A70C828009458280AB
:102AB800411122C4371400408327C40C3787008093
:102AC80006C626C24AC0D98F2326F40C8327C40C15
:102AD800372700808D45D98F2326F40C8327C40C13
:102AE8003747008037850080D98F2326F40CEFF014
:102AF8008FDB8D4537250080EFF0EFDA8D453745C0
:102B08000080EFF04FDA8327840CB7040080138528
:102B18000408C98F2324F40C8D45EFF0CFD8138512
:102B280004018545EFF02FD88327C40A0969856415
:102B3800B3E727012326F40A8327C40A8D450965CC
:102B4800C58F2326F40AEFF0AFCB8D450565EFF06E
:102B58002FCB854537054080EFF0EFD48545130529
:102B68000020EFF0EFC98327C40A8D45414593E75C
:102B780007012326F40AEFF0AFC881454145EFF07D
:102B88002FC88327C40CA1651166CD8F2326F40CAA
:102B98008326C40CB70740002165D18E2326D40CA8
:102BA8008326C40CB3E626012326D40C8326C40C42
:102BB800C58E2326D40C8326C40CDD8E2326D40C84
:102BC8008326C40A93E606012326D40A8326C40A68
:102BD80093E606022326D40A0327C40A4D8F232628
:102BE800E40A8327C40A8D45D18F2326F40A832754
:102BF800C40AB3E727012326F40A8327C40AC58F2A
:102C08002326F40A8327C40A93840480C58F2326C5
:102C1800F40A8327C40A93E707402326F40AEFF04F
:102C28008FC88D451165EFF00FC88D450965EFF028
:102C38008FC78D450565EFF00FC78D4537054000F7
:102C4800EFF06FC68D454145EFF08FBB8D451305FD
:102C58000002EFF0EFBA8D452165EFF06FBA8D45B0
:102C68001165EFF0EFB98D450965EFF06FB98D4546
:102C78000565EFF0EFB826858D45EFF06FB8224473
:102C8800B240924402498D451305004041016FF05E
:102C98002FB769BBB7E700E0130700FB238DE740B8
:102CA800930600FCA38AD740930600FD238AD740E9
:102CB800238BE7408280828083D701886398A700AE
:102CC8002391B1882392C1882393D18882804111AE
:102CD80022C406C683C785002144C18B95EF03C86B
:102CE8000500894701446319F802D8418347170052
:102CF80003470700A207D98FC2070D67C1871307CB
:102D08002790639BE700CC4532852390060109464E
:102D180097200020E78040942285B2402244410158
:102D2800828041677917630CE502411122C406C607
:102D380085472A84639AF50022852244B240938508
:102D4800C1EC41016F70C01489476396F500854551
:102D5800EF90003E75D1B2402244410182808280CA
:102D68000111C16706CE13870188F9171CC3130622
:102D7800F100854723220700854513055030A30736
:102D8800F100EF609159F2400561828018418D474A
:102D98006314F702835785004C4101111306E100C3
:102DA800174500201305055506CE2317F100EF003F
:102DB800C06EF2400561828082808D476308F5000D
:102DC80091476301F50289476313F50603C7250098
:102DD8009947631EF70403D7450083D70188631812
:102DE800F704BDBF03C7250095476312F704C16701
:102DF80003D70188F91703D5A5006304F7006F60AE
:102E080051782390A18883D7E500096613060690B8
:102E18002391F18883D7050103C581802392F18826
:102E280083D72501A1452393F1886F00905F8280A5
:102E3800011106CE85476308F60089476308F60046
:102E4800F240056182802E859137DDBF98418D471C
:102E5800E318F7FE83D78500CC411306E100174538
:102E680000201305A56A2317F100EF000063C9BF0E
:102E780079714AD006D622D426D24ECE52CC83C7F8
:102E88008500214993F70702C1EF03C80500894768
:102E98002E8401496316F80803A845002A8AB284DB
:102EA8008347180003480800B689A207B3E707015B
:102EB800C2070D68C18713082890639307038547E5
:102EC800EF5040352A8909ED83C7140003C7040071
:102ED8004800A207D98FB337F00085073EC27D3579
:102EE8000357A4009727002083D7A72B6319F7005F
:102EF8008D4748003EC22316310126C4413D035781
:102F0800A4009727002083D7C72C631BF7008D47A1
:102F180009464C0052853EC22316310126C4093F9A
:102F2800B25022544A8592540259F249624A456184
:102F3800828041119385C1EC06C6EF506028B240EB
:102F48007D151335150041018280011122CC2E8494
:102F58009385C1EC26CA06CEAA8432C6EF50402615
:102F6800058929C132468547630EF60089476304FF
:102F7800F602A2856244F2402685D24401460561E4
:102F88006F50F07F972700209387071F83D7A702EA
:102F98002310F400F9BF972700209387E71D83D7F4
:102FA800A705FDB7F2406244D244494505618280D5
:102FB80041119397050122C406C626C24AC0C1879B
:102FC8002E8463D1070203C58180EF00607419C1A4
:102FD800EF00606D2165218DB24022449244024980
:102FE8004101828093F7150091CF17260020130620
:102FF80026159385418903C58180EF603105134506
:103008001400D9BF93F7850099CF83C78180130730
:10301800400681465146A14503D50188EF60617C91
:103028001345840055BF93F705010145D5D793870C
:10303800C1809C4385446389970081C70D496375A6
:10304800F9161345040149BF938681889842368949
:103058006306F70E8947E316F7FE03D50188D13DCD
:1030680003D7018819E9C167F91717450020130527
:10307800E549E318F7FC3121E9B73A85EF10303814
:1030880075152394A18A1745002013052548752E28
:1030980083D7818A6362F5081386818A9745002061
:1030A80093858547174500201305454685211375E7
:1030B800F50F23A6018A51F503D6818A0147814677
:1030C800ED4503D501882391C18AEF40B04923A279
:1030D800A18A6302051203D6218A974500209385A9
:1030E800A54397100020E780205703260900938501
:1030F800018A03D50188913D55C18D4723A6F180EA
:10310800ED451385018AEF40D05D0946C14503C5E9
:103118008180EF00103135B79387C18A94432947DE
:10312800BE84E36BD7F61146C14503C58180EF0025
:10313800502F9C40850723A6F18A21B703D5018823
:10314800CD3B03D7018811E9C167F917E31BF7EEF7
:10315800174500201305051A39BF3A85EF10302AA4
:1031680075152394A18A174500201305A518F12C7D
:1031780083D7818A636DF5001386818A974500207D
:1031880093858539174500201305C51605B793841F
:10319800C18A9840A947E3E1E7FE71B7854723A6AE
:1031A800F1802394018A95B703D6818A0147814625
:1031B800ED4503D501882391C18AEF40B03A23A297
:1031C800A18A15C903D6218A974500209385C5345D
:1031D80097100020E7804048938781889043938523
:1031E800018A03D50188953301C523A6218109BF2A
:1031F80023A691807DB7894723A6F18039B7416519
:1032080041119385C1EC7D1506C6EF60704817051E
:103218000000130545B1EF803069B24097260020C1
:10322800938686FC41469D45172500201305C5F465
:1032380041016F60303A011117050000130585D769
:1032480006CEEF0050582384A1808547A301F100E2
:10325800B7F5070099472312F10081469307803E8E
:103268003000E10519452313F10097100020E7808D
:10327800C00917270020130767ED814799463000DA
:103288003E960346060085070507A302C700E39894
:10329800D7FE13063100854513055030EF60F1075E
:1032A80017260020130606F5C54513057030EF6094
:1032B800D10617260020130666E9CD4513056030B0
:1032C800EF60B1055000894513051031EF60F10436
:1032D80013066100894513052031EF601104172694
:1032E80000201306E6E7D5450145EF402063930526
:1032F800000A0D45EF20102C9305000A1145EF2018
:10330800702B854730009145130570402301F1006B
:10331800A301F1002302F10002C423030100EF50CE
:10332800017C13062100854513050040EF50217BE1
:1033380013063100854513051040EF50417A1306F6
:103348006100854513052040EF506179500085459F
:1033580013055040EF50A1785D357D55EF40E06989
:103368007D55EF60D02FC167F9171385C18823A059
:10337800F18823A20188EF408155854503C58180E6
:10338800EF00C077F24005618280411117450020A7
:103398001305C51706C6CD2811E989470946C14551
:1033A80003C5818023A4F188EF00B00717450020EA
:1033B800130545F4D12801EDB240854723A4F188CF
:1033C80003C581800946C14541016F009005B2409F
:1033D8004101828041111306001097450020938512
:1033E800E502174500201305651206C68528130651
:1033F8000010974500209385A5F017450020130578
:103408002500A9281306000897450020938585E61E
:1034180017450020130505EE9120B2401306000859
:1034280097450020938545DC174500201305C5E323
:1034380041012DA0411106C6EFE03FF7EFF00F88DC
:10344800EF607116B2404101FDB383572500035563
:1034580005003385A740420541818280AA8705C2BD
:103468001307F6FFB376C700054599EA23A00700BE
:10347800CCC32394C7002395E70001458280054506
:10348800828023200500828083570500035525008C
:103498003385A740133515008280AA871145B5C723
:1034A8002DC683D6070003D787000D45369783D6E8
:1034B8002700158F4207418329CB0145B9C583569B
:1034C80006006373D700BA86C206C1820147131586
:1034D800070141816366D5002310D600014582802B
:1034E8003385E5008348050003D8A70003D52700E6
:1034F800050733780501C84342952300150103D514
:10350800270005052391A700D9B78280AA8711450E
:10351800ADC325C283D6070003D72700158F83566E
:103528000600420741836373D700BA86C206C18288
:10353800094521C301471315070141816366D50079
:103548002310D6000145828003D5070003D8A700C1
:1035580033780501C8434295034805003385E500E3
:1035680005072300050103D5070005052390A700DB
:10357800D9B7828029C50357050083572500998F3D
:103588003E87C207C1836373F600328742074183CF
:10359800814763E4E70001458280835605000356AE
:1035A800A5008507758E5441B29683C60600238010
:1035B800D5008356050085062310D500D9BF1145CF
:1035C800828041111305800406C697000020E78019
:1035D8004033EFF0EFCDEFF0EFEB1305200397004A
:1035E8000020E780404A85450565EFF02FC4BD28D7
:1035F8009135EFE0BFF5EFF08F8B91209710002009
:10360800E7804009EFF08F884933EFF06F9CF5B7FA
:1036180093F71500014599C313C51500828021460B
:103628009385018B17450020130545F005BD411111
:1036380006C6F5374533B24041016FF02F800111BE
:1036480022CC06CE17440020130444EE1745002070
:103658001305C5ED153D09C5F24062440561828038
:1036680005469305F10022853137CDB7411106C6CD
:103678007D3F170500001305E5F9EF00D014B240AF
:103688002388A1804101828023AC05FE1C4191E77B
:10369800010001000CC18280BA8703A787FF6DFF74
:1036A80023ACB7FE82801DC18346E5FF1307F00FE8
:1036B8009147639EE600411106C697200020E780E7
:1036C800009EB24081473E854101828095473E85F4
:1036D800828001E9014582800145B24022444101CE
:1036E8008280411122C42A84210542059305D00411
:1036F800418106C697200020E780C09071DDFD5704
:1037080023200500231285002303F5002105F1B7C6
:103718001387818B1C43411122C426C24AC006C6A6
:1037280001440149BA8489E7A1658D250DC401A822
:1037380003C7E7FF6318A7021DC8A165C126984003
:10374800832784FF6317E40223ACF18AFD57232CF7
:1037580004FE230FF4FE2285B2402244924402491B
:103768004101828011E03E8983A787FF6DBF3E84B7
:10377800E5BF232CF9FED9BFA9C9411122C406C649
:103788002A849747002083C7F7DE2E856368F400F4
:10379800193F0D45B24022444101828083A785FF2D
:1037A80099E703C7E5FF9307F00F6305F700E53DC9
:1037B8001545CDB7238F85FE1385818BF13522857D
:1037C8002244B240A165410115AE1545828023AC63
:1037D800018A82809387018D9C4399E33E8582808C
:1037E80003D727006316B70003C70700E308A7FE3F
:1037F800DC47E5B74111939705014AC006C622C4C4
:1038080026C2C1872E8963DE0700193711C1613DC1
:1038180021653345A900B24022449244024941013E
:103828008280AA860145E5D901443D47B3578940BE
:10383800858B95CB9387418C8443BD4791E2814723
:10384800A2978E070545BE9433158500131405010C
:103858009C40C8404180829723A0040023A2040012
:10386800334524014DBF0504E312E4FC0144CDBFF8
:1038780097470020938747CC9C53411122C406C622
:103888001384418195C7829723AAA1800840B7472E
:1038980003009387D73F3305F502B7A72600938720
:1038A80037ECB24022443E9523AAA1804101828090
:1038B80097470020938707CC18409C4BBA9723AAB8
:1038C800F180E9B79387C18B90439746002083C660
:1038D80076CA814713F7F70F6360D70A17470020A6
:1038E800034777DD914763E0E70A9747002083C7DE
:1038F80027E1918BC9EB0111680006CE22CC26CABC
:10390800EFC0004AFD56630FD50C32479747002099
:1039180083C7B7C363F3E70C17470020130787C5AE
:10392800404717470020034767C26305D406058B45
:1039380021CF51473304E40263F1870A971000202E
:10394800E780A0F6B2476373F400A2871747002008
:103958000347B7BF998F3E95974700209387C7BD08
:103968008387470163CD0702B707C0A86369F502DB
:10397800B70740573E9525A085071397170032973C
:103988000357E7FF21DB8280130790023304E40228
:1039980005805DB762076187635707001D8D19E9C8
:1039A8003705C0A801A8E37BF5FE3707C0A8B30711
:1039B800F7403E9597470020938707B8DC538297D6
:1039C80009ED974700209387A7CE9C4F99C7EF1022
:1039D800E11DEF106176EF10C111F2406244D2444C
:1039E80005618280974700209387C7B8DC47E38644
:1039F800A7FE17470020130727B483464701BA8458
:103A0800858A9DC65144338487029747002083C71F
:103A1800D7B3E3F487FC97100020E78000E99747C5
:103A2800002083C797B21D8C2295838744011DBF50
:103A380013049002338487020580C1BF2A9609E5E2
:103A480082800505A30FB5FEE31DC5FED5BF8147DE
:103A58003307F5000307070019E33E8582808507D1
:103A6800C5BF01112E8626CAAA841315060193051F
:103A7800F004418122CC06CE32C697100020E780A0
:103A880060582A8419C53246A68597100020E78019
:103A9800A0BC2285F2406244D244056182808147FD
:103AA8006314F600054582803307F5008507B38661
:103AB800F5000347070083C6F6FFE383E6FE0145EA
:103AC80082809307F6FFBE952A966313C50082800D
:103AD800FD1583C715000505A30FF5FEFDB7814742
:103AE80011E9014582803307F50003470700E31A0F
:103AF800B7FE8507E319F6FE054582809747002043
:103B080083C757A7637FF5001387C18B93171500E9
:103B180008433E9583570500DD8D2310B500014508
:103B280082800D458280FD57011117470020232907
:103B3800F7A49387018D22CC80434EC69749002075
:103B48009389899F26CA4AC852C456C206CE5AC00B
:103B58002A8981444E8A974A0020938AAAA1184448
:103B680081476374E900B307274103A749021CC4CE
:103B780009CB03A7CA0063F6E700174700202321F3
:103B8800F7A0A1E7835524009DE95C44A1E823A898
:103B9800F18C032BC400228597100020E780205069
:103BA8005A8455FC83274A0285CF6244F240D244A6
:103BB8004249B249224A924A024B056121B3034560
:103BC80004002D3F5C4081CB1CC483572400D5DF03
:103BD800A2844044F9B71C44CDDBC5BFDCC455BF43
:103BE800F2406244D2444249B249224A924A024BC4
:103BF800056182809747002083C7D7976371F502D4
:103C08001387C18B93171500084393C5F5FF3E959D
:103C180083570500FD8D2310B500014582800D45B1
:103C280082809747002083C7F7946364F5000145B5
:103C38008280411122C426C24AC006C62A842E891F
:103C4800B284493E01C504C505452DA0936504F01D
:103C5800C205C181414597100020E780A03A0DE1D7
:103C6800974700209387478D9C5B81C7A2851145A4
:103C780082970145B2402244924402494101828020
:103C88009387018D9C438DE323A8A18C8547232628
:103C9800050004C52311250123008500A300F500B4
:103CA8002322050055B7BA87D84775FFC8C7F9BF9B
:103CB80045C539715AD0138B418C22DC26DA4AD893
:103CC8004ED652D45ECE66CA6AC86EC606DE56D2D4
:103CD80062CC3689328AAE89AA8401445A8DB94D9C
:103CE800854BF94C03270B00131C3400937AF40F0F
:103CF80062971C43A9EF13B5FA0013451500B39753
:103D08008B0063F65D01930714FFB397FB0093954F
:103D18000701C181528631371DC983270D0001452E
:103D2800E29784C323A237016304090023005901E1
:103D3800F2506254D2544259B259225A925A025BF2
:103D4800F24B624CD24C424DB24D21618280050447
:103D5800E31A94F92145E9BF09458280411122C43B
:103D680026C24AC006C6AA842E8932845D3DCA8509
:103D78002685EFF03FA609C940C10145B24022445B
:103D880092440249410182802145CDBF411122C49C
:103D980026C24AC006C6AA842E89EFF0BFA32A8489
:103DA80019C1231105009737002083C7A77C6394A6
:103DB80097002394218DCA8526852D3D014511E064
:103DC8001945B24022449244024941018280754714
:103DD800636BA7041387418C1443411126C29314C3
:103DE8003500A696944222C406C6AA873A84094595
:103DF80095C613B5F7003947134515006373F700E7
:103E0800C5178545B395F500C205C18141371C40EA
:103E18000145A69723A0070023A20700B240224429
:103E280092444101828009458280411106C6EFF023
:103E38007F9A09C50845B240410182800145E5BF26
:103E4800F54763EDA7049387418C9C43131735000E
:103E5800BA979843894721C7011126CA06CE9334D9
:103E6800F50022CCB94793C4140063F3A7004515A5
:103E780005443314A400420441802EC62685A28539
:103E88006D378947324609C5A2852685593B814742
:103E9800F2406244D2443E850561828089473E856E
:103EA80082802390A18C2391B18C8280411106C617
:103EB80023A6A18C0295B2409737002023A6A76CB1
:103EC800014541018280994763E9B7008A05973720
:103ED80000209387676CBE9588C18280411106C611
:103EE800EF50717371468145173500201305C56A77
:103EF800EFF0DFB4130640028145173500201305A3
:103F08006567EFF0BFB323A8018C23A6018C973710
:103F1800002083C7276413D527008D8B3E958D47D6
:103F28003305F5029305101035051375F50F97370E
:103F380000202382A76499473305F5021305050F6E
:103F480097100020E780000C23A2A18C35C999475F
:103F580017360020034626623306F602814513060B
:103F6800060FEFF0BFAD9387418C9C439387070FF3
:103F780023AAF18C173700200347E75F0A07BA978F
:103F880023AEF18AEFF0BF8445269387418D98438D
:103F98009737002083C7175E93962700BA961706AF
:103FA80000001306668590C293862700850793F75D
:103FB800F70F8A0797350020A38ED55ABA9790C372
:103FC800B240410182809737002083C7B75A17371C
:103FD80000200347475A63F1E7021387418D1843CE
:103FE8009386170017360020A306D6589396270005
:103FF800369708C33E8582809307F00FE5BF1C41C2
:10400800638E071841777D8FB706002089476318AC
:10401800D7180357450063040718411122C41946ED
:104028002A849305F00F590506C6EFF05FAB0547E4
:104038008D476300E5161C4481CB58589947630A9D
:104048000714185C630707141306C0038145173566
:1040580000201305654EEFF07F9E1306C003A2856E
:10406800173500201305454D97000020E780C05EF6
:104078009737002083D7074D973600209386C64B85
:1040880099E79307001017370020231DF74A973741
:10409800002083C7474B91E7854717370020230443
:1040A800F74A9737002083C7174A91E7ED47173734
:1040B8000020A30AF7489737002083C7E74891E70D
:1040C8009547173700202301F7489737002083C703
:1040D800B74791E7854717370020A307F746973773
:1040E800002083C7B74699E783C706011737002022
:1040F800A30EF7449737002083C7274591E7D14798
:10410800173700202303F7449737002083C7A744B5
:1041180095E7173700200347674313168701618621
:104128009307C002634806009377170093B71700F8
:104138009387D70217370020230FF74097370020BF
:1041480083C7B74095E71737002003472740131662
:10415800870161869307C0026348060093771700BA
:1041680093B717009387D70217370020A30FF73CA0
:104178008347D40191E7894717370020A30CF73C00
:104188009C5691C78297973700202398A73EB9334A
:104198008147B24022443E854101828089473E855D
:1041A8008280011122CC06CE2A842EC6EFF04FEC75
:1041B800B245F240818D33A5A5022295624413755C
:1041C800F50F05618280011122CC06CE2A842EC605
:1041D800EFF00FEAB245F240818D33A5A502229592
:1041E80062444205418105618280011122CC06CEDC
:1041F8002A842EC6EFF0CFE7B245F240818D33B561
:10420800A502229562440561828097370020938732
:10421800A732985725C3411122C426C206C6BE84B8
:10422800029717370020035747352A8441C7BA87B2
:104238006373A700AA87C207C183BA866373E400C1
:10424800A286C206C182958F51476355F706DC5492
:1042580091C38297854717370020230FF744EF0053
:10426800D15997370020239A8730B240224492448C
:10427800410182809737002083C707449DE797371D
:1042880000209387E74283C79700850793F7F70FC6
:1042980017370020A302F742A18B9DC78547173720
:1042A8000020231BF7406F00315B97370020A38560
:1042B8000740D5BF9737002083C70740DDD7224482
:1042C800B24092444101C5B7828097370020938756
:1042D800A726D857011122CC06CE3E8401C72AC68C
:1042E8000297324511CD23ACA18C17050020130588
:1042F800455DEFF0BFBBF240624401450561828035
:104308008307440163DD07009737002023A00728AF
:10431800970700209387875523ACF18CF9B7970747
:10432800002093878758CDBF011122CC1734002075
:1043380013048420084406CE26CA4AC801E9054564
:10434800F2406244D2444249056182805C58E5DB10
:10435800185C75D77000854582971844B247E3000A
:10436800F7FE9305E004173500200355A51D9710A7
:104378000020E78020C917370020232BA72061D110
:10438800173600200356061C9305F00FEFF00FEBCD
:104398008144173900201309E91D9737002083C786
:1043A800871A0326C90163C1F402328597100020D9
:1043B800E780E0CE01459737002023AB071C9737ED
:1043C800002023A9071CADBF9735002083D585178A
:1043D800B38795020844185C898185043E9508C214
:1043E800029765BF411122C4173400201304C41476
:1043F8001C4426C206C64AC09734002093848417FA
:1044080091EBC84C35E9B240224492440249014537
:10441800410182801C5CF5D7DC4C99EF9305E004E0
:10442800173500200355051297100020E78080BD3E
:104438009737002023AEA714C84C61D51736002043
:10444800035646109305F00FEFF04FDF01499737F9
:10445800002083C7470FD04CE355F9FA9735002061
:1044680083D5450E338525031C44898105093E956E
:104478001C5C08C28297E1BF97100020E78020C229
:104488009737002023A607109737002023A407108A
:104498009DBF011156C2973A0020938AEA0983A763
:1044A8008A0022CC4AC84EC606CE26CA52C45AC072
:1044B800AA892E8432896385072203A74A036307E2
:1044C80007147D476366A714973400209384840AF1
:1044D80003AAC40163170A0A9565938515E0173581
:1044E80000200355250697100020E780A0B19737D4
:1044F800002023AFA7082A86630A051083A74A036A
:1045080003A58A009735002083D5C5038981829742
:1045180083A78A0003AAC40117370020232CF706B3
:104528008947639CF908C1476312F40E9735002048
:1045380083D54501938505FC9147B3C5F5028A05E6
:10454800D29503C705009307A005631DF70A83C723
:1045580015006399370B4A8522869105970000203C
:10456800E780800FDC4C5285639347150145F24084
:104578006244D2444249B249224A924A024B0561F6
:1045880082809850E38EE7F89565938525E0173586
:104598000020035525FB97100020E780A0A62A8A53
:1045A80035C52A8683A74A0303A58A0097350020C4
:1045B80083D545F989818297A5B78D47639DF90011
:1045C800C1476315F4049735002083D5A5F7938573
:1045D80045FDF199B5B79147639AF900631834031B
:1045E8009735002083D505F6A115E5B7C147639F28
:1045F800F900A14763EC87009735002083D585F43F
:10460800C115C1BFDC4C52856397470D294585B755
:104618001307F006568B6361A70A130A05FE1947AC
:10462800334AEA02173700200357C7F1973A0020A8
:10463800938A4AF4330AEA023E9A83A70A026395E8
:10464800470183A4CA019DE49305E00417350020BF
:10465800035545EF97100020E780C09AAA845DD5DE
:1046680083274B039735002083D5C5ED2A8689819A
:104678005285829791451307A00589819397250054
:10468800A69783C607006393E60483C61700639C56
:10469800360385058A052286A6954A859700002057
:1046A800E78080FB83A7CA01E38297EC26859710F1
:1046B8000020E780C09E5DBD1307E007E368A7F40C
:1046C800130A05F985B783D5270045BF83A7CA0113
:1046D800E38E97F2268597100020E780409C3DB72F
:1046E80097370020938707E9CC4F8DD191479306E0
:1046F800A0058983139727002E9703460700E31721
:10470800D6F003461700631C360185078A07228600
:10471800BE954A8597000020E78000F481BD835745
:104728002700C1BF97370020938707E1984739C70B
:104738009C5FA9C705476313E504411122C41734D8
:104748000020130424E3504C06C60DC608509735C4
:10475800002083D525DF89818297484C9710002057
:10476800E780E0939737002023A407E297370020DB
:1047780023A207E2B24022444101828082800111D3
:1047880017370020130747DB4EC68329870022CC42
:1047980026CA4AC806CE52C456C2AA842E84328972
:1047A800638A09201C5FBA8A99EB2945F240624462
:1047B800D2444249B249224A924A056182805C5BEE
:1047C800EDD7FD4763E9A70E97390020938989DA69
:1047D80083A7C901B1CB03A58A0083A70902639502
:1047E800A70689476393F408C147E310F4FC17351B
:1047F8000020035525D59147130505FC3345F502DF
:104808009317250003A5C9012286CA853E959307FB
:10481800A0052300F500A3009500110597000020CE
:10482800E78080E3014559B79305E0041735002078
:10483800035545D197000020E780C07C97370020BA
:1048480023A8A7D449F995B783A74A0303A6C901A2
:104858009735002083D505CF8981829783A78A0061
:10486800173700202328F7D2ADBF8D47639EF40089
:10487800C147E31CF4F2173500200355A5CC1305F6
:1048880045FD9377C5FFBDBF9147639AF400E31ECA
:1048980094F0173500200355E5CA2115DDB7C14747
:1048A800E395F4F0A147E3E287F0173500200355BC
:1048B80065C94115F9B79307F00663EAA706930798
:1048C80005FE1947B3C7E70217370020035787C704
:1048D800173A0020130A0ACAB387E702BE9983274A
:1048E800CA01A9CF83270A02639A37070325CA0199
:1048F80091461308A005FD5593D72600C207C1832A
:10490800139727002A9703460700631D0607834865
:1049180017000356270063959806B306D64063CF61
:10492800860485078A072286CA853E95C5BD9307F2
:10493800E007E3ECA7E6930705F979B79305E004E8
:1049480017350020035505C097000020E780806BCD
:104958009737002023AEA7C251F581BD83A74A032C
:104968000326CA019735002083D5C5BD89814E85A8
:1049780082979737002023AF37C18DBFA300B700B8
:10498800B2869DBFB385860017360020035686BBC6
:104998009105130606FCE3FAC5E013063400137606
:1049A800C60F1106B29623000701A3009700231132
:1049B800D70085BF973700209387C7BBD44FBE89E0
:1049C800A1C203A5C90191461308A005FD5593D7B7
:1049D8002600C207C183139727002A9703460700BA
:1049E8006316060583481700035627006398980046
:1049F800B306D640E3D786F2A300B700B286C1BF9C
:104A08008357C700173500200345E5B39305E00435
:104A18003305F5024205418197000020E780805E5A
:104A28009737002023A6A7B649FD41B317360020C3
:104A3800035646B19735002083C5E5B0B385C50256
:104A4800338686001106E3E2C5D681BF0145828020
:104A580083C705002300F50083D72500A300F500D0
:104A680083D72500A1832301F50083C74500A3014F
:104A7800F5001145828023A0018E23AE018C82802F
:104A880029C1411126C206C622C4AA8401458DC582
:104A98002E8422854146978501009385A5D89700E5
:104AA8000020E78060BB83C7040005452306F400A7
:104AB80083C71400A306F400B24022449244410183
:104AC800828001458280011122CC26CA06CE094780
:104AD800AA8432846381E50441468147639BC5000B
:104AE800638FE6006397B6000DA841478147638E40
:104AF800E600F2406244D2443E85056182808A85A0
:104B08002285BD3F41468A8519A88A85953F414639
:104B18008A85228531A0E39AB6FC2E86A285268551
:104B2800EFE0FFF7AA87F1B723A0A18E82800111D9
:104B380022CC0354650006CE26CA4AC84EC641C0D8
:104B480083298500AE842A8803C909008147131781
:104B58008901618763550702B147054563FA8704F0
:104B68005114420403552800418033878900A286E6
:104B78004E868545EF90B05EB337A00085077D145B
:104B880013556900420405891379F903418023808C
:104B9800F400A380A4002381240123928400014708
:104BA80019C01387190098C409476383E7000145B2
:104BB800F2406244D2444249B249056182800545C7
:104BC800C5BFC167F917630AF502D94763F7B7028A
:104BD800011122CC2EC606CE2A84EF50D048B24509
:104BE8006368B50022856244F24005616F704057E2
:104BF800F240624405450561828005458280C167AF
:104C0800F9176314F5006F501046411106C6EF708E
:104C1800E04411E15D45B2404101828039714ED6D0
:104C280056D25AD006DE22DC26DA4AD852D4AA8ACC
:104C38002E8BB28941EF36C6D937CD45EF50305368
:104C4800AA844D492DC9B246054A2380340105443A
:104C5800630A0B00B68513851400029B050513141F
:104C680005014180E20993D9894163D30902C1450D
:104C78005685EF70E04B654905E933868400A285C7
:104C88002685EF90D0112A8905E13104420441803C
:104C980091472C085685231CF10026CE231D810040
:104CA800EF6010582A8901C963070A002685970012
:104CB8000020E780C03EF25062544A85D2544259DF
:104CC800B259225A925A025B21618280BA84014AFF
:104CD800ADBF011122CC26CA4AC84EC606CE2A89C3
:104CE8003284B689253FAA8405E19387018E9C43C7
:104CF80081CF05476317E40003C409000504137452
:104D0800F40FA2854A858297F2406244268542497B
:104D1800D244B24905618280AE86014705469705AF
:104D28000000938525D375B7011106CE2EC6EF7006
:104D3800602F01C9B245F2400355250005616FA0F7
:104D48008055F240494505618280A38601902386FB
:104D5800019023AA018E23AC018E23AE018E23A0DD
:104D6800019023A8018E23A6018E973700209387F0
:104D780067843707B40098C33747A000D8C33707FC
:104D880010009306070A94C7B7065000C106D4C797
:104D9800930607054107D8CB3707D007410798CFB7
:104DA8003707840398D337C70700130707B8D8D342
:104DB800416794CB93060701130717F8D8D74177B3
:104DC80023AE070094D798DB8280011126CAAA84F3
:104DD800214522CC06CE2E8432C636C43AC2EFE034
:104DE8005F8F1DC9A24612473246930700FD230074
:104DF800F5009947A30095002301F5002303D5008A
:104E0800A303E5002312C500AA8522856244F24067
:104E1800D24405616FE05F96F2406244D244056176
:104E2800828023AAA18E828023ACA18E828023AEA9
:104E3800A18E828023A0A1908280011122CC4AC831
:104E480006CE26CA2A890144B30489006368B400DF
:104E5800F2406244D2444249056182802EC6EFE0A6
:104E68003FA193170501C183A183B2452380F400B4
:104E78009307140093F7F70F850463F9B700CA97EF
:104E880009042380A7001374F40F7DBF3E847DBFFF
:104E9800C1671725002003558575FD176302F502C4
:104EA800411103C681999385419006C6EF60D07879
:104EB800B240FD5717270020231BF772410182805B
:104EC800828009C925151375F50F1335850E13450D
:104ED800150082800145828023800500F94763E23E
:104EE800C708797122D426D24ECE56CA5AC806D6D9
:104EF8004AD052CC5EC63684B289AE8A2A8B8144A7
:104F080063FF3405B307940003CA0700138914002C
:104F18001379F90F63050A04B3072A0163C1F90479
:104F2800B307240183CB07005E85613F0DC9930752
:104F3800FAFF2380FA0063906B031305190022958A
:104F4800B250225492540259F249624AD24A424B10
:104F5800B24B45618280D29493F4F40F55B7014562
:104F6800C5B701458280411126C2AE8422C4972765
:104F7800002023A5C7689727002023AFB766972787
:104F8800002023A9A7662A8441469305F00F2685A9
:104F98004AC006C60549EFE09FB4631E250397275C
:104FA800002093876764884BC145413D414693057E
:104FB800F00F2285EFE0BFB28544631695022244C4
:104FC8009727002093874762B24092440249C84716
:104FD800C14541019DB5414681452685EFE03FB079
:104FE800E31625FD6DBF414681452285EFE03FAFC1
:104FF800E30795FCB2402244924402494101828071
:10500800411122C426C22E84AA84130600028145B7
:10501800172500201305455D06C6EFE03FA2972738
:105028000020A384975CA38D8198EFA04028854732
:1050380019C181474945B24022441727002023055A
:10504800F75A924441018280814781CD19C9854729
:10505800631BF50083C7550093E707FCA382F5009F
:1050680085473E85828089476317F50083C75500C9
:1050780093F7F703E5B70D478547E314E5FE03C744
:1050880055001377F70313670704A382E500D1BF20
:1050980081478DC105C103C755009306000C85479C
:1050A8001377070C6308D700930600048D47630342
:1050B800D70089473E858280411122C4005D06C61B
:1050C80026C21DC8AA84085009C597000020E78099
:1050D80000FD485009C597000020E78040FC0854AF
:1050E80009C597000020E78080FB228597000020F3
:1050F800E780E0FA23AC0402B24022449244410122
:10510800828009ED9727002083C7274E17250020A6
:105118001305054F81CB1385418E8280172500200A
:105128001305054E8280172500200345054C828013
:10513800972700209387474BC847828097270020EE
:105148009387874A884B8280972700209387C7498F
:10515800DC4B88438280972700209387E748D84B09
:105168001C4385071CC317250020034515489307D2
:10517800F00F6305F50091656FE05F98828001117B
:1051880022CC06CE2E8432C6EF6010799147B24504
:10519800631FF500938701909C438DC303A3070009
:1051A800630E030022856244F240056102839387FF
:1051B800818F9C4381C703A34700DDB7F240624457
:1051C800054505618280011122CC2A8403554500DA
:1051D80006CE26CA4AC84EC6EF60F05435C52A899D
:1051E800834405008349C500C13D4A85EF70504C92
:1051F80003554400EF60D06D83C7C190B1CB63996C
:10520800970483C5D1902685EFF01FB219E1238654
:10521800019003554400EF6030709147631FF5001B
:10522800035744009727002083D7673C6317F7008C
:10523800FD5717270020231CF73AF2406244D24456
:105248004249B2490561828081499304F00F6DB7E4
:105258009307F00FE38FF4FA834664000356440083
:10526800034524004E87A685EFF03FB65DB77971F8
:105278005EC6AA8B2E8552CC56CA5AC806D622D4E8
:1052880026D24AD04ECEAE8A328B368AEF60B049EB
:105298006DC1045D2A89F1CC9C50614599C3130501
:1052A80040039C5481C751054205418163050A00AA
:1052B800710542054181DC5081C75905420541818C
:1052C800EFE02FC12A8455C561468145EFE00FF70D
:1052D8009729002083C9093163940900834909008B
:1052E800930700FD2300F400A947A30074012301DC
:1052F800F400230364018C50231254011305840124
:1053080091C908C47146930A440397F0FF1FE780C8
:10531800A03456858C5491C948C45146930A450116
:1053280097F0FF1FE78040335685630C0A0008C8D2
:105338007146D285930AC50197F0FF1FE780C031F7
:105348005685CC5099C548C8594697F0FF1FE78045
:10535800A030A2854E85EFE02FC22254B25092545D
:10536800F249624AD24A424BB24B4A8502594561D8
:10537800A1B3B250225492540259F249624AD24A15
:10538800424BB24B4561828001114EC6AA892E85D7
:105398004AC806CE22CC26CA2E89EF60D03831C53D
:1053A8009724002083C4042499E083440500194508
:1053B800EFE02FB22A8415C981451946EFE00FE8BE
:1053C800930700FD2300F400B947A300340123012B
:1053D800F40023122401A2856244F2404249B249F2
:1053E8002685D24405616FE02FB9F2406244D24469
:1053F8004249B2490561828039715ECEAA8B2E85F9
:1054080026DA4ED652D456D25AD006DE22DC4AD8F4
:10541800AE84328BB68A3A8ABE8942C6EF60B03013
:1054280031C92A894145EFE0CFAA2A8421C54146DE
:105438008145EFE0AFE0172500200345A51A19E1E3
:1054480003450900930700FD2300F400BD4723012D
:10545800F400B247A30074012312940023046401EA
:10546800A304540123054401A30534015CC4A285A7
:10547800EFE08FB0F2506254D2544259B259225AD6
:10548800925A025BF24B21618280797126D2AA84FA
:1054980039454AD04ECE06D622D42EC6B289368990
:1054A800EFE02FA321C1B2459307000D2310F500AB
:1054B800B1472A842312B5002301F500CE851905CA
:1054C800194697F0FF1FE780201923062401A285BB
:1054D8002254B2500259F24913F5F40F925445611F
:1054E8006FE08FA9B250225492540259F249456193
:1054F8008280172700200347570F9307F00F630D8B
:10550800F706411126C2AA84394522C406C64AC0F4
:10551800EFE02F9C2A8439C9930700FD2300F5008A
:10552800A300950023010500972500209385450DCC
:105538000D05194697F0FF1FE78000121729002074
:105548001309890A83578900A28517250020034576
:10555800D5092315F400834719002306F4002244D3
:10556800B2409244024941016FE00FA1B240224487
:1055780092440249410182808280011156C2AA8A5E
:10558800314526CA4AC84EC652C406CE22CCAE847D
:10559800328AB6893A89EFE0CF9329C92A842685C9
:1055A800EF6070181DCD03450500930700FD23002B
:1055B800F4009D47A30054012301F4002312940032
:1055C800231344012314340123152401A2856244C2
:1055D800F240D2444249B249224A924A05616FE0F8
:1055E800AF991725002003455500C1B7F240624422
:1055F800D2444249B249224A924A056182803971AD
:1056080062CC2A8C594526DA4AD84ED652D456D27C
:105618005AD05ECE06DE22DCAE8432C636C4BA8BE1
:105628003E8BC28A468A8359010403494104EFE04C
:105638004F8A35C53246930700FDA2462300F50080
:105648009547A301C500A30085012301F5002A841D
:1056580019461105A9C2B68597F0FF1FE780C0FF5C
:1056680023066401230A2401231574012317540116
:105678002318440123193401A2856254F250425977
:10568800B259225A925A025BF24B624C2685D25486
:1056980021616FE06F8E8145EFE04FBAD1B7F250CC
:1056A8006254D2544259B259225A925A025BF24B6E
:1056B800624C216182809727002083C707F38DCB36
:1056C8004111AA8519461385418E06C697F0FF1F1A
:1056D800E78080F89385418E172500200345E5F083
:1056E800EFF09F96B2401385418E41016F90B03C18
:1056F8000145828017270020034737EF9307F00FF3
:105708006305F708411126C2AA84294522C406C6A2
:10571800EFD03FFC2A8429C1930700FD2300F50040
:10572800A1472301F500A300950097270020938740
:10573800A7EB83C727009385418E1105A30FF5FEBC
:10574800194697F0FF1FE78020F1A2851725002052
:105758000345B5E9EFE04F82172700200347E7E844
:105768008D47631FF7009387C18F9C4391CB03A399
:105778008700630703002244B24092444101028338
:10578800B2402244924441018280172700200347F7
:10579800C7E58D47631AF7009387C18F9C4389C774
:1057A80003A38700E31D03FC8280797122D406D607
:1057B80026D24AD04ECE52CC094445C92A8903552F
:1057C80005002E8A5144EF600076AA8459CD83C71C
:1057D800B199FD1793F7F70F054749446377F70821
:1057E8000347C500A1476314F70063100A089C5CCF
:1057F8004544A5EF9165938545711305C00297004F
:105808000020E780208088DCAA894D4439CD130622
:10581800C0028145EFE08FA28357090093864900B3
:1058280036852391F90071469305490036C697F0ED
:10583800FF1FE78060E289472380F90003C5C400A1
:10584800B24603560900611583C5819913351500C1
:10585800EF9020042A8463060A00D2852685EF701B
:10586800501001C42685EFF03F852285B25022549E
:1058780092540259F249624A4561828083C7B199BC
:10588800FD1793F7F70F05476378F708894751C65F
:10589800011122CC26CA4AC84EC652C406CEAA89CD
:1058A800368AB2842E89EF6000682A84D14729C9D4
:1058B800485509C597F0FF1FE780607EF1452685AA
:1058C800EFE02F9A48D4CD4705CD8346C400214741
:1058D8008147639FE600630D0A000347A50103564D
:1058E800050193062501AA854E85EF60707FAA877A
:1058F80003474400630F0900136767002302E400AD
:10590800F2406244D2444249B249224A3E85056186
:10591800828013674700DDB7C9473E858280E1472B
:1059280063EBA700972700209387C7C806053E9515
:1059380003550500828041657D158280011122CCC6
:105948002A842E8526CA06CEAE84EF60C05D0DCDB2
:10595800B7470F009387F723094563E2870281451C
:105968000A854146EFE08F8DA685231081000A85C0
:10597800418023018100A3010100EF80F053F24030
:105988006244D244056182804945D5BFA38CA19861
:1059980082806F80D068797152CC2A8A328522D46D
:1059A80026D24AD04ECE56CA5AC85EC606D662C459
:1059B800AE8BB28A368BBA843E89C2894684EF6040
:1059C800805615C92A8C63140A0213774B00834743
:1059D800450015CF93E727012302FC008DEC631CDB
:1059E8000902639A090205E8ED9B2302FC00832B58
:1059F8008C03639F0B06B250225492540259F24909
:105A0800624AD24A424BB24B224C45618280F59B96
:105A180093E70701D1B793E747002302FC0001CCC5
:105A28001C484146A2852324FC0213058C0197F0EB
:105A3800FF1FE78060C263910B02D5D80325CC0213
:105A480009C597F0FF1FE7808065F1452685EFE0DF
:105A58004F812326AC0261BFE30B09F80325CC0272
:105A680009C597F0FF1FE7808063F1454A85C5B7F0
:105A78009DC483A70B0299EB916593853571714598
:105A880097F0FF1FE780005823A0AB0203A50B0285
:105A980019C57146A68597F0FF1FE780E0BB6388AC
:105AA800090283A74B0299EB9165938525715945A6
:105AB80097F0FF1FE780005523A2AB0203A54B0216
:105AC80019C55946CE8597F0FF1FE780E0B81DC479
