:040000006F10104C21
:1000040000000000000000006F0080086F00002363
:1000140000000000000000000000000000000000DC
:1000240000000000000000000000000000000000CC
:100034006F004006000000006F00E00500000000B3
:100044006F0080056F0060056F0040056F0020059C
:100054006F0000056F00E0046F000027000000003F
:100064006F0060046F0030536F00F0476F000004AE
:100074006F0020246F00C003000000006F006003C5
:100084006F00B04E6F0020036F0000036F00E002AA
:1000940001A001A001A001A001A001A001A001A054
:1000A40001A001A001A001A001A001A001A001A044
:1000B40001A001A001A001A001A001A0B717004068
:1000C400130770052380E704130780FA2380E704ED
:1000D4002396A70223800704371700408347270588
:1000E400898BEDDF835707053717004083472705C2
:1000F400898BEDFF3717004083472705898BEDDF98
:10010400035507058280B7170040930670052380C6
:10011400D704130780FA2380E70403C6B7041376D1
:10012400F60DA385C70423800704137605022DC6A4
:1001340003C6A700118A0DE22380D7042380E704B5
:1001440003C7A700136747002385E7009307004B05
:1001540001000100FD17EDFFB7170040930670057D
:100164002380D704130780FA2380E7047D8923942E
:10017400A70001000100010001002380070423807F
:10018400D7042380E7049306100537270040A30310
:10019400D780238007048280137605046DDE03C6AE
:1001A400A700418A0DE22380D7042380E70403C714
:1001B400A700136707012385E7009307007D01006B
:1001C4000100FD17EDFFB71700409306700523806B
:1001D400D704130780FA7D892380E7041365050497
:1001E4002394A700010001000100010023800704FB
:1001F4002380D7042380E704930630053727004083
:1002040079B74111814601468145114506C6EF0083
:10021400B047B7170040130770052380E70413079E
:1002240080FA2380E70403C7670413671700238356
:10023400E70423800704B2404101828081460146DD
:1002440081451145EF005044B717004093067005EF
:100254002380D704130780FA2380E7047D5623966E
:10026400C7022380D7042380E70403C76704136706
:1002740017002383E7042380070401A0BD47330547
:10028400F50201007D1575FD8280411122C426C24C
:1002940006C6AA84014463179400B24022449244DF
:1002A4004101828005041305803E4204C13F418020
:1002B400DDB7B7170040130700032388E70285471B
:1002C40023AAF18673002030011122CE26CC4ACA1B
:1002D4004EC852C637840040834464008545374580
:1002E400008093F4F40F97F0FFDFE780A02E93F7DC
:1002F4002400E38D071A834774001307000393F760
:1003040007036385E70283477400094793F7F703FC
:100314006388E73A6366F70A6387071405476383CC
:10032400E734B787004009472383E7003787004055
:1003340083477700E207E18763D40764930720FCCF
:100344002301F702138741860043834974008347DE
:100354006400A209B3E9F9002391318983471400A9
:10036400A380F1888344040093F60406638306564D
:100374002D47636DF736254763F8E700FD1793F7BC
:10038400F70F09476363F75EE204E184814663D2B1
:10039400040283D72188930600043E8763F4F600A1
:1003A4001307000442074183998F9376F70F239133
:1003B400F188B78700402380D702130700FC55ABB0
:1003C400930610026381D724930620026389D730F1
:1003D40093060002E397D7F483C711889546638593
:1003E400D7069946639ED7069387218803D40700CE
:1003F40013070004BE846374870013040004938706
:1004040041861389818888434204832509004180F9
:100414002286979001E0E780C0F483D704009379A3
:10042400F40F818F2391F188832709003E9423A43C
:100434008188B78700402380370303C72702134707
:1004440007042381E702F1BD8347340083C6218872
:1004540093F70708D58FA301F4002301E402D1B573
:1004640023000402DDBF834784008347240293F7FB
:10047400370F2301F40203C70188058B9387018892
:100484006307071683C7070003C981A903C491A999
:1004940093F7E70F2380F188938741A983A9070085
:1004A40083C4A1A9638C09004E8597F0FFDFE78020
:1004B400A0894E8597F0FFDFE78020D6E38304E62A
:1004C40099476381F40663E9970295476383F404CB
:1004D4008547630BF906630909068947630FF90623
:1004E4009147E3E087E4179701E0130727F40A0430
:1004F4003A941C40BA9782879D47638EF402A147C1
:10050400E398F4FC373700408347370093E737001C
:1005140039A0373700408347370093F7C70FA3014B
:10052400F7007DB7373700408347370093F7C70F8D
:1005340093E71700EDB7373700408347370093F749
:10054400C70F93E72700E1BF3737004083473700E1
:1005540093F7B70FA301F70061B73737004083471C
:10056400370093E74700FDB737370040834737002C
:1005740093F7770FA301F7006DB3B737004003C7B4
:10058400370013678700A381E70003C73700137799
:10059400F70CA381E70071B3373700408347370076
:1005A40093E78700A301F7008347370093F7F70C1D
:1005B40093E70701C1B7373700408347370093E714
:1005C4008700A301F7008347370093F7F70C93E7FD
:1005D40007024DB7B737004003C7370013678700DA
:1005E400A381E70003C73700136707035DB703C799
:1005F4000700098BE30707D283C7070093F7D70FD8
:100604002380F18839BB8347640293F7C70F93E7CC
:1006140027002303F402A38D018683C7C187E382E5
:1006240007D0238E0186138741AD8147938541B559
:10063400930600043386F50010429107110750DF3A
:10064400E39AD7FEB787004003C7D1872382E70226
:1006540003C767021377C70F2383E7028547A38D78
:10066400F186C1B18347740093F70704E38B07CA8B
:1006740083478400138541C1938541AD238FF1865F
:100684001307000481473386F5001042B306F500D2
:10069400910790C2E399E7FE3787004083476702DA
:1006A40093F7370F93E787002303F70203C541ADA0
:1006B4008547A38FF186970000E0E78020C295B1BB
:1006C4008347740093F70704E38D07C483478400CA
:1006D4008347A40293F7370F2305F40299B18347A4
:1006E400A40293F7C70F93E72700FDB7130710027F
:1006F4006386E702130720026387E70613070002F5
:100704006395E72683C781A9638E071A0947E39D8A
:10071400E7C683C7018893E727004DAA971700000F
:100724009387C77623A4F188A1474E8963F33701E1
:1007340021494209135909014A86971500009385F6
:10074400E5742285979001E0E780A0C183D72188D2
:10075400B38727412391F188938781889C433E99ED
:1007640023A4218915B183C781A9138941A9E39DD4
:1007740007C08347290013849187858BC5CB8347A2
:100784000400898BD9EF8347040093E74700A38CC7
:10079400F1868347040093E78700A38CF18683479F
:1007A4000400854593E71700A38CF1868347040072
:1007B40093E72700A38CF186056597F0FFDFE780B8
:1007C40060E183472900898BD5CB8347040093F7E5
:1007D4000702C5E38347040093E70704A38CF1866B
:1007E4008347040093E70708A38CF186834704003A
:1007F400854593E70701A38CF1868347040093E7BB
:100804000702A38CF18605651305058097F0FFDFC9
:10081400E78040DC03450400970000E0E780E0A5A2
:10082400A5B68347040093F7B70F85BF8347040039
:10083400898B9DCB8347040093E74700A38CF18603
:100844008347040093F7770FA38CF1868347040052
:10085400814593E71700A38CF1868347040093F73F
:10086400D70FA38CF18689BF8347040093F7B70F92
:10087400E1BF8347040093F7F70BBDB78347040038
:1008840093F707029DCB8347040093E70704A38CE7
:10089400F1868347040093F7F707A38CF186834717
:1008A4000400814593E70701A38CF1868347040084
:1008B40093F7F70DA38CF186B9B78347040093F738
:1008C400F70BE1BF83C7018893E717002380F18802
:1008D40065BCA94663EBF608979601E0938646B695
:1008E4008A07B6979C43B6978287834734000347A9
:1008F40024008946A207D98F13D787006301D70A3A
:100904000D466308C70A8547631FF70A979701E0F6
:100914009387C7C323A4F1880149C947C207C18388
:1009240063F437012391F1889387218803D6070064
:100934009307000463F4C70013060004138A818834
:100944009319060183250A0093D909014E8622854D
:10095400979001E0E780E0A003260A004E9623A4C6
:10096400C1889307F00FE311F9A2B787004013077A
:10097400F0FC2381E702B787004009472383E7009F
:1009840081453745008097F0FFDFE780A0C47244BB
:10099400E2445249C249324A0561730020309797B4
:1009A40001E09387E7B323A4F18801499307B006D4
:1009B400B5B793F7F70F0546638BC7009DCB6381EB
:1009C400D7026381E7041309F00F814781BF97972A
:1009D40001E09387E7AE23A4F1880149A9473DBF0D
:1009E400979701E0938787AE23A4F1880149D14703
:1009F40035B7979701E09387E70923A4F188014964
:100A0400914729BF03C761A9179901E0130949B5A3
:100A1400630AC7006306D7046316F700179901E059
:100A2400130989B54A85979001E0E780E09E137524
:100A3400F50F930715008607238AF1C08D47A38A13
:100A4400F1C0938741C10147BE861376F70F89072A
:100A5400636DA60023A4D18883C741C101497DBD2C
:100A6400179901E0130989B075BF3306E9000346FD
:100A74000600A380070005072380C700F9B7834752
:100A840024002391F1886FF03F9083C7A18723004E
:100A9400F40003D72188854763F4E7002391F188A4
:100AA40085472382F1886FF03F8E83472400238D8E
:100AB400F1866FF07F8D13F7F4018947E316F78C05
:100AC4008347440091466382D70C63E0F602638453
:100AD400E7086365F70A0547E399E7E837870040C5
:100AE4008347670293F737071DA01307200863881D
:100AF400E7046362F70213071008E398E7E6378711
:100B040000408347670293F7C70B93E7270023034B
:100B1400F7026FF07F87130730086385E704130734
:100B24004008E394E7E4378700408347270393F7BB
:100B3400C70B93E727002309F7026FF0FF84378779
:100B440000408347A70293F7C70B93E727002305C9
:100B5400F7026FF07F83378700408347A70293F73C
:100B64003707F5B7378700408347E70293F7C70B8A
:100B740093E727002307F7026FF01F8137870040B0
:100B84008347E70293F73707F5B737870040834772
:100B9400270393F7370745B713F7F401894763151C
:100BA400F7FE8347340083462400A207D58F639D54
:100BB40007FC8347540083464400A207D58F91461F
:100BC4006388D70663E2F602638DE706636DF70870
:100BD4000547639BE7FA378700408347670293F72B
:100BE400370793E7C70025B7130720086384E70690
:100BF400636FF700130710086398E7F8378700401E
:100C04008347670293F7C70B93E7370009B71307C6
:100C140030086383E706130740086397E7F63787CE
:100C240000408347270393F7C70B93E7370021B7A7
:100C3400378700408347270393F7370793E7C700B5
:100C4400DDBD378700408347A70293F7370793E753
:100C5400C700F5BD378700408347A70293F7C70B4A
:100C640093E73700EDB5378700408347E70293F7F2
:100C7400370793E7C700FDBD378700408347E70286
:100C840093F7C70B93E73700F5B52300040003D7A8
:100C94002188854763FAE7EEEDB3230004001C4383
:100CA400A380070003D721888947EDB793F7140081
:100CB4008DC3A301040089472301F402C947230318
:100CC400F4022305F4022307F40285472303F40006
:100CD40045B993F7440089C7834754009147FDB74A
:100CE4002303940071B985453705408097F0FFDFF1
:100CF400E780408E37370040834747009946BD8BD5
:100D04006389D70231476381E70411476395E7029A
:100D1400014597E0FFDFE780E066FD553745008039
:100D240097F0FFDFE780008B97E0FFDFE78020523A
:100D340019A08347570081453705408097F0FFDFAE
:100D4400E78040897300203097E0FFDFE78000529E
:100D5400FD553715008097F0FFDFE780A087054534
:100D640097E0FFDFE7800062F9B7411122C68547AB
:100D7400373400402303F4C0054597E0FFDFE780E4
:100D84006060834724C093F7E70F2301F4C0324423
:100D9400410173002030B737004005472383E780C3
:100DA40003C7D18C85476317F7009387818C9C43D5
:100DB40023800700A386018C3737004083472780B0
:100DC40093F7E70F2301F780730020302303048097
:100DD40015472303E48001002302A4808280830753
:100DE4006480E3CE07FE230304808280830764804B
:100DF400E3CE07FE03454480828083076480E3CE0C
:100E040007FE2302A4808280411126C44AC24EC038
:100E140006C61377F50BAD47AA892E899544630658
:100E2400F70019456537653F8D444E854537FD59B3
:100E3400FD1463983401B240A2441249824941012D
:100E44008280135509011375F50F453F2209CDB76B
:100E5400011126CC06CEB704080051371545BD371D
:100E6400713769372AC6A53F32459377150089EB58
:100E7400136515001375F50FF240E2440561828095
:100E8400FD14E9FC0145CDBF397126DC4ADA4ED8A0
:100E940052D656D45AD25ED006DE62CE66CCB7E7BE
:100EA40000E07D5783AA070022C603AA470023A0B7
:100EB400E71823A2E718B71700401307700523802B
:100EC400E704130780FA2380E70483C74704930BDE
:100ED40075FFB684E20793FBFB0F8546AA892E8B28
:100EE400328937240040E187015763FA76016308A9
:100EF400D5008946130700026313D5000157D98F23
:100F040093F7F70FB71C00402382FC041147230317
:100F1400E4801305F00F5D3D094CD13563697C1104
:100F2400B70707003E9B378707007955637EEB02BE
:100F3400B3079B00636AF702A9476399F90689E43A
:100F44008144713D26850DA0DA850945753D050965
:100F54000345F9FFFD14050B4D3581C49377FB0F51
:100F6400FDF7FD3569FD7D55B71700401307700582
:100F74002380E704130780FA2380E70403C74704A8
:100F8400418B2382E704F250B7E700E023A0571116
:100F940023A24711E25432445259C259325AA25A36
:100FA400125B825B724CE24C21618280A54763959F
:100FB400F90685691309F00FB3069900B3742B0180
:100FC400B6941349F9FFB3749900856B33796901B9
:100FD400416B9387F9FFB3F7270199E363FC34016D
:100FE40093D94900C147E3E637FF99BF0569C16951
:100FF4007D19D9B71305800D6388690113050002B3
:101004006384790113051008CA85FD3B913521DD00
:101014004E99B3843441D9B7DA852D45F533CA9452
:10102400E30099F20509D933A30FA9FED5BF93872D
:10103400F9FF93F7F70F636CFC0803C75C04B70769
:1010440008001377070219E3B78707007955E37D92
:10105400FBF033079B00E3E9E7F089476390F90469
:101064008980D549E38E04ECDA850945713B110981
:101074000327C9FF91472320E48003076480E34EDC
:1010840007FE23033481FD17EDFBFD14110B81C40E
:101094009377FB0FE9FF6D3B71F5F1B58547E38766
:1010A400F9F4DA852D458D339389F4FFE38A04E856
:1010B400353B93F7390091EB83260480032709001D
:1010C40093074900E39FE6E63E89CE84F1BFB54726
:1010D4006396F9001305900BD5399DB5B1471305F7
:1010E400B00AE38BF9FE9947639EF902DA852D4530
:1010F400213B81448D4BA149D539639674018327E3
:1011040004802320F9008504E39834FF83270480B6
:1011140013172B01635507002312F90015B5232279
:10112400F90039BD9D476399F90281451305B0045F
:10113400E139BD442320090023220900FD597D31F2
:1011440093F77400CA9703C70700FD14398D2380F1
:10115400A700E39634FFEDB3A1476392F904CD39B8
:101164008144630D0B008D479304C0036308FB00A7
:101174009304000563048B01930440041375C507AD
:10118400E30095DC19459931993905458131268566
:10119400AD3109459D316D39E31405DAE9B3914761
:1011A4006399F90013056006153115391305900983
:1011B40025B7E38709D8F15469B309CDB7170040BF
:1011C400130770052380E704130780FA2380E704DC
:1011D4002396A702828019C1814799E982803387C7
:1011E400F500834607003307F50085072300D70081
:1011F400E397C7FEE5B719C1FD5781E982809105E0
:1012040003A7C5FF1105232EE5FE7D16E319F6FE9F
:10121400F5B7797122D4172400001304E4791C4033
:1012240006D626D24AD04ECE91C782979727000081
:1012340023A407785C4089CB03D5018EBD3F5C4075
:10124400829703D5218E953F1C40639907189737E1
:10125400000083C73788858B95C797370000A38B19
:1012640007861737000003471787914763FCE70099
:101274004D2B9737000083C71786F9178A07A29763
:101284009C4382979737000083C78789918B89C7CE
:10129400971001E0E78000D31C4491C382979387A1
:1012A400C18D9843172600000346D66E3E899724C5
:1012B40000009384246E9727000083C7A76D93963C
:1012C4001700BA9683D6060063800610972700009D
:1012D40083C7476C63F2C70886073E9783550700A8
:1012E4002310070003D5018E2EC62394018EF135F9
:1012F4009387418F9C43172500000345A569131765
:101304002500BA979C43B2458297AA8903D5218EBA
:101314006D359727000083C7E76713971700832766
:10132400090003D5818E1345F5FFBA9703D707004B
:1013340033753501598D2390A70083C704008507B1
:1013440093F7F70F172700002306F7641727000009
:101354000347576463E6E70097270000238C07627E
:101364001C40ADEF9387C18E98433E8425CB9727CD
:10137400000083C7977691CB9727000083C7B77582
:1013840089E7970001E0E780A0741C4082972A84D3
:1013940031C59C48AA97172700002325F760938737
:1013A400018F9C4385CF03D5018E013D228597F0A3
:1013B400FFDFE780E0462254B25092540259F249CA
:1013C40003D5218E4561D5BB850793F7F70F972683
:1013D40000002381F65CE3E0C7EECDBDB250225499
:1013E40092540259F249456182809167B7C6004020
:1013F4009387373023A6F6200F10000097270000AC
:1014040093874759884F9387C19E9C43316713073D
:101414003730F053B7071000FD17918F99833A05C1
:1014240023A6E6205D8D82804111B7170040985FA6
:101434003AC6945F3247E39CE6FE3245410182801E
:10144400411106C6D5379726000083C62652858AE1
:10145400B1C6930730333307F502B337F502398346
:10146400CA07D98F172700001307C752584B0145E5
:101474006303F7023385E740636BF70037653D0884
:1014840089C637856F0813050590198D3E95172772
:101494000000232BF750B24041018280E547330717
:1014A400F502B337F5022583DE0765BF0327C50FB1
:1014B4008346B50097270000938787619C4F584364
:1014C4009386160295829043FD1693F6F60F10C389
:1014D400D04350C3904710C7D04750C7904B10CB50
:1014E400D04B50CB904F10CFD04F50CF91C6130755
:1014F400070293870702C1BF82808347E50193F700
:10150400E70FF1E72A870345F50171E10346070177
:101514008346870009CA8345A7029727000083C72B
:10152400F74463E7F50093F70601C5C7814709C689
:10153400C18A8357071581C603574715BA97D1CB7C
:1015440017270000130747643847411122C406C611
:101554007D548326070863F386003684184375FB9D
:10156400172700000347874093168701E18663D954
:1015740006029387C7139583172700000347A73FE5
:10158400BA9763D006041D8C9387818F9C438297FE
:101594003335A400B2402244134515004101828032
:1015A400058B9387C71209CB8A079387F703130523
:1015B400D007B3D7A702C9B78607FD071305D00321
:1015C400CDBFE372F4FC3705C0A82A946DBF014572
:1015D40082808280411122C41384C19D18404AC074
:1015E40006C61C5F26C21389819D9983858BC1C35E
:1015F4001C5F972400009384A44D93F7F7F91CDF34
:101604009727000083C7C74C93F707048DC39387BC
:10161400818F9C4382979727000023A3A74C83C7FD
:10162400040093F7F70B172700002303F74A8547B5
:1016340017270000A300F74A83C7440093F7070461
:1016440081EF9387C19E9C43D844B8D3930700FC91
:10165400172700002300F7488387640063D9070035
:10166400832709009C43172700002306F7461840E8
:101674001C5F8583858BC9CBF5571CDF01000100F6
:10168400010001000100010001000100010001004E
:10169400010001000100010001000100010001003E
:1016A400010001000100010001000100010001002E
:1016B400010001000100010001000100010001001E
:1016C400010001000100010001000100010001000E
:1016D40001000100010001000100010001000100FE
:1016E40001000100010001000100010001000100EE
:1016F4000100010001000100010001009387C19E67
:101704009C4313075004B8CB18401C5F9183858B0E
:1017140089CFBD571CDF9387C19E9C4323A8070430
:101724008547172700002307F73A83270900D84382
:101734000583058B19C7D843759BD8C3D843799BB8
:10174400D8C3B24022449244024941018280397193
:1017540006DE16DC1ADA1ED82AD62ED432D236D0B9
:101764003ACE3ECC42CA46C872C676C47AC27EC05D
:101774009535F250E2525253C2533255A255125685
:1017840082567247E2475248C248324EA24E124F26
:10179400824F2161730020309387C19E94431727A1
:1017A40000001307E732BC5289CF83472700858B9B
:1017B40089EB83473700858BFDD797270000238B60
:1017C400073082809387819E9C4399CB944BD04B66
:1017D4009842518F98C294439C479842D98F9CC297
:1017E4009387C19E9C4337C700401306C003A8CB10
:1017F40093062003972500009385852D8327872052
:10180400C18393F7F7036369F60083278720C183B5
:1018140093F7F70363E6F60083C74500858BF9DF8A
:1018240082809387C19E9443172700001307472A99
:10183400BC5289CB83470700858B91CB9727000047
:10184400238A072897270000A386072882808347D6
:101854001700858BF1DFDDB79387819E9C4399CB7D
:10186400944BD04B9842518F98C294439C479842D2
:10187400D98F9CC29387C19E944337C70040C1450A
:10188400A8CA654683278720C18393F7F70363FBC0
:10189400F50083278720C18393F7F7036364F60079
:1018A400BC52EDF382801387C19D1843AA87185F49
:1018B4001583058B25EF0345150015051377C51F03
:1018C40019C6B386E70083C626002300D60095C553
:1018D4009726000083C6262093F606040945A1CA6C
:1018E400B386E70083C63600054693F5F606639093
:1018F400C504E206E18663CC06023385E70083472C
:10190400150003470500A20793F70770D98F1397B3
:10191400070141839376074099C613670780239292
:10192400E19E014582802392F19EE5BF05458280B8
:101934009386C19E8C42368597260000938646196D
:10194400984593170701C183137817203E866304D3
:1019540008041377072079C303C726001367170009
:10196400172800002307E81613070019B8D1130736
:1019740000F897250000238FE5141387C19D0C43BD
:1019840037080010D855719B13672700D8D59841A4
:101994003367070198C11377261005C31376061021
:1019A40059CE03C70600136717001726000023014A
:1019B400E612172700002311071283C6460093C7B7
:1019C400F7FFC207E206E186C183184163D106022C
:1019D4009396170163DE060630538D4663E9C6000D
:1019E4008546172600002307D60E3453FDFE97269E
:1019F4000000938666F68386460163DD06009396AF
:101A04000701C18663DC06047053894663E4C6009B
:101A14007453FDFE1447F58F1CC7828003C716005C
:101A24001367170097250000A384E50A1727000011
:101A34002302070A172700002310070AA9BF03C7B8
:101A440036001367170017260000A304E60895B7AD
:101A5400854617260000230FD60651BF5447139618
:101A6400060163510602B7061000FD1674D39726CB
:101A74000000938626F2944E85061726000023273D
:101A8400D6F249BFA166D58F71B7397106DE16DC6F
:101A94001ADA1ED82AD62ED432D236D03ACE3ECC3A
:101AA40042CA46C872C676C47AC27EC05135F25064
:101AB400E2525253C2533255A255125682567247BD
:101AC400E2475248C248324EA24E124F824F216121
:101AD4007300203017270000130747018346B7011E
:101AE4009727000083C7D703B69793F7F70FFD46F0
:101AF40063EAF6044C4B97260000A389F6FE972769
:101B0400000083C7B7FE05473317F7009726000088
:101B1400A388F6006D8F1DEF9726000083C69600FC
:101B2400B3F6D70213050002814733D6F500058AC0
:101B340013F8F70F09CE6399E60097270000A387EF
:101B440007FB828081177DB705071377F70F850799
:101B5400E39DA7FC82809387819F9843B757020037
:101B64009387279F83260709139656006358060018
:101B7400832607091396660063440600FD17FDF3E8
:101B8400828051C9AA870145C9C98D07C207C1838B
:101B9400F19BC207C18313074003636BF7021387EA
:101BA400C1A80843138741A814436396A6021727C4
:101BB4000000130767DA185B014525C34111C2070A
:101BC40006C60545DD8D0297B2400145410182807C
:101BD400138781A8F9B70357650005EF035745003C
:101BE4006369F702B306F74021466370D6021041D9
:101BF400938687001D8FAA96611790C22392E600F0
:101C04002393060014C12312F5002313B500210504
:101C14008280084159BF01458280828001CD93872B
:101C2400C1A803A80700938741A88C430147C28732
:101C340063E3B70082809443636FF50663EDA60601
:101C440013868700E368C5FE03D567002166050691
:101C54006317C50003C641990506238AC1982393D7
:101C6400070063840703138681A81042630FF600FC
:101C74000356670019EA83D7470014C38356470005
:101C8400B697A1072312F700BA879843E304B7FA7B
:101C9400938681A89442E30FD7F883566700D9FA54
:101CA40083D64700035647001843A106B2962392F1
:0C1CB400D70098C382803E87B6879DBF92
:101CC000974100209381811C17610020130181330B
:101CD00013054000972500209385C5B217360020D4
:101CE0001306067E63FAC5008322050023A0550073
:101CF00011059105E3EAC5FE17B501001305455E20
:101D0000973500209385C57B1386018663FAC5004D
:101D10008322050023A0550011059105E3EAC5FEC5
:101D200013850186975500209385C5706377B500AC
:101D3000232005001105E36DB5FE9302800873A012
:101D40000230972200209382E2AB93E2120073905C
:101D50005230972200009382A29B7390123473003A
:101D60002030B717004003C777051377E70FA38B21
:101D7000E704130700F8A38DE7043D47238CE7042D
:101D800013075003A38CE7048280B717004003D5E4
:101D900087005D715ED64205418186C6A2C4A6C297
:101DA000CAC04EDE52DC56DA5AD862D466D26AD045
:101DB0006ECE9377050C13070008814B6388E718F4
:101DC00013070004639CE714B7240D8F7D89938467
:101DD0000480B3D4A4029167938707E8BE94A167F7
:101DE000938707D0B3D4F402EFA0E17697B7010050
:101DF000938747E89043D443EFA0A12AEFA031385E
:101E00002A8B939C040103D9018693DC0C01631592
:101E10000900056913090980B71700401307700509
:101E20002380E704130780FA2380E704371A004071
:101E30000547939D0401096C85662389E704D14A0F
:101E4000814E8145130D0A0413087005130680FAAC
:101E5000894893DD0D01130C0C712943FD162300F5
:101E60000D012300CD0023162A0323000D00834714
:101E70002A05898BEDDF83570A0583472A05898B5D
:101E8000EDFF83472A05898BEDDF83570A052390F1
:101E90002187C207C183338597419319050193D9DF
:101EA0000941638409163387B902635E070C850E06
:101EB000C20E93DE0E0163E8D80D63D9050A33051F
:101EC000B04093150501C185C204C18063D7350BAD
:101ED0000965130505713385A502B717004013077F
:101EE00070052380E704130780FA2380E704239614
:101EF0007703238007043345950242054181B640AC
:101F0000264496440649F259625AD25A425BB25B61
:101F1000225C925C025DF24D61618280B1E3B77434
:101F200089097D8993840480B3C4A402916793874F
:101F300007E8BE94A167938707D0B3C4F402EFA06B
:101F4000816197B70100938767D36DB597B701009B
:101F50009387C7D1856403AB07009384843855B554
:101F6000130B0000954471BD3A89D5BDB387FC4081
:101F70009399070193D9094181BF0965130505713B
:101F80003385A9028DBF3385B74163E4FC003385F7
:101F9000FD40330585033344B503634583001315C2
:101FA0000401A9BF4E8536C642C432C2EFA0D1108B
:101FB000DA85EFA04161EFA0110A931E050193DEBF
:101FC0000E41B307D941C207C183056E3E87124651
:101FD000224889482943B24663E3C701368742074E
:101FE0004183631A27011307190063443001130763
:101FF000F9FF42074183FD1A93FAFA0FCA8BCE8587
:10200000E3940AF62390E18659BF0145CDBDB71789
:10201000004003D587005D7186C642054181A2C498
:10202000A6C2CAC04EDE52DC56DA5AD85ED662D498
:1020300066D26AD06ECE02C69377050C13070008ED
:10204000638BE71413070004639FE710B7240D8F19
:102050007D8993840480B3D4A4029167938707E8B1
:10206000BE94A167938707D0B3D4F402EFA0A14E2A
:1020700097B70100938707C09043D443EFA0610254
:10208000EFA0F10F2A89939A040103DB218693DAEA
:102090000A0163150B00056B130B0B80B71700408B
:1020A000130770052380E704130780FA2380E704F1
:1020B000939B040105478969056A2389E704D14D8B
:1020C000014D814C93DB0B01938909717D1A5A856F
:1020D00097100020E780C07E330C5541420C135C02
:1020E0000C412391618763010C16B3079C0363D1F4
:1020F000070E050D420D135D0D01894763EAA70D1B
:1021000063DB0C0A33059041931C050193DC0C4101
:10211000C204C18063D88C0B096513050571338532
:10212000AC02B7170040130770052380E7041307BC
:1021300080FA2380E70432472396E70223800704CE
:102140003345950242054181B640264496440649EE
:10215000F259625AD25A425BB25B225C925C025DD7
:10216000F24D61618280B1E3B77489097D899384FE
:102170000480B3C4A4029167938707E8BE94A16763
:10218000938707D0B3C4F402EFA0E13C97B70100F6
:102190009387C7AED5B597B70100938727AD856400
:1021A00003A9070093848438F9BD130900009544FE
:1021B000D9BD3E8B29BF3385AA40131C0501135C92
:1021C0000C41B9B70965130505713305AC028DBF24
:1021D00063FEAA003305754133053503A94733442F
:1021E000750363C8870013150401B1BF3385AB4085
:1021F000E5B76285EFA0416CCA85EFA0C13CEFA0B6
:102200008165131D0501135D0D413307AB41420785
:1022100041838565BA876363B700D287C207C183EC
:10222000639A670193071B00634480019307FBFFD8
:10223000C207C183FD1D93FDFD0F5AC6E28CE39AD0
:102240000DF62391F18645B70145FDBD41112A8365
:10225000014E930E407E130F0019930F400663EB5F
:102260006E0A9308001913034006B3781503854ED0
:102270000D4FA14F337365020D891335150063E5CA
:10228000BE0C1308F6FF79467298420813580801ED
:102290003307C70213D61700BE0732976146B3F65D
:1022A000C60213068070B386C6023697A166F58F04
:1022B00042075D8FB717004083C6F70293F6060802
:1022C000A307D1000346F10083C6F70293F6060880
:1022D000E394C6FE8346F10093F6F60FF1DE930613
:1022E00070052380D704930680FA2380D70423AA9D
:1022F000070383C6170393E60608A388D702D8DB33
:1023000003C7170313670704A388E70223800704A2
:10231000410182807D133368E3039308E016630E66
:1023200008003368F3039308D01663080800937815
:10233000330093B818009388D81633081E01131E73
:102340000801135E0E0121BF6393E5030548638610
:1023500008000148630303002A8871087298FD157C
:10236000131E0801C205135E0E01C18109BF13F8D7
:10237000150063F4BF007908D5B713381800E5BF1E
:10238000914763EEB70217B701001307A78F8A05BD
:10239000BA959C41BA978287B717004003A7470BAD
:1023A0001345F5FF698F23AAE70A03A7070B698F77
:1023B00023A8E70A03A7070A798D23A0A70A82802A
:1023C000B717004083A6470B1347F5FFF98E23AAE2
:1023D000D70A83A6070B558D23A8A70A83A6070A49
:1023E000758F23A0E70A8280B717004003A7470B29
:1023F000498F23AAE70A03A7070B1345F5FF45BF3B
:10240000B717004083A6470B1347F5FF758F23AA24
:10241000E70A03A7070A598D4DB7B717004003A76E
:10242000470B498FEDB7914763EEB70217B701002D
:10243000130787868A05BA959C41BA978287B71792
:10244000004003A7470D1345F5FF698F23AAE70C4A
:1024500003A7070D698F23A8E70C03A7070C798D45
:1024600023A0A70C8280B717004083A6470D13470F
:10247000F5FFF98E23AAD70C83A6070D558D23A847
:10248000A70C83A6070C758F23A0E70C8280B717D3
:10249000004003A7470D498F23AAE70C03A7070DA8
:1024A0001345F5FF45BFB717004083A6470D1347F7
:1024B000F5FF758F23AAE70C03A7070C598D4DB7BD
:1024C000B717004003A7470D498FEDB7B717004076
:1024D00003D58700420541819377050491EB9377FB
:1024E000F5013755E801130505803345F502828073
:1024F0009377050C130700046397E7009377F501C2
:1025000037459C1CCDB72165130505D08280B7F7F0
:1025100000E0C8439C478280B737004023A6A780CD
:1025200009472380E78011472380E7808280B737FF
:10253000004023A6A7C009472380E7C01147238096
:10254000E7C08280411122C406C62A844137294748
:10255000B307E502B2408D83B3D7870222449507C3
:10256000B3D7E70237370040C207C1832316F7000D
:1025700041018280716541111305052006C6D937D6
:10258000B7370040130770F82381E7000D47A38198
:10259000E70013070004A380E70005472387E7004F
:1025A000B2404101828037370040834727001A0537
:1025B00093F7F703C98F93F7F70F2301F700828092
:1025C000B737004003C7170019C9D98DA380B700DA
:1025D00003C70700136787002380E700828093C545
:1025E000F5FFF98DA380B7008280411106C6EFF098
:1025F000CFF9BD4763F4A700EFF02FF9093CBD47C1
:1026000063F3A7002934B24083D5218603D5018620
:1026100041016F109058411193962500AA852D45D0
:1026200006C697200020E7806006B24001454101C0
:102630008280411126C29394250022C44AC02A8474
:102640003289A686AA850146254506C69720002020
:10265000E780C003A6864A86A285294597200020E8
:10266000E780C002B2402244924402490145410140
:102670008280011122CC06CE3714004026CA4AC8F7
:102680004EC652C483447405034AB4058349840585
:1026900003499405EFF0EFEC8347A40593F4F40F9E
:1026A000137AFA0F93E71700230DF40493F9F90F47
:1026B0001379F90FB717004003C7A705058B6DFF06
:1026C00003D5C705A38D4705238C3705A38C2705A4
:1026D000A38B9704F2406244D2444249B249224A51
:1026E0000561828041119397050122C406C6C18706
:1026F0002E8463DD0700EF10005119C1EF10004A6E
:102700002165218DB24022444101828093F715005A
:1027100013C51500E5FB9397250163D00702EF2051
:10272000515DE13537F60200130606E0896503C501
:102730000187EF10701E0965E9B7939715010145F0
:10274000E3D207FC13060064916503C50187EF100F
:10275000B01C11657DB71D71494697A50100938591
:10276000E55417A501001305257A86CEA2CCEF10FB
:10277000700211E101A037F700E0F9575CC7FD577F
:102780001CCB0564B7E700E023A087109306701008
:1027900014C3B843C146B4C323A08718B8C301000B
:1027A00001001306C00381454808EF108078973771
:1027B0000020938767653ECAED47A301F1029307A6
:1027C000A0102312F102D1472303F102A1679387DE
:1027D00007E03ECE97070000938727E4BEC4970723
:1027E0000000938747E5BEC685472304F102B5473D
:1027F0002308F102970700009387A7D13EDAB7F5C7
:10280000070097070000938707E73EDE814697079A
:1028100000009387C7DD7000E1051945BEC0231C89
:10282000810097200020E78060E65808814799469C
:1028300070003E960346060085070507A30AC700F9
:10284000E398D7FED24791C7035781018567637329
:10285000F70001A04808EF10104A11C101A0F6408E
:102860006644256182804111170500001305C5E704
:1028700006C622C4EF10B044138401872300A400CD
:102880002928034504002244B24037F6020013060B
:1028900006E0896541016F103008411106C622C467
:1028A00093067005371400402300D404130780FA00
:1028B0002300E4048347F40293F7A70FA307F4026D
:1028C0002300D4042300E4048347F40293E72700A1
:1028D000A307F402193B1305407E2300040481473B
:1028E000014781460546854595322244B24001455F
:1028F00041016F10106DB7870040238007022382CB
:10290000070223800700130700FC2386E7003147F6
:10291000A386E700138641A9938641AD23A2C18611
:1029200023A4D186138741B923A6E186938541C1AB
:1029300023A8B1884206938541B523A6B188418278
:10294000C2062398C700C1824207239AD700418359
:10295000239CE70009472381E70249472383E702D5
:102960002385E702A3810700130700F8A380E7008F
:10297000130790022380E700B716004003D7A60193
:10298000138581871367070C239DE6007D572383FA
:10299000E700130710F8A380E7001D472381E70035
:1029A000B706400037E700E02320D71003C7170021
:1029B00013671700A380E7006F10400193F715001D
:1029C00081C713C51500828093F725008DCF411173
:1029D00022C406C62E84B735004083C7B5001D4704
:1029E000636DF70083C7B5002146A1051D8E420621
:1029F0004182138501F6EF00904C13452400B2404C
:102A000022444101828093F74500014581C713C5E7
:102A1000450082808280411106C60547B7370040D5
:102A20002383E7C0B78793039387077033D5A70243
:102A3000930700053305F502DD3CB240B7E700E03F
:102A4000054723A2E71041018280B73700400947BC
:102A50002380E7C011472380E7C003C727C013675F
:102A600017002381E7C08280B737004009472380E1
:102A7000E7C011472380E7C003C727C01377E70FDC
:102A80002381E7C08280411113060020938501D67F
:102A9000138501F606C6EF001031B2401306001090
:102AA000938541C5138541D541016F00D02F011198
:102AB00006CE2AC6C134324571340D45ED349545F4
:102AC0000545FD3CF240B7E700E03707000423A0CE
:102AD000E710056182804111138501F606C6EF00FB
:102AE000502F01E9B24003C57180894541016F1043
:102AF0004050B24041018280411122C471641305EB
:102B0000042006C6093F13050420553717050000A9
:102B1000130505EBEF10B01AB2402244A383A18045
:102B20004101828083C7F18781CF373700401D463E
:102B300093855189138501898347B7006373F60034
:102B4000828083C6518983C7E18763FEF6001C41FA
:102B5000B69783C707002304F70083C705008507DE
:102B6000A38AF188D1BFA38A0188A38F0186378702
:102B700000408347670293F7370F2303F7028280F1
:102B8000373600409385C1881308E0039388818617
:102B90001303000437870040130EF003854E83476C
:102BA000A60093F7F70F99EF09CD83C7B18703C745
:102BB0004189ADC7A38EE1868547238EF186238A9E
:102BC00001888280944183C74189034F8600BE9665
:102BD000850793F7F70F2380E601238AF188E370D6
:102BE000F8FC83A2050083AF0800238A018881478F
:102BF000B386F20003AF0600B386FF00910723A05F
:102C0000E605E39767FE2302C7038347670293F74E
:102C1000C70F2303F702A38DD18751B79387C188CC
:102C200003A80700938781868843930600048147A1
:102C30003306F8000C423306F50091072CC2E399E5
:102C4000D7FEB78700402382E70203C767021377E6
:102C5000C70F2383E7028547A38DF1868DB7634FA6
:102C6000050289CD85476383F502FD576399F50613
:102C7000371700408327870A3D8D31A8371700405A
:102C80008327C70A5D8D2326A70A82803717004055
:102C90008327870A5D8D2324A70A82800605058184
:102CA00099CD85476385F502FD57639AF50237177D
:102CB00000408327870C3D8D2324A70C8280371783
:102CC00000408327C70C5D8D2326A70C8280371711
:102CD00000408327870C5D8D2324A70C8280094543
:102CE0008280B71700406348050003A7470A798D23
:102CF0003335A000828083A7470C7D8D06050581B2
:102D0000C5BF411122C4371400408327840C378784
:102D1000008006C626C2D98F2324F40C8327840C96
:102D2000372700808D45D98F2324F40C8327840C0A
:102D30003747008037850080D98F2324F40CEFF0CB
:102D40008FEE8D4537250080EFF0EFED8D4537454F
:102D50000080EFF04FED8327840CB70400801385CB
:102D60000408C98F2324F40C8D45EFF0CFEB1385B5
:102D700004018545EFF02FEB8327C40A09678D45D1
:102D8000D98F2326F40A8327C40A05670965D98FDA
:102D90002326F40AEFF0CFDE8D450565EFF04FDE18
:102DA000854537054080EFF00FE885451305002085
:102DB000EFF00FDD8327C40AB240924493E7070186
:102DC0002326F40A22448D45414541016FF04FDB33
:102DD0008280B7E700E0130700FB238DE7409306EE
:102DE00000FCA38AD740930600FD238AD740238B9B
:102DF000E74013070006A38CE7402380E742828068
:102E0000828083D781896398A700239DB188239E00
:102E1000C188239FD1888280411122C406C683C7FE
:102E200085002144C18B95EF03C805008947014403
:102E30006319F802D8418347170003470700A20728
:102E4000D98FC2070D67C18713072790639BE700DF
:102E5000CC45328523900601094697200020E78063
:102E6000C0B72285B2402244410182804167791770
:102E7000630CE502411122C406C685472A84639A81
:102E8000F50022852244B2409385C1F641016F705E
:102E9000A04F89476396F5008545EF90E07875D19E
:102EA000B24022444101828082800111C16706CE76
:102EB00013878189F9171CC31306F1008547232264
:102EC0000700854513055030A307F100EF7061142A
:102ED000F2400561828018418D476314F7028357E1
:102EE00085004C4101111306E10017450020130530
:102EF000650206CE2317F100EF00C06EF2400561B7
:102F0000828082808D476308F50091476301F50256
:102F100089476313F50603C725009947631EF70425
:102F200003D7450083D781896318F704BDBF03C762
:102F3000250095476312F704C16703D78189F91704
:102F400003D5A5006304F7006F702133239CA1888B
:102F500083D7E500096613060690239DF18883D781
:102F6000050103C58180239EF18883D72501A145F2
:102F7000239FF1886F10401A8280011106CE854789
:102F80006308F60089476308F600F2400561828015
:102F90002E859137DDBF98418D47E318F7FE83D723
:102FA0008500CC411306E1001745002013050518E4
:102FB0002317F100EF000063C9BF79714AD006D62C
:102FC00022D426D24ECE52CC83C78500214993F716
:102FD0000702C1EF03C8050089472E840149631623
:102FE000F80803A845002A8AB284834718000348DA
:102FF0000800B689A207B3E70701C2070D68C187B9
:1030000013082890639307038547EF5020702A899F
:1030100009ED83C7140003C704004800A207D98F35
:10302000B337F00085073EC27D350357A4009727CC
:10303000002083D7074F6319F7008D4748003EC231
:103040002316310126C4413D0357A40097270020D1
:1030500083D72750631BF7008D4709464C005285E4
:103060003EC22316310126C4093FB25022544A857C
:1030700092540259F249624A456182804111938516
:10308000C1F606C6EF504063B2407D1513351500FA
:1030900041018280011122CC2E849385C1F626CA7B
:1030A00006CEAA8432C6EF502061058929C1324676
:1030B0008547630EF60089476304F602A2856244E1
:1030C000F2402685D244014605616F60C03A9727D9
:1030D00000209387674283D7A7022310F400F9BF2B
:1030E000972700209387474183D7A705FDB7F24074
:1030F0006244D2444945056182804111939705019C
:1031000022C406C626C24AC0C1872E8463D10702E4
:1031100003C58180EF00302F19C1EF0030282165F1
:10312000218DB2402244924402494101828093F7AA
:10313000150091CF17260020130686389385C18A83
:1031400003C58180EF60114013451400D9BF93F788
:10315000850099CF83C78180130740068146514679
:10316000A14503D58189EF6051371345840055BFD0
:1031700093F705010145D5D79387C1809C438544CA
:103180006389970081C70D496375F91613450401DA
:1031900049BF9386018A984236896306F70E8947AC
:1031A000E316F7FE03D58189D13D03D7818919E95B
:1031B000C167F91717450020130545F7E318F7FC19
:1031C0003121E9B73A85EF10107375152390A18C62
:1031D00017450020130585F5752E83D7018C636292
:1031E000F5081386018C974500209385E5F4174573
:1031F00000201305A5F385211375F50F23A2018C7B
:1032000051F503D6018C01478146ED4503D58189EF
:10321000239DC18AEF50800423AEA18A6302051268
:1032200003D6A18B97450020938505F197100020C8
:10323000E780A07A032609009385818B03D58189D5
:10324000913D55C18D4723A6F180ED451385818BB6
:10325000EF50A0180946C14503C58180EF00D06B2F
:1032600035B79387418C94432947BE84E36BD7F6E7
:103270001146C14503C58180EF00106A9C40850757
:1032800023A2F18C21B703D58189CD3B03D7818956
:1032900011E9C167F917E31BF7EE17450020130585
:1032A00065C739BF3A85EF10106575152390A18C5D
:1032B00017450020130505C6F12C83D7018C636DDB
:1032C000F5001386018C974500209385E5E61745A8
:1032D0000020130525C405B79384418C9840A94765
:1032E000E3E1E7FE71B7854723A6F1802390018CC7
:1032F00095B703D6018C01478146ED4503D58189F9
:10330000239DC18AEF40907523AEA18A15C903D6CB
:10331000A18B97450020938525E297100020E78038
:10332000C06B9387018A90439385818B03D58189F4
:10333000953301C523A6218109BF23A691807DB7BE
:10334000894723A6F18039B7416541119385C1F6BC
:103350007D1506C6EF70400317050000130545B143
:10336000EF900024B240972600209386E61F414646
:103370009D45172500201305251841016F60107524
:10338000011117050000130585D706CEEF10201395
:103390002384A1808547A301F100B7F50700994771
:1033A0002312F10081469307803E3000E105194564
:1033B0002313F10097100020E780402D17270020ED
:1033C0001307C7108147994630003E960346060012
:1033D00085070507A302C700E398D7FE130631004F
:1033E000854513055030EF60D142172600201306A3
:1033F0006618C54513057030EF60B14117260020EF
:103400001306C60CCD4513056030EF6091405000A7
:10341000894513051031EF60D13F130661008945DE
:1034200013052031EF60F13E172600201306460BEE
:10343000D5450145EF40101E9305000A0D45EF20CC
:10344000F0669305000A1145EF205066854730006D
:103450009145130570402301F100A301F1002302FF
:10346000F10002C423030100EF50F13613062100DE
:10347000854513050040EF50113613063100854590
:1034800013051040EF5031351306610085451305D3
:103490002040EF5051345000854513055040EF5007
:1034A00091335D357D55EF40D0247D55EF60B06A96
:1034B000C167F9171385418A23ACF18823AE0188CF
:1034C000EF407110854503C58180EF009032F240D6
:1034D00005618280411117450020130525C506C6E8
:1034E000CD2811E989470946C14503C5818023A03C
:1034F000F18AEF007042174500201305A5A1D128DD
:1035000001EDB240854723A0F18A03C581800946B9
:10351000C14541016F005040B240410182804111DC
:103520001306001097450020938545B017450020ED
:103530001305C5BF06C68528130600109745002051
:103540009385059E17450020130585ADA928130610
:103550000008974500209385E59317450020130543
:10356000659B9120B2401306000897450020938583
:10357000A589174500201305259141012DA0411172
:1035800006C6EFF04F9DEFF00FAEEF605151B24025
:103590004101FDB383572500035505003385A7403E
:1035A000420541818280AA8705C21307F6FFB376E0
:1035B000C700054599EA23A00700CCC32394C700A0
:1035C0002395E70001458280054582802320050080
:1035D000828083570500035525003385A7401335A6
:1035E00015008280AA871145B5C72DC683D607006E
:1035F00003D787000D45369783D62700158F4207DE
:10360000418329CB0145B9C5835606006373D700B2
:10361000BA86C206C182014713150701418163665C
:10362000D5002310D600014582803385E50083480C
:10363000050003D8A70003D5270005073378050147
:10364000C84342952300150103D5270005052391A2
:10365000A700D9B78280AA871145ADC325C283D6FA
:10366000070003D72700158F8356060042074183C2
:103670006373D700BA86C206C182094521C30147D8
:103680001315070141816366D5002310D60001455B
:10369000828003D5070003D8A70033780501C8430B
:1036A0004295034805003385E50005072300050121
:1036B00003D5070005052390A700D9B7828029C547
:1036C0000357050083572500998F3E87C207C183A2
:1036D0006373F600328742074183814763E4E70062
:1036E00001458280835605000356A5008507758E27
:1036F0005441B29683C606002380D5008356050048
:1037000085062310D500D9BF1145828041111305CC
:10371000800406C697000020E780201FEFF06FDED0
:10372000EFF02FEB1305200397000020E7802036F1
:1037300085450565EFF0AFD26D249135EFF0AF9B75
:10374000EFF08FBBF12C752497100020E780A02CA0
:10375000EFF06FB84133EFF0EFBC5D2EEDB74111E4
:1037600022C406C693F715002E8481CF13050040AE
:10377000FD55EFF0EFE513451400B240224441013E
:10378000828093F72500B1CBB717004003A7870CC1
:10379000B78600808D45558F23A4E70C03A7870CBF
:1037A000B726008037850080558F23A4E70C03A738
:1037B000C70CB7460080558F23A6E70CEFE0BFC6C5
:1037C0008D4537250080EFE01FC6374500808D45C9
:1037D000EFE07FC5134524004DB793F74500B1CB0B
:1037E000B717004003A7C70CB78600808D45558FDB
:1037F00023A6E70C03A7C70CB726008037850080F7
:10380000558F23A6E70C03A7C70CB7460080558F3A
:1038100023A6E70CEFE03FC18D4537250080EFE0A0
:103820009FC0374500808D45EFE0FFBF1345440042
:10383000A9B793F7052095C3371700408327C70C16
:10384000B746008037450080D58F2326F70C8D457D
:10385000EFE07FBD134504200DB793F7850095C3B6
:10386000371700408327870CB74600803745008014
:10387000D58F2324F70C8D45EFE0FFBA1345840064
:10388000EDBD93F705019DC7371700408327870CCF
:10389000B78600808D45D58F2324F70C37850080AF
:1038A000EFE07FB8372500808145EFE0DFB71345B3
:1038B0000401E1B593F7050295C737054080EFF0A5
:1038C0004FC2938741819C43630BF50023AAA180DB
:1038D000814511C1854537450080EFF04FB813454C
:1038E000040261BD93F7050495C713050020EFF0AE
:1038F0004FBF938781819C43630BF50023ACA1806C
:10390000814511C1854537850080EFF04FB51345DE
:103910000404A5B593F7050881CF83C7C18CFD5575
:1039200091E385450565EFF08FB313450408B1B504
:1039300093F705100145E38207E437250080EFF097
:103940004FBA9387C1819C43630AF50023AEA180DF
:10395000814511C185450965EFF06FB0134504102D
:1039600029BD411122C406C626C203C4D18C29E058
:10397000A386B18CB734004085472383F480BD67AC
:10398000938707A63305F502EFE01FB9B7E700E01C
:103990003707000223A0E71083C7248093E71700AE
:1039A0002381F4802285B2402244924441018280E6
:1039B0001304F00FC5BFA386018C3737004083473F
:1039C000278093F7E70F2301F780828023A4A18C3F
:1039D000828021469385018D1735002013050577D8
:1039E000D9B6411106C6F5371D3EB24041016FF010
:1039F0008F89011122CC06CE1734002013040475E0
:103A00001735002013058574E93609C5F240624474
:103A10000561828005469305F10022854D31CDB7C1
:103A20004111170500001305C5D306C622C4EF00D7
:103A30001029138401815146930500022300A4003C
:103A4000EF00500103450400514693050004EF00C8
:103A50007000034504001306000593050008EF00FD
:103A6000607F034504002244B24051469305001094
:103A700041016F00207E93774504A9CB9307F00B9B
:103A80006304F5029307F00F630AF502930710052C
:103A90006313F5049387818C9C43130720F82380DC
:103AA000E7002386018C82809387818C9C430547A5
:103AB00085452380E7001305401F65B59387818CFA
:103AC0009C43130720F82380E70082809387818C32
:103AD0009C432380070082809387818C984385468E
:103AE000834707006395D702B786004083C68600E8
:103AF0001306E002631DD6009306000C6319D5007F
:103B0000930610F82300D7002386F18C6DB58280D0
:103B10009387818C98430347070093168701E186BA
:103B200063DE0604411122C406C63E8493071008D2
:103B3000630DF700930720086309F7021C402380F8
:103B40000700B2402244410182800146914503C5ED
:103B50000181D9232946A14503C50181752B514611
:103B6000C14503C501814D2BD1BF014693050020FE
:103B700003C5018155232946A145E5B7828023ACC1
:103B800005FE1C4191E7010001000CC18280BA874B
:103B900003A787FF6DFF23ACB7FE82801DC183465C
:103BA000E5FF1307F00F9147639EE600411106C63B
:103BB00097200020E780C086B24081473E854101C2
:103BC000828095473E85828001E9014582800145DA
:103BD000B240224441018280411122C42A8421053D
:103BE00042059305D004418106C697100020E78066
:103BF000807971DDFD572320050023128500230302
:103C0000F5002105F1B71387818D1C43411122C4B2
:103C100026C24AC006C601440149BA8489E7A165A3
:103C200095250DC401A803C7E7FF6318A7021DC8A7
:103C3000A165C1269840832784FF6317E40223AC63
:103C4000F18CFD57232C04FE230FF4FE2285B24095
:103C50002244924402494101828011E03E8983A7B7
:103C600087FF6DBF3E84E5BF232CF9FED9BFA9C9EC
:103C7000411122C406C62A849737002083C7975172
:103C80002E856368F400193F0D45B240224441017E
:103C9000828083A785FF99E703C7E5FF9307F00FAD
:103CA0006305F700E53D1545CDB7238F85FE1385E8
:103CB000818DF13522852244B240A165410115AEC6
:103CC0001545828023AC018C82809387018F9C43B1
:103CD00099E33E85828003D727006316B70003C7A8
:103CE0000700E308A7FEDC47E5B7411193970501FC
:103CF0004AC006C622C426C2C1872E8963DE0700D9
:103D0000193711C1613D21653345A900B2402244F4
:103D10009244024941018280AA860145E5D90144C5
:103D20003D47B3578940858B95CB9387418E84431C
:103D3000BD4791E28147A2978E070545BE94331592
:103D40008500131405019C40C8404180829723A040
:103D5000040023A20400334524014DBF0504E312EF
:103D6000E4FC0144CDBF973700209387E73E9C5386
:103D7000411122C406C61384018295C7829723A0ED
:103D8000A1820840B74703009387D73F3305F50268
:103D9000B7A72600938737ECB24022443E9523A074
:103DA000A18241018280973700209387A73E184067
:103DB0009C4BBA9723A0F182E9B79387C18D9043BA
:103DC0009736002083C6163D814713F7F70F6360CF
:103DD000D70A1737002003471750914763E0E70AD7
:103DE0009737002083C7C753918BC9EB0111680037
:103DF00006CE22CC26CAEFC0204AFD56630FD50C52
:103E000032479737002083C7573663F3E70C1737DD
:103E1000002013072738404717370020034707358E
:103E20006305D406058B21CF51473304E40263F1C7
:103E3000870A97100020E78060DFB2476373F400C1
:103E4000A2871737002003475732998F3E9597373F
:103E50000020938767308387470163CD0702B70748
:103E6000C0A86369F502B70740573E9525A08507AE
:103E70001397170032970357E7FF21DB8280130760
:103E800090023304E40205805DB7620761876357DF
:103E900007001D8D19E93705C0A801A8E37BF5FED1
:103EA0003707C0A8B307F7403E95973700209387A0
:103EB000A72ADC53829709ED973700209387474163
:103EC0009C4F99C7EF10011EEF108176EF10E111A2
:103ED000F2406244D2440561828097370020938784
:103EE000672BDC47E386A7FE173700201307C7269A
:103EF00083464701BA84858A9DC65144338487022C
:103F00009737002083C77726E3F487FC97100020BB
:103F1000E780C0D19737002083C737251D8C2295B5
:103F2000838744011DBF13049002338487020580F8
:103F3000C1BF2A9609E582800505A30FB5FEE31DE2
:103F4000C5FED5BF81473307F5000307070019E316
:103F50003E8582808507C5BF01112E8626CAAA84A8
:103F6000131506019305F004418122CC06CE32C61A
:103F700097100020E78020412A8419C53246A68583
:103F800097100020E78060A52285F2406244D24469
:103F90000561828081476314F600054582803307FE
:103FA000F5008507B386F5000347070083C6F6FFD3
:103FB000E383E6FE014582809307F6FFBE952A96CD
:103FC0006313C5008280FD1583C715000505A30F87
:103FD000F5FEFDB7814711E9014582803307F50001
:103FE00003470700E31AB7FE8507E319F6FE054508
:103FF00082809737002083C7F719637FF500138706
:10400000C18D9317150008433E9583570500DD8D3C
:104010002310B500014582800D458280FD570111B6
:1040200017370020232EF7169387018F22CC804369
:104030004EC6973900209389291226CA4AC852C40D
:1040400056C206CE5AC02A8981444E8A973A002029
:10405000938A4A14184481476374E900B3072741DF
:1040600003A749021CC409CB03A7CA0063F6E700F3
:10407000173700202326F712A1E7835524009DE976
:104080005C44A1E823A8F18E032BC400228597107D
:104090000020E780E0385A8455FC83274A0285CF08
:1040A0006244F240D2444249B249224A924A024B07
:1040B000056121B3034504002D3F5C4081CB1CC446
:1040C00083572400D5DFA2844044F9B71C44CDDBDC
:1040D000C5BFDCC455BFF2406244D2444249B24934
:1040E000224A924A024B056182809737002083C79B
:1040F000770A6371F5021387C18D93171500084382
:1041000093C5F5FF3E9583570500FD8D2310B5003F
:10411000014582800D4582809737002083C797072D
:104120006364F50001458280411122C426C24AC061
:1041300006C62A842E89B284EFF03FB901C504C5B2
:1041400005452DA0936504F0C205C1814145971036
:104150000020E78040230DE1973700209387C7FFB9
:104160009C5B81C7A285114582970145B2402244DC
:1041700092440249410182809387018F9C438DE3E1
:1041800023A8A18E85472326050004C523112501F8
:1041900023008500A300F5002322050055B7BA8748
:1041A000D84775FFC8C7F9BF45C539715AD0138BB9
:1041B000418E22DC26DA4AD84ED652D45ECE66CA6A
:1041C0006AC86EC606DE56D262CC3689328AAE899D
:1041D000AA8401445A8DB94D854BF94C03270B0035
:1041E000131C3400937AF40F62971C43A9EF13B5A4
:1041F000FA0013451500B3978B0063F65D01930732
:1042000014FFB397FB0093950701C18152862937AC
:104210001DC983270D000145E29784C323A23701FE
:104220006304090023005901F2506254D2544259E8
:10423000B259225A925A025BF24B624CD24C424D16
:10424000B24D216182800504E31A94F92145E9BF4A
:1042500009458280411122C426C24AC006C6AA84EA
:104260002E893284553DCA852685EFF01FA609C9DF
:1042700040C10145B240224492440249410182803A
:104280002145CDBF411122C426C24AC006C6AA8418
:104290002E89EFF09FA32A8419C1231105009737B7
:1042A000002083C727EF639497002394218FCA854A
:1042B0002685253D014511E01945B240224492442E
:1042C0000249410182807547636BA7041387418EC1
:1042D0001443411126C293143500A696944222C479
:1042E00006C6AA873A84094595C613B5F70039472B
:1042F000134515006373F700C5178545B395F500A1
:10430000C205C18141371C400145A69723A0070083
:1043100023A20700B2402244924441018280094511
:104320008280411106C6EFF05F9A09C50845B24088
:10433000410182800145E5BFF54763EDA7049387FE
:10434000418E9C4313173500BA979843894721C77C
:10435000011126CA06CE9334F50022CCB94793C486
:10436000140063F3A700451505443314A400420468
:1043700041802EC62685A2856D378947324609C5FC
:10438000A2852685513B8147F2406244D2443E8556
:104390000561828089473E8582802390A18E23918A
:1043A000B18E8280411106C623A6A18E0295B2402D
:1043B0009737002023AAA7DE014541018280994753
:1043C00063E9B7008A05973700209387E7DEBE953B
:1043D00088C18280411106C6EF50717371468145D4
:1043E00017350020130545DDEFF0BFB4130640027A
:1043F0008145173500201305E5D9EFF09FB323A8B9
:10440000018E23A6018E9737002083C7A7D613D528
:1044100027008D8B3E958D473305F50293051010CF
:1044200035051375F50F973700202386A7D69947D2
:104430003305F5021305050F97100020E780A0F45F
:1044400023A2A18E35C99947173600200346A6D46A
:104450003306F60281451306060FEFF09FAD9387F2
:10446000418E9C439387070F23AAF18E17370020B4
:10447000034767D20A07BA9723AEF18CEFF09F8407
:1044800045269387418F98439737002083C797D05D
:1044900093962700BA96170600001306468590C229
:1044A00093862700850793F7F70F8A079735002033
:1044B000A382D5CEBA9790C3B2404101828097378C
:1044C000002083C737CD173700200347C7CC63F1DF
:1044D000E7021387418F1843938617001736002091
:1044E000A30AD6CA93962700369708C33E858280D2
:1044F0009307F00FE5BF1C41638E071841777D8F4E
:10450000B706002089476318D7180357450063048E
:104510000718411122C419462A849305F00F590542
:1045200006C6EFF03FAB05478D476300E5161C4418
:1045300081CB58589947630A0714185C630707141E
:104540001306C0038145173500201305E5C0EFF0C1
:104550005F9E1306C003A285173500201305C5BF53
:1045600097000020E78060479737002083D787BFF8
:1045700097360020938646BE99E7930700101737B9
:1045800000202311F7BE9737002083C7C7BD91E7EE
:104590008547173700202308F7BC9737002083C7CB
:1045A00097BC91E7ED4717370020A30EF7BA97376E
:1045B000002083C767BB91E7954717370020230585
:1045C000F7BA9737002083C737BA91E7854717377F
:1045D0000020A30BF7B89737002083C737B999E7B6
:1045E00083C7060117370020A302F7B897370020CA
:1045F00083C7A7B791E7D147173700202307F7B63E
:104600009737002083C727B795E717370020034760
:10461000E7B51316870161869307C0026348060059
:104620009377170093B717009387D70217370020A7
:104630002303F7B49737002083C737B395E71737BD
:1046400000200347A7B21316870161869307C002B3
:10465000634806009377170093B717009387D70234
:1046600017370020A303F7B08347D40191E78947A8
:1046700017370020A300F7B09C5691C78297973751
:104680000020239CA7B0B9338147B24022443E8525
:104690004101828089473E858280011122CC06CE6D
:1046A0002A842EC6EFF02FECB245F240818D33A55F
:1046B000A502229562441375F50F056182800111F0
:1046C00022CC06CE2A842EC6EFF0EFE9B245F240A6
:1046D000818D33A5A5022295624442054181056181
:1046E0008280011122CC06CE2A842EC6EFF0AFE7DD
:1046F000B245F240818D33B5A50222956244056131
:10470000828097370020938727A5985725C34111AA
:1047100022C426C206C6BE8402971737002003575C
:10472000C7A72A8441C7BA876373A700AA87C207AD
:10473000C183BA866373E400A286C206C182958FE4
:1047400051476355F706DC5491C382978547173765
:1047500000202303F7B8EF00D15997370020239E9C
:1047600087A2B240224492444101828097370020C0
:1047700083C787B69DE797370020938767B583C7C0
:104780009700850793F7F70F17370020A306F7B4B4
:10479000A18B9DC7854717370020231FF7B26F00F5
:1047A000315B97370020A38907B2D5BF9737002028
:1047B00083C787B2DDD72244B24092444101C5B7D6
:1047C00082809737002093872799D857011122CCF0
:1047D00006CE3E8401C72AC60297324511CD23ACCE
:1047E000A18E170500201305E545EFF0BFBBF24091
:1047F00062440145056182808307440163DD07004F
:104800009737002023A4079A970700209387273E15
:1048100023ACF18EF9B79707002093872741CDBFCE
:10482000011122CC1734002013040493084406CE4F
:1048300026CA4AC801E90545F2406244D2444249C9
:10484000056182805C58E5DB185C75D77000854592
:1048500082971844B247E300F7FE9305E00417354A
:1048600000200355259097100020E780C0B117372E
:104870000020232FA79261D1173600200356868E81
:104880009305F00FEFF0EFEA814417390020130988
:1048900069909737002083C7078D0326C90163C13C
:1048A000F402328597100020E78080B701459737E2
:1048B000002023AF078E9737002023AD078EADBFB2
:1048C0009735002083D5058AB38795020844185C84
:1048D000898185043E9508C2029765BF411122C4B3
:1048E00017340020130444871C4426C206C64AC05D
:1048F000973400209384048A91EBC84C35E9B24088
:104900002244924402490145410182801C5CF5D752
:10491000DC4C99EF9305E00417350020035585849E
:1049200097100020E78020A69737002023A2A788B1
:10493000C84C61D5173600200356C6829305F00F88
:10494000EFF02FDF01499737002083C7C781D04C94
:10495000E355F9FA9735002083D5C58033852503C3
:104960001C44898105093E951C5C08C28297E1BF01
:1049700097100020E780C0AA9737002023AA07825B
:104980009737002023A807829DBF011156C2972A9E
:104990000020938A6A7C83A78A0022CC4AC84EC62C
:1049A00006CE26CA52C45AC0AA892E84328963858B
:1049B000072203A74A03630707147D476366A7140A
:1049C000972400209384047D03AAC40163170A0A74
:1049D0009565938515E0172500200355A578971058
:1049E0000020E780409A9727002023A3A77C2A86EF
:1049F000630A051083A74A0303A58A0097250020B0
:104A000083D545768981829783A78A0003AAC4014A
:104A1000172700202320F77A8947639CF908C147AC
:104A20006312F40E9725002083D5C573938505FC8A
:104A30009147B3C5F5028A05D29503C705009307D0
:104A4000A005631DF70A83C715006399370B4A85D4
:104A50002286910597000020E78020F8DC4C5285E3
:104A6000639347150145F2406244D2444249B2493A
:104A7000224A924A024B056182809850E38EE7F801
:104A80009565938525E0172500200355A56D9710A2
:104A90000020E780408F2A8A35C52A8683A74A03EB
:104AA00003A58A009725002083D5C56B898182974D
:104AB000A5B78D47639DF900C1476315F404972599
:104AC000002083D5256A938545FDF199B5B79147B7
:104AD000639AF900631834039725002083D585680D
:104AE000A115E5B7C147639FF900A14763EC8700B3
:104AF0009725002083D50567C115C1BFDC4C5285C1
:104B00006397470D294585B71307F006568B6361F8
:104B1000A70A130A05FE1947334AEA02172700209D
:104B200003574764972A0020938ACA66330AEA0229
:104B30003E9A83A70A026395470183A4CA019DE4B4
:104B40009305E004172500200355C5619710002048
:104B5000E7806083AA845DD583274B0397250020D7
:104B600083D545602A8689815285829791451307AE
:104B7000A005898193972500A69783C607006393B4
:104B8000E60483C61700639C360385058A052286E2
:104B9000A6954A8597000020E78020E483A7CA01F4
:104BA000E38297EC268597100020E78060875DBD43
:104BB0001307E007E368A7F4130A05F985B783D55F
:104BC000270045BF83A7CA01E38E97F22685971079
:104BD0000020E780E0843DB7972700209387875B1C
:104BE000CC4F8DD191479306A00589831397270059
:104BF0002E9703460700E317D6F003461700631C01
:104C0000360185078A072286BE954A8597000020CF
:104C1000E780A0DC81BD83572700C1BF9727002014
:104C200093878753984739C79C5FA9C70547631384
:104C3000E504411122C4172400201304A455504C4C
:104C400006C60DC608509725002083D5A551898139
:104C50008297484C97000020E780807C97270020AF
:104C600023A807549727002023A60754B2402244C4
:104C70004101828082800111172700201307C74D50
:104C80004EC68329870022CC26CA4AC806CE52C403
:104C900056C2AA842E843289638A09201C5FBA8A8C
:104CA00099EB2945F2406244D2444249B249224A32
:104CB000924A056182805C5BEDD7FD4763E9A70EF0
:104CC000972900209389094D83A7C901B1CB03A57A
:104CD0008A0083A709026395A70689476393F408AE
:104CE000C147E310F4FC172500200355A547914761
:104CF000130505FC3345F5029317250003A5C901EB
:104D00002286CA853E959307A0052300F500A300DF
:104D10009500110597000020E78020CC014559B788
:104D20009305E004172500200355C5439700002094
:104D3000E78060659727002023ACA74649F995B71F
:104D400083A74A0303A6C9019725002083D585417F
:104D50008981829783A78A0017270020232CF74494
:104D6000ADBF8D47639EF400C147E31CF4F21725E5
:104D700000200355253F130545FD9377C5FFBDBFB3
:104D80009147639AF400E31E94F017250020035521
:104D9000653D2115DDB7C147E395F4F0A147E3E296
:104DA00087F0172500200355E53B4115F9B7930718
:104DB000F00663EAA706930705FE1947B3C7E702A3
:104DC000172700200357073A172A0020130A8A3CA6
:104DD000B387E702BE998327CA01A9CF83270A02B6
:104DE000639A37070325CA0191461308A005FD55AC
:104DF00093D72600C207C183139727002A9703463B
:104E00000700631D060783481700035627006395B4
:104E10009806B306D64063CF860485078A072286A4
:104E2000CA853E95C5BD9307E007E3ECA7E6930767
:104E300005F979B79305E00417250020035585325D
:104E400097000020E78020549727002023A2A73650
:104E500051F581BD83A74A030326CA019725002087
:104E600083D5453089814E8582979727002023A3DB
:104E700037358DBFA300B700B2869DBFB3858600CE
:104E8000172600200356062E9105130606FCE3FAAA
:104E9000C5E0130634001376C60F1106B296230040
:104EA0000701A30097002311D70085BF9727002093
:104EB0009387472ED44FBE89A1C203A5C90191464D
:104EC0001308A005FD5593D72600C207C183139789
:104ED00027002A9703460700631606058348170034
:104EE0000356270063989800B306D640E3D786F2AE
:104EF000A300B700B286C1BF8357C70017250020A3
:104F0000034565269305E0043305F502420541811A
:104F100097000020E78020479727002023AAA72892
:104F200049FD41B3172600200356C62397250020CC
:104F300083C56523B385C502338686001106E3E287
:104F4000C5D681BF0145828083C705002300F500D7
:104F500083D72500A300F50083D72500A183230173
:104F6000F50083C74500A301F5001145828023A009
:104F7000019023AE018E828029C1411126C206C64E
:104F800022C4AA8401458DC52E8422854146978579
:104F90000100938565DF97000020E78000A483C7A8
:104FA000040005452306F40083C71400A306F4009B
:104FB000B240224492444101828001458280011125
:104FC00022CC26CA06CE0947AA8432846381E5042E
:104FD00041468147639BC500638FE6006397B60037
:104FE0000DA841478147638EE600F2406244D244F7
:104FF0003E85056182808A852285BD3F41468A853E
:1050000019A88A85953F41468A85228531A0E39A71
:10501000B6FC2E86A2852685EFE0DFF7AA87F1B7DA
:1050200023A0A1908280011122CC0354650006CEFA
:1050300026CA4AC84EC641C083298500AE842A8844
:1050400003C9090081471317890161876355070266
:10505000B147054563FA87045114420403552800FB
:10506000418033878900A2864E868545EF90B05EE9
:10507000B337A00085077D141355690042040589E4
:105080001379F90341802380F400A380A4002381D5
:10509000240123928400014719C01387190098C482
:1050A00009476383E7000145F2406244D244424924
:1050B000B249056182800545C5BFC167F917630A1A
:1050C000F502D94763F7B702011122CC2EC606CEEE
:1050D0002A84EF50D048B2456368B5002285624407
:1050E000F24005616F704057F2406244054505612A
:1050F000828005458280C167F9176314F5006F50FF
:105100001046411106C6EF70E04411E15D45B24022
:105110004101828039714ED656D25AD006DE22DC49
:1051200026DA4AD852D4AA8A2E8BB28941EF36C6E3
:10513000D937CD45EF503053AA844D492DC9B246D9
:10514000054A238034010544630A0B00B6851385A4
:105150001400029B0505131405014180E20993D94F
:10516000894163D30902C1455685EF70E04B65491B
:1051700005E933868400A2852685EF90D0112A891F
:1051800005E131044204418091472C085685231CD7
:10519000F10026CE231D8100EF6010582A8901C935
:1051A00063070A00268597000020E7806027F250F9
:1051B00062544A85D2544259B259225A925A025BD9
:1051C00021618280BA84014AADBF011122CC26CA76
:1051D0004AC84EC606CE2A893284B689253FAA849B
:1051E00005E1938701909C4381CF05476317E40055
:1051F00003C4090005041374F40FA2854A8582973D
:10520000F240624426854249D244B2490561828017
:10521000AE860147054697050000938525D375B7EF
:10522000011106CE2EC6EF70602F01C9B245F240C3
:105230000355250005616FA08055F2404945056181
:105240008280A38601922386019223AA019023AC37
:10525000019023AE019023A0019223A8019023A6E0
:105260000190972700209387E7F63707B40098C38B
:105270003747A000D8C3370710009306070A94C722
:10528000B7065000C106D4C7930607054107D8CB1F
:105290003707D007410798CF3707840398D337C71C
:1052A0000700130707B8D8D3416794CB93060701CB
:1052B000130717F8D8D7417723AE070094D798DBA8
:1052C0008280011126CAAA84214522CC06CE2E84D2
:1052D00032C636C43AC2EFE03F8F1DC9A24612471C
:1052E0003246930700FD2300F5009947A30095007F
:1052F0002301F5002303D500A303E5002312C50015
:10530000AA8522856244F240D24405616FE03F964F
:10531000F2406244D2440561828023AAA190828037
:1053200023ACA190828023AEA190828023A0A19281
:105330008280011122CC4AC806CE26CA2A8901449D
:10534000B30489006368B400F2406244D244424925
:10535000056182802EC6EFE01FA193170501C1836E
:10536000A183B2452380F4009307140093F7F70F4D
:10537000850463F9B700CA9709042380A700137452
:10538000F40F7DBF3E847DBFC16717250020035504
:1053900005E8FD176302F502411103C6819B938561
:1053A000419206C6EF60D078B240FD571727002023
:1053B000231FF7E441018280828009C925151375F6
:1053C000F50F1335850E1345150082800145828047
:1053D00023800500F94763E2C708797122D426D2F9
:1053E0004ECE56CA5AC806D64AD052CC5EC636846D
:1053F000B289AE8A2A8B814463FF3405B3079400D7
:1054000003CA0700138914001379F90F63050A040E
:10541000B3072A0163C1F904B307240183CB070052
:105420005E85613F0DC99307FAFF2380FA00639000
:105430006B03130519002295B2502254925402595D
:10544000F249624AD24A424BB24B45618280D294C1
:1054500093F4F40F55B70145C5B70145828041115A
:1054600026C2AE8422C49727002023A9C7DA972733
:10547000002023A3B7DA9727002023ADA7D82A84DA
:1054800041469305F00F26854AC006C60549EFE060
:105490007FB4631E2503972700209387E7D6884BA8
:1054A000C145413D41469305F00F2285EFE09FB293
:1054B0008544631695022244972700209387C7D41A
:1054C000B24092440249C847C14541019DB5414699
:1054D00081452685EFE01FB0E31625FD6DBF4146EF
:1054E00081452285EFE01FAFE30795FCB2402244DF
:1054F0009244024941018280411122C426C22E8475
:10550000AA84130600028145172500201305C5CF84
:1055100006C6EFE01FA297270020A38897CEA38D91
:10552000819AEFA04028854719C181474945B2407B
:105530002244172700202309F7CC9244410182809E
:10554000814781CD19C98547631BF50083C7550085
:1055500093E707FCA382F50085473E858280894753
:105560006317F50083C7550093F7F703E5B70D47B9
:105570008547E314E5FE03C755001377F703136768
:105580000704A382E500D1BF81478DC105C103C7D0
:1055900055009306000C85471377070C6308D70066
:1055A000930600048D476303D70089473E858280B8
:1055B000411122C4005D06C626C21DC8AA84085037
:1055C00009C597000020E780A0E5485009C597006D
:1055D0000020E780E0E4085409C597000020E78038
:1055E00020E4228597000020E78080E323AC0402BA
:1055F000B240224492444101828009ED9727002065
:1056000083C7A7C017250020130585C181CB13854B
:105610004190828017250020130585C082801725C0
:105620000020034585BE8280972700209387C7BD51
:10563000C847828097270020938707BD884B8280C8
:1056400097270020938747BCDC4B884382809727AD
:105650000020938767BBD84B1C4385071CC31725C5
:105660000020034595BA9307F00F6305F500916597
:105670006FE03F988280011122CC06CE2E8432C684
:10568000EF6010799147B245631FF500938701924F
:105690009C438DC303A30700630E0300228562446D
:1056A000F24005610283938781919C4381C703A3E4
:1056B0004700DDB7F2406244054505618280011173
:1056C00022CC2A840355450006CE26CA4AC84EC6B7
:1056D000EF60F05435C52A89834405008349C5002D
:1056E000C13D4A85EF70504C03554400EF60D06DCA
:1056F00083C7C192B1CB6399970483C5D1922685A4
:10570000EFF01FB219E12386019203554400EF60C8
:1057100030709147631FF50003574400972700201E
:1057200083D7E7AE6317F700FD5717270020231034
:10573000F7AEF2406244D2444249B24905618280E8
:1057400081499304F00F6DB79307F00FE38FF4FADC
:105750008346640003564400034524004E87A68513
:10576000EFF03FB65DB779715EC6AA8B2E8552CC3D
:1057700056CA5AC806D622D426D24AD04ECEAE8AAF
:10578000328B368AEF60B0496DC1045D2A89F1CC55
:105790009C50614599C3130540039C5481C7510532
:1057A0004205418163050A00710542054181DC50D3
:1057B00081C7590542054181EFE00FC12A8455C5D3
:1057C00061468145EFE0EFF69729002083C989A360
:1057D0006394090083490900930700FD2300F40046
:1057E000A947A30074012301F400230364018C5032
:1057F000231254011305840191C908C47146930A08
:10580000440397F0FF1FE780401D56858C5491C9D3
:1058100048C45146930A450197F0FF1FE780E01BFB
:105820005685630C0A0008C87146D285930AC501E3
:1058300097F0FF1FE780601A5685CC5099C548C87D
:10584000594697F0FF1FE7804019A2854E85EFE08B
:105850000FC22254B2509254F249624AD24A424B89
:10586000B24B4A8502594561A1B3B25022549254B9
:105870000259F249624AD24A424BB24B4561828098
:1058800001114EC6AA892E854AC806CE22CC26CA48
:105890002E89EF60D03831C59724002083C48496C8
:1058A00099E0834405001945EFE00FB22A8415C939
:1058B00081451946EFE0EFE7930700FD2300F40070
:1058C000B947A30034012301F40023122401A28567
:1058D0006244F2404249B2492685D24405616FE0F4
:1058E0000FB9F2406244D2444249B2490561828014
:1058F00039715ECEAA8B2E8526DA4ED652D456D278
:105900005AD006DE22DC4AD8AE84328BB68A3A8A76
:10591000BE8942C6EF60B03031C92A894145EFE007
:10592000AFAA2A8421C541468145EFE08FE01725C3
:1059300000200345258D19E103450900930700FD6B
:105940002300F400BD472301F400B247A300740113
:105950002312940023046401A30454012305440189
:10596000A30534015CC4A285EFE06FB0F25062542D
:10597000D2544259B259225A925A025BF24B2161D7
:105980008280797126D2AA8439454AD04ECE06D675
:1059900022D42EC6B2893689EFE00FA321C1B245C9
:1059A0009307000D2310F500B1472A842312B50098
:1059B0002301F500CE851905194697F0FF1FE780F2
:1059C000C00123062401A2852254B2500259F24993
:1059D00013F5F40F925445616FE06FA9B250225451
:1059E00092540259F24945618280172700200347EB
:1059F000D7819307F00F630DF706411126C2AA84E1
:105A0000394522C406C64AC0EFE00F9C2A8439C932
:105A1000930700FD2300F500A30095002301050076
:105A2000971500209385C57F0D05194697F0FF1F38
:105A3000E780A0FA171900201309097D8357890010
:105A4000A285171500200345557C2315F4008347D4
:105A500019002306F4002244B24092440249410155
:105A60006FE0EFA0B240224492440249410182809B
:105A70008280011156C2AA8A314526CA4AC84EC63A
:105A800052C406CE22CCAE84328AB6893A89EFE07F
:105A9000AF9329C92A842685EF6070181DCD034570
:105AA0000500930700FD2300F4009D47A300540167
:105AB0002301F4002312940023134401231434011E
:105AC00023152401A2856244F240D2444249B249DE
:105AD000224A924A05616FE08F991715002003450D
